{
	"CrowdFund.sol": {
		"CrowdFund": {
			"abi": [
				{
					"inputs": [
						{
							"internalType": "address",
							"name": "_token",
							"type": "address"
						}
					],
					"stateMutability": "nonpayable",
					"type": "constructor"
				},
				{
					"anonymous": false,
					"inputs": [
						{
							"indexed": false,
							"internalType": "uint256",
							"name": "id",
							"type": "uint256"
						}
					],
					"name": "Cancel",
					"type": "event"
				},
				{
					"anonymous": false,
					"inputs": [
						{
							"indexed": false,
							"internalType": "uint256",
							"name": "id",
							"type": "uint256"
						},
						{
							"indexed": true,
							"internalType": "address",
							"name": "creator",
							"type": "address"
						},
						{
							"indexed": false,
							"internalType": "uint256",
							"name": "goal",
							"type": "uint256"
						},
						{
							"indexed": false,
							"internalType": "uint32",
							"name": "startAt",
							"type": "uint32"
						},
						{
							"indexed": false,
							"internalType": "uint32",
							"name": "endAt",
							"type": "uint32"
						}
					],
					"name": "Launch",
					"type": "event"
				},
				{
					"anonymous": false,
					"inputs": [
						{
							"indexed": true,
							"internalType": "uint256",
							"name": "id",
							"type": "uint256"
						},
						{
							"indexed": true,
							"internalType": "address",
							"name": "caller",
							"type": "address"
						},
						{
							"indexed": false,
							"internalType": "uint256",
							"name": "amount",
							"type": "uint256"
						}
					],
					"name": "Pledge",
					"type": "event"
				},
				{
					"inputs": [
						{
							"internalType": "uint256",
							"name": "",
							"type": "uint256"
						}
					],
					"name": "campaigns",
					"outputs": [
						{
							"internalType": "address",
							"name": "creator",
							"type": "address"
						},
						{
							"internalType": "uint256",
							"name": "goal",
							"type": "uint256"
						},
						{
							"internalType": "uint256",
							"name": "pledged",
							"type": "uint256"
						},
						{
							"internalType": "uint32",
							"name": "startAt",
							"type": "uint32"
						},
						{
							"internalType": "uint32",
							"name": "endAt",
							"type": "uint32"
						},
						{
							"internalType": "bool",
							"name": "claimed",
							"type": "bool"
						}
					],
					"stateMutability": "view",
					"type": "function"
				},
				{
					"inputs": [
						{
							"internalType": "uint256",
							"name": "campaignId",
							"type": "uint256"
						}
					],
					"name": "cancel",
					"outputs": [],
					"stateMutability": "nonpayable",
					"type": "function"
				},
				{
					"inputs": [
						{
							"internalType": "uint256",
							"name": "campaignId",
							"type": "uint256"
						}
					],
					"name": "claim",
					"outputs": [],
					"stateMutability": "nonpayable",
					"type": "function"
				},
				{
					"inputs": [],
					"name": "count",
					"outputs": [
						{
							"internalType": "uint256",
							"name": "",
							"type": "uint256"
						}
					],
					"stateMutability": "view",
					"type": "function"
				},
				{
					"inputs": [
						{
							"internalType": "uint256",
							"name": "_goal",
							"type": "uint256"
						},
						{
							"internalType": "uint32",
							"name": "_startAt",
							"type": "uint32"
						},
						{
							"internalType": "uint32",
							"name": "_endAt",
							"type": "uint32"
						}
					],
					"name": "lunch",
					"outputs": [],
					"stateMutability": "nonpayable",
					"type": "function"
				},
				{
					"inputs": [
						{
							"internalType": "uint256",
							"name": "campaignId",
							"type": "uint256"
						},
						{
							"internalType": "uint256",
							"name": "amount",
							"type": "uint256"
						}
					],
					"name": "pledge",
					"outputs": [],
					"stateMutability": "nonpayable",
					"type": "function"
				},
				{
					"inputs": [
						{
							"internalType": "uint256",
							"name": "",
							"type": "uint256"
						},
						{
							"internalType": "address",
							"name": "",
							"type": "address"
						}
					],
					"name": "pledgedAmount",
					"outputs": [
						{
							"internalType": "uint256",
							"name": "",
							"type": "uint256"
						}
					],
					"stateMutability": "view",
					"type": "function"
				},
				{
					"inputs": [
						{
							"internalType": "uint256",
							"name": "campaignId",
							"type": "uint256"
						}
					],
					"name": "refund",
					"outputs": [],
					"stateMutability": "nonpayable",
					"type": "function"
				},
				{
					"inputs": [],
					"name": "token",
					"outputs": [
						{
							"internalType": "contract IERC20",
							"name": "",
							"type": "address"
						}
					],
					"stateMutability": "view",
					"type": "function"
				},
				{
					"inputs": [
						{
							"internalType": "uint256",
							"name": "campaignId",
							"type": "uint256"
						},
						{
							"internalType": "uint256",
							"name": "unpledgeAmount",
							"type": "uint256"
						}
					],
					"name": "unpledge",
					"outputs": [],
					"stateMutability": "nonpayable",
					"type": "function"
				}
			],
			"devdoc": {
				"kind": "dev",
				"methods": {},
				"version": 1
			},
			"evm": {
				"assembly": "    /* \"CrowdFund.sol\":86:3617  contract CrowdFund{\r... */\n  mstore(0x40, 0xa0)\n    /* \"CrowdFund.sol\":901:969  constructor(address _token){\r... */\n  callvalue\n  dup1\n  iszero\n  tag_1\n  jumpi\n  0x00\n  dup1\n  revert\ntag_1:\n  pop\n  mload(0x40)\n  sub(codesize, bytecodeSize)\n  dup1\n  bytecodeSize\n  dup4\n  codecopy\n  dup2\n  dup2\n  add\n  0x40\n  mstore\n  dup2\n  add\n  swap1\n  tag_2\n  swap2\n  swap1\n  tag_3\n  jump\t// in\ntag_2:\n    /* \"CrowdFund.sol\":954:960  _token */\n  dup1\n    /* \"CrowdFund.sol\":939:961  token = IERC20(_token) */\n  0xffffffffffffffffffffffffffffffffffffffff\n  and\n  0x80\n  dup2\n  0xffffffffffffffffffffffffffffffffffffffff\n  and\n  0x60\n  shl\n  dup2\n  mstore\n  pop\n  pop\n    /* \"CrowdFund.sol\":901:969  constructor(address _token){\r... */\n  pop\n    /* \"CrowdFund.sol\":86:3617  contract CrowdFund{\r... */\n  jump(tag_6)\n    /* \"#utility.yul\":7:150   */\ntag_8:\n    /* \"#utility.yul\":64:69   */\n  0x00\n    /* \"#utility.yul\":95:101   */\n  dup2\n    /* \"#utility.yul\":89:102   */\n  mload\n    /* \"#utility.yul\":80:102   */\n  swap1\n  pop\n    /* \"#utility.yul\":111:144   */\n  tag_10\n    /* \"#utility.yul\":138:143   */\n  dup2\n    /* \"#utility.yul\":111:144   */\n  tag_11\n  jump\t// in\ntag_10:\n    /* \"#utility.yul\":7:150   */\n  swap3\n  swap2\n  pop\n  pop\n  jump\t// out\n    /* \"#utility.yul\":156:507   */\ntag_3:\n    /* \"#utility.yul\":226:232   */\n  0x00\n    /* \"#utility.yul\":275:277   */\n  0x20\n    /* \"#utility.yul\":263:272   */\n  dup3\n    /* \"#utility.yul\":254:261   */\n  dup5\n    /* \"#utility.yul\":250:273   */\n  sub\n    /* \"#utility.yul\":246:278   */\n  slt\n    /* \"#utility.yul\":243:362   */\n  iszero\n  tag_13\n  jumpi\n    /* \"#utility.yul\":281:360   */\n  tag_14\n  tag_15\n  jump\t// in\ntag_14:\n    /* \"#utility.yul\":243:362   */\ntag_13:\n    /* \"#utility.yul\":401:402   */\n  0x00\n    /* \"#utility.yul\":426:490   */\n  tag_16\n    /* \"#utility.yul\":482:489   */\n  dup5\n    /* \"#utility.yul\":473:479   */\n  dup3\n    /* \"#utility.yul\":462:471   */\n  dup6\n    /* \"#utility.yul\":458:480   */\n  add\n    /* \"#utility.yul\":426:490   */\n  tag_8\n  jump\t// in\ntag_16:\n    /* \"#utility.yul\":416:490   */\n  swap2\n  pop\n    /* \"#utility.yul\":372:500   */\n  pop\n    /* \"#utility.yul\":156:507   */\n  swap3\n  swap2\n  pop\n  pop\n  jump\t// out\n    /* \"#utility.yul\":594:690   */\ntag_19:\n    /* \"#utility.yul\":631:638   */\n  0x00\n    /* \"#utility.yul\":660:684   */\n  tag_21\n    /* \"#utility.yul\":678:683   */\n  dup3\n    /* \"#utility.yul\":660:684   */\n  tag_22\n  jump\t// in\ntag_21:\n    /* \"#utility.yul\":649:684   */\n  swap1\n  pop\n    /* \"#utility.yul\":594:690   */\n  swap2\n  swap1\n  pop\n  jump\t// out\n    /* \"#utility.yul\":696:822   */\ntag_22:\n    /* \"#utility.yul\":733:740   */\n  0x00\n    /* \"#utility.yul\":773:815   */\n  0xffffffffffffffffffffffffffffffffffffffff\n    /* \"#utility.yul\":766:771   */\n  dup3\n    /* \"#utility.yul\":762:816   */\n  and\n    /* \"#utility.yul\":751:816   */\n  swap1\n  pop\n    /* \"#utility.yul\":696:822   */\n  swap2\n  swap1\n  pop\n  jump\t// out\n    /* \"#utility.yul\":951:1068   */\ntag_15:\n    /* \"#utility.yul\":1060:1061   */\n  0x00\n    /* \"#utility.yul\":1057:1058   */\n  dup1\n    /* \"#utility.yul\":1050:1062   */\n  revert\n    /* \"#utility.yul\":1074:1196   */\ntag_11:\n    /* \"#utility.yul\":1147:1171   */\n  tag_28\n    /* \"#utility.yul\":1165:1170   */\n  dup2\n    /* \"#utility.yul\":1147:1171   */\n  tag_19\n  jump\t// in\ntag_28:\n    /* \"#utility.yul\":1140:1145   */\n  dup2\n    /* \"#utility.yul\":1137:1172   */\n  eq\n    /* \"#utility.yul\":1127:1190   */\n  tag_29\n  jumpi\n    /* \"#utility.yul\":1186:1187   */\n  0x00\n    /* \"#utility.yul\":1183:1184   */\n  dup1\n    /* \"#utility.yul\":1176:1188   */\n  revert\n    /* \"#utility.yul\":1127:1190   */\ntag_29:\n    /* \"#utility.yul\":1074:1196   */\n  pop\n  jump\t// out\n    /* \"CrowdFund.sol\":86:3617  contract CrowdFund{\r... */\ntag_6:\n  shr(0x60, mload(0x80))\n  codecopy(0x00, dataOffset(sub_0), dataSize(sub_0))\n  0x00\n  assignImmutable(\"0x8fef2229291b68be841adf029e58b87f39ba144b2d3b0af1760243d0a9bc6a1c\")\n  return(0x00, dataSize(sub_0))\nstop\n\nsub_0: assembly {\n        /* \"CrowdFund.sol\":86:3617  contract CrowdFund{\r... */\n      mstore(0x40, 0x80)\n      callvalue\n      dup1\n      iszero\n      tag_1\n      jumpi\n      0x00\n      dup1\n      revert\n    tag_1:\n      pop\n      jumpi(tag_2, lt(calldatasize, 0x04))\n      shr(0xe0, calldataload(0x00))\n      dup1\n      0x711853ab\n      gt\n      tag_13\n      jumpi\n      dup1\n      0x711853ab\n      eq\n      tag_8\n      jumpi\n      dup1\n      0xaa4fb63a\n      eq\n      tag_9\n      jumpi\n      dup1\n      0xdaf69940\n      eq\n      tag_10\n      jumpi\n      dup1\n      0xfc0c546a\n      eq\n      tag_11\n      jumpi\n      dup1\n      0xfde327be\n      eq\n      tag_12\n      jumpi\n      jump(tag_2)\n    tag_13:\n      dup1\n      0x06661abd\n      eq\n      tag_3\n      jumpi\n      dup1\n      0x141961bc\n      eq\n      tag_4\n      jumpi\n      dup1\n      0x278ecde1\n      eq\n      tag_5\n      jumpi\n      dup1\n      0x379607f5\n      eq\n      tag_6\n      jumpi\n      dup1\n      0x40e58ee5\n      eq\n      tag_7\n      jumpi\n    tag_2:\n      0x00\n      dup1\n      revert\n        /* \"CrowdFund.sol\":819:836  uint public count */\n    tag_3:\n      tag_14\n      tag_15\n      jump\t// in\n    tag_14:\n      mload(0x40)\n      tag_16\n      swap2\n      swap1\n      tag_17\n      jump\t// in\n    tag_16:\n      mload(0x40)\n      dup1\n      swap2\n      sub\n      swap1\n      return\n        /* \"CrowdFund.sol\":701:743  mapping(uint => Campaign) public campaigns */\n    tag_4:\n      tag_18\n      0x04\n      dup1\n      calldatasize\n      sub\n      dup2\n      add\n      swap1\n      tag_19\n      swap2\n      swap1\n      tag_20\n      jump\t// in\n    tag_19:\n      tag_21\n      jump\t// in\n    tag_18:\n      mload(0x40)\n      tag_22\n      swap7\n      swap6\n      swap5\n      swap4\n      swap3\n      swap2\n      swap1\n      tag_23\n      jump\t// in\n    tag_22:\n      mload(0x40)\n      dup1\n      swap2\n      sub\n      swap1\n      return\n        /* \"CrowdFund.sol\":3566:3610  function refund(uint campaignId) external {} */\n    tag_5:\n      tag_24\n      0x04\n      dup1\n      calldatasize\n      sub\n      dup2\n      add\n      swap1\n      tag_25\n      swap2\n      swap1\n      tag_20\n      jump\t// in\n    tag_25:\n      tag_26\n      jump\t// in\n    tag_24:\n      stop\n        /* \"CrowdFund.sol\":3400:3443  function claim(uint campaignId) external {} */\n    tag_6:\n      tag_27\n      0x04\n      dup1\n      calldatasize\n      sub\n      dup2\n      add\n      swap1\n      tag_28\n      swap2\n      swap1\n      tag_20\n      jump\t// in\n    tag_28:\n      tag_29\n      jump\t// in\n    tag_27:\n      stop\n        /* \"CrowdFund.sol\":2177:2518  function cancel(uint campaignId) external {\r... */\n    tag_7:\n      tag_30\n      0x04\n      dup1\n      calldatasize\n      sub\n      dup2\n      add\n      swap1\n      tag_31\n      swap2\n      swap1\n      tag_20\n      jump\t// in\n    tag_31:\n      tag_32\n      jump\t// in\n    tag_30:\n      stop\n        /* \"CrowdFund.sol\":3210:3277  function unpledge(uint campaignId, uint unpledgeAmount) external {} */\n    tag_8:\n      tag_33\n      0x04\n      dup1\n      calldatasize\n      sub\n      dup2\n      add\n      swap1\n      tag_34\n      swap2\n      swap1\n      tag_35\n      jump\t// in\n    tag_34:\n      tag_36\n      jump\t// in\n    tag_33:\n      stop\n        /* \"CrowdFund.sol\":750:812  mapping(uint => mapping(address => uint)) public pledgedAmount */\n    tag_9:\n      tag_37\n      0x04\n      dup1\n      calldatasize\n      sub\n      dup2\n      add\n      swap1\n      tag_38\n      swap2\n      swap1\n      tag_39\n      jump\t// in\n    tag_38:\n      tag_40\n      jump\t// in\n    tag_37:\n      mload(0x40)\n      tag_41\n      swap2\n      swap1\n      tag_17\n      jump\t// in\n    tag_41:\n      mload(0x40)\n      dup1\n      swap2\n      sub\n      swap1\n      return\n        /* \"CrowdFund.sol\":1485:2071  function lunch(uint _goal, uint32 _startAt, uint32 _endAt) external {\r... */\n    tag_10:\n      tag_42\n      0x04\n      dup1\n      calldatasize\n      sub\n      dup2\n      add\n      swap1\n      tag_43\n      swap2\n      swap1\n      tag_44\n      jump\t// in\n    tag_43:\n      tag_45\n      jump\t// in\n    tag_42:\n      stop\n        /* \"CrowdFund.sol\":665:694  IERC20 public immutable token */\n    tag_11:\n      tag_46\n      tag_47\n      jump\t// in\n    tag_46:\n      mload(0x40)\n      tag_48\n      swap2\n      swap1\n      tag_49\n      jump\t// in\n    tag_48:\n      mload(0x40)\n      dup1\n      swap2\n      sub\n      swap1\n      return\n        /* \"CrowdFund.sol\":2612:3112  function pledge(uint campaignId, uint amount) external {\r... */\n    tag_12:\n      tag_50\n      0x04\n      dup1\n      calldatasize\n      sub\n      dup2\n      add\n      swap1\n      tag_51\n      swap2\n      swap1\n      tag_35\n      jump\t// in\n    tag_51:\n      tag_52\n      jump\t// in\n    tag_50:\n      stop\n        /* \"CrowdFund.sol\":819:836  uint public count */\n    tag_15:\n      sload(0x02)\n      dup2\n      jump\t// out\n        /* \"CrowdFund.sol\":701:743  mapping(uint => Campaign) public campaigns */\n    tag_21:\n      mstore(0x20, 0x00)\n      dup1\n      0x00\n      mstore\n      keccak256(0x00, 0x40)\n      0x00\n      swap2\n      pop\n      swap1\n      pop\n      dup1\n      0x00\n      add\n      0x00\n      swap1\n      sload\n      swap1\n      0x0100\n      exp\n      swap1\n      div\n      0xffffffffffffffffffffffffffffffffffffffff\n      and\n      swap1\n      dup1\n      0x01\n      add\n      sload\n      swap1\n      dup1\n      0x02\n      add\n      sload\n      swap1\n      dup1\n      0x03\n      add\n      0x00\n      swap1\n      sload\n      swap1\n      0x0100\n      exp\n      swap1\n      div\n      0xffffffff\n      and\n      swap1\n      dup1\n      0x03\n      add\n      0x04\n      swap1\n      sload\n      swap1\n      0x0100\n      exp\n      swap1\n      div\n      0xffffffff\n      and\n      swap1\n      dup1\n      0x03\n      add\n      0x08\n      swap1\n      sload\n      swap1\n      0x0100\n      exp\n      swap1\n      div\n      0xff\n      and\n      swap1\n      pop\n      dup7\n      jump\t// out\n        /* \"CrowdFund.sol\":3566:3610  function refund(uint campaignId) external {} */\n    tag_26:\n      pop\n      jump\t// out\n        /* \"CrowdFund.sol\":3400:3443  function claim(uint campaignId) external {} */\n    tag_29:\n      pop\n      jump\t// out\n        /* \"CrowdFund.sol\":2177:2518  function cancel(uint campaignId) external {\r... */\n    tag_32:\n        /* \"CrowdFund.sol\":2230:2254  Campaign memory campaign */\n      0x00\n        /* \"CrowdFund.sol\":2257:2266  campaigns */\n      dup1\n        /* \"CrowdFund.sol\":2257:2278  campaigns[campaignId] */\n      0x00\n        /* \"CrowdFund.sol\":2267:2277  campaignId */\n      dup4\n        /* \"CrowdFund.sol\":2257:2278  campaigns[campaignId] */\n      dup2\n      mstore\n      0x20\n      add\n      swap1\n      dup2\n      mstore\n      0x20\n      add\n      0x00\n      keccak256\n        /* \"CrowdFund.sol\":2230:2278  Campaign memory campaign = campaigns[campaignId] */\n      mload(0x40)\n      dup1\n      0xc0\n      add\n      0x40\n      mstore\n      swap1\n      dup2\n      0x00\n      dup3\n      add\n      0x00\n      swap1\n      sload\n      swap1\n      0x0100\n      exp\n      swap1\n      div\n      0xffffffffffffffffffffffffffffffffffffffff\n      and\n      0xffffffffffffffffffffffffffffffffffffffff\n      and\n      0xffffffffffffffffffffffffffffffffffffffff\n      and\n      dup2\n      mstore\n      0x20\n      add\n      0x01\n      dup3\n      add\n      sload\n      dup2\n      mstore\n      0x20\n      add\n      0x02\n      dup3\n      add\n      sload\n      dup2\n      mstore\n      0x20\n      add\n      0x03\n      dup3\n      add\n      0x00\n      swap1\n      sload\n      swap1\n      0x0100\n      exp\n      swap1\n      div\n      0xffffffff\n      and\n      0xffffffff\n      and\n      0xffffffff\n      and\n      dup2\n      mstore\n      0x20\n      add\n      0x03\n      dup3\n      add\n      0x04\n      swap1\n      sload\n      swap1\n      0x0100\n      exp\n      swap1\n      div\n      0xffffffff\n      and\n      0xffffffff\n      and\n      0xffffffff\n      and\n      dup2\n      mstore\n      0x20\n      add\n      0x03\n      dup3\n      add\n      0x08\n      swap1\n      sload\n      swap1\n      0x0100\n      exp\n      swap1\n      div\n      0xff\n      and\n      iszero\n      iszero\n      iszero\n      iszero\n      dup2\n      mstore\n      pop\n      pop\n      swap1\n      pop\n        /* \"CrowdFund.sol\":2311:2319  campaign */\n      dup1\n        /* \"CrowdFund.sol\":2311:2327  campaign.creator */\n      0x00\n      add\n      mload\n        /* \"CrowdFund.sol\":2297:2327  msg.sender == campaign.creator */\n      0xffffffffffffffffffffffffffffffffffffffff\n      and\n        /* \"CrowdFund.sol\":2297:2307  msg.sender */\n      caller\n        /* \"CrowdFund.sol\":2297:2327  msg.sender == campaign.creator */\n      0xffffffffffffffffffffffffffffffffffffffff\n      and\n      eq\n        /* \"CrowdFund.sol\":2289:2352  require(msg.sender == campaign.creator, \"You must be creator!\") */\n      tag_56\n      jumpi\n      mload(0x40)\n      0x08c379a000000000000000000000000000000000000000000000000000000000\n      dup2\n      mstore\n      0x04\n      add\n      tag_57\n      swap1\n      tag_58\n      jump\t// in\n    tag_57:\n      mload(0x40)\n      dup1\n      swap2\n      sub\n      swap1\n      revert\n    tag_56:\n        /* \"CrowdFund.sol\":2389:2397  campaign */\n      dup1\n        /* \"CrowdFund.sol\":2389:2405  campaign.startAt */\n      0x60\n      add\n      mload\n        /* \"CrowdFund.sol\":2371:2405  block.timestamp < campaign.startAt */\n      0xffffffff\n      and\n        /* \"CrowdFund.sol\":2371:2386  block.timestamp */\n      timestamp\n        /* \"CrowdFund.sol\":2371:2405  block.timestamp < campaign.startAt */\n      lt\n        /* \"CrowdFund.sol\":2363:2435  require(block.timestamp < campaign.startAt, \"Campaign already started!\") */\n      tag_59\n      jumpi\n      mload(0x40)\n      0x08c379a000000000000000000000000000000000000000000000000000000000\n      dup2\n      mstore\n      0x04\n      add\n      tag_60\n      swap1\n      tag_61\n      jump\t// in\n    tag_60:\n      mload(0x40)\n      dup1\n      swap2\n      sub\n      swap1\n      revert\n    tag_59:\n        /* \"CrowdFund.sol\":2453:2462  campaigns */\n      0x00\n        /* \"CrowdFund.sol\":2453:2474  campaigns[campaignId] */\n      dup1\n        /* \"CrowdFund.sol\":2463:2473  campaignId */\n      dup4\n        /* \"CrowdFund.sol\":2453:2474  campaigns[campaignId] */\n      dup2\n      mstore\n      0x20\n      add\n      swap1\n      dup2\n      mstore\n      0x20\n      add\n      0x00\n      keccak256\n      0x00\n        /* \"CrowdFund.sol\":2446:2474  delete campaigns[campaignId] */\n      dup1\n      dup3\n      add\n      exp(0x0100, 0x00)\n      dup2\n      sload\n      swap1\n      0xffffffffffffffffffffffffffffffffffffffff\n      mul\n      not\n      and\n      swap1\n      sstore\n      0x01\n      dup3\n      add\n      0x00\n      swap1\n      sstore\n      0x02\n      dup3\n      add\n      0x00\n      swap1\n      sstore\n      0x03\n      dup3\n      add\n      exp(0x0100, 0x00)\n      dup2\n      sload\n      swap1\n      0xffffffff\n      mul\n      not\n      and\n      swap1\n      sstore\n      0x03\n      dup3\n      add\n      exp(0x0100, 0x04)\n      dup2\n      sload\n      swap1\n      0xffffffff\n      mul\n      not\n      and\n      swap1\n      sstore\n      0x03\n      dup3\n      add\n      exp(0x0100, 0x08)\n      dup2\n      sload\n      swap1\n      0xff\n      mul\n      not\n      and\n      swap1\n      sstore\n      pop\n      pop\n        /* \"CrowdFund.sol\":2492:2510  Cancel(campaignId) */\n      0x8bf30e7ff26833413be5f69e1d373744864d600b664204b4a2f9844a8eedb9ed\n        /* \"CrowdFund.sol\":2499:2509  campaignId */\n      dup3\n        /* \"CrowdFund.sol\":2492:2510  Cancel(campaignId) */\n      mload(0x40)\n      tag_62\n      swap2\n      swap1\n      tag_17\n      jump\t// in\n    tag_62:\n      mload(0x40)\n      dup1\n      swap2\n      sub\n      swap1\n      log1\n        /* \"CrowdFund.sol\":2219:2518  {\r... */\n      pop\n        /* \"CrowdFund.sol\":2177:2518  function cancel(uint campaignId) external {\r... */\n      pop\n      jump\t// out\n        /* \"CrowdFund.sol\":3210:3277  function unpledge(uint campaignId, uint unpledgeAmount) external {} */\n    tag_36:\n      pop\n      pop\n      jump\t// out\n        /* \"CrowdFund.sol\":750:812  mapping(uint => mapping(address => uint)) public pledgedAmount */\n    tag_40:\n      mstore(0x20, 0x01)\n      dup2\n      0x00\n      mstore\n      mstore(0x20, keccak256(0x00, 0x40))\n      dup1\n      0x00\n      mstore\n      keccak256(0x00, 0x40)\n      0x00\n      swap2\n      pop\n      swap2\n      pop\n      pop\n      sload\n      dup2\n      jump\t// out\n        /* \"CrowdFund.sol\":1485:2071  function lunch(uint _goal, uint32 _startAt, uint32 _endAt) external {\r... */\n    tag_45:\n        /* \"CrowdFund.sol\":1584:1599  block.timestamp */\n      timestamp\n        /* \"CrowdFund.sol\":1572:1580  _startAt */\n      dup3\n        /* \"CrowdFund.sol\":1572:1599  _startAt >= block.timestamp */\n      0xffffffff\n      and\n      lt\n      iszero\n        /* \"CrowdFund.sol\":1564:1618  require(_startAt >= block.timestamp, \"start at < now\") */\n      tag_65\n      jumpi\n      mload(0x40)\n      0x08c379a000000000000000000000000000000000000000000000000000000000\n      dup2\n      mstore\n      0x04\n      add\n      tag_66\n      swap1\n      tag_67\n      jump\t// in\n    tag_66:\n      mload(0x40)\n      dup1\n      swap2\n      sub\n      swap1\n      revert\n    tag_65:\n        /* \"CrowdFund.sol\":1649:1655  _endAt */\n      dup1\n        /* \"CrowdFund.sol\":1637:1655  _startAt <= _endAt */\n      0xffffffff\n      and\n        /* \"CrowdFund.sol\":1637:1645  _startAt */\n      dup3\n        /* \"CrowdFund.sol\":1637:1655  _startAt <= _endAt */\n      0xffffffff\n      and\n      gt\n      iszero\n        /* \"CrowdFund.sol\":1629:1674  require(_startAt <= _endAt, \"start at < now\") */\n      tag_68\n      jumpi\n      mload(0x40)\n      0x08c379a000000000000000000000000000000000000000000000000000000000\n      dup2\n      mstore\n      0x04\n      add\n      tag_69\n      swap1\n      tag_67\n      jump\t// in\n    tag_69:\n      mload(0x40)\n      dup1\n      swap2\n      sub\n      swap1\n      revert\n    tag_68:\n        /* \"CrowdFund.sol\":1721:1728  90 days */\n      0x76a700\n        /* \"CrowdFund.sol\":1703:1718  block.timestamp */\n      timestamp\n        /* \"CrowdFund.sol\":1703:1728  block.timestamp + 90 days */\n      tag_70\n      swap2\n      swap1\n      tag_71\n      jump\t// in\n    tag_70:\n        /* \"CrowdFund.sol\":1693:1699  _endAt */\n      dup2\n        /* \"CrowdFund.sol\":1693:1728  _endAt <= block.timestamp + 90 days */\n      0xffffffff\n      and\n      gt\n      iszero\n        /* \"CrowdFund.sol\":1685:1747  require(_endAt <= block.timestamp + 90 days, \"start at < now\") */\n      tag_72\n      jumpi\n      mload(0x40)\n      0x08c379a000000000000000000000000000000000000000000000000000000000\n      dup2\n      mstore\n      0x04\n      add\n      tag_73\n      swap1\n      tag_67\n      jump\t// in\n    tag_73:\n      mload(0x40)\n      dup1\n      swap2\n      sub\n      swap1\n      revert\n    tag_72:\n        /* \"CrowdFund.sol\":1769:1770  1 */\n      0x01\n        /* \"CrowdFund.sol\":1760:1765  count */\n      0x02\n      0x00\n        /* \"CrowdFund.sol\":1760:1770  count += 1 */\n      dup3\n      dup3\n      sload\n      tag_74\n      swap2\n      swap1\n      tag_71\n      jump\t// in\n    tag_74:\n      swap3\n      pop\n      pop\n      dup2\n      swap1\n      sstore\n      pop\n        /* \"CrowdFund.sol\":1800:1995  Campaign({\r... */\n      mload(0x40)\n      dup1\n      0xc0\n      add\n      0x40\n      mstore\n      dup1\n        /* \"CrowdFund.sol\":1833:1843  msg.sender */\n      caller\n        /* \"CrowdFund.sol\":1800:1995  Campaign({\r... */\n      0xffffffffffffffffffffffffffffffffffffffff\n      and\n      dup2\n      mstore\n      0x20\n      add\n        /* \"CrowdFund.sol\":1889:1894  _goal */\n      dup5\n        /* \"CrowdFund.sol\":1800:1995  Campaign({\r... */\n      dup2\n      mstore\n      0x20\n      add\n        /* \"CrowdFund.sol\":1867:1868  0 */\n      0x00\n        /* \"CrowdFund.sol\":1800:1995  Campaign({\r... */\n      dup2\n      mstore\n      0x20\n      add\n        /* \"CrowdFund.sol\":1918:1926  _startAt */\n      dup4\n        /* \"CrowdFund.sol\":1800:1995  Campaign({\r... */\n      0xffffffff\n      and\n      dup2\n      mstore\n      0x20\n      add\n        /* \"CrowdFund.sol\":1948:1954  _endAt */\n      dup3\n        /* \"CrowdFund.sol\":1800:1995  Campaign({\r... */\n      0xffffffff\n      and\n      dup2\n      mstore\n      0x20\n      add\n        /* \"CrowdFund.sol\":1978:1983  false */\n      0x00\n        /* \"CrowdFund.sol\":1800:1995  Campaign({\r... */\n      iszero\n      iszero\n      dup2\n      mstore\n      pop\n        /* \"CrowdFund.sol\":1781:1790  campaigns */\n      0x00\n        /* \"CrowdFund.sol\":1781:1797  campaigns[count] */\n      dup1\n        /* \"CrowdFund.sol\":1791:1796  count */\n      sload(0x02)\n        /* \"CrowdFund.sol\":1781:1797  campaigns[count] */\n      dup2\n      mstore\n      0x20\n      add\n      swap1\n      dup2\n      mstore\n      0x20\n      add\n      0x00\n      keccak256\n        /* \"CrowdFund.sol\":1781:1995  campaigns[count] = Campaign({\r... */\n      0x00\n      dup3\n      add\n      mload\n      dup2\n      0x00\n      add\n      exp(0x0100, 0x00)\n      dup2\n      sload\n      dup2\n      0xffffffffffffffffffffffffffffffffffffffff\n      mul\n      not\n      and\n      swap1\n      dup4\n      0xffffffffffffffffffffffffffffffffffffffff\n      and\n      mul\n      or\n      swap1\n      sstore\n      pop\n      0x20\n      dup3\n      add\n      mload\n      dup2\n      0x01\n      add\n      sstore\n      0x40\n      dup3\n      add\n      mload\n      dup2\n      0x02\n      add\n      sstore\n      0x60\n      dup3\n      add\n      mload\n      dup2\n      0x03\n      add\n      exp(0x0100, 0x00)\n      dup2\n      sload\n      dup2\n      0xffffffff\n      mul\n      not\n      and\n      swap1\n      dup4\n      0xffffffff\n      and\n      mul\n      or\n      swap1\n      sstore\n      pop\n      0x80\n      dup3\n      add\n      mload\n      dup2\n      0x03\n      add\n      exp(0x0100, 0x04)\n      dup2\n      sload\n      dup2\n      0xffffffff\n      mul\n      not\n      and\n      swap1\n      dup4\n      0xffffffff\n      and\n      mul\n      or\n      swap1\n      sstore\n      pop\n      0xa0\n      dup3\n      add\n      mload\n      dup2\n      0x03\n      add\n      exp(0x0100, 0x08)\n      dup2\n      sload\n      dup2\n      0xff\n      mul\n      not\n      and\n      swap1\n      dup4\n      iszero\n      iszero\n      mul\n      or\n      swap1\n      sstore\n      pop\n      swap1\n      pop\n      pop\n        /* \"CrowdFund.sol\":2027:2037  msg.sender */\n      caller\n        /* \"CrowdFund.sol\":2013:2063  Launch(count, msg.sender, _goal, _startAt, _endAt) */\n      0xffffffffffffffffffffffffffffffffffffffff\n      and\n      0x0601cd0d650b473037e838a2696d41e654433d065b3f56b28d1d3302e44a304f\n        /* \"CrowdFund.sol\":2020:2025  count */\n      sload(0x02)\n        /* \"CrowdFund.sol\":2039:2044  _goal */\n      dup6\n        /* \"CrowdFund.sol\":2046:2054  _startAt */\n      dup6\n        /* \"CrowdFund.sol\":2056:2062  _endAt */\n      dup6\n        /* \"CrowdFund.sol\":2013:2063  Launch(count, msg.sender, _goal, _startAt, _endAt) */\n      mload(0x40)\n      tag_75\n      swap5\n      swap4\n      swap3\n      swap2\n      swap1\n      tag_76\n      jump\t// in\n    tag_75:\n      mload(0x40)\n      dup1\n      swap2\n      sub\n      swap1\n      log2\n        /* \"CrowdFund.sol\":1485:2071  function lunch(uint _goal, uint32 _startAt, uint32 _endAt) external {\r... */\n      pop\n      pop\n      pop\n      jump\t// out\n        /* \"CrowdFund.sol\":665:694  IERC20 public immutable token */\n    tag_47:\n      immutable(\"0x8fef2229291b68be841adf029e58b87f39ba144b2d3b0af1760243d0a9bc6a1c\")\n      dup2\n      jump\t// out\n        /* \"CrowdFund.sol\":2612:3112  function pledge(uint campaignId, uint amount) external {\r... */\n    tag_52:\n        /* \"CrowdFund.sol\":2678:2703  Campaign storage campaign */\n      0x00\n        /* \"CrowdFund.sol\":2706:2715  campaigns */\n      dup1\n        /* \"CrowdFund.sol\":2706:2727  campaigns[campaignId] */\n      0x00\n        /* \"CrowdFund.sol\":2716:2726  campaignId */\n      dup5\n        /* \"CrowdFund.sol\":2706:2727  campaigns[campaignId] */\n      dup2\n      mstore\n      0x20\n      add\n      swap1\n      dup2\n      mstore\n      0x20\n      add\n      0x00\n      keccak256\n        /* \"CrowdFund.sol\":2678:2727  Campaign storage campaign = campaigns[campaignId] */\n      swap1\n      pop\n        /* \"CrowdFund.sol\":2766:2781  block.timestamp */\n      timestamp\n        /* \"CrowdFund.sol\":2746:2754  campaign */\n      dup2\n        /* \"CrowdFund.sol\":2746:2762  campaign.startAt */\n      0x03\n      add\n      0x00\n      swap1\n      sload\n      swap1\n      0x0100\n      exp\n      swap1\n      div\n      0xffffffff\n      and\n        /* \"CrowdFund.sol\":2746:2781  campaign.startAt <= block.timestamp */\n      0xffffffff\n      and\n      gt\n      iszero\n        /* \"CrowdFund.sol\":2738:2807  require(campaign.startAt <= block.timestamp, \"Campaign not started!\") */\n      tag_78\n      jumpi\n      mload(0x40)\n      0x08c379a000000000000000000000000000000000000000000000000000000000\n      dup2\n      mstore\n      0x04\n      add\n      tag_79\n      swap1\n      tag_80\n      jump\t// in\n    tag_79:\n      mload(0x40)\n      dup1\n      swap2\n      sub\n      swap1\n      revert\n    tag_78:\n        /* \"CrowdFund.sol\":2844:2859  block.timestamp */\n      timestamp\n        /* \"CrowdFund.sol\":2826:2834  campaign */\n      dup2\n        /* \"CrowdFund.sol\":2826:2840  campaign.endAt */\n      0x03\n      add\n      0x04\n      swap1\n      sload\n      swap1\n      0x0100\n      exp\n      swap1\n      div\n      0xffffffff\n      and\n        /* \"CrowdFund.sol\":2826:2859  campaign.endAt >= block.timestamp */\n      0xffffffff\n      and\n      lt\n      iszero\n        /* \"CrowdFund.sol\":2818:2887  require(campaign.endAt >= block.timestamp, \"Campaign already ended!\") */\n      tag_81\n      jumpi\n      mload(0x40)\n      0x08c379a000000000000000000000000000000000000000000000000000000000\n      dup2\n      mstore\n      0x04\n      add\n      tag_82\n      swap1\n      tag_83\n      jump\t// in\n    tag_82:\n      mload(0x40)\n      dup1\n      swap2\n      sub\n      swap1\n      revert\n    tag_81:\n        /* \"CrowdFund.sol\":2918:2924  amount */\n      dup2\n        /* \"CrowdFund.sol\":2898:2906  campaign */\n      dup2\n        /* \"CrowdFund.sol\":2898:2914  campaign.pledged */\n      0x02\n      add\n      0x00\n        /* \"CrowdFund.sol\":2898:2924  campaign.pledged += amount */\n      dup3\n      dup3\n      sload\n      tag_84\n      swap2\n      swap1\n      tag_71\n      jump\t// in\n    tag_84:\n      swap3\n      pop\n      pop\n      dup2\n      swap1\n      sstore\n      pop\n        /* \"CrowdFund.sol\":2978:2984  amount */\n      dup2\n        /* \"CrowdFund.sol\":2937:2950  pledgedAmount */\n      0x01\n        /* \"CrowdFund.sol\":2937:2962  pledgedAmount[campaignId] */\n      0x00\n        /* \"CrowdFund.sol\":2951:2961  campaignId */\n      dup6\n        /* \"CrowdFund.sol\":2937:2962  pledgedAmount[campaignId] */\n      dup2\n      mstore\n      0x20\n      add\n      swap1\n      dup2\n      mstore\n      0x20\n      add\n      0x00\n      keccak256\n        /* \"CrowdFund.sol\":2937:2974  pledgedAmount[campaignId][msg.sender] */\n      0x00\n        /* \"CrowdFund.sol\":2963:2973  msg.sender */\n      caller\n        /* \"CrowdFund.sol\":2937:2974  pledgedAmount[campaignId][msg.sender] */\n      0xffffffffffffffffffffffffffffffffffffffff\n      and\n      0xffffffffffffffffffffffffffffffffffffffff\n      and\n      dup2\n      mstore\n      0x20\n      add\n      swap1\n      dup2\n      mstore\n      0x20\n      add\n      0x00\n      keccak256\n      0x00\n        /* \"CrowdFund.sol\":2937:2984  pledgedAmount[campaignId][msg.sender] += amount */\n      dup3\n      dup3\n      sload\n      tag_85\n      swap2\n      swap1\n      tag_71\n      jump\t// in\n    tag_85:\n      swap3\n      pop\n      pop\n      dup2\n      swap1\n      sstore\n      pop\n        /* \"CrowdFund.sol\":2995:3000  token */\n      immutable(\"0x8fef2229291b68be841adf029e58b87f39ba144b2d3b0af1760243d0a9bc6a1c\")\n        /* \"CrowdFund.sol\":2995:3013  token.transferFrom */\n      0xffffffffffffffffffffffffffffffffffffffff\n      and\n      0x23b872dd\n        /* \"CrowdFund.sol\":3014:3024  msg.sender */\n      caller\n        /* \"CrowdFund.sol\":3034:3038  this */\n      address\n        /* \"CrowdFund.sol\":3041:3047  amount */\n      dup6\n        /* \"CrowdFund.sol\":2995:3048  token.transferFrom(msg.sender, address(this), amount) */\n      mload(0x40)\n      dup5\n      0xffffffff\n      and\n      0xe0\n      shl\n      dup2\n      mstore\n      0x04\n      add\n      tag_86\n      swap4\n      swap3\n      swap2\n      swap1\n      tag_87\n      jump\t// in\n    tag_86:\n      0x20\n      mload(0x40)\n      dup1\n      dup4\n      sub\n      dup2\n      0x00\n      dup8\n      dup1\n      extcodesize\n      iszero\n      dup1\n      iszero\n      tag_88\n      jumpi\n      0x00\n      dup1\n      revert\n    tag_88:\n      pop\n      gas\n      call\n      iszero\n      dup1\n      iszero\n      tag_90\n      jumpi\n      returndatasize\n      0x00\n      dup1\n      returndatacopy\n      revert(0x00, returndatasize)\n    tag_90:\n      pop\n      pop\n      pop\n      pop\n      mload(0x40)\n      returndatasize\n      not(0x1f)\n      0x1f\n      dup3\n      add\n      and\n      dup3\n      add\n      dup1\n      0x40\n      mstore\n      pop\n      dup2\n      add\n      swap1\n      tag_91\n      swap2\n      swap1\n      tag_92\n      jump\t// in\n    tag_91:\n      pop\n        /* \"CrowdFund.sol\":3085:3095  msg.sender */\n      caller\n        /* \"CrowdFund.sol\":3066:3104  Pledge(campaignId, msg.sender, amount) */\n      0xffffffffffffffffffffffffffffffffffffffff\n      and\n        /* \"CrowdFund.sol\":3073:3083  campaignId */\n      dup4\n        /* \"CrowdFund.sol\":3066:3104  Pledge(campaignId, msg.sender, amount) */\n      0x06bdb975df800a73232998e71ed585d536222f1dfeaa622d7f62a23ada686c82\n        /* \"CrowdFund.sol\":3097:3103  amount */\n      dup5\n        /* \"CrowdFund.sol\":3066:3104  Pledge(campaignId, msg.sender, amount) */\n      mload(0x40)\n      tag_93\n      swap2\n      swap1\n      tag_17\n      jump\t// in\n    tag_93:\n      mload(0x40)\n      dup1\n      swap2\n      sub\n      swap1\n      log3\n        /* \"CrowdFund.sol\":2667:3112  {\r... */\n      pop\n        /* \"CrowdFund.sol\":2612:3112  function pledge(uint campaignId, uint amount) external {\r... */\n      pop\n      pop\n      jump\t// out\n        /* \"#utility.yul\":7:146   */\n    tag_95:\n        /* \"#utility.yul\":53:58   */\n      0x00\n        /* \"#utility.yul\":91:97   */\n      dup2\n        /* \"#utility.yul\":78:98   */\n      calldataload\n        /* \"#utility.yul\":69:98   */\n      swap1\n      pop\n        /* \"#utility.yul\":107:140   */\n      tag_97\n        /* \"#utility.yul\":134:139   */\n      dup2\n        /* \"#utility.yul\":107:140   */\n      tag_98\n      jump\t// in\n    tag_97:\n        /* \"#utility.yul\":7:146   */\n      swap3\n      swap2\n      pop\n      pop\n      jump\t// out\n        /* \"#utility.yul\":152:289   */\n    tag_99:\n        /* \"#utility.yul\":206:211   */\n      0x00\n        /* \"#utility.yul\":237:243   */\n      dup2\n        /* \"#utility.yul\":231:244   */\n      mload\n        /* \"#utility.yul\":222:244   */\n      swap1\n      pop\n        /* \"#utility.yul\":253:283   */\n      tag_101\n        /* \"#utility.yul\":277:282   */\n      dup2\n        /* \"#utility.yul\":253:283   */\n      tag_102\n      jump\t// in\n    tag_101:\n        /* \"#utility.yul\":152:289   */\n      swap3\n      swap2\n      pop\n      pop\n      jump\t// out\n        /* \"#utility.yul\":295:434   */\n    tag_103:\n        /* \"#utility.yul\":341:346   */\n      0x00\n        /* \"#utility.yul\":379:385   */\n      dup2\n        /* \"#utility.yul\":366:386   */\n      calldataload\n        /* \"#utility.yul\":357:386   */\n      swap1\n      pop\n        /* \"#utility.yul\":395:428   */\n      tag_105\n        /* \"#utility.yul\":422:427   */\n      dup2\n        /* \"#utility.yul\":395:428   */\n      tag_106\n      jump\t// in\n    tag_105:\n        /* \"#utility.yul\":295:434   */\n      swap3\n      swap2\n      pop\n      pop\n      jump\t// out\n        /* \"#utility.yul\":440:577   */\n    tag_107:\n        /* \"#utility.yul\":485:490   */\n      0x00\n        /* \"#utility.yul\":523:529   */\n      dup2\n        /* \"#utility.yul\":510:530   */\n      calldataload\n        /* \"#utility.yul\":501:530   */\n      swap1\n      pop\n        /* \"#utility.yul\":539:571   */\n      tag_109\n        /* \"#utility.yul\":565:570   */\n      dup2\n        /* \"#utility.yul\":539:571   */\n      tag_110\n      jump\t// in\n    tag_109:\n        /* \"#utility.yul\":440:577   */\n      swap3\n      swap2\n      pop\n      pop\n      jump\t// out\n        /* \"#utility.yul\":583:928   */\n    tag_92:\n        /* \"#utility.yul\":650:656   */\n      0x00\n        /* \"#utility.yul\":699:701   */\n      0x20\n        /* \"#utility.yul\":687:696   */\n      dup3\n        /* \"#utility.yul\":678:685   */\n      dup5\n        /* \"#utility.yul\":674:697   */\n      sub\n        /* \"#utility.yul\":670:702   */\n      slt\n        /* \"#utility.yul\":667:786   */\n      iszero\n      tag_112\n      jumpi\n        /* \"#utility.yul\":705:784   */\n      tag_113\n      tag_114\n      jump\t// in\n    tag_113:\n        /* \"#utility.yul\":667:786   */\n    tag_112:\n        /* \"#utility.yul\":825:826   */\n      0x00\n        /* \"#utility.yul\":850:911   */\n      tag_115\n        /* \"#utility.yul\":903:910   */\n      dup5\n        /* \"#utility.yul\":894:900   */\n      dup3\n        /* \"#utility.yul\":883:892   */\n      dup6\n        /* \"#utility.yul\":879:901   */\n      add\n        /* \"#utility.yul\":850:911   */\n      tag_99\n      jump\t// in\n    tag_115:\n        /* \"#utility.yul\":840:911   */\n      swap2\n      pop\n        /* \"#utility.yul\":796:921   */\n      pop\n        /* \"#utility.yul\":583:928   */\n      swap3\n      swap2\n      pop\n      pop\n      jump\t// out\n        /* \"#utility.yul\":934:1263   */\n    tag_20:\n        /* \"#utility.yul\":993:999   */\n      0x00\n        /* \"#utility.yul\":1042:1044   */\n      0x20\n        /* \"#utility.yul\":1030:1039   */\n      dup3\n        /* \"#utility.yul\":1021:1028   */\n      dup5\n        /* \"#utility.yul\":1017:1040   */\n      sub\n        /* \"#utility.yul\":1013:1045   */\n      slt\n        /* \"#utility.yul\":1010:1129   */\n      iszero\n      tag_117\n      jumpi\n        /* \"#utility.yul\":1048:1127   */\n      tag_118\n      tag_114\n      jump\t// in\n    tag_118:\n        /* \"#utility.yul\":1010:1129   */\n    tag_117:\n        /* \"#utility.yul\":1168:1169   */\n      0x00\n        /* \"#utility.yul\":1193:1246   */\n      tag_119\n        /* \"#utility.yul\":1238:1245   */\n      dup5\n        /* \"#utility.yul\":1229:1235   */\n      dup3\n        /* \"#utility.yul\":1218:1227   */\n      dup6\n        /* \"#utility.yul\":1214:1236   */\n      add\n        /* \"#utility.yul\":1193:1246   */\n      tag_103\n      jump\t// in\n    tag_119:\n        /* \"#utility.yul\":1183:1246   */\n      swap2\n      pop\n        /* \"#utility.yul\":1139:1256   */\n      pop\n        /* \"#utility.yul\":934:1263   */\n      swap3\n      swap2\n      pop\n      pop\n      jump\t// out\n        /* \"#utility.yul\":1269:1743   */\n    tag_39:\n        /* \"#utility.yul\":1337:1343   */\n      0x00\n        /* \"#utility.yul\":1345:1351   */\n      dup1\n        /* \"#utility.yul\":1394:1396   */\n      0x40\n        /* \"#utility.yul\":1382:1391   */\n      dup4\n        /* \"#utility.yul\":1373:1380   */\n      dup6\n        /* \"#utility.yul\":1369:1392   */\n      sub\n        /* \"#utility.yul\":1365:1397   */\n      slt\n        /* \"#utility.yul\":1362:1481   */\n      iszero\n      tag_121\n      jumpi\n        /* \"#utility.yul\":1400:1479   */\n      tag_122\n      tag_114\n      jump\t// in\n    tag_122:\n        /* \"#utility.yul\":1362:1481   */\n    tag_121:\n        /* \"#utility.yul\":1520:1521   */\n      0x00\n        /* \"#utility.yul\":1545:1598   */\n      tag_123\n        /* \"#utility.yul\":1590:1597   */\n      dup6\n        /* \"#utility.yul\":1581:1587   */\n      dup3\n        /* \"#utility.yul\":1570:1579   */\n      dup7\n        /* \"#utility.yul\":1566:1588   */\n      add\n        /* \"#utility.yul\":1545:1598   */\n      tag_103\n      jump\t// in\n    tag_123:\n        /* \"#utility.yul\":1535:1598   */\n      swap3\n      pop\n        /* \"#utility.yul\":1491:1608   */\n      pop\n        /* \"#utility.yul\":1647:1649   */\n      0x20\n        /* \"#utility.yul\":1673:1726   */\n      tag_124\n        /* \"#utility.yul\":1718:1725   */\n      dup6\n        /* \"#utility.yul\":1709:1715   */\n      dup3\n        /* \"#utility.yul\":1698:1707   */\n      dup7\n        /* \"#utility.yul\":1694:1716   */\n      add\n        /* \"#utility.yul\":1673:1726   */\n      tag_95\n      jump\t// in\n    tag_124:\n        /* \"#utility.yul\":1663:1726   */\n      swap2\n      pop\n        /* \"#utility.yul\":1618:1736   */\n      pop\n        /* \"#utility.yul\":1269:1743   */\n      swap3\n      pop\n      swap3\n      swap1\n      pop\n      jump\t// out\n        /* \"#utility.yul\":1749:2223   */\n    tag_35:\n        /* \"#utility.yul\":1817:1823   */\n      0x00\n        /* \"#utility.yul\":1825:1831   */\n      dup1\n        /* \"#utility.yul\":1874:1876   */\n      0x40\n        /* \"#utility.yul\":1862:1871   */\n      dup4\n        /* \"#utility.yul\":1853:1860   */\n      dup6\n        /* \"#utility.yul\":1849:1872   */\n      sub\n        /* \"#utility.yul\":1845:1877   */\n      slt\n        /* \"#utility.yul\":1842:1961   */\n      iszero\n      tag_126\n      jumpi\n        /* \"#utility.yul\":1880:1959   */\n      tag_127\n      tag_114\n      jump\t// in\n    tag_127:\n        /* \"#utility.yul\":1842:1961   */\n    tag_126:\n        /* \"#utility.yul\":2000:2001   */\n      0x00\n        /* \"#utility.yul\":2025:2078   */\n      tag_128\n        /* \"#utility.yul\":2070:2077   */\n      dup6\n        /* \"#utility.yul\":2061:2067   */\n      dup3\n        /* \"#utility.yul\":2050:2059   */\n      dup7\n        /* \"#utility.yul\":2046:2068   */\n      add\n        /* \"#utility.yul\":2025:2078   */\n      tag_103\n      jump\t// in\n    tag_128:\n        /* \"#utility.yul\":2015:2078   */\n      swap3\n      pop\n        /* \"#utility.yul\":1971:2088   */\n      pop\n        /* \"#utility.yul\":2127:2129   */\n      0x20\n        /* \"#utility.yul\":2153:2206   */\n      tag_129\n        /* \"#utility.yul\":2198:2205   */\n      dup6\n        /* \"#utility.yul\":2189:2195   */\n      dup3\n        /* \"#utility.yul\":2178:2187   */\n      dup7\n        /* \"#utility.yul\":2174:2196   */\n      add\n        /* \"#utility.yul\":2153:2206   */\n      tag_103\n      jump\t// in\n    tag_129:\n        /* \"#utility.yul\":2143:2206   */\n      swap2\n      pop\n        /* \"#utility.yul\":2098:2216   */\n      pop\n        /* \"#utility.yul\":1749:2223   */\n      swap3\n      pop\n      swap3\n      swap1\n      pop\n      jump\t// out\n        /* \"#utility.yul\":2229:2844   */\n    tag_44:\n        /* \"#utility.yul\":2304:2310   */\n      0x00\n        /* \"#utility.yul\":2312:2318   */\n      dup1\n        /* \"#utility.yul\":2320:2326   */\n      0x00\n        /* \"#utility.yul\":2369:2371   */\n      0x60\n        /* \"#utility.yul\":2357:2366   */\n      dup5\n        /* \"#utility.yul\":2348:2355   */\n      dup7\n        /* \"#utility.yul\":2344:2367   */\n      sub\n        /* \"#utility.yul\":2340:2372   */\n      slt\n        /* \"#utility.yul\":2337:2456   */\n      iszero\n      tag_131\n      jumpi\n        /* \"#utility.yul\":2375:2454   */\n      tag_132\n      tag_114\n      jump\t// in\n    tag_132:\n        /* \"#utility.yul\":2337:2456   */\n    tag_131:\n        /* \"#utility.yul\":2495:2496   */\n      0x00\n        /* \"#utility.yul\":2520:2573   */\n      tag_133\n        /* \"#utility.yul\":2565:2572   */\n      dup7\n        /* \"#utility.yul\":2556:2562   */\n      dup3\n        /* \"#utility.yul\":2545:2554   */\n      dup8\n        /* \"#utility.yul\":2541:2563   */\n      add\n        /* \"#utility.yul\":2520:2573   */\n      tag_103\n      jump\t// in\n    tag_133:\n        /* \"#utility.yul\":2510:2573   */\n      swap4\n      pop\n        /* \"#utility.yul\":2466:2583   */\n      pop\n        /* \"#utility.yul\":2622:2624   */\n      0x20\n        /* \"#utility.yul\":2648:2700   */\n      tag_134\n        /* \"#utility.yul\":2692:2699   */\n      dup7\n        /* \"#utility.yul\":2683:2689   */\n      dup3\n        /* \"#utility.yul\":2672:2681   */\n      dup8\n        /* \"#utility.yul\":2668:2690   */\n      add\n        /* \"#utility.yul\":2648:2700   */\n      tag_107\n      jump\t// in\n    tag_134:\n        /* \"#utility.yul\":2638:2700   */\n      swap3\n      pop\n        /* \"#utility.yul\":2593:2710   */\n      pop\n        /* \"#utility.yul\":2749:2751   */\n      0x40\n        /* \"#utility.yul\":2775:2827   */\n      tag_135\n        /* \"#utility.yul\":2819:2826   */\n      dup7\n        /* \"#utility.yul\":2810:2816   */\n      dup3\n        /* \"#utility.yul\":2799:2808   */\n      dup8\n        /* \"#utility.yul\":2795:2817   */\n      add\n        /* \"#utility.yul\":2775:2827   */\n      tag_107\n      jump\t// in\n    tag_135:\n        /* \"#utility.yul\":2765:2827   */\n      swap2\n      pop\n        /* \"#utility.yul\":2720:2837   */\n      pop\n        /* \"#utility.yul\":2229:2844   */\n      swap3\n      pop\n      swap3\n      pop\n      swap3\n      jump\t// out\n        /* \"#utility.yul\":2850:2968   */\n    tag_136:\n        /* \"#utility.yul\":2937:2961   */\n      tag_138\n        /* \"#utility.yul\":2955:2960   */\n      dup2\n        /* \"#utility.yul\":2937:2961   */\n      tag_139\n      jump\t// in\n    tag_138:\n        /* \"#utility.yul\":2932:2935   */\n      dup3\n        /* \"#utility.yul\":2925:2962   */\n      mstore\n        /* \"#utility.yul\":2850:2968   */\n      pop\n      pop\n      jump\t// out\n        /* \"#utility.yul\":2974:3083   */\n    tag_140:\n        /* \"#utility.yul\":3055:3076   */\n      tag_142\n        /* \"#utility.yul\":3070:3075   */\n      dup2\n        /* \"#utility.yul\":3055:3076   */\n      tag_143\n      jump\t// in\n    tag_142:\n        /* \"#utility.yul\":3050:3053   */\n      dup3\n        /* \"#utility.yul\":3043:3077   */\n      mstore\n        /* \"#utility.yul\":2974:3083   */\n      pop\n      pop\n      jump\t// out\n        /* \"#utility.yul\":3089:3248   */\n    tag_144:\n        /* \"#utility.yul\":3190:3241   */\n      tag_146\n        /* \"#utility.yul\":3235:3240   */\n      dup2\n        /* \"#utility.yul\":3190:3241   */\n      tag_147\n      jump\t// in\n    tag_146:\n        /* \"#utility.yul\":3185:3188   */\n      dup3\n        /* \"#utility.yul\":3178:3242   */\n      mstore\n        /* \"#utility.yul\":3089:3248   */\n      pop\n      pop\n      jump\t// out\n        /* \"#utility.yul\":3254:3620   */\n    tag_148:\n        /* \"#utility.yul\":3396:3399   */\n      0x00\n        /* \"#utility.yul\":3417:3484   */\n      tag_150\n        /* \"#utility.yul\":3481:3483   */\n      0x0e\n        /* \"#utility.yul\":3476:3479   */\n      dup4\n        /* \"#utility.yul\":3417:3484   */\n      tag_151\n      jump\t// in\n    tag_150:\n        /* \"#utility.yul\":3410:3484   */\n      swap2\n      pop\n        /* \"#utility.yul\":3493:3586   */\n      tag_152\n        /* \"#utility.yul\":3582:3585   */\n      dup3\n        /* \"#utility.yul\":3493:3586   */\n      tag_153\n      jump\t// in\n    tag_152:\n        /* \"#utility.yul\":3611:3613   */\n      0x20\n        /* \"#utility.yul\":3606:3609   */\n      dup3\n        /* \"#utility.yul\":3602:3614   */\n      add\n        /* \"#utility.yul\":3595:3614   */\n      swap1\n      pop\n        /* \"#utility.yul\":3254:3620   */\n      swap2\n      swap1\n      pop\n      jump\t// out\n        /* \"#utility.yul\":3626:3992   */\n    tag_154:\n        /* \"#utility.yul\":3768:3771   */\n      0x00\n        /* \"#utility.yul\":3789:3856   */\n      tag_156\n        /* \"#utility.yul\":3853:3855   */\n      0x15\n        /* \"#utility.yul\":3848:3851   */\n      dup4\n        /* \"#utility.yul\":3789:3856   */\n      tag_151\n      jump\t// in\n    tag_156:\n        /* \"#utility.yul\":3782:3856   */\n      swap2\n      pop\n        /* \"#utility.yul\":3865:3958   */\n      tag_157\n        /* \"#utility.yul\":3954:3957   */\n      dup3\n        /* \"#utility.yul\":3865:3958   */\n      tag_158\n      jump\t// in\n    tag_157:\n        /* \"#utility.yul\":3983:3985   */\n      0x20\n        /* \"#utility.yul\":3978:3981   */\n      dup3\n        /* \"#utility.yul\":3974:3986   */\n      add\n        /* \"#utility.yul\":3967:3986   */\n      swap1\n      pop\n        /* \"#utility.yul\":3626:3992   */\n      swap2\n      swap1\n      pop\n      jump\t// out\n        /* \"#utility.yul\":3998:4364   */\n    tag_159:\n        /* \"#utility.yul\":4140:4143   */\n      0x00\n        /* \"#utility.yul\":4161:4228   */\n      tag_161\n        /* \"#utility.yul\":4225:4227   */\n      0x19\n        /* \"#utility.yul\":4220:4223   */\n      dup4\n        /* \"#utility.yul\":4161:4228   */\n      tag_151\n      jump\t// in\n    tag_161:\n        /* \"#utility.yul\":4154:4228   */\n      swap2\n      pop\n        /* \"#utility.yul\":4237:4330   */\n      tag_162\n        /* \"#utility.yul\":4326:4329   */\n      dup3\n        /* \"#utility.yul\":4237:4330   */\n      tag_163\n      jump\t// in\n    tag_162:\n        /* \"#utility.yul\":4355:4357   */\n      0x20\n        /* \"#utility.yul\":4350:4353   */\n      dup3\n        /* \"#utility.yul\":4346:4358   */\n      add\n        /* \"#utility.yul\":4339:4358   */\n      swap1\n      pop\n        /* \"#utility.yul\":3998:4364   */\n      swap2\n      swap1\n      pop\n      jump\t// out\n        /* \"#utility.yul\":4370:4736   */\n    tag_164:\n        /* \"#utility.yul\":4512:4515   */\n      0x00\n        /* \"#utility.yul\":4533:4600   */\n      tag_166\n        /* \"#utility.yul\":4597:4599   */\n      0x17\n        /* \"#utility.yul\":4592:4595   */\n      dup4\n        /* \"#utility.yul\":4533:4600   */\n      tag_151\n      jump\t// in\n    tag_166:\n        /* \"#utility.yul\":4526:4600   */\n      swap2\n      pop\n        /* \"#utility.yul\":4609:4702   */\n      tag_167\n        /* \"#utility.yul\":4698:4701   */\n      dup3\n        /* \"#utility.yul\":4609:4702   */\n      tag_168\n      jump\t// in\n    tag_167:\n        /* \"#utility.yul\":4727:4729   */\n      0x20\n        /* \"#utility.yul\":4722:4725   */\n      dup3\n        /* \"#utility.yul\":4718:4730   */\n      add\n        /* \"#utility.yul\":4711:4730   */\n      swap1\n      pop\n        /* \"#utility.yul\":4370:4736   */\n      swap2\n      swap1\n      pop\n      jump\t// out\n        /* \"#utility.yul\":4742:5108   */\n    tag_169:\n        /* \"#utility.yul\":4884:4887   */\n      0x00\n        /* \"#utility.yul\":4905:4972   */\n      tag_171\n        /* \"#utility.yul\":4969:4971   */\n      0x14\n        /* \"#utility.yul\":4964:4967   */\n      dup4\n        /* \"#utility.yul\":4905:4972   */\n      tag_151\n      jump\t// in\n    tag_171:\n        /* \"#utility.yul\":4898:4972   */\n      swap2\n      pop\n        /* \"#utility.yul\":4981:5074   */\n      tag_172\n        /* \"#utility.yul\":5070:5073   */\n      dup3\n        /* \"#utility.yul\":4981:5074   */\n      tag_173\n      jump\t// in\n    tag_172:\n        /* \"#utility.yul\":5099:5101   */\n      0x20\n        /* \"#utility.yul\":5094:5097   */\n      dup3\n        /* \"#utility.yul\":5090:5102   */\n      add\n        /* \"#utility.yul\":5083:5102   */\n      swap1\n      pop\n        /* \"#utility.yul\":4742:5108   */\n      swap2\n      swap1\n      pop\n      jump\t// out\n        /* \"#utility.yul\":5114:5232   */\n    tag_174:\n        /* \"#utility.yul\":5201:5225   */\n      tag_176\n        /* \"#utility.yul\":5219:5224   */\n      dup2\n        /* \"#utility.yul\":5201:5225   */\n      tag_177\n      jump\t// in\n    tag_176:\n        /* \"#utility.yul\":5196:5199   */\n      dup3\n        /* \"#utility.yul\":5189:5226   */\n      mstore\n        /* \"#utility.yul\":5114:5232   */\n      pop\n      pop\n      jump\t// out\n        /* \"#utility.yul\":5238:5353   */\n    tag_178:\n        /* \"#utility.yul\":5323:5346   */\n      tag_180\n        /* \"#utility.yul\":5340:5345   */\n      dup2\n        /* \"#utility.yul\":5323:5346   */\n      tag_181\n      jump\t// in\n    tag_180:\n        /* \"#utility.yul\":5318:5321   */\n      dup3\n        /* \"#utility.yul\":5311:5347   */\n      mstore\n        /* \"#utility.yul\":5238:5353   */\n      pop\n      pop\n      jump\t// out\n        /* \"#utility.yul\":5359:5801   */\n    tag_87:\n        /* \"#utility.yul\":5508:5512   */\n      0x00\n        /* \"#utility.yul\":5546:5548   */\n      0x60\n        /* \"#utility.yul\":5535:5544   */\n      dup3\n        /* \"#utility.yul\":5531:5549   */\n      add\n        /* \"#utility.yul\":5523:5549   */\n      swap1\n      pop\n        /* \"#utility.yul\":5559:5630   */\n      tag_183\n        /* \"#utility.yul\":5627:5628   */\n      0x00\n        /* \"#utility.yul\":5616:5625   */\n      dup4\n        /* \"#utility.yul\":5612:5629   */\n      add\n        /* \"#utility.yul\":5603:5609   */\n      dup7\n        /* \"#utility.yul\":5559:5630   */\n      tag_136\n      jump\t// in\n    tag_183:\n        /* \"#utility.yul\":5640:5712   */\n      tag_184\n        /* \"#utility.yul\":5708:5710   */\n      0x20\n        /* \"#utility.yul\":5697:5706   */\n      dup4\n        /* \"#utility.yul\":5693:5711   */\n      add\n        /* \"#utility.yul\":5684:5690   */\n      dup6\n        /* \"#utility.yul\":5640:5712   */\n      tag_136\n      jump\t// in\n    tag_184:\n        /* \"#utility.yul\":5722:5794   */\n      tag_185\n        /* \"#utility.yul\":5790:5792   */\n      0x40\n        /* \"#utility.yul\":5779:5788   */\n      dup4\n        /* \"#utility.yul\":5775:5793   */\n      add\n        /* \"#utility.yul\":5766:5772   */\n      dup5\n        /* \"#utility.yul\":5722:5794   */\n      tag_174\n      jump\t// in\n    tag_185:\n        /* \"#utility.yul\":5359:5801   */\n      swap5\n      swap4\n      pop\n      pop\n      pop\n      pop\n      jump\t// out\n        /* \"#utility.yul\":5807:6562   */\n    tag_23:\n        /* \"#utility.yul\":6030:6034   */\n      0x00\n        /* \"#utility.yul\":6068:6071   */\n      0xc0\n        /* \"#utility.yul\":6057:6066   */\n      dup3\n        /* \"#utility.yul\":6053:6072   */\n      add\n        /* \"#utility.yul\":6045:6072   */\n      swap1\n      pop\n        /* \"#utility.yul\":6082:6153   */\n      tag_187\n        /* \"#utility.yul\":6150:6151   */\n      0x00\n        /* \"#utility.yul\":6139:6148   */\n      dup4\n        /* \"#utility.yul\":6135:6152   */\n      add\n        /* \"#utility.yul\":6126:6132   */\n      dup10\n        /* \"#utility.yul\":6082:6153   */\n      tag_136\n      jump\t// in\n    tag_187:\n        /* \"#utility.yul\":6163:6235   */\n      tag_188\n        /* \"#utility.yul\":6231:6233   */\n      0x20\n        /* \"#utility.yul\":6220:6229   */\n      dup4\n        /* \"#utility.yul\":6216:6234   */\n      add\n        /* \"#utility.yul\":6207:6213   */\n      dup9\n        /* \"#utility.yul\":6163:6235   */\n      tag_174\n      jump\t// in\n    tag_188:\n        /* \"#utility.yul\":6245:6317   */\n      tag_189\n        /* \"#utility.yul\":6313:6315   */\n      0x40\n        /* \"#utility.yul\":6302:6311   */\n      dup4\n        /* \"#utility.yul\":6298:6316   */\n      add\n        /* \"#utility.yul\":6289:6295   */\n      dup8\n        /* \"#utility.yul\":6245:6317   */\n      tag_174\n      jump\t// in\n    tag_189:\n        /* \"#utility.yul\":6327:6397   */\n      tag_190\n        /* \"#utility.yul\":6393:6395   */\n      0x60\n        /* \"#utility.yul\":6382:6391   */\n      dup4\n        /* \"#utility.yul\":6378:6396   */\n      add\n        /* \"#utility.yul\":6369:6375   */\n      dup7\n        /* \"#utility.yul\":6327:6397   */\n      tag_178\n      jump\t// in\n    tag_190:\n        /* \"#utility.yul\":6407:6478   */\n      tag_191\n        /* \"#utility.yul\":6473:6476   */\n      0x80\n        /* \"#utility.yul\":6462:6471   */\n      dup4\n        /* \"#utility.yul\":6458:6477   */\n      add\n        /* \"#utility.yul\":6449:6455   */\n      dup6\n        /* \"#utility.yul\":6407:6478   */\n      tag_178\n      jump\t// in\n    tag_191:\n        /* \"#utility.yul\":6488:6555   */\n      tag_192\n        /* \"#utility.yul\":6550:6553   */\n      0xa0\n        /* \"#utility.yul\":6539:6548   */\n      dup4\n        /* \"#utility.yul\":6535:6554   */\n      add\n        /* \"#utility.yul\":6526:6532   */\n      dup5\n        /* \"#utility.yul\":6488:6555   */\n      tag_140\n      jump\t// in\n    tag_192:\n        /* \"#utility.yul\":5807:6562   */\n      swap8\n      swap7\n      pop\n      pop\n      pop\n      pop\n      pop\n      pop\n      pop\n      jump\t// out\n        /* \"#utility.yul\":6568:6818   */\n    tag_49:\n        /* \"#utility.yul\":6675:6679   */\n      0x00\n        /* \"#utility.yul\":6713:6715   */\n      0x20\n        /* \"#utility.yul\":6702:6711   */\n      dup3\n        /* \"#utility.yul\":6698:6716   */\n      add\n        /* \"#utility.yul\":6690:6716   */\n      swap1\n      pop\n        /* \"#utility.yul\":6726:6811   */\n      tag_194\n        /* \"#utility.yul\":6808:6809   */\n      0x00\n        /* \"#utility.yul\":6797:6806   */\n      dup4\n        /* \"#utility.yul\":6793:6810   */\n      add\n        /* \"#utility.yul\":6784:6790   */\n      dup5\n        /* \"#utility.yul\":6726:6811   */\n      tag_144\n      jump\t// in\n    tag_194:\n        /* \"#utility.yul\":6568:6818   */\n      swap3\n      swap2\n      pop\n      pop\n      jump\t// out\n        /* \"#utility.yul\":6824:7243   */\n    tag_67:\n        /* \"#utility.yul\":6990:6994   */\n      0x00\n        /* \"#utility.yul\":7028:7030   */\n      0x20\n        /* \"#utility.yul\":7017:7026   */\n      dup3\n        /* \"#utility.yul\":7013:7031   */\n      add\n        /* \"#utility.yul\":7005:7031   */\n      swap1\n      pop\n        /* \"#utility.yul\":7077:7086   */\n      dup2\n        /* \"#utility.yul\":7071:7075   */\n      dup2\n        /* \"#utility.yul\":7067:7087   */\n      sub\n        /* \"#utility.yul\":7063:7064   */\n      0x00\n        /* \"#utility.yul\":7052:7061   */\n      dup4\n        /* \"#utility.yul\":7048:7065   */\n      add\n        /* \"#utility.yul\":7041:7088   */\n      mstore\n        /* \"#utility.yul\":7105:7236   */\n      tag_196\n        /* \"#utility.yul\":7231:7235   */\n      dup2\n        /* \"#utility.yul\":7105:7236   */\n      tag_148\n      jump\t// in\n    tag_196:\n        /* \"#utility.yul\":7097:7236   */\n      swap1\n      pop\n        /* \"#utility.yul\":6824:7243   */\n      swap2\n      swap1\n      pop\n      jump\t// out\n        /* \"#utility.yul\":7249:7668   */\n    tag_80:\n        /* \"#utility.yul\":7415:7419   */\n      0x00\n        /* \"#utility.yul\":7453:7455   */\n      0x20\n        /* \"#utility.yul\":7442:7451   */\n      dup3\n        /* \"#utility.yul\":7438:7456   */\n      add\n        /* \"#utility.yul\":7430:7456   */\n      swap1\n      pop\n        /* \"#utility.yul\":7502:7511   */\n      dup2\n        /* \"#utility.yul\":7496:7500   */\n      dup2\n        /* \"#utility.yul\":7492:7512   */\n      sub\n        /* \"#utility.yul\":7488:7489   */\n      0x00\n        /* \"#utility.yul\":7477:7486   */\n      dup4\n        /* \"#utility.yul\":7473:7490   */\n      add\n        /* \"#utility.yul\":7466:7513   */\n      mstore\n        /* \"#utility.yul\":7530:7661   */\n      tag_198\n        /* \"#utility.yul\":7656:7660   */\n      dup2\n        /* \"#utility.yul\":7530:7661   */\n      tag_154\n      jump\t// in\n    tag_198:\n        /* \"#utility.yul\":7522:7661   */\n      swap1\n      pop\n        /* \"#utility.yul\":7249:7668   */\n      swap2\n      swap1\n      pop\n      jump\t// out\n        /* \"#utility.yul\":7674:8093   */\n    tag_61:\n        /* \"#utility.yul\":7840:7844   */\n      0x00\n        /* \"#utility.yul\":7878:7880   */\n      0x20\n        /* \"#utility.yul\":7867:7876   */\n      dup3\n        /* \"#utility.yul\":7863:7881   */\n      add\n        /* \"#utility.yul\":7855:7881   */\n      swap1\n      pop\n        /* \"#utility.yul\":7927:7936   */\n      dup2\n        /* \"#utility.yul\":7921:7925   */\n      dup2\n        /* \"#utility.yul\":7917:7937   */\n      sub\n        /* \"#utility.yul\":7913:7914   */\n      0x00\n        /* \"#utility.yul\":7902:7911   */\n      dup4\n        /* \"#utility.yul\":7898:7915   */\n      add\n        /* \"#utility.yul\":7891:7938   */\n      mstore\n        /* \"#utility.yul\":7955:8086   */\n      tag_200\n        /* \"#utility.yul\":8081:8085   */\n      dup2\n        /* \"#utility.yul\":7955:8086   */\n      tag_159\n      jump\t// in\n    tag_200:\n        /* \"#utility.yul\":7947:8086   */\n      swap1\n      pop\n        /* \"#utility.yul\":7674:8093   */\n      swap2\n      swap1\n      pop\n      jump\t// out\n        /* \"#utility.yul\":8099:8518   */\n    tag_83:\n        /* \"#utility.yul\":8265:8269   */\n      0x00\n        /* \"#utility.yul\":8303:8305   */\n      0x20\n        /* \"#utility.yul\":8292:8301   */\n      dup3\n        /* \"#utility.yul\":8288:8306   */\n      add\n        /* \"#utility.yul\":8280:8306   */\n      swap1\n      pop\n        /* \"#utility.yul\":8352:8361   */\n      dup2\n        /* \"#utility.yul\":8346:8350   */\n      dup2\n        /* \"#utility.yul\":8342:8362   */\n      sub\n        /* \"#utility.yul\":8338:8339   */\n      0x00\n        /* \"#utility.yul\":8327:8336   */\n      dup4\n        /* \"#utility.yul\":8323:8340   */\n      add\n        /* \"#utility.yul\":8316:8363   */\n      mstore\n        /* \"#utility.yul\":8380:8511   */\n      tag_202\n        /* \"#utility.yul\":8506:8510   */\n      dup2\n        /* \"#utility.yul\":8380:8511   */\n      tag_164\n      jump\t// in\n    tag_202:\n        /* \"#utility.yul\":8372:8511   */\n      swap1\n      pop\n        /* \"#utility.yul\":8099:8518   */\n      swap2\n      swap1\n      pop\n      jump\t// out\n        /* \"#utility.yul\":8524:8943   */\n    tag_58:\n        /* \"#utility.yul\":8690:8694   */\n      0x00\n        /* \"#utility.yul\":8728:8730   */\n      0x20\n        /* \"#utility.yul\":8717:8726   */\n      dup3\n        /* \"#utility.yul\":8713:8731   */\n      add\n        /* \"#utility.yul\":8705:8731   */\n      swap1\n      pop\n        /* \"#utility.yul\":8777:8786   */\n      dup2\n        /* \"#utility.yul\":8771:8775   */\n      dup2\n        /* \"#utility.yul\":8767:8787   */\n      sub\n        /* \"#utility.yul\":8763:8764   */\n      0x00\n        /* \"#utility.yul\":8752:8761   */\n      dup4\n        /* \"#utility.yul\":8748:8765   */\n      add\n        /* \"#utility.yul\":8741:8788   */\n      mstore\n        /* \"#utility.yul\":8805:8936   */\n      tag_204\n        /* \"#utility.yul\":8931:8935   */\n      dup2\n        /* \"#utility.yul\":8805:8936   */\n      tag_169\n      jump\t// in\n    tag_204:\n        /* \"#utility.yul\":8797:8936   */\n      swap1\n      pop\n        /* \"#utility.yul\":8524:8943   */\n      swap2\n      swap1\n      pop\n      jump\t// out\n        /* \"#utility.yul\":8949:9171   */\n    tag_17:\n        /* \"#utility.yul\":9042:9046   */\n      0x00\n        /* \"#utility.yul\":9080:9082   */\n      0x20\n        /* \"#utility.yul\":9069:9078   */\n      dup3\n        /* \"#utility.yul\":9065:9083   */\n      add\n        /* \"#utility.yul\":9057:9083   */\n      swap1\n      pop\n        /* \"#utility.yul\":9093:9164   */\n      tag_206\n        /* \"#utility.yul\":9161:9162   */\n      0x00\n        /* \"#utility.yul\":9150:9159   */\n      dup4\n        /* \"#utility.yul\":9146:9163   */\n      add\n        /* \"#utility.yul\":9137:9143   */\n      dup5\n        /* \"#utility.yul\":9093:9164   */\n      tag_174\n      jump\t// in\n    tag_206:\n        /* \"#utility.yul\":8949:9171   */\n      swap3\n      swap2\n      pop\n      pop\n      jump\t// out\n        /* \"#utility.yul\":9177:9722   */\n    tag_76:\n        /* \"#utility.yul\":9350:9354   */\n      0x00\n        /* \"#utility.yul\":9388:9391   */\n      0x80\n        /* \"#utility.yul\":9377:9386   */\n      dup3\n        /* \"#utility.yul\":9373:9392   */\n      add\n        /* \"#utility.yul\":9365:9392   */\n      swap1\n      pop\n        /* \"#utility.yul\":9402:9473   */\n      tag_208\n        /* \"#utility.yul\":9470:9471   */\n      0x00\n        /* \"#utility.yul\":9459:9468   */\n      dup4\n        /* \"#utility.yul\":9455:9472   */\n      add\n        /* \"#utility.yul\":9446:9452   */\n      dup8\n        /* \"#utility.yul\":9402:9473   */\n      tag_174\n      jump\t// in\n    tag_208:\n        /* \"#utility.yul\":9483:9555   */\n      tag_209\n        /* \"#utility.yul\":9551:9553   */\n      0x20\n        /* \"#utility.yul\":9540:9549   */\n      dup4\n        /* \"#utility.yul\":9536:9554   */\n      add\n        /* \"#utility.yul\":9527:9533   */\n      dup7\n        /* \"#utility.yul\":9483:9555   */\n      tag_174\n      jump\t// in\n    tag_209:\n        /* \"#utility.yul\":9565:9635   */\n      tag_210\n        /* \"#utility.yul\":9631:9633   */\n      0x40\n        /* \"#utility.yul\":9620:9629   */\n      dup4\n        /* \"#utility.yul\":9616:9634   */\n      add\n        /* \"#utility.yul\":9607:9613   */\n      dup6\n        /* \"#utility.yul\":9565:9635   */\n      tag_178\n      jump\t// in\n    tag_210:\n        /* \"#utility.yul\":9645:9715   */\n      tag_211\n        /* \"#utility.yul\":9711:9713   */\n      0x60\n        /* \"#utility.yul\":9700:9709   */\n      dup4\n        /* \"#utility.yul\":9696:9714   */\n      add\n        /* \"#utility.yul\":9687:9693   */\n      dup5\n        /* \"#utility.yul\":9645:9715   */\n      tag_178\n      jump\t// in\n    tag_211:\n        /* \"#utility.yul\":9177:9722   */\n      swap6\n      swap5\n      pop\n      pop\n      pop\n      pop\n      pop\n      jump\t// out\n        /* \"#utility.yul\":9809:9978   */\n    tag_151:\n        /* \"#utility.yul\":9893:9904   */\n      0x00\n        /* \"#utility.yul\":9927:9933   */\n      dup3\n        /* \"#utility.yul\":9922:9925   */\n      dup3\n        /* \"#utility.yul\":9915:9934   */\n      mstore\n        /* \"#utility.yul\":9967:9971   */\n      0x20\n        /* \"#utility.yul\":9962:9965   */\n      dup3\n        /* \"#utility.yul\":9958:9972   */\n      add\n        /* \"#utility.yul\":9943:9972   */\n      swap1\n      pop\n        /* \"#utility.yul\":9809:9978   */\n      swap3\n      swap2\n      pop\n      pop\n      jump\t// out\n        /* \"#utility.yul\":9984:10289   */\n    tag_71:\n        /* \"#utility.yul\":10024:10027   */\n      0x00\n        /* \"#utility.yul\":10043:10063   */\n      tag_216\n        /* \"#utility.yul\":10061:10062   */\n      dup3\n        /* \"#utility.yul\":10043:10063   */\n      tag_177\n      jump\t// in\n    tag_216:\n        /* \"#utility.yul\":10038:10063   */\n      swap2\n      pop\n        /* \"#utility.yul\":10077:10097   */\n      tag_217\n        /* \"#utility.yul\":10095:10096   */\n      dup4\n        /* \"#utility.yul\":10077:10097   */\n      tag_177\n      jump\t// in\n    tag_217:\n        /* \"#utility.yul\":10072:10097   */\n      swap3\n      pop\n        /* \"#utility.yul\":10231:10232   */\n      dup3\n        /* \"#utility.yul\":10163:10229   */\n      0xffffffffffffffffffffffffffffffffffffffffffffffffffffffffffffffff\n        /* \"#utility.yul\":10159:10233   */\n      sub\n        /* \"#utility.yul\":10156:10157   */\n      dup3\n        /* \"#utility.yul\":10153:10234   */\n      gt\n        /* \"#utility.yul\":10150:10257   */\n      iszero\n      tag_218\n      jumpi\n        /* \"#utility.yul\":10237:10255   */\n      tag_219\n      tag_220\n      jump\t// in\n    tag_219:\n        /* \"#utility.yul\":10150:10257   */\n    tag_218:\n        /* \"#utility.yul\":10281:10282   */\n      dup3\n        /* \"#utility.yul\":10278:10279   */\n      dup3\n        /* \"#utility.yul\":10274:10283   */\n      add\n        /* \"#utility.yul\":10267:10283   */\n      swap1\n      pop\n        /* \"#utility.yul\":9984:10289   */\n      swap3\n      swap2\n      pop\n      pop\n      jump\t// out\n        /* \"#utility.yul\":10295:10391   */\n    tag_139:\n        /* \"#utility.yul\":10332:10339   */\n      0x00\n        /* \"#utility.yul\":10361:10385   */\n      tag_222\n        /* \"#utility.yul\":10379:10384   */\n      dup3\n        /* \"#utility.yul\":10361:10385   */\n      tag_223\n      jump\t// in\n    tag_222:\n        /* \"#utility.yul\":10350:10385   */\n      swap1\n      pop\n        /* \"#utility.yul\":10295:10391   */\n      swap2\n      swap1\n      pop\n      jump\t// out\n        /* \"#utility.yul\":10397:10487   */\n    tag_143:\n        /* \"#utility.yul\":10431:10438   */\n      0x00\n        /* \"#utility.yul\":10474:10479   */\n      dup2\n        /* \"#utility.yul\":10467:10480   */\n      iszero\n        /* \"#utility.yul\":10460:10481   */\n      iszero\n        /* \"#utility.yul\":10449:10481   */\n      swap1\n      pop\n        /* \"#utility.yul\":10397:10487   */\n      swap2\n      swap1\n      pop\n      jump\t// out\n        /* \"#utility.yul\":10493:10619   */\n    tag_223:\n        /* \"#utility.yul\":10530:10537   */\n      0x00\n        /* \"#utility.yul\":10570:10612   */\n      0xffffffffffffffffffffffffffffffffffffffff\n        /* \"#utility.yul\":10563:10568   */\n      dup3\n        /* \"#utility.yul\":10559:10613   */\n      and\n        /* \"#utility.yul\":10548:10613   */\n      swap1\n      pop\n        /* \"#utility.yul\":10493:10619   */\n      swap2\n      swap1\n      pop\n      jump\t// out\n        /* \"#utility.yul\":10625:10702   */\n    tag_177:\n        /* \"#utility.yul\":10662:10669   */\n      0x00\n        /* \"#utility.yul\":10691:10696   */\n      dup2\n        /* \"#utility.yul\":10680:10696   */\n      swap1\n      pop\n        /* \"#utility.yul\":10625:10702   */\n      swap2\n      swap1\n      pop\n      jump\t// out\n        /* \"#utility.yul\":10708:10801   */\n    tag_181:\n        /* \"#utility.yul\":10744:10751   */\n      0x00\n        /* \"#utility.yul\":10784:10794   */\n      0xffffffff\n        /* \"#utility.yul\":10777:10782   */\n      dup3\n        /* \"#utility.yul\":10773:10795   */\n      and\n        /* \"#utility.yul\":10762:10795   */\n      swap1\n      pop\n        /* \"#utility.yul\":10708:10801   */\n      swap2\n      swap1\n      pop\n      jump\t// out\n        /* \"#utility.yul\":10807:10947   */\n    tag_147:\n        /* \"#utility.yul\":10871:10880   */\n      0x00\n        /* \"#utility.yul\":10904:10941   */\n      tag_229\n        /* \"#utility.yul\":10935:10940   */\n      dup3\n        /* \"#utility.yul\":10904:10941   */\n      tag_230\n      jump\t// in\n    tag_229:\n        /* \"#utility.yul\":10891:10941   */\n      swap1\n      pop\n        /* \"#utility.yul\":10807:10947   */\n      swap2\n      swap1\n      pop\n      jump\t// out\n        /* \"#utility.yul\":10953:11079   */\n    tag_230:\n        /* \"#utility.yul\":11003:11012   */\n      0x00\n        /* \"#utility.yul\":11036:11073   */\n      tag_232\n        /* \"#utility.yul\":11067:11072   */\n      dup3\n        /* \"#utility.yul\":11036:11073   */\n      tag_233\n      jump\t// in\n    tag_232:\n        /* \"#utility.yul\":11023:11073   */\n      swap1\n      pop\n        /* \"#utility.yul\":10953:11079   */\n      swap2\n      swap1\n      pop\n      jump\t// out\n        /* \"#utility.yul\":11085:11198   */\n    tag_233:\n        /* \"#utility.yul\":11135:11144   */\n      0x00\n        /* \"#utility.yul\":11168:11192   */\n      tag_235\n        /* \"#utility.yul\":11186:11191   */\n      dup3\n        /* \"#utility.yul\":11168:11192   */\n      tag_223\n      jump\t// in\n    tag_235:\n        /* \"#utility.yul\":11155:11192   */\n      swap1\n      pop\n        /* \"#utility.yul\":11085:11198   */\n      swap2\n      swap1\n      pop\n      jump\t// out\n        /* \"#utility.yul\":11204:11384   */\n    tag_220:\n        /* \"#utility.yul\":11252:11329   */\n      0x4e487b7100000000000000000000000000000000000000000000000000000000\n        /* \"#utility.yul\":11249:11250   */\n      0x00\n        /* \"#utility.yul\":11242:11330   */\n      mstore\n        /* \"#utility.yul\":11349:11353   */\n      0x11\n        /* \"#utility.yul\":11346:11347   */\n      0x04\n        /* \"#utility.yul\":11339:11354   */\n      mstore\n        /* \"#utility.yul\":11373:11377   */\n      0x24\n        /* \"#utility.yul\":11370:11371   */\n      0x00\n        /* \"#utility.yul\":11363:11378   */\n      revert\n        /* \"#utility.yul\":11513:11630   */\n    tag_114:\n        /* \"#utility.yul\":11622:11623   */\n      0x00\n        /* \"#utility.yul\":11619:11620   */\n      dup1\n        /* \"#utility.yul\":11612:11624   */\n      revert\n        /* \"#utility.yul\":11636:11800   */\n    tag_153:\n        /* \"#utility.yul\":11776:11792   */\n      0x7374617274206174203c206e6f77000000000000000000000000000000000000\n        /* \"#utility.yul\":11772:11773   */\n      0x00\n        /* \"#utility.yul\":11764:11770   */\n      dup3\n        /* \"#utility.yul\":11760:11774   */\n      add\n        /* \"#utility.yul\":11753:11793   */\n      mstore\n        /* \"#utility.yul\":11636:11800   */\n      pop\n      jump\t// out\n        /* \"#utility.yul\":11806:11977   */\n    tag_158:\n        /* \"#utility.yul\":11946:11969   */\n      0x43616d706169676e206e6f742073746172746564210000000000000000000000\n        /* \"#utility.yul\":11942:11943   */\n      0x00\n        /* \"#utility.yul\":11934:11940   */\n      dup3\n        /* \"#utility.yul\":11930:11944   */\n      add\n        /* \"#utility.yul\":11923:11970   */\n      mstore\n        /* \"#utility.yul\":11806:11977   */\n      pop\n      jump\t// out\n        /* \"#utility.yul\":11983:12158   */\n    tag_163:\n        /* \"#utility.yul\":12123:12150   */\n      0x43616d706169676e20616c726561647920737461727465642100000000000000\n        /* \"#utility.yul\":12119:12120   */\n      0x00\n        /* \"#utility.yul\":12111:12117   */\n      dup3\n        /* \"#utility.yul\":12107:12121   */\n      add\n        /* \"#utility.yul\":12100:12151   */\n      mstore\n        /* \"#utility.yul\":11983:12158   */\n      pop\n      jump\t// out\n        /* \"#utility.yul\":12164:12337   */\n    tag_168:\n        /* \"#utility.yul\":12304:12329   */\n      0x43616d706169676e20616c726561647920656e64656421000000000000000000\n        /* \"#utility.yul\":12300:12301   */\n      0x00\n        /* \"#utility.yul\":12292:12298   */\n      dup3\n        /* \"#utility.yul\":12288:12302   */\n      add\n        /* \"#utility.yul\":12281:12330   */\n      mstore\n        /* \"#utility.yul\":12164:12337   */\n      pop\n      jump\t// out\n        /* \"#utility.yul\":12343:12513   */\n    tag_173:\n        /* \"#utility.yul\":12483:12505   */\n      0x596f75206d7573742062652063726561746f7221000000000000000000000000\n        /* \"#utility.yul\":12479:12480   */\n      0x00\n        /* \"#utility.yul\":12471:12477   */\n      dup3\n        /* \"#utility.yul\":12467:12481   */\n      add\n        /* \"#utility.yul\":12460:12506   */\n      mstore\n        /* \"#utility.yul\":12343:12513   */\n      pop\n      jump\t// out\n        /* \"#utility.yul\":12519:12641   */\n    tag_98:\n        /* \"#utility.yul\":12592:12616   */\n      tag_246\n        /* \"#utility.yul\":12610:12615   */\n      dup2\n        /* \"#utility.yul\":12592:12616   */\n      tag_139\n      jump\t// in\n    tag_246:\n        /* \"#utility.yul\":12585:12590   */\n      dup2\n        /* \"#utility.yul\":12582:12617   */\n      eq\n        /* \"#utility.yul\":12572:12635   */\n      tag_247\n      jumpi\n        /* \"#utility.yul\":12631:12632   */\n      0x00\n        /* \"#utility.yul\":12628:12629   */\n      dup1\n        /* \"#utility.yul\":12621:12633   */\n      revert\n        /* \"#utility.yul\":12572:12635   */\n    tag_247:\n        /* \"#utility.yul\":12519:12641   */\n      pop\n      jump\t// out\n        /* \"#utility.yul\":12647:12763   */\n    tag_102:\n        /* \"#utility.yul\":12717:12738   */\n      tag_249\n        /* \"#utility.yul\":12732:12737   */\n      dup2\n        /* \"#utility.yul\":12717:12738   */\n      tag_143\n      jump\t// in\n    tag_249:\n        /* \"#utility.yul\":12710:12715   */\n      dup2\n        /* \"#utility.yul\":12707:12739   */\n      eq\n        /* \"#utility.yul\":12697:12757   */\n      tag_250\n      jumpi\n        /* \"#utility.yul\":12753:12754   */\n      0x00\n        /* \"#utility.yul\":12750:12751   */\n      dup1\n        /* \"#utility.yul\":12743:12755   */\n      revert\n        /* \"#utility.yul\":12697:12757   */\n    tag_250:\n        /* \"#utility.yul\":12647:12763   */\n      pop\n      jump\t// out\n        /* \"#utility.yul\":12769:12891   */\n    tag_106:\n        /* \"#utility.yul\":12842:12866   */\n      tag_252\n        /* \"#utility.yul\":12860:12865   */\n      dup2\n        /* \"#utility.yul\":12842:12866   */\n      tag_177\n      jump\t// in\n    tag_252:\n        /* \"#utility.yul\":12835:12840   */\n      dup2\n        /* \"#utility.yul\":12832:12867   */\n      eq\n        /* \"#utility.yul\":12822:12885   */\n      tag_253\n      jumpi\n        /* \"#utility.yul\":12881:12882   */\n      0x00\n        /* \"#utility.yul\":12878:12879   */\n      dup1\n        /* \"#utility.yul\":12871:12883   */\n      revert\n        /* \"#utility.yul\":12822:12885   */\n    tag_253:\n        /* \"#utility.yul\":12769:12891   */\n      pop\n      jump\t// out\n        /* \"#utility.yul\":12897:13017   */\n    tag_110:\n        /* \"#utility.yul\":12969:12992   */\n      tag_255\n        /* \"#utility.yul\":12986:12991   */\n      dup2\n        /* \"#utility.yul\":12969:12992   */\n      tag_181\n      jump\t// in\n    tag_255:\n        /* \"#utility.yul\":12962:12967   */\n      dup2\n        /* \"#utility.yul\":12959:12993   */\n      eq\n        /* \"#utility.yul\":12949:13011   */\n      tag_256\n      jumpi\n        /* \"#utility.yul\":13007:13008   */\n      0x00\n        /* \"#utility.yul\":13004:13005   */\n      dup1\n        /* \"#utility.yul\":12997:13009   */\n      revert\n        /* \"#utility.yul\":12949:13011   */\n    tag_256:\n        /* \"#utility.yul\":12897:13017   */\n      pop\n      jump\t// out\n\n    auxdata: 0xa2646970667358221220812e23f78e63148e08bbb683f69b1c69d10bb77697a15ad0b1ae332ecb5750d664736f6c63430008070033\n}\n",
				"bytecode": {
					"linkReferences": {},
					"object": "60a06040523480156200001157600080fd5b50604051620012213803806200122183398181016040528101906200003791906200008c565b8073ffffffffffffffffffffffffffffffffffffffff1660808173ffffffffffffffffffffffffffffffffffffffff1660601b815250505062000111565b6000815190506200008681620000f7565b92915050565b600060208284031215620000a557620000a4620000f2565b5b6000620000b58482850162000075565b91505092915050565b6000620000cb82620000d2565b9050919050565b600073ffffffffffffffffffffffffffffffffffffffff82169050919050565b600080fd5b6200010281620000be565b81146200010e57600080fd5b50565b60805160601c6110ea62000137600039600081816107bc015261093201526110ea6000f3fe608060405234801561001057600080fd5b506004361061009e5760003560e01c8063711853ab11610066578063711853ab1461014a578063aa4fb63a14610166578063daf6994014610196578063fc0c546a146101b2578063fde327be146101d05761009e565b806306661abd146100a3578063141961bc146100c1578063278ecde1146100f6578063379607f51461011257806340e58ee51461012e575b600080fd5b6100ab6101ec565b6040516100b89190610e02565b60405180910390f35b6100db60048036038101906100d69190610ab5565b6101f2565b6040516100ed96959493929190610ce6565b60405180910390f35b610110600480360381019061010b9190610ab5565b61027b565b005b61012c60048036038101906101279190610ab5565b61027e565b005b61014860048036038101906101439190610ab5565b610281565b005b610164600480360381019061015f9190610b22565b6104fa565b005b610180600480360381019061017b9190610ae2565b6104fe565b60405161018d9190610e02565b60405180910390f35b6101b060048036038101906101ab9190610b62565b610523565b005b6101ba6107ba565b6040516101c79190610d47565b60405180910390f35b6101ea60048036038101906101e59190610b22565b6107de565b005b60025481565b60006020528060005260406000206000915090508060000160009054906101000a900473ffffffffffffffffffffffffffffffffffffffff16908060010154908060020154908060030160009054906101000a900463ffffffff16908060030160049054906101000a900463ffffffff16908060030160089054906101000a900460ff16905086565b50565b50565b60008060008381526020019081526020016000206040518060c00160405290816000820160009054906101000a900473ffffffffffffffffffffffffffffffffffffffff1673ffffffffffffffffffffffffffffffffffffffff1673ffffffffffffffffffffffffffffffffffffffff16815260200160018201548152602001600282015481526020016003820160009054906101000a900463ffffffff1663ffffffff1663ffffffff1681526020016003820160049054906101000a900463ffffffff1663ffffffff1663ffffffff1681526020016003820160089054906101000a900460ff1615151515815250509050806000015173ffffffffffffffffffffffffffffffffffffffff163373ffffffffffffffffffffffffffffffffffffffff16146103e5576040517f08c379a00000000000000000000000000000000000000000000000000000000081526004016103dc90610de2565b60405180910390fd5b806060015163ffffffff164210610431576040517f08c379a000000000000000000000000000000000000000000000000000000000815260040161042890610da2565b60405180910390fd5b600080838152602001908152602001600020600080820160006101000a81549073ffffffffffffffffffffffffffffffffffffffff0219169055600182016000905560028201600090556003820160006101000a81549063ffffffff02191690556003820160046101000a81549063ffffffff02191690556003820160086101000a81549060ff021916905550507f8bf30e7ff26833413be5f69e1d373744864d600b664204b4a2f9844a8eedb9ed826040516104ee9190610e02565b60405180910390a15050565b5050565b6001602052816000526040600020602052806000526040600020600091509150505481565b428263ffffffff16101561056c576040517f08c379a000000000000000000000000000000000000000000000000000000000815260040161056390610d62565b60405180910390fd5b8063ffffffff168263ffffffff1611156105bb576040517f08c379a00000000000000000000000000000000000000000000000000000000081526004016105b290610d62565b60405180910390fd5b6276a700426105ca9190610e73565b8163ffffffff161115610612576040517f08c379a000000000000000000000000000000000000000000000000000000000815260040161060990610d62565b60405180910390fd5b6001600260008282546106259190610e73565b925050819055506040518060c001604052803373ffffffffffffffffffffffffffffffffffffffff168152602001848152602001600081526020018363ffffffff1681526020018263ffffffff16815260200160001515815250600080600254815260200190815260200160002060008201518160000160006101000a81548173ffffffffffffffffffffffffffffffffffffffff021916908373ffffffffffffffffffffffffffffffffffffffff160217905550602082015181600101556040820151816002015560608201518160030160006101000a81548163ffffffff021916908363ffffffff16021790555060808201518160030160046101000a81548163ffffffff021916908363ffffffff16021790555060a08201518160030160086101000a81548160ff0219169083151502179055509050503373ffffffffffffffffffffffffffffffffffffffff167f0601cd0d650b473037e838a2696d41e654433d065b3f56b28d1d3302e44a304f6002548585856040516107ad9493929190610e1d565b60405180910390a2505050565b7f000000000000000000000000000000000000000000000000000000000000000081565b60008060008481526020019081526020016000209050428160030160009054906101000a900463ffffffff1663ffffffff161115610851576040517f08c379a000000000000000000000000000000000000000000000000000000000815260040161084890610d82565b60405180910390fd5b428160030160049054906101000a900463ffffffff1663ffffffff1610156108ae576040517f08c379a00000000000000000000000000000000000000000000000000000000081526004016108a590610dc2565b60405180910390fd5b818160020160008282546108c29190610e73565b92505081905550816001600085815260200190815260200160002060003373ffffffffffffffffffffffffffffffffffffffff1673ffffffffffffffffffffffffffffffffffffffff16815260200190815260200160002060008282546109299190610e73565b925050819055507f000000000000000000000000000000000000000000000000000000000000000073ffffffffffffffffffffffffffffffffffffffff166323b872dd3330856040518463ffffffff1660e01b815260040161098d93929190610caf565b602060405180830381600087803b1580156109a757600080fd5b505af11580156109bb573d6000803e3d6000fd5b505050506040513d601f19601f820116820180604052508101906109df9190610a88565b503373ffffffffffffffffffffffffffffffffffffffff16837f06bdb975df800a73232998e71ed585d536222f1dfeaa622d7f62a23ada686c8284604051610a279190610e02565b60405180910390a3505050565b600081359050610a4381611058565b92915050565b600081519050610a588161106f565b92915050565b600081359050610a6d81611086565b92915050565b600081359050610a828161109d565b92915050565b600060208284031215610a9e57610a9d610f86565b5b6000610aac84828501610a49565b91505092915050565b600060208284031215610acb57610aca610f86565b5b6000610ad984828501610a5e565b91505092915050565b60008060408385031215610af957610af8610f86565b5b6000610b0785828601610a5e565b9250506020610b1885828601610a34565b9150509250929050565b60008060408385031215610b3957610b38610f86565b5b6000610b4785828601610a5e565b9250506020610b5885828601610a5e565b9150509250929050565b600080600060608486031215610b7b57610b7a610f86565b5b6000610b8986828701610a5e565b9350506020610b9a86828701610a73565b9250506040610bab86828701610a73565b9150509250925092565b610bbe81610ec9565b82525050565b610bcd81610edb565b82525050565b610bdc81610f21565b82525050565b6000610bef600e83610e62565b9150610bfa82610f8b565b602082019050919050565b6000610c12601583610e62565b9150610c1d82610fb4565b602082019050919050565b6000610c35601983610e62565b9150610c4082610fdd565b602082019050919050565b6000610c58601783610e62565b9150610c6382611006565b602082019050919050565b6000610c7b601483610e62565b9150610c868261102f565b602082019050919050565b610c9a81610f07565b82525050565b610ca981610f11565b82525050565b6000606082019050610cc46000830186610bb5565b610cd16020830185610bb5565b610cde6040830184610c91565b949350505050565b600060c082019050610cfb6000830189610bb5565b610d086020830188610c91565b610d156040830187610c91565b610d226060830186610ca0565b610d2f6080830185610ca0565b610d3c60a0830184610bc4565b979650505050505050565b6000602082019050610d5c6000830184610bd3565b92915050565b60006020820190508181036000830152610d7b81610be2565b9050919050565b60006020820190508181036000830152610d9b81610c05565b9050919050565b60006020820190508181036000830152610dbb81610c28565b9050919050565b60006020820190508181036000830152610ddb81610c4b565b9050919050565b60006020820190508181036000830152610dfb81610c6e565b9050919050565b6000602082019050610e176000830184610c91565b92915050565b6000608082019050610e326000830187610c91565b610e3f6020830186610c91565b610e4c6040830185610ca0565b610e596060830184610ca0565b95945050505050565b600082825260208201905092915050565b6000610e7e82610f07565b9150610e8983610f07565b9250827fffffffffffffffffffffffffffffffffffffffffffffffffffffffffffffffff03821115610ebe57610ebd610f57565b5b828201905092915050565b6000610ed482610ee7565b9050919050565b60008115159050919050565b600073ffffffffffffffffffffffffffffffffffffffff82169050919050565b6000819050919050565b600063ffffffff82169050919050565b6000610f2c82610f33565b9050919050565b6000610f3e82610f45565b9050919050565b6000610f5082610ee7565b9050919050565b7f4e487b7100000000000000000000000000000000000000000000000000000000600052601160045260246000fd5b600080fd5b7f7374617274206174203c206e6f77000000000000000000000000000000000000600082015250565b7f43616d706169676e206e6f742073746172746564210000000000000000000000600082015250565b7f43616d706169676e20616c726561647920737461727465642100000000000000600082015250565b7f43616d706169676e20616c726561647920656e64656421000000000000000000600082015250565b7f596f75206d7573742062652063726561746f7221000000000000000000000000600082015250565b61106181610ec9565b811461106c57600080fd5b50565b61107881610edb565b811461108357600080fd5b50565b61108f81610f07565b811461109a57600080fd5b50565b6110a681610f11565b81146110b157600080fd5b5056fea2646970667358221220812e23f78e63148e08bbb683f69b1c69d10bb77697a15ad0b1ae332ecb5750d664736f6c63430008070033",
					"opcodes": "PUSH1 0xA0 PUSH1 0x40 MSTORE CALLVALUE DUP1 ISZERO PUSH3 0x11 JUMPI PUSH1 0x0 DUP1 REVERT JUMPDEST POP PUSH1 0x40 MLOAD PUSH3 0x1221 CODESIZE SUB DUP1 PUSH3 0x1221 DUP4 CODECOPY DUP2 DUP2 ADD PUSH1 0x40 MSTORE DUP2 ADD SWAP1 PUSH3 0x37 SWAP2 SWAP1 PUSH3 0x8C JUMP JUMPDEST DUP1 PUSH20 0xFFFFFFFFFFFFFFFFFFFFFFFFFFFFFFFFFFFFFFFF AND PUSH1 0x80 DUP2 PUSH20 0xFFFFFFFFFFFFFFFFFFFFFFFFFFFFFFFFFFFFFFFF AND PUSH1 0x60 SHL DUP2 MSTORE POP POP POP PUSH3 0x111 JUMP JUMPDEST PUSH1 0x0 DUP2 MLOAD SWAP1 POP PUSH3 0x86 DUP2 PUSH3 0xF7 JUMP JUMPDEST SWAP3 SWAP2 POP POP JUMP JUMPDEST PUSH1 0x0 PUSH1 0x20 DUP3 DUP5 SUB SLT ISZERO PUSH3 0xA5 JUMPI PUSH3 0xA4 PUSH3 0xF2 JUMP JUMPDEST JUMPDEST PUSH1 0x0 PUSH3 0xB5 DUP5 DUP3 DUP6 ADD PUSH3 0x75 JUMP JUMPDEST SWAP2 POP POP SWAP3 SWAP2 POP POP JUMP JUMPDEST PUSH1 0x0 PUSH3 0xCB DUP3 PUSH3 0xD2 JUMP JUMPDEST SWAP1 POP SWAP2 SWAP1 POP JUMP JUMPDEST PUSH1 0x0 PUSH20 0xFFFFFFFFFFFFFFFFFFFFFFFFFFFFFFFFFFFFFFFF DUP3 AND SWAP1 POP SWAP2 SWAP1 POP JUMP JUMPDEST PUSH1 0x0 DUP1 REVERT JUMPDEST PUSH3 0x102 DUP2 PUSH3 0xBE JUMP JUMPDEST DUP2 EQ PUSH3 0x10E JUMPI PUSH1 0x0 DUP1 REVERT JUMPDEST POP JUMP JUMPDEST PUSH1 0x80 MLOAD PUSH1 0x60 SHR PUSH2 0x10EA PUSH3 0x137 PUSH1 0x0 CODECOPY PUSH1 0x0 DUP2 DUP2 PUSH2 0x7BC ADD MSTORE PUSH2 0x932 ADD MSTORE PUSH2 0x10EA PUSH1 0x0 RETURN INVALID PUSH1 0x80 PUSH1 0x40 MSTORE CALLVALUE DUP1 ISZERO PUSH2 0x10 JUMPI PUSH1 0x0 DUP1 REVERT JUMPDEST POP PUSH1 0x4 CALLDATASIZE LT PUSH2 0x9E JUMPI PUSH1 0x0 CALLDATALOAD PUSH1 0xE0 SHR DUP1 PUSH4 0x711853AB GT PUSH2 0x66 JUMPI DUP1 PUSH4 0x711853AB EQ PUSH2 0x14A JUMPI DUP1 PUSH4 0xAA4FB63A EQ PUSH2 0x166 JUMPI DUP1 PUSH4 0xDAF69940 EQ PUSH2 0x196 JUMPI DUP1 PUSH4 0xFC0C546A EQ PUSH2 0x1B2 JUMPI DUP1 PUSH4 0xFDE327BE EQ PUSH2 0x1D0 JUMPI PUSH2 0x9E JUMP JUMPDEST DUP1 PUSH4 0x6661ABD EQ PUSH2 0xA3 JUMPI DUP1 PUSH4 0x141961BC EQ PUSH2 0xC1 JUMPI DUP1 PUSH4 0x278ECDE1 EQ PUSH2 0xF6 JUMPI DUP1 PUSH4 0x379607F5 EQ PUSH2 0x112 JUMPI DUP1 PUSH4 0x40E58EE5 EQ PUSH2 0x12E JUMPI JUMPDEST PUSH1 0x0 DUP1 REVERT JUMPDEST PUSH2 0xAB PUSH2 0x1EC JUMP JUMPDEST PUSH1 0x40 MLOAD PUSH2 0xB8 SWAP2 SWAP1 PUSH2 0xE02 JUMP JUMPDEST PUSH1 0x40 MLOAD DUP1 SWAP2 SUB SWAP1 RETURN JUMPDEST PUSH2 0xDB PUSH1 0x4 DUP1 CALLDATASIZE SUB DUP2 ADD SWAP1 PUSH2 0xD6 SWAP2 SWAP1 PUSH2 0xAB5 JUMP JUMPDEST PUSH2 0x1F2 JUMP JUMPDEST PUSH1 0x40 MLOAD PUSH2 0xED SWAP7 SWAP6 SWAP5 SWAP4 SWAP3 SWAP2 SWAP1 PUSH2 0xCE6 JUMP JUMPDEST PUSH1 0x40 MLOAD DUP1 SWAP2 SUB SWAP1 RETURN JUMPDEST PUSH2 0x110 PUSH1 0x4 DUP1 CALLDATASIZE SUB DUP2 ADD SWAP1 PUSH2 0x10B SWAP2 SWAP1 PUSH2 0xAB5 JUMP JUMPDEST PUSH2 0x27B JUMP JUMPDEST STOP JUMPDEST PUSH2 0x12C PUSH1 0x4 DUP1 CALLDATASIZE SUB DUP2 ADD SWAP1 PUSH2 0x127 SWAP2 SWAP1 PUSH2 0xAB5 JUMP JUMPDEST PUSH2 0x27E JUMP JUMPDEST STOP JUMPDEST PUSH2 0x148 PUSH1 0x4 DUP1 CALLDATASIZE SUB DUP2 ADD SWAP1 PUSH2 0x143 SWAP2 SWAP1 PUSH2 0xAB5 JUMP JUMPDEST PUSH2 0x281 JUMP JUMPDEST STOP JUMPDEST PUSH2 0x164 PUSH1 0x4 DUP1 CALLDATASIZE SUB DUP2 ADD SWAP1 PUSH2 0x15F SWAP2 SWAP1 PUSH2 0xB22 JUMP JUMPDEST PUSH2 0x4FA JUMP JUMPDEST STOP JUMPDEST PUSH2 0x180 PUSH1 0x4 DUP1 CALLDATASIZE SUB DUP2 ADD SWAP1 PUSH2 0x17B SWAP2 SWAP1 PUSH2 0xAE2 JUMP JUMPDEST PUSH2 0x4FE JUMP JUMPDEST PUSH1 0x40 MLOAD PUSH2 0x18D SWAP2 SWAP1 PUSH2 0xE02 JUMP JUMPDEST PUSH1 0x40 MLOAD DUP1 SWAP2 SUB SWAP1 RETURN JUMPDEST PUSH2 0x1B0 PUSH1 0x4 DUP1 CALLDATASIZE SUB DUP2 ADD SWAP1 PUSH2 0x1AB SWAP2 SWAP1 PUSH2 0xB62 JUMP JUMPDEST PUSH2 0x523 JUMP JUMPDEST STOP JUMPDEST PUSH2 0x1BA PUSH2 0x7BA JUMP JUMPDEST PUSH1 0x40 MLOAD PUSH2 0x1C7 SWAP2 SWAP1 PUSH2 0xD47 JUMP JUMPDEST PUSH1 0x40 MLOAD DUP1 SWAP2 SUB SWAP1 RETURN JUMPDEST PUSH2 0x1EA PUSH1 0x4 DUP1 CALLDATASIZE SUB DUP2 ADD SWAP1 PUSH2 0x1E5 SWAP2 SWAP1 PUSH2 0xB22 JUMP JUMPDEST PUSH2 0x7DE JUMP JUMPDEST STOP JUMPDEST PUSH1 0x2 SLOAD DUP2 JUMP JUMPDEST PUSH1 0x0 PUSH1 0x20 MSTORE DUP1 PUSH1 0x0 MSTORE PUSH1 0x40 PUSH1 0x0 KECCAK256 PUSH1 0x0 SWAP2 POP SWAP1 POP DUP1 PUSH1 0x0 ADD PUSH1 0x0 SWAP1 SLOAD SWAP1 PUSH2 0x100 EXP SWAP1 DIV PUSH20 0xFFFFFFFFFFFFFFFFFFFFFFFFFFFFFFFFFFFFFFFF AND SWAP1 DUP1 PUSH1 0x1 ADD SLOAD SWAP1 DUP1 PUSH1 0x2 ADD SLOAD SWAP1 DUP1 PUSH1 0x3 ADD PUSH1 0x0 SWAP1 SLOAD SWAP1 PUSH2 0x100 EXP SWAP1 DIV PUSH4 0xFFFFFFFF AND SWAP1 DUP1 PUSH1 0x3 ADD PUSH1 0x4 SWAP1 SLOAD SWAP1 PUSH2 0x100 EXP SWAP1 DIV PUSH4 0xFFFFFFFF AND SWAP1 DUP1 PUSH1 0x3 ADD PUSH1 0x8 SWAP1 SLOAD SWAP1 PUSH2 0x100 EXP SWAP1 DIV PUSH1 0xFF AND SWAP1 POP DUP7 JUMP JUMPDEST POP JUMP JUMPDEST POP JUMP JUMPDEST PUSH1 0x0 DUP1 PUSH1 0x0 DUP4 DUP2 MSTORE PUSH1 0x20 ADD SWAP1 DUP2 MSTORE PUSH1 0x20 ADD PUSH1 0x0 KECCAK256 PUSH1 0x40 MLOAD DUP1 PUSH1 0xC0 ADD PUSH1 0x40 MSTORE SWAP1 DUP2 PUSH1 0x0 DUP3 ADD PUSH1 0x0 SWAP1 SLOAD SWAP1 PUSH2 0x100 EXP SWAP1 DIV PUSH20 0xFFFFFFFFFFFFFFFFFFFFFFFFFFFFFFFFFFFFFFFF AND PUSH20 0xFFFFFFFFFFFFFFFFFFFFFFFFFFFFFFFFFFFFFFFF AND PUSH20 0xFFFFFFFFFFFFFFFFFFFFFFFFFFFFFFFFFFFFFFFF AND DUP2 MSTORE PUSH1 0x20 ADD PUSH1 0x1 DUP3 ADD SLOAD DUP2 MSTORE PUSH1 0x20 ADD PUSH1 0x2 DUP3 ADD SLOAD DUP2 MSTORE PUSH1 0x20 ADD PUSH1 0x3 DUP3 ADD PUSH1 0x0 SWAP1 SLOAD SWAP1 PUSH2 0x100 EXP SWAP1 DIV PUSH4 0xFFFFFFFF AND PUSH4 0xFFFFFFFF AND PUSH4 0xFFFFFFFF AND DUP2 MSTORE PUSH1 0x20 ADD PUSH1 0x3 DUP3 ADD PUSH1 0x4 SWAP1 SLOAD SWAP1 PUSH2 0x100 EXP SWAP1 DIV PUSH4 0xFFFFFFFF AND PUSH4 0xFFFFFFFF AND PUSH4 0xFFFFFFFF AND DUP2 MSTORE PUSH1 0x20 ADD PUSH1 0x3 DUP3 ADD PUSH1 0x8 SWAP1 SLOAD SWAP1 PUSH2 0x100 EXP SWAP1 DIV PUSH1 0xFF AND ISZERO ISZERO ISZERO ISZERO DUP2 MSTORE POP POP SWAP1 POP DUP1 PUSH1 0x0 ADD MLOAD PUSH20 0xFFFFFFFFFFFFFFFFFFFFFFFFFFFFFFFFFFFFFFFF AND CALLER PUSH20 0xFFFFFFFFFFFFFFFFFFFFFFFFFFFFFFFFFFFFFFFF AND EQ PUSH2 0x3E5 JUMPI PUSH1 0x40 MLOAD PUSH32 0x8C379A000000000000000000000000000000000000000000000000000000000 DUP2 MSTORE PUSH1 0x4 ADD PUSH2 0x3DC SWAP1 PUSH2 0xDE2 JUMP JUMPDEST PUSH1 0x40 MLOAD DUP1 SWAP2 SUB SWAP1 REVERT JUMPDEST DUP1 PUSH1 0x60 ADD MLOAD PUSH4 0xFFFFFFFF AND TIMESTAMP LT PUSH2 0x431 JUMPI PUSH1 0x40 MLOAD PUSH32 0x8C379A000000000000000000000000000000000000000000000000000000000 DUP2 MSTORE PUSH1 0x4 ADD PUSH2 0x428 SWAP1 PUSH2 0xDA2 JUMP JUMPDEST PUSH1 0x40 MLOAD DUP1 SWAP2 SUB SWAP1 REVERT JUMPDEST PUSH1 0x0 DUP1 DUP4 DUP2 MSTORE PUSH1 0x20 ADD SWAP1 DUP2 MSTORE PUSH1 0x20 ADD PUSH1 0x0 KECCAK256 PUSH1 0x0 DUP1 DUP3 ADD PUSH1 0x0 PUSH2 0x100 EXP DUP2 SLOAD SWAP1 PUSH20 0xFFFFFFFFFFFFFFFFFFFFFFFFFFFFFFFFFFFFFFFF MUL NOT AND SWAP1 SSTORE PUSH1 0x1 DUP3 ADD PUSH1 0x0 SWAP1 SSTORE PUSH1 0x2 DUP3 ADD PUSH1 0x0 SWAP1 SSTORE PUSH1 0x3 DUP3 ADD PUSH1 0x0 PUSH2 0x100 EXP DUP2 SLOAD SWAP1 PUSH4 0xFFFFFFFF MUL NOT AND SWAP1 SSTORE PUSH1 0x3 DUP3 ADD PUSH1 0x4 PUSH2 0x100 EXP DUP2 SLOAD SWAP1 PUSH4 0xFFFFFFFF MUL NOT AND SWAP1 SSTORE PUSH1 0x3 DUP3 ADD PUSH1 0x8 PUSH2 0x100 EXP DUP2 SLOAD SWAP1 PUSH1 0xFF MUL NOT AND SWAP1 SSTORE POP POP PUSH32 0x8BF30E7FF26833413BE5F69E1D373744864D600B664204B4A2F9844A8EEDB9ED DUP3 PUSH1 0x40 MLOAD PUSH2 0x4EE SWAP2 SWAP1 PUSH2 0xE02 JUMP JUMPDEST PUSH1 0x40 MLOAD DUP1 SWAP2 SUB SWAP1 LOG1 POP POP JUMP JUMPDEST POP POP JUMP JUMPDEST PUSH1 0x1 PUSH1 0x20 MSTORE DUP2 PUSH1 0x0 MSTORE PUSH1 0x40 PUSH1 0x0 KECCAK256 PUSH1 0x20 MSTORE DUP1 PUSH1 0x0 MSTORE PUSH1 0x40 PUSH1 0x0 KECCAK256 PUSH1 0x0 SWAP2 POP SWAP2 POP POP SLOAD DUP2 JUMP JUMPDEST TIMESTAMP DUP3 PUSH4 0xFFFFFFFF AND LT ISZERO PUSH2 0x56C JUMPI PUSH1 0x40 MLOAD PUSH32 0x8C379A000000000000000000000000000000000000000000000000000000000 DUP2 MSTORE PUSH1 0x4 ADD PUSH2 0x563 SWAP1 PUSH2 0xD62 JUMP JUMPDEST PUSH1 0x40 MLOAD DUP1 SWAP2 SUB SWAP1 REVERT JUMPDEST DUP1 PUSH4 0xFFFFFFFF AND DUP3 PUSH4 0xFFFFFFFF AND GT ISZERO PUSH2 0x5BB JUMPI PUSH1 0x40 MLOAD PUSH32 0x8C379A000000000000000000000000000000000000000000000000000000000 DUP2 MSTORE PUSH1 0x4 ADD PUSH2 0x5B2 SWAP1 PUSH2 0xD62 JUMP JUMPDEST PUSH1 0x40 MLOAD DUP1 SWAP2 SUB SWAP1 REVERT JUMPDEST PUSH3 0x76A700 TIMESTAMP PUSH2 0x5CA SWAP2 SWAP1 PUSH2 0xE73 JUMP JUMPDEST DUP2 PUSH4 0xFFFFFFFF AND GT ISZERO PUSH2 0x612 JUMPI PUSH1 0x40 MLOAD PUSH32 0x8C379A000000000000000000000000000000000000000000000000000000000 DUP2 MSTORE PUSH1 0x4 ADD PUSH2 0x609 SWAP1 PUSH2 0xD62 JUMP JUMPDEST PUSH1 0x40 MLOAD DUP1 SWAP2 SUB SWAP1 REVERT JUMPDEST PUSH1 0x1 PUSH1 0x2 PUSH1 0x0 DUP3 DUP3 SLOAD PUSH2 0x625 SWAP2 SWAP1 PUSH2 0xE73 JUMP JUMPDEST SWAP3 POP POP DUP2 SWAP1 SSTORE POP PUSH1 0x40 MLOAD DUP1 PUSH1 0xC0 ADD PUSH1 0x40 MSTORE DUP1 CALLER PUSH20 0xFFFFFFFFFFFFFFFFFFFFFFFFFFFFFFFFFFFFFFFF AND DUP2 MSTORE PUSH1 0x20 ADD DUP5 DUP2 MSTORE PUSH1 0x20 ADD PUSH1 0x0 DUP2 MSTORE PUSH1 0x20 ADD DUP4 PUSH4 0xFFFFFFFF AND DUP2 MSTORE PUSH1 0x20 ADD DUP3 PUSH4 0xFFFFFFFF AND DUP2 MSTORE PUSH1 0x20 ADD PUSH1 0x0 ISZERO ISZERO DUP2 MSTORE POP PUSH1 0x0 DUP1 PUSH1 0x2 SLOAD DUP2 MSTORE PUSH1 0x20 ADD SWAP1 DUP2 MSTORE PUSH1 0x20 ADD PUSH1 0x0 KECCAK256 PUSH1 0x0 DUP3 ADD MLOAD DUP2 PUSH1 0x0 ADD PUSH1 0x0 PUSH2 0x100 EXP DUP2 SLOAD DUP2 PUSH20 0xFFFFFFFFFFFFFFFFFFFFFFFFFFFFFFFFFFFFFFFF MUL NOT AND SWAP1 DUP4 PUSH20 0xFFFFFFFFFFFFFFFFFFFFFFFFFFFFFFFFFFFFFFFF AND MUL OR SWAP1 SSTORE POP PUSH1 0x20 DUP3 ADD MLOAD DUP2 PUSH1 0x1 ADD SSTORE PUSH1 0x40 DUP3 ADD MLOAD DUP2 PUSH1 0x2 ADD SSTORE PUSH1 0x60 DUP3 ADD MLOAD DUP2 PUSH1 0x3 ADD PUSH1 0x0 PUSH2 0x100 EXP DUP2 SLOAD DUP2 PUSH4 0xFFFFFFFF MUL NOT AND SWAP1 DUP4 PUSH4 0xFFFFFFFF AND MUL OR SWAP1 SSTORE POP PUSH1 0x80 DUP3 ADD MLOAD DUP2 PUSH1 0x3 ADD PUSH1 0x4 PUSH2 0x100 EXP DUP2 SLOAD DUP2 PUSH4 0xFFFFFFFF MUL NOT AND SWAP1 DUP4 PUSH4 0xFFFFFFFF AND MUL OR SWAP1 SSTORE POP PUSH1 0xA0 DUP3 ADD MLOAD DUP2 PUSH1 0x3 ADD PUSH1 0x8 PUSH2 0x100 EXP DUP2 SLOAD DUP2 PUSH1 0xFF MUL NOT AND SWAP1 DUP4 ISZERO ISZERO MUL OR SWAP1 SSTORE POP SWAP1 POP POP CALLER PUSH20 0xFFFFFFFFFFFFFFFFFFFFFFFFFFFFFFFFFFFFFFFF AND PUSH32 0x601CD0D650B473037E838A2696D41E654433D065B3F56B28D1D3302E44A304F PUSH1 0x2 SLOAD DUP6 DUP6 DUP6 PUSH1 0x40 MLOAD PUSH2 0x7AD SWAP5 SWAP4 SWAP3 SWAP2 SWAP1 PUSH2 0xE1D JUMP JUMPDEST PUSH1 0x40 MLOAD DUP1 SWAP2 SUB SWAP1 LOG2 POP POP POP JUMP JUMPDEST PUSH32 0x0 DUP2 JUMP JUMPDEST PUSH1 0x0 DUP1 PUSH1 0x0 DUP5 DUP2 MSTORE PUSH1 0x20 ADD SWAP1 DUP2 MSTORE PUSH1 0x20 ADD PUSH1 0x0 KECCAK256 SWAP1 POP TIMESTAMP DUP2 PUSH1 0x3 ADD PUSH1 0x0 SWAP1 SLOAD SWAP1 PUSH2 0x100 EXP SWAP1 DIV PUSH4 0xFFFFFFFF AND PUSH4 0xFFFFFFFF AND GT ISZERO PUSH2 0x851 JUMPI PUSH1 0x40 MLOAD PUSH32 0x8C379A000000000000000000000000000000000000000000000000000000000 DUP2 MSTORE PUSH1 0x4 ADD PUSH2 0x848 SWAP1 PUSH2 0xD82 JUMP JUMPDEST PUSH1 0x40 MLOAD DUP1 SWAP2 SUB SWAP1 REVERT JUMPDEST TIMESTAMP DUP2 PUSH1 0x3 ADD PUSH1 0x4 SWAP1 SLOAD SWAP1 PUSH2 0x100 EXP SWAP1 DIV PUSH4 0xFFFFFFFF AND PUSH4 0xFFFFFFFF AND LT ISZERO PUSH2 0x8AE JUMPI PUSH1 0x40 MLOAD PUSH32 0x8C379A000000000000000000000000000000000000000000000000000000000 DUP2 MSTORE PUSH1 0x4 ADD PUSH2 0x8A5 SWAP1 PUSH2 0xDC2 JUMP JUMPDEST PUSH1 0x40 MLOAD DUP1 SWAP2 SUB SWAP1 REVERT JUMPDEST DUP2 DUP2 PUSH1 0x2 ADD PUSH1 0x0 DUP3 DUP3 SLOAD PUSH2 0x8C2 SWAP2 SWAP1 PUSH2 0xE73 JUMP JUMPDEST SWAP3 POP POP DUP2 SWAP1 SSTORE POP DUP2 PUSH1 0x1 PUSH1 0x0 DUP6 DUP2 MSTORE PUSH1 0x20 ADD SWAP1 DUP2 MSTORE PUSH1 0x20 ADD PUSH1 0x0 KECCAK256 PUSH1 0x0 CALLER PUSH20 0xFFFFFFFFFFFFFFFFFFFFFFFFFFFFFFFFFFFFFFFF AND PUSH20 0xFFFFFFFFFFFFFFFFFFFFFFFFFFFFFFFFFFFFFFFF AND DUP2 MSTORE PUSH1 0x20 ADD SWAP1 DUP2 MSTORE PUSH1 0x20 ADD PUSH1 0x0 KECCAK256 PUSH1 0x0 DUP3 DUP3 SLOAD PUSH2 0x929 SWAP2 SWAP1 PUSH2 0xE73 JUMP JUMPDEST SWAP3 POP POP DUP2 SWAP1 SSTORE POP PUSH32 0x0 PUSH20 0xFFFFFFFFFFFFFFFFFFFFFFFFFFFFFFFFFFFFFFFF AND PUSH4 0x23B872DD CALLER ADDRESS DUP6 PUSH1 0x40 MLOAD DUP5 PUSH4 0xFFFFFFFF AND PUSH1 0xE0 SHL DUP2 MSTORE PUSH1 0x4 ADD PUSH2 0x98D SWAP4 SWAP3 SWAP2 SWAP1 PUSH2 0xCAF JUMP JUMPDEST PUSH1 0x20 PUSH1 0x40 MLOAD DUP1 DUP4 SUB DUP2 PUSH1 0x0 DUP8 DUP1 EXTCODESIZE ISZERO DUP1 ISZERO PUSH2 0x9A7 JUMPI PUSH1 0x0 DUP1 REVERT JUMPDEST POP GAS CALL ISZERO DUP1 ISZERO PUSH2 0x9BB JUMPI RETURNDATASIZE PUSH1 0x0 DUP1 RETURNDATACOPY RETURNDATASIZE PUSH1 0x0 REVERT JUMPDEST POP POP POP POP PUSH1 0x40 MLOAD RETURNDATASIZE PUSH1 0x1F NOT PUSH1 0x1F DUP3 ADD AND DUP3 ADD DUP1 PUSH1 0x40 MSTORE POP DUP2 ADD SWAP1 PUSH2 0x9DF SWAP2 SWAP1 PUSH2 0xA88 JUMP JUMPDEST POP CALLER PUSH20 0xFFFFFFFFFFFFFFFFFFFFFFFFFFFFFFFFFFFFFFFF AND DUP4 PUSH32 0x6BDB975DF800A73232998E71ED585D536222F1DFEAA622D7F62A23ADA686C82 DUP5 PUSH1 0x40 MLOAD PUSH2 0xA27 SWAP2 SWAP1 PUSH2 0xE02 JUMP JUMPDEST PUSH1 0x40 MLOAD DUP1 SWAP2 SUB SWAP1 LOG3 POP POP POP JUMP JUMPDEST PUSH1 0x0 DUP2 CALLDATALOAD SWAP1 POP PUSH2 0xA43 DUP2 PUSH2 0x1058 JUMP JUMPDEST SWAP3 SWAP2 POP POP JUMP JUMPDEST PUSH1 0x0 DUP2 MLOAD SWAP1 POP PUSH2 0xA58 DUP2 PUSH2 0x106F JUMP JUMPDEST SWAP3 SWAP2 POP POP JUMP JUMPDEST PUSH1 0x0 DUP2 CALLDATALOAD SWAP1 POP PUSH2 0xA6D DUP2 PUSH2 0x1086 JUMP JUMPDEST SWAP3 SWAP2 POP POP JUMP JUMPDEST PUSH1 0x0 DUP2 CALLDATALOAD SWAP1 POP PUSH2 0xA82 DUP2 PUSH2 0x109D JUMP JUMPDEST SWAP3 SWAP2 POP POP JUMP JUMPDEST PUSH1 0x0 PUSH1 0x20 DUP3 DUP5 SUB SLT ISZERO PUSH2 0xA9E JUMPI PUSH2 0xA9D PUSH2 0xF86 JUMP JUMPDEST JUMPDEST PUSH1 0x0 PUSH2 0xAAC DUP5 DUP3 DUP6 ADD PUSH2 0xA49 JUMP JUMPDEST SWAP2 POP POP SWAP3 SWAP2 POP POP JUMP JUMPDEST PUSH1 0x0 PUSH1 0x20 DUP3 DUP5 SUB SLT ISZERO PUSH2 0xACB JUMPI PUSH2 0xACA PUSH2 0xF86 JUMP JUMPDEST JUMPDEST PUSH1 0x0 PUSH2 0xAD9 DUP5 DUP3 DUP6 ADD PUSH2 0xA5E JUMP JUMPDEST SWAP2 POP POP SWAP3 SWAP2 POP POP JUMP JUMPDEST PUSH1 0x0 DUP1 PUSH1 0x40 DUP4 DUP6 SUB SLT ISZERO PUSH2 0xAF9 JUMPI PUSH2 0xAF8 PUSH2 0xF86 JUMP JUMPDEST JUMPDEST PUSH1 0x0 PUSH2 0xB07 DUP6 DUP3 DUP7 ADD PUSH2 0xA5E JUMP JUMPDEST SWAP3 POP POP PUSH1 0x20 PUSH2 0xB18 DUP6 DUP3 DUP7 ADD PUSH2 0xA34 JUMP JUMPDEST SWAP2 POP POP SWAP3 POP SWAP3 SWAP1 POP JUMP JUMPDEST PUSH1 0x0 DUP1 PUSH1 0x40 DUP4 DUP6 SUB SLT ISZERO PUSH2 0xB39 JUMPI PUSH2 0xB38 PUSH2 0xF86 JUMP JUMPDEST JUMPDEST PUSH1 0x0 PUSH2 0xB47 DUP6 DUP3 DUP7 ADD PUSH2 0xA5E JUMP JUMPDEST SWAP3 POP POP PUSH1 0x20 PUSH2 0xB58 DUP6 DUP3 DUP7 ADD PUSH2 0xA5E JUMP JUMPDEST SWAP2 POP POP SWAP3 POP SWAP3 SWAP1 POP JUMP JUMPDEST PUSH1 0x0 DUP1 PUSH1 0x0 PUSH1 0x60 DUP5 DUP7 SUB SLT ISZERO PUSH2 0xB7B JUMPI PUSH2 0xB7A PUSH2 0xF86 JUMP JUMPDEST JUMPDEST PUSH1 0x0 PUSH2 0xB89 DUP7 DUP3 DUP8 ADD PUSH2 0xA5E JUMP JUMPDEST SWAP4 POP POP PUSH1 0x20 PUSH2 0xB9A DUP7 DUP3 DUP8 ADD PUSH2 0xA73 JUMP JUMPDEST SWAP3 POP POP PUSH1 0x40 PUSH2 0xBAB DUP7 DUP3 DUP8 ADD PUSH2 0xA73 JUMP JUMPDEST SWAP2 POP POP SWAP3 POP SWAP3 POP SWAP3 JUMP JUMPDEST PUSH2 0xBBE DUP2 PUSH2 0xEC9 JUMP JUMPDEST DUP3 MSTORE POP POP JUMP JUMPDEST PUSH2 0xBCD DUP2 PUSH2 0xEDB JUMP JUMPDEST DUP3 MSTORE POP POP JUMP JUMPDEST PUSH2 0xBDC DUP2 PUSH2 0xF21 JUMP JUMPDEST DUP3 MSTORE POP POP JUMP JUMPDEST PUSH1 0x0 PUSH2 0xBEF PUSH1 0xE DUP4 PUSH2 0xE62 JUMP JUMPDEST SWAP2 POP PUSH2 0xBFA DUP3 PUSH2 0xF8B JUMP JUMPDEST PUSH1 0x20 DUP3 ADD SWAP1 POP SWAP2 SWAP1 POP JUMP JUMPDEST PUSH1 0x0 PUSH2 0xC12 PUSH1 0x15 DUP4 PUSH2 0xE62 JUMP JUMPDEST SWAP2 POP PUSH2 0xC1D DUP3 PUSH2 0xFB4 JUMP JUMPDEST PUSH1 0x20 DUP3 ADD SWAP1 POP SWAP2 SWAP1 POP JUMP JUMPDEST PUSH1 0x0 PUSH2 0xC35 PUSH1 0x19 DUP4 PUSH2 0xE62 JUMP JUMPDEST SWAP2 POP PUSH2 0xC40 DUP3 PUSH2 0xFDD JUMP JUMPDEST PUSH1 0x20 DUP3 ADD SWAP1 POP SWAP2 SWAP1 POP JUMP JUMPDEST PUSH1 0x0 PUSH2 0xC58 PUSH1 0x17 DUP4 PUSH2 0xE62 JUMP JUMPDEST SWAP2 POP PUSH2 0xC63 DUP3 PUSH2 0x1006 JUMP JUMPDEST PUSH1 0x20 DUP3 ADD SWAP1 POP SWAP2 SWAP1 POP JUMP JUMPDEST PUSH1 0x0 PUSH2 0xC7B PUSH1 0x14 DUP4 PUSH2 0xE62 JUMP JUMPDEST SWAP2 POP PUSH2 0xC86 DUP3 PUSH2 0x102F JUMP JUMPDEST PUSH1 0x20 DUP3 ADD SWAP1 POP SWAP2 SWAP1 POP JUMP JUMPDEST PUSH2 0xC9A DUP2 PUSH2 0xF07 JUMP JUMPDEST DUP3 MSTORE POP POP JUMP JUMPDEST PUSH2 0xCA9 DUP2 PUSH2 0xF11 JUMP JUMPDEST DUP3 MSTORE POP POP JUMP JUMPDEST PUSH1 0x0 PUSH1 0x60 DUP3 ADD SWAP1 POP PUSH2 0xCC4 PUSH1 0x0 DUP4 ADD DUP7 PUSH2 0xBB5 JUMP JUMPDEST PUSH2 0xCD1 PUSH1 0x20 DUP4 ADD DUP6 PUSH2 0xBB5 JUMP JUMPDEST PUSH2 0xCDE PUSH1 0x40 DUP4 ADD DUP5 PUSH2 0xC91 JUMP JUMPDEST SWAP5 SWAP4 POP POP POP POP JUMP JUMPDEST PUSH1 0x0 PUSH1 0xC0 DUP3 ADD SWAP1 POP PUSH2 0xCFB PUSH1 0x0 DUP4 ADD DUP10 PUSH2 0xBB5 JUMP JUMPDEST PUSH2 0xD08 PUSH1 0x20 DUP4 ADD DUP9 PUSH2 0xC91 JUMP JUMPDEST PUSH2 0xD15 PUSH1 0x40 DUP4 ADD DUP8 PUSH2 0xC91 JUMP JUMPDEST PUSH2 0xD22 PUSH1 0x60 DUP4 ADD DUP7 PUSH2 0xCA0 JUMP JUMPDEST PUSH2 0xD2F PUSH1 0x80 DUP4 ADD DUP6 PUSH2 0xCA0 JUMP JUMPDEST PUSH2 0xD3C PUSH1 0xA0 DUP4 ADD DUP5 PUSH2 0xBC4 JUMP JUMPDEST SWAP8 SWAP7 POP POP POP POP POP POP POP JUMP JUMPDEST PUSH1 0x0 PUSH1 0x20 DUP3 ADD SWAP1 POP PUSH2 0xD5C PUSH1 0x0 DUP4 ADD DUP5 PUSH2 0xBD3 JUMP JUMPDEST SWAP3 SWAP2 POP POP JUMP JUMPDEST PUSH1 0x0 PUSH1 0x20 DUP3 ADD SWAP1 POP DUP2 DUP2 SUB PUSH1 0x0 DUP4 ADD MSTORE PUSH2 0xD7B DUP2 PUSH2 0xBE2 JUMP JUMPDEST SWAP1 POP SWAP2 SWAP1 POP JUMP JUMPDEST PUSH1 0x0 PUSH1 0x20 DUP3 ADD SWAP1 POP DUP2 DUP2 SUB PUSH1 0x0 DUP4 ADD MSTORE PUSH2 0xD9B DUP2 PUSH2 0xC05 JUMP JUMPDEST SWAP1 POP SWAP2 SWAP1 POP JUMP JUMPDEST PUSH1 0x0 PUSH1 0x20 DUP3 ADD SWAP1 POP DUP2 DUP2 SUB PUSH1 0x0 DUP4 ADD MSTORE PUSH2 0xDBB DUP2 PUSH2 0xC28 JUMP JUMPDEST SWAP1 POP SWAP2 SWAP1 POP JUMP JUMPDEST PUSH1 0x0 PUSH1 0x20 DUP3 ADD SWAP1 POP DUP2 DUP2 SUB PUSH1 0x0 DUP4 ADD MSTORE PUSH2 0xDDB DUP2 PUSH2 0xC4B JUMP JUMPDEST SWAP1 POP SWAP2 SWAP1 POP JUMP JUMPDEST PUSH1 0x0 PUSH1 0x20 DUP3 ADD SWAP1 POP DUP2 DUP2 SUB PUSH1 0x0 DUP4 ADD MSTORE PUSH2 0xDFB DUP2 PUSH2 0xC6E JUMP JUMPDEST SWAP1 POP SWAP2 SWAP1 POP JUMP JUMPDEST PUSH1 0x0 PUSH1 0x20 DUP3 ADD SWAP1 POP PUSH2 0xE17 PUSH1 0x0 DUP4 ADD DUP5 PUSH2 0xC91 JUMP JUMPDEST SWAP3 SWAP2 POP POP JUMP JUMPDEST PUSH1 0x0 PUSH1 0x80 DUP3 ADD SWAP1 POP PUSH2 0xE32 PUSH1 0x0 DUP4 ADD DUP8 PUSH2 0xC91 JUMP JUMPDEST PUSH2 0xE3F PUSH1 0x20 DUP4 ADD DUP7 PUSH2 0xC91 JUMP JUMPDEST PUSH2 0xE4C PUSH1 0x40 DUP4 ADD DUP6 PUSH2 0xCA0 JUMP JUMPDEST PUSH2 0xE59 PUSH1 0x60 DUP4 ADD DUP5 PUSH2 0xCA0 JUMP JUMPDEST SWAP6 SWAP5 POP POP POP POP POP JUMP JUMPDEST PUSH1 0x0 DUP3 DUP3 MSTORE PUSH1 0x20 DUP3 ADD SWAP1 POP SWAP3 SWAP2 POP POP JUMP JUMPDEST PUSH1 0x0 PUSH2 0xE7E DUP3 PUSH2 0xF07 JUMP JUMPDEST SWAP2 POP PUSH2 0xE89 DUP4 PUSH2 0xF07 JUMP JUMPDEST SWAP3 POP DUP3 PUSH32 0xFFFFFFFFFFFFFFFFFFFFFFFFFFFFFFFFFFFFFFFFFFFFFFFFFFFFFFFFFFFFFFFF SUB DUP3 GT ISZERO PUSH2 0xEBE JUMPI PUSH2 0xEBD PUSH2 0xF57 JUMP JUMPDEST JUMPDEST DUP3 DUP3 ADD SWAP1 POP SWAP3 SWAP2 POP POP JUMP JUMPDEST PUSH1 0x0 PUSH2 0xED4 DUP3 PUSH2 0xEE7 JUMP JUMPDEST SWAP1 POP SWAP2 SWAP1 POP JUMP JUMPDEST PUSH1 0x0 DUP2 ISZERO ISZERO SWAP1 POP SWAP2 SWAP1 POP JUMP JUMPDEST PUSH1 0x0 PUSH20 0xFFFFFFFFFFFFFFFFFFFFFFFFFFFFFFFFFFFFFFFF DUP3 AND SWAP1 POP SWAP2 SWAP1 POP JUMP JUMPDEST PUSH1 0x0 DUP2 SWAP1 POP SWAP2 SWAP1 POP JUMP JUMPDEST PUSH1 0x0 PUSH4 0xFFFFFFFF DUP3 AND SWAP1 POP SWAP2 SWAP1 POP JUMP JUMPDEST PUSH1 0x0 PUSH2 0xF2C DUP3 PUSH2 0xF33 JUMP JUMPDEST SWAP1 POP SWAP2 SWAP1 POP JUMP JUMPDEST PUSH1 0x0 PUSH2 0xF3E DUP3 PUSH2 0xF45 JUMP JUMPDEST SWAP1 POP SWAP2 SWAP1 POP JUMP JUMPDEST PUSH1 0x0 PUSH2 0xF50 DUP3 PUSH2 0xEE7 JUMP JUMPDEST SWAP1 POP SWAP2 SWAP1 POP JUMP JUMPDEST PUSH32 0x4E487B7100000000000000000000000000000000000000000000000000000000 PUSH1 0x0 MSTORE PUSH1 0x11 PUSH1 0x4 MSTORE PUSH1 0x24 PUSH1 0x0 REVERT JUMPDEST PUSH1 0x0 DUP1 REVERT JUMPDEST PUSH32 0x7374617274206174203C206E6F77000000000000000000000000000000000000 PUSH1 0x0 DUP3 ADD MSTORE POP JUMP JUMPDEST PUSH32 0x43616D706169676E206E6F742073746172746564210000000000000000000000 PUSH1 0x0 DUP3 ADD MSTORE POP JUMP JUMPDEST PUSH32 0x43616D706169676E20616C726561647920737461727465642100000000000000 PUSH1 0x0 DUP3 ADD MSTORE POP JUMP JUMPDEST PUSH32 0x43616D706169676E20616C726561647920656E64656421000000000000000000 PUSH1 0x0 DUP3 ADD MSTORE POP JUMP JUMPDEST PUSH32 0x596F75206D7573742062652063726561746F7221000000000000000000000000 PUSH1 0x0 DUP3 ADD MSTORE POP JUMP JUMPDEST PUSH2 0x1061 DUP2 PUSH2 0xEC9 JUMP JUMPDEST DUP2 EQ PUSH2 0x106C JUMPI PUSH1 0x0 DUP1 REVERT JUMPDEST POP JUMP JUMPDEST PUSH2 0x1078 DUP2 PUSH2 0xEDB JUMP JUMPDEST DUP2 EQ PUSH2 0x1083 JUMPI PUSH1 0x0 DUP1 REVERT JUMPDEST POP JUMP JUMPDEST PUSH2 0x108F DUP2 PUSH2 0xF07 JUMP JUMPDEST DUP2 EQ PUSH2 0x109A JUMPI PUSH1 0x0 DUP1 REVERT JUMPDEST POP JUMP JUMPDEST PUSH2 0x10A6 DUP2 PUSH2 0xF11 JUMP JUMPDEST DUP2 EQ PUSH2 0x10B1 JUMPI PUSH1 0x0 DUP1 REVERT JUMPDEST POP JUMP INVALID LOG2 PUSH5 0x6970667358 0x22 SLT KECCAK256 DUP2 0x2E 0x23 0xF7 DUP15 PUSH4 0x148E08BB 0xB6 DUP4 0xF6 SWAP12 SHR PUSH10 0xD10BB77697A15AD0B1AE CALLER 0x2E 0xCB JUMPI POP 0xD6 PUSH5 0x736F6C6343 STOP ADDMOD SMOD STOP CALLER "
				},
				"gasEstimates": {
					"creation": {
						"codeDepositCost": "866000",
						"executionCost": "infinite",
						"totalCost": "infinite"
					},
					"external": {
						"campaigns(uint256)": "infinite",
						"cancel(uint256)": "infinite",
						"claim(uint256)": "473",
						"count()": "2430",
						"lunch(uint256,uint32,uint32)": "infinite",
						"pledge(uint256,uint256)": "infinite",
						"pledgedAmount(uint256,address)": "infinite",
						"refund(uint256)": "451",
						"token()": "infinite",
						"unpledge(uint256,uint256)": "infinite"
					}
				},
				"methodIdentifiers": {
					"campaigns(uint256)": "141961bc",
					"cancel(uint256)": "40e58ee5",
					"claim(uint256)": "379607f5",
					"count()": "06661abd",
					"lunch(uint256,uint32,uint32)": "daf69940",
					"pledge(uint256,uint256)": "fde327be",
					"pledgedAmount(uint256,address)": "aa4fb63a",
					"refund(uint256)": "278ecde1",
					"token()": "fc0c546a",
					"unpledge(uint256,uint256)": "711853ab"
				}
			},
			"storageLayout": {
				"storage": [
					{
						"astId": 23,
						"contract": "CrowdFund.sol:CrowdFund",
						"label": "campaigns",
						"offset": 0,
						"slot": "0",
						"type": "t_mapping(t_uint256,t_struct(Campaign)15_storage)"
					},
					{
						"astId": 29,
						"contract": "CrowdFund.sol:CrowdFund",
						"label": "pledgedAmount",
						"offset": 0,
						"slot": "1",
						"type": "t_mapping(t_uint256,t_mapping(t_address,t_uint256))"
					},
					{
						"astId": 31,
						"contract": "CrowdFund.sol:CrowdFund",
						"label": "count",
						"offset": 0,
						"slot": "2",
						"type": "t_uint256"
					}
				],
				"types": {
					"t_address": {
						"encoding": "inplace",
						"label": "address",
						"numberOfBytes": "20"
					},
					"t_bool": {
						"encoding": "inplace",
						"label": "bool",
						"numberOfBytes": "1"
					},
					"t_mapping(t_address,t_uint256)": {
						"encoding": "mapping",
						"key": "t_address",
						"label": "mapping(address => uint256)",
						"numberOfBytes": "32",
						"value": "t_uint256"
					},
					"t_mapping(t_uint256,t_mapping(t_address,t_uint256))": {
						"encoding": "mapping",
						"key": "t_uint256",
						"label": "mapping(uint256 => mapping(address => uint256))",
						"numberOfBytes": "32",
						"value": "t_mapping(t_address,t_uint256)"
					},
					"t_mapping(t_uint256,t_struct(Campaign)15_storage)": {
						"encoding": "mapping",
						"key": "t_uint256",
						"label": "mapping(uint256 => struct CrowdFund.Campaign)",
						"numberOfBytes": "32",
						"value": "t_struct(Campaign)15_storage"
					},
					"t_struct(Campaign)15_storage": {
						"encoding": "inplace",
						"label": "struct CrowdFund.Campaign",
						"members": [
							{
								"astId": 4,
								"contract": "CrowdFund.sol:CrowdFund",
								"label": "creator",
								"offset": 0,
								"slot": "0",
								"type": "t_address"
							},
							{
								"astId": 6,
								"contract": "CrowdFund.sol:CrowdFund",
								"label": "goal",
								"offset": 0,
								"slot": "1",
								"type": "t_uint256"
							},
							{
								"astId": 8,
								"contract": "CrowdFund.sol:CrowdFund",
								"label": "pledged",
								"offset": 0,
								"slot": "2",
								"type": "t_uint256"
							},
							{
								"astId": 10,
								"contract": "CrowdFund.sol:CrowdFund",
								"label": "startAt",
								"offset": 0,
								"slot": "3",
								"type": "t_uint32"
							},
							{
								"astId": 12,
								"contract": "CrowdFund.sol:CrowdFund",
								"label": "endAt",
								"offset": 4,
								"slot": "3",
								"type": "t_uint32"
							},
							{
								"astId": 14,
								"contract": "CrowdFund.sol:CrowdFund",
								"label": "claimed",
								"offset": 8,
								"slot": "3",
								"type": "t_bool"
							}
						],
						"numberOfBytes": "128"
					},
					"t_uint256": {
						"encoding": "inplace",
						"label": "uint256",
						"numberOfBytes": "32"
					},
					"t_uint32": {
						"encoding": "inplace",
						"label": "uint32",
						"numberOfBytes": "4"
					}
				}
			},
			"userdoc": {
				"kind": "user",
				"methods": {},
				"version": 1
			}
		}
	}
}