{
	"CrowdFund.sol": {
		"CrowdFund": {
			"abi": [
				{
					"inputs": [
						{
							"internalType": "address",
							"name": "_token",
							"type": "address"
						}
					],
					"stateMutability": "nonpayable",
					"type": "constructor"
				},
				{
					"anonymous": false,
					"inputs": [
						{
							"indexed": false,
							"internalType": "uint256",
							"name": "id",
							"type": "uint256"
						}
					],
					"name": "Cancel",
					"type": "event"
				},
				{
					"anonymous": false,
					"inputs": [
						{
							"indexed": false,
							"internalType": "uint256",
							"name": "id",
							"type": "uint256"
						}
					],
					"name": "Claim",
					"type": "event"
				},
				{
					"anonymous": false,
					"inputs": [
						{
							"indexed": false,
							"internalType": "uint256",
							"name": "id",
							"type": "uint256"
						},
						{
							"indexed": true,
							"internalType": "address",
							"name": "creator",
							"type": "address"
						},
						{
							"indexed": false,
							"internalType": "uint256",
							"name": "goal",
							"type": "uint256"
						},
						{
							"indexed": false,
							"internalType": "uint32",
							"name": "startAt",
							"type": "uint32"
						},
						{
							"indexed": false,
							"internalType": "uint32",
							"name": "endAt",
							"type": "uint32"
						}
					],
					"name": "Launch",
					"type": "event"
				},
				{
					"anonymous": false,
					"inputs": [
						{
							"indexed": true,
							"internalType": "uint256",
							"name": "id",
							"type": "uint256"
						},
						{
							"indexed": true,
							"internalType": "address",
							"name": "caller",
							"type": "address"
						},
						{
							"indexed": false,
							"internalType": "uint256",
							"name": "amount",
							"type": "uint256"
						}
					],
					"name": "Pledge",
					"type": "event"
				},
				{
					"anonymous": false,
					"inputs": [
						{
							"indexed": true,
							"internalType": "uint256",
							"name": "id",
							"type": "uint256"
						},
						{
							"indexed": true,
							"internalType": "address",
							"name": "caller",
							"type": "address"
						},
						{
							"indexed": false,
							"internalType": "uint256",
							"name": "amount",
							"type": "uint256"
						}
					],
					"name": "Refund",
					"type": "event"
				},
				{
					"anonymous": false,
					"inputs": [
						{
							"indexed": true,
							"internalType": "uint256",
							"name": "id",
							"type": "uint256"
						},
						{
							"indexed": true,
							"internalType": "address",
							"name": "caller",
							"type": "address"
						},
						{
							"indexed": false,
							"internalType": "uint256",
							"name": "amount",
							"type": "uint256"
						}
					],
					"name": "Unpledge",
					"type": "event"
				},
				{
					"inputs": [
						{
							"internalType": "uint256",
							"name": "",
							"type": "uint256"
						}
					],
					"name": "campaigns",
					"outputs": [
						{
							"internalType": "address",
							"name": "creator",
							"type": "address"
						},
						{
							"internalType": "uint256",
							"name": "goal",
							"type": "uint256"
						},
						{
							"internalType": "uint256",
							"name": "pledged",
							"type": "uint256"
						},
						{
							"internalType": "uint32",
							"name": "startAt",
							"type": "uint32"
						},
						{
							"internalType": "uint32",
							"name": "endAt",
							"type": "uint32"
						},
						{
							"internalType": "bool",
							"name": "claimed",
							"type": "bool"
						}
					],
					"stateMutability": "view",
					"type": "function"
				},
				{
					"inputs": [
						{
							"internalType": "uint256",
							"name": "campaignId",
							"type": "uint256"
						}
					],
					"name": "cancel",
					"outputs": [],
					"stateMutability": "nonpayable",
					"type": "function"
				},
				{
					"inputs": [
						{
							"internalType": "uint256",
							"name": "campaignId",
							"type": "uint256"
						}
					],
					"name": "claim",
					"outputs": [],
					"stateMutability": "nonpayable",
					"type": "function"
				},
				{
					"inputs": [],
					"name": "count",
					"outputs": [
						{
							"internalType": "uint256",
							"name": "",
							"type": "uint256"
						}
					],
					"stateMutability": "view",
					"type": "function"
				},
				{
					"inputs": [
						{
							"internalType": "uint256",
							"name": "_goal",
							"type": "uint256"
						},
						{
							"internalType": "uint32",
							"name": "_startAt",
							"type": "uint32"
						},
						{
							"internalType": "uint32",
							"name": "_endAt",
							"type": "uint32"
						}
					],
					"name": "lunch",
					"outputs": [],
					"stateMutability": "nonpayable",
					"type": "function"
				},
				{
					"inputs": [
						{
							"internalType": "uint256",
							"name": "campaignId",
							"type": "uint256"
						},
						{
							"internalType": "uint256",
							"name": "amount",
							"type": "uint256"
						}
					],
					"name": "pledge",
					"outputs": [],
					"stateMutability": "nonpayable",
					"type": "function"
				},
				{
					"inputs": [
						{
							"internalType": "uint256",
							"name": "",
							"type": "uint256"
						},
						{
							"internalType": "address",
							"name": "",
							"type": "address"
						}
					],
					"name": "pledgedAmount",
					"outputs": [
						{
							"internalType": "uint256",
							"name": "",
							"type": "uint256"
						}
					],
					"stateMutability": "view",
					"type": "function"
				},
				{
					"inputs": [
						{
							"internalType": "uint256",
							"name": "campaignId",
							"type": "uint256"
						}
					],
					"name": "refund",
					"outputs": [],
					"stateMutability": "nonpayable",
					"type": "function"
				},
				{
					"inputs": [],
					"name": "token",
					"outputs": [
						{
							"internalType": "contract IERC20",
							"name": "",
							"type": "address"
						}
					],
					"stateMutability": "view",
					"type": "function"
				},
				{
					"inputs": [
						{
							"internalType": "uint256",
							"name": "campaignId",
							"type": "uint256"
						},
						{
							"internalType": "uint256",
							"name": "unpledgeAmount",
							"type": "uint256"
						}
					],
					"name": "unpledge",
					"outputs": [],
					"stateMutability": "nonpayable",
					"type": "function"
				}
			],
			"devdoc": {
				"kind": "dev",
				"methods": {},
				"version": 1
			},
			"evm": {
				"assembly": "    /* \"CrowdFund.sol\":288:10544  contract CrowdFund{\r... */\n  mstore(0x40, 0xa0)\n    /* \"CrowdFund.sol\":1516:1584  constructor(address _token){\r... */\n  callvalue\n  dup1\n  iszero\n  tag_1\n  jumpi\n  0x00\n  dup1\n  revert\ntag_1:\n  pop\n  mload(0x40)\n  sub(codesize, bytecodeSize)\n  dup1\n  bytecodeSize\n  dup4\n  codecopy\n  dup2\n  dup2\n  add\n  0x40\n  mstore\n  dup2\n  add\n  swap1\n  tag_2\n  swap2\n  swap1\n  tag_3\n  jump\t// in\ntag_2:\n    /* \"CrowdFund.sol\":1569:1575  _token */\n  dup1\n    /* \"CrowdFund.sol\":1554:1576  token = IERC20(_token) */\n  0xffffffffffffffffffffffffffffffffffffffff\n  and\n  0x80\n  dup2\n  0xffffffffffffffffffffffffffffffffffffffff\n  and\n  0x60\n  shl\n  dup2\n  mstore\n  pop\n  pop\n    /* \"CrowdFund.sol\":1516:1584  constructor(address _token){\r... */\n  pop\n    /* \"CrowdFund.sol\":288:10544  contract CrowdFund{\r... */\n  jump(tag_6)\n    /* \"#utility.yul\":7:150   */\ntag_8:\n    /* \"#utility.yul\":64:69   */\n  0x00\n    /* \"#utility.yul\":95:101   */\n  dup2\n    /* \"#utility.yul\":89:102   */\n  mload\n    /* \"#utility.yul\":80:102   */\n  swap1\n  pop\n    /* \"#utility.yul\":111:144   */\n  tag_10\n    /* \"#utility.yul\":138:143   */\n  dup2\n    /* \"#utility.yul\":111:144   */\n  tag_11\n  jump\t// in\ntag_10:\n    /* \"#utility.yul\":7:150   */\n  swap3\n  swap2\n  pop\n  pop\n  jump\t// out\n    /* \"#utility.yul\":156:507   */\ntag_3:\n    /* \"#utility.yul\":226:232   */\n  0x00\n    /* \"#utility.yul\":275:277   */\n  0x20\n    /* \"#utility.yul\":263:272   */\n  dup3\n    /* \"#utility.yul\":254:261   */\n  dup5\n    /* \"#utility.yul\":250:273   */\n  sub\n    /* \"#utility.yul\":246:278   */\n  slt\n    /* \"#utility.yul\":243:362   */\n  iszero\n  tag_13\n  jumpi\n    /* \"#utility.yul\":281:360   */\n  tag_14\n  tag_15\n  jump\t// in\ntag_14:\n    /* \"#utility.yul\":243:362   */\ntag_13:\n    /* \"#utility.yul\":401:402   */\n  0x00\n    /* \"#utility.yul\":426:490   */\n  tag_16\n    /* \"#utility.yul\":482:489   */\n  dup5\n    /* \"#utility.yul\":473:479   */\n  dup3\n    /* \"#utility.yul\":462:471   */\n  dup6\n    /* \"#utility.yul\":458:480   */\n  add\n    /* \"#utility.yul\":426:490   */\n  tag_8\n  jump\t// in\ntag_16:\n    /* \"#utility.yul\":416:490   */\n  swap2\n  pop\n    /* \"#utility.yul\":372:500   */\n  pop\n    /* \"#utility.yul\":156:507   */\n  swap3\n  swap2\n  pop\n  pop\n  jump\t// out\n    /* \"#utility.yul\":594:690   */\ntag_19:\n    /* \"#utility.yul\":631:638   */\n  0x00\n    /* \"#utility.yul\":660:684   */\n  tag_21\n    /* \"#utility.yul\":678:683   */\n  dup3\n    /* \"#utility.yul\":660:684   */\n  tag_22\n  jump\t// in\ntag_21:\n    /* \"#utility.yul\":649:684   */\n  swap1\n  pop\n    /* \"#utility.yul\":594:690   */\n  swap2\n  swap1\n  pop\n  jump\t// out\n    /* \"#utility.yul\":696:822   */\ntag_22:\n    /* \"#utility.yul\":733:740   */\n  0x00\n    /* \"#utility.yul\":773:815   */\n  0xffffffffffffffffffffffffffffffffffffffff\n    /* \"#utility.yul\":766:771   */\n  dup3\n    /* \"#utility.yul\":762:816   */\n  and\n    /* \"#utility.yul\":751:816   */\n  swap1\n  pop\n    /* \"#utility.yul\":696:822   */\n  swap2\n  swap1\n  pop\n  jump\t// out\n    /* \"#utility.yul\":951:1068   */\ntag_15:\n    /* \"#utility.yul\":1060:1061   */\n  0x00\n    /* \"#utility.yul\":1057:1058   */\n  dup1\n    /* \"#utility.yul\":1050:1062   */\n  revert\n    /* \"#utility.yul\":1074:1196   */\ntag_11:\n    /* \"#utility.yul\":1147:1171   */\n  tag_28\n    /* \"#utility.yul\":1165:1170   */\n  dup2\n    /* \"#utility.yul\":1147:1171   */\n  tag_19\n  jump\t// in\ntag_28:\n    /* \"#utility.yul\":1140:1145   */\n  dup2\n    /* \"#utility.yul\":1137:1172   */\n  eq\n    /* \"#utility.yul\":1127:1190   */\n  tag_29\n  jumpi\n    /* \"#utility.yul\":1186:1187   */\n  0x00\n    /* \"#utility.yul\":1183:1184   */\n  dup1\n    /* \"#utility.yul\":1176:1188   */\n  revert\n    /* \"#utility.yul\":1127:1190   */\ntag_29:\n    /* \"#utility.yul\":1074:1196   */\n  pop\n  jump\t// out\n    /* \"CrowdFund.sol\":288:10544  contract CrowdFund{\r... */\ntag_6:\n  shr(0x60, mload(0x80))\n  codecopy(0x00, dataOffset(sub_0), dataSize(sub_0))\n  0x00\n  assignImmutable(\"0xd67d834462ca31eaef1f30157e31659f60355143b7441e6fc7d9eae1fa79f3f8\")\n  return(0x00, dataSize(sub_0))\nstop\n\nsub_0: assembly {\n        /* \"CrowdFund.sol\":288:10544  contract CrowdFund{\r... */\n      mstore(0x40, 0x80)\n      callvalue\n      dup1\n      iszero\n      tag_1\n      jumpi\n      0x00\n      dup1\n      revert\n    tag_1:\n      pop\n      jumpi(tag_2, lt(calldatasize, 0x04))\n      shr(0xe0, calldataload(0x00))\n      dup1\n      0x711853ab\n      gt\n      tag_13\n      jumpi\n      dup1\n      0x711853ab\n      eq\n      tag_8\n      jumpi\n      dup1\n      0xaa4fb63a\n      eq\n      tag_9\n      jumpi\n      dup1\n      0xdaf69940\n      eq\n      tag_10\n      jumpi\n      dup1\n      0xfc0c546a\n      eq\n      tag_11\n      jumpi\n      dup1\n      0xfde327be\n      eq\n      tag_12\n      jumpi\n      jump(tag_2)\n    tag_13:\n      dup1\n      0x06661abd\n      eq\n      tag_3\n      jumpi\n      dup1\n      0x141961bc\n      eq\n      tag_4\n      jumpi\n      dup1\n      0x278ecde1\n      eq\n      tag_5\n      jumpi\n      dup1\n      0x379607f5\n      eq\n      tag_6\n      jumpi\n      dup1\n      0x40e58ee5\n      eq\n      tag_7\n      jumpi\n    tag_2:\n      0x00\n      dup1\n      revert\n        /* \"CrowdFund.sol\":1372:1389  uint public count */\n    tag_3:\n      tag_14\n      tag_15\n      jump\t// in\n    tag_14:\n      mload(0x40)\n      tag_16\n      swap2\n      swap1\n      tag_17\n      jump\t// in\n    tag_16:\n      mload(0x40)\n      dup1\n      swap2\n      sub\n      swap1\n      return\n        /* \"CrowdFund.sol\":1086:1128  mapping(uint => Campaign) public campaigns */\n    tag_4:\n      tag_18\n      0x04\n      dup1\n      calldatasize\n      sub\n      dup2\n      add\n      swap1\n      tag_19\n      swap2\n      swap1\n      tag_20\n      jump\t// in\n    tag_19:\n      tag_21\n      jump\t// in\n    tag_18:\n      mload(0x40)\n      tag_22\n      swap7\n      swap6\n      swap5\n      swap4\n      swap3\n      swap2\n      swap1\n      tag_23\n      jump\t// in\n    tag_22:\n      mload(0x40)\n      dup1\n      swap2\n      sub\n      swap1\n      return\n        /* \"CrowdFund.sol\":9320:10537  function refund(uint campaignId) external {\r... */\n    tag_5:\n      tag_24\n      0x04\n      dup1\n      calldatasize\n      sub\n      dup2\n      add\n      swap1\n      tag_25\n      swap2\n      swap1\n      tag_20\n      jump\t// in\n    tag_25:\n      tag_26\n      jump\t// in\n    tag_24:\n      stop\n        /* \"CrowdFund.sol\":7780:9197  function claim(uint campaignId) external {\r... */\n    tag_6:\n      tag_27\n      0x04\n      dup1\n      calldatasize\n      sub\n      dup2\n      add\n      swap1\n      tag_28\n      swap2\n      swap1\n      tag_20\n      jump\t// in\n    tag_28:\n      tag_29\n      jump\t// in\n    tag_27:\n      stop\n        /* \"CrowdFund.sol\":4565:5398  function cancel(uint campaignId) external {\r... */\n    tag_7:\n      tag_30\n      0x04\n      dup1\n      calldatasize\n      sub\n      dup2\n      add\n      swap1\n      tag_31\n      swap2\n      swap1\n      tag_20\n      jump\t// in\n    tag_31:\n      tag_32\n      jump\t// in\n    tag_30:\n      stop\n        /* \"CrowdFund.sol\":6706:7657  function unpledge(uint campaignId, uint unpledgeAmount) external {\r... */\n    tag_8:\n      tag_33\n      0x04\n      dup1\n      calldatasize\n      sub\n      dup2\n      add\n      swap1\n      tag_34\n      swap2\n      swap1\n      tag_35\n      jump\t// in\n    tag_34:\n      tag_36\n      jump\t// in\n    tag_33:\n      stop\n        /* \"CrowdFund.sol\":1212:1274  mapping(uint => mapping(address => uint)) public pledgedAmount */\n    tag_9:\n      tag_37\n      0x04\n      dup1\n      calldatasize\n      sub\n      dup2\n      add\n      swap1\n      tag_38\n      swap2\n      swap1\n      tag_39\n      jump\t// in\n    tag_38:\n      tag_40\n      jump\t// in\n    tag_37:\n      mload(0x40)\n      tag_41\n      swap2\n      swap1\n      tag_17\n      jump\t// in\n    tag_41:\n      mload(0x40)\n      dup1\n      swap2\n      sub\n      swap1\n      return\n        /* \"CrowdFund.sol\":3127:4459  function lunch(uint _goal, uint32 _startAt, uint32 _endAt) external {\r... */\n    tag_10:\n      tag_42\n      0x04\n      dup1\n      calldatasize\n      sub\n      dup2\n      add\n      swap1\n      tag_43\n      swap2\n      swap1\n      tag_44\n      jump\t// in\n    tag_43:\n      tag_45\n      jump\t// in\n    tag_42:\n      stop\n        /* \"CrowdFund.sol\":973:1002  IERC20 public immutable token */\n    tag_11:\n      tag_46\n      tag_47\n      jump\t// in\n    tag_46:\n      mload(0x40)\n      tag_48\n      swap2\n      swap1\n      tag_49\n      jump\t// in\n    tag_48:\n      mload(0x40)\n      dup1\n      swap2\n      sub\n      swap1\n      return\n        /* \"CrowdFund.sol\":5492:6608  function pledge(uint campaignId, uint amount) external {\r... */\n    tag_12:\n      tag_50\n      0x04\n      dup1\n      calldatasize\n      sub\n      dup2\n      add\n      swap1\n      tag_51\n      swap2\n      swap1\n      tag_35\n      jump\t// in\n    tag_51:\n      tag_52\n      jump\t// in\n    tag_50:\n      stop\n        /* \"CrowdFund.sol\":1372:1389  uint public count */\n    tag_15:\n      sload(0x02)\n      dup2\n      jump\t// out\n        /* \"CrowdFund.sol\":1086:1128  mapping(uint => Campaign) public campaigns */\n    tag_21:\n      mstore(0x20, 0x00)\n      dup1\n      0x00\n      mstore\n      keccak256(0x00, 0x40)\n      0x00\n      swap2\n      pop\n      swap1\n      pop\n      dup1\n      0x00\n      add\n      0x00\n      swap1\n      sload\n      swap1\n      0x0100\n      exp\n      swap1\n      div\n      0xffffffffffffffffffffffffffffffffffffffff\n      and\n      swap1\n      dup1\n      0x01\n      add\n      sload\n      swap1\n      dup1\n      0x02\n      add\n      sload\n      swap1\n      dup1\n      0x03\n      add\n      0x00\n      swap1\n      sload\n      swap1\n      0x0100\n      exp\n      swap1\n      div\n      0xffffffff\n      and\n      swap1\n      dup1\n      0x03\n      add\n      0x04\n      swap1\n      sload\n      swap1\n      0x0100\n      exp\n      swap1\n      div\n      0xffffffff\n      and\n      swap1\n      dup1\n      0x03\n      add\n      0x08\n      swap1\n      sload\n      swap1\n      0x0100\n      exp\n      swap1\n      div\n      0xff\n      and\n      swap1\n      pop\n      dup7\n      jump\t// out\n        /* \"CrowdFund.sol\":9320:10537  function refund(uint campaignId) external {\r... */\n    tag_26:\n        /* \"CrowdFund.sol\":9373:9398  Campaign storage campaign */\n      0x00\n        /* \"CrowdFund.sol\":9401:9410  campaigns */\n      dup1\n        /* \"CrowdFund.sol\":9401:9422  campaigns[campaignId] */\n      0x00\n        /* \"CrowdFund.sol\":9411:9421  campaignId */\n      dup4\n        /* \"CrowdFund.sol\":9401:9422  campaigns[campaignId] */\n      dup2\n      mstore\n      0x20\n      add\n      swap1\n      dup2\n      mstore\n      0x20\n      add\n      0x00\n      keccak256\n        /* \"CrowdFund.sol\":9373:9422  Campaign storage campaign = campaigns[campaignId] */\n      swap1\n      pop\n        /* \"CrowdFund.sol\":9564:9579  block.timestamp */\n      timestamp\n        /* \"CrowdFund.sol\":9547:9555  campaign */\n      dup2\n        /* \"CrowdFund.sol\":9547:9561  campaign.endAt */\n      0x03\n      add\n      0x04\n      swap1\n      sload\n      swap1\n      0x0100\n      exp\n      swap1\n      div\n      0xffffffff\n      and\n        /* \"CrowdFund.sol\":9547:9579  campaign.endAt < block.timestamp */\n      0xffffffff\n      and\n      lt\n        /* \"CrowdFund.sol\":9539:9613  require(campaign.endAt < block.timestamp, \"The campaign is not over yet!\") */\n      tag_54\n      jumpi\n      mload(0x40)\n      0x08c379a000000000000000000000000000000000000000000000000000000000\n      dup2\n      mstore\n      0x04\n      add\n      tag_55\n      swap1\n      tag_56\n      jump\t// in\n    tag_55:\n      mload(0x40)\n      dup1\n      swap2\n      sub\n      swap1\n      revert\n    tag_54:\n        /* \"CrowdFund.sol\":9750:9758  campaign */\n      dup1\n        /* \"CrowdFund.sol\":9750:9763  campaign.goal */\n      0x01\n      add\n      sload\n        /* \"CrowdFund.sol\":9731:9739  campaign */\n      dup2\n        /* \"CrowdFund.sol\":9731:9747  campaign.pledged */\n      0x02\n      add\n      sload\n        /* \"CrowdFund.sol\":9731:9763  campaign.pledged < campaign.goal */\n      lt\n        /* \"CrowdFund.sol\":9723:9802  require(campaign.pledged < campaign.goal, \"The campaign has reached its goal!\") */\n      tag_57\n      jumpi\n      mload(0x40)\n      0x08c379a000000000000000000000000000000000000000000000000000000000\n      dup2\n      mstore\n      0x04\n      add\n      tag_58\n      swap1\n      tag_59\n      jump\t// in\n    tag_58:\n      mload(0x40)\n      dup1\n      swap2\n      sub\n      swap1\n      revert\n    tag_57:\n        /* \"CrowdFund.sol\":9936:9948  uint balance */\n      0x00\n        /* \"CrowdFund.sol\":9951:9964  pledgedAmount */\n      0x01\n        /* \"CrowdFund.sol\":9951:9976  pledgedAmount[campaignId] */\n      0x00\n        /* \"CrowdFund.sol\":9965:9975  campaignId */\n      dup5\n        /* \"CrowdFund.sol\":9951:9976  pledgedAmount[campaignId] */\n      dup2\n      mstore\n      0x20\n      add\n      swap1\n      dup2\n      mstore\n      0x20\n      add\n      0x00\n      keccak256\n        /* \"CrowdFund.sol\":9951:9988  pledgedAmount[campaignId][msg.sender] */\n      0x00\n        /* \"CrowdFund.sol\":9977:9987  msg.sender */\n      caller\n        /* \"CrowdFund.sol\":9951:9988  pledgedAmount[campaignId][msg.sender] */\n      0xffffffffffffffffffffffffffffffffffffffff\n      and\n      0xffffffffffffffffffffffffffffffffffffffff\n      and\n      dup2\n      mstore\n      0x20\n      add\n      swap1\n      dup2\n      mstore\n      0x20\n      add\n      0x00\n      keccak256\n      sload\n        /* \"CrowdFund.sol\":9936:9988  uint balance = pledgedAmount[campaignId][msg.sender] */\n      swap1\n      pop\n        /* \"CrowdFund.sol\":10175:10176  0 */\n      0x00\n        /* \"CrowdFund.sol\":10135:10148  pledgedAmount */\n      0x01\n        /* \"CrowdFund.sol\":10135:10160  pledgedAmount[campaignId] */\n      0x00\n        /* \"CrowdFund.sol\":10149:10159  campaignId */\n      dup6\n        /* \"CrowdFund.sol\":10135:10160  pledgedAmount[campaignId] */\n      dup2\n      mstore\n      0x20\n      add\n      swap1\n      dup2\n      mstore\n      0x20\n      add\n      0x00\n      keccak256\n        /* \"CrowdFund.sol\":10135:10172  pledgedAmount[campaignId][msg.sender] */\n      0x00\n        /* \"CrowdFund.sol\":10161:10171  msg.sender */\n      caller\n        /* \"CrowdFund.sol\":10135:10172  pledgedAmount[campaignId][msg.sender] */\n      0xffffffffffffffffffffffffffffffffffffffff\n      and\n      0xffffffffffffffffffffffffffffffffffffffff\n      and\n      dup2\n      mstore\n      0x20\n      add\n      swap1\n      dup2\n      mstore\n      0x20\n      add\n      0x00\n      keccak256\n        /* \"CrowdFund.sol\":10135:10176  pledgedAmount[campaignId][msg.sender] = 0 */\n      dup2\n      swap1\n      sstore\n      pop\n        /* \"CrowdFund.sol\":10286:10291  token */\n      immutable(\"0xd67d834462ca31eaef1f30157e31659f60355143b7441e6fc7d9eae1fa79f3f8\")\n        /* \"CrowdFund.sol\":10286:10300  token.transfer */\n      0xffffffffffffffffffffffffffffffffffffffff\n      and\n      0xa9059cbb\n        /* \"CrowdFund.sol\":10301:10311  msg.sender */\n      caller\n        /* \"CrowdFund.sol\":10313:10320  balance */\n      dup4\n        /* \"CrowdFund.sol\":10286:10321  token.transfer(msg.sender, balance) */\n      mload(0x40)\n      dup4\n      0xffffffff\n      and\n      0xe0\n      shl\n      dup2\n      mstore\n      0x04\n      add\n      tag_60\n      swap3\n      swap2\n      swap1\n      tag_61\n      jump\t// in\n    tag_60:\n      0x20\n      mload(0x40)\n      dup1\n      dup4\n      sub\n      dup2\n      0x00\n      dup8\n      dup1\n      extcodesize\n      iszero\n      dup1\n      iszero\n      tag_62\n      jumpi\n      0x00\n      dup1\n      revert\n    tag_62:\n      pop\n      gas\n      call\n      iszero\n      dup1\n      iszero\n      tag_64\n      jumpi\n      returndatasize\n      0x00\n      dup1\n      returndatacopy\n      revert(0x00, returndatasize)\n    tag_64:\n      pop\n      pop\n      pop\n      pop\n      mload(0x40)\n      returndatasize\n      not(0x1f)\n      0x1f\n      dup3\n      add\n      and\n      dup3\n      add\n      dup1\n      0x40\n      mstore\n      pop\n      dup2\n      add\n      swap1\n      tag_65\n      swap2\n      swap1\n      tag_66\n      jump\t// in\n    tag_65:\n      pop\n        /* \"CrowdFund.sol\":10428:10438  msg.sender */\n      caller\n        /* \"CrowdFund.sol\":10409:10448  Refund(campaignId, msg.sender, balance) */\n      0xffffffffffffffffffffffffffffffffffffffff\n      and\n        /* \"CrowdFund.sol\":10416:10426  campaignId */\n      dup4\n        /* \"CrowdFund.sol\":10409:10448  Refund(campaignId, msg.sender, balance) */\n      0x21e12a7cad0da5928167e1084ea4d5fdf8d9af66657a2543a9ac76a0ca081477\n        /* \"CrowdFund.sol\":10440:10447  balance */\n      dup4\n        /* \"CrowdFund.sol\":10409:10448  Refund(campaignId, msg.sender, balance) */\n      mload(0x40)\n      tag_67\n      swap2\n      swap1\n      tag_17\n      jump\t// in\n    tag_67:\n      mload(0x40)\n      dup1\n      swap2\n      sub\n      swap1\n      log3\n        /* \"CrowdFund.sol\":9362:10537  {\r... */\n      pop\n      pop\n        /* \"CrowdFund.sol\":9320:10537  function refund(uint campaignId) external {\r... */\n      pop\n      jump\t// out\n        /* \"CrowdFund.sol\":7780:9197  function claim(uint campaignId) external {\r... */\n    tag_29:\n        /* \"CrowdFund.sol\":7832:7857  Campaign storage campaign */\n      0x00\n        /* \"CrowdFund.sol\":7860:7869  campaigns */\n      dup1\n        /* \"CrowdFund.sol\":7860:7881  campaigns[campaignId] */\n      0x00\n        /* \"CrowdFund.sol\":7870:7880  campaignId */\n      dup4\n        /* \"CrowdFund.sol\":7860:7881  campaigns[campaignId] */\n      dup2\n      mstore\n      0x20\n      add\n      swap1\n      dup2\n      mstore\n      0x20\n      add\n      0x00\n      keccak256\n        /* \"CrowdFund.sol\":7832:7881  Campaign storage campaign = campaigns[campaignId] */\n      swap1\n      pop\n        /* \"CrowdFund.sol\":8027:8037  msg.sender */\n      caller\n        /* \"CrowdFund.sol\":8007:8037  campaign.creator == msg.sender */\n      0xffffffffffffffffffffffffffffffffffffffff\n      and\n        /* \"CrowdFund.sol\":8007:8015  campaign */\n      dup2\n        /* \"CrowdFund.sol\":8007:8023  campaign.creator */\n      0x00\n      add\n      0x00\n      swap1\n      sload\n      swap1\n      0x0100\n      exp\n      swap1\n      div\n      0xffffffffffffffffffffffffffffffffffffffff\n      and\n        /* \"CrowdFund.sol\":8007:8037  campaign.creator == msg.sender */\n      0xffffffffffffffffffffffffffffffffffffffff\n      and\n      eq\n        /* \"CrowdFund.sol\":7999:8088  require(campaign.creator == msg.sender, \"You must be creator to perform this operation.\") */\n      tag_69\n      jumpi\n      mload(0x40)\n      0x08c379a000000000000000000000000000000000000000000000000000000000\n      dup2\n      mstore\n      0x04\n      add\n      tag_70\n      swap1\n      tag_71\n      jump\t// in\n    tag_70:\n      mload(0x40)\n      dup1\n      swap2\n      sub\n      swap1\n      revert\n    tag_69:\n        /* \"CrowdFund.sol\":8209:8217  campaign */\n      dup1\n        /* \"CrowdFund.sol\":8209:8225  campaign.claimed */\n      0x03\n      add\n      0x08\n      swap1\n      sload\n      swap1\n      0x0100\n      exp\n      swap1\n      div\n      0xff\n      and\n        /* \"CrowdFund.sol\":8208:8225  !campaign.claimed */\n      iszero\n        /* \"CrowdFund.sol\":8200:8259  require(!campaign.claimed, \"The campaign already claimed!\") */\n      tag_72\n      jumpi\n      mload(0x40)\n      0x08c379a000000000000000000000000000000000000000000000000000000000\n      dup2\n      mstore\n      0x04\n      add\n      tag_73\n      swap1\n      tag_74\n      jump\t// in\n    tag_73:\n      mload(0x40)\n      dup1\n      swap2\n      sub\n      swap1\n      revert\n    tag_72:\n        /* \"CrowdFund.sol\":8393:8408  block.timestamp */\n      timestamp\n        /* \"CrowdFund.sol\":8376:8384  campaign */\n      dup2\n        /* \"CrowdFund.sol\":8376:8390  campaign.endAt */\n      0x03\n      add\n      0x04\n      swap1\n      sload\n      swap1\n      0x0100\n      exp\n      swap1\n      div\n      0xffffffff\n      and\n        /* \"CrowdFund.sol\":8376:8408  campaign.endAt < block.timestamp */\n      0xffffffff\n      and\n      lt\n        /* \"CrowdFund.sol\":8368:8442  require(campaign.endAt < block.timestamp, \"The campaign is not over yet!\") */\n      tag_75\n      jumpi\n      mload(0x40)\n      0x08c379a000000000000000000000000000000000000000000000000000000000\n      dup2\n      mstore\n      0x04\n      add\n      tag_76\n      swap1\n      tag_56\n      jump\t// in\n    tag_76:\n      mload(0x40)\n      dup1\n      swap2\n      sub\n      swap1\n      revert\n    tag_75:\n        /* \"CrowdFund.sol\":8579:8587  campaign */\n      dup1\n        /* \"CrowdFund.sol\":8579:8592  campaign.goal */\n      0x01\n      add\n      sload\n        /* \"CrowdFund.sol\":8559:8567  campaign */\n      dup2\n        /* \"CrowdFund.sol\":8559:8575  campaign.pledged */\n      0x02\n      add\n      sload\n        /* \"CrowdFund.sol\":8559:8592  campaign.pledged >= campaign.goal */\n      lt\n      iszero\n        /* \"CrowdFund.sol\":8551:8616  require(campaign.pledged >= campaign.goal, \"Target not reached!\") */\n      tag_77\n      jumpi\n      mload(0x40)\n      0x08c379a000000000000000000000000000000000000000000000000000000000\n      dup2\n      mstore\n      0x04\n      add\n      tag_78\n      swap1\n      tag_79\n      jump\t// in\n    tag_78:\n      mload(0x40)\n      dup1\n      swap2\n      sub\n      swap1\n      revert\n    tag_77:\n        /* \"CrowdFund.sol\":8771:8775  true */\n      0x01\n        /* \"CrowdFund.sol\":8752:8760  campaign */\n      dup2\n        /* \"CrowdFund.sol\":8752:8768  campaign.claimed */\n      0x03\n      add\n      0x08\n        /* \"CrowdFund.sol\":8752:8775  campaign.claimed = true */\n      0x0100\n      exp\n      dup2\n      sload\n      dup2\n      0xff\n      mul\n      not\n      and\n      swap1\n      dup4\n      iszero\n      iszero\n      mul\n      or\n      swap1\n      sstore\n      pop\n        /* \"CrowdFund.sol\":8849:8854  token */\n      immutable(\"0xd67d834462ca31eaef1f30157e31659f60355143b7441e6fc7d9eae1fa79f3f8\")\n        /* \"CrowdFund.sol\":8849:8863  token.transfer */\n      0xffffffffffffffffffffffffffffffffffffffff\n      and\n      0xa9059cbb\n        /* \"CrowdFund.sol\":8864:8874  msg.sender */\n      caller\n        /* \"CrowdFund.sol\":8875:8883  campaign */\n      dup4\n        /* \"CrowdFund.sol\":8875:8891  campaign.pledged */\n      0x02\n      add\n      sload\n        /* \"CrowdFund.sol\":8849:8892  token.transfer(msg.sender,campaign.pledged) */\n      mload(0x40)\n      dup4\n      0xffffffff\n      and\n      0xe0\n      shl\n      dup2\n      mstore\n      0x04\n      add\n      tag_80\n      swap3\n      swap2\n      swap1\n      tag_61\n      jump\t// in\n    tag_80:\n      0x20\n      mload(0x40)\n      dup1\n      dup4\n      sub\n      dup2\n      0x00\n      dup8\n      dup1\n      extcodesize\n      iszero\n      dup1\n      iszero\n      tag_81\n      jumpi\n      0x00\n      dup1\n      revert\n    tag_81:\n      pop\n      gas\n      call\n      iszero\n      dup1\n      iszero\n      tag_83\n      jumpi\n      returndatasize\n      0x00\n      dup1\n      returndatacopy\n      revert(0x00, returndatasize)\n    tag_83:\n      pop\n      pop\n      pop\n      pop\n      mload(0x40)\n      returndatasize\n      not(0x1f)\n      0x1f\n      dup3\n      add\n      and\n      dup3\n      add\n      dup1\n      0x40\n      mstore\n      pop\n      dup2\n      add\n      swap1\n      tag_84\n      swap2\n      swap1\n      tag_66\n      jump\t// in\n    tag_84:\n      pop\n        /* \"CrowdFund.sol\":9094:9111  Claim(campaignId) */\n      0x7bb2b3c10797baccb6f8c4791f1edd6ca2f0d028ee0eda64b01a9a57e3a653f7\n        /* \"CrowdFund.sol\":9100:9110  campaignId */\n      dup3\n        /* \"CrowdFund.sol\":9094:9111  Claim(campaignId) */\n      mload(0x40)\n      tag_85\n      swap2\n      swap1\n      tag_17\n      jump\t// in\n    tag_85:\n      mload(0x40)\n      dup1\n      swap2\n      sub\n      swap1\n      log1\n        /* \"CrowdFund.sol\":7821:9197  {\r... */\n      pop\n        /* \"CrowdFund.sol\":7780:9197  function claim(uint campaignId) external {\r... */\n      pop\n      jump\t// out\n        /* \"CrowdFund.sol\":4565:5398  function cancel(uint campaignId) external {\r... */\n    tag_32:\n        /* \"CrowdFund.sol\":4618:4642  Campaign memory campaign */\n      0x00\n        /* \"CrowdFund.sol\":4645:4654  campaigns */\n      dup1\n        /* \"CrowdFund.sol\":4645:4666  campaigns[campaignId] */\n      0x00\n        /* \"CrowdFund.sol\":4655:4665  campaignId */\n      dup4\n        /* \"CrowdFund.sol\":4645:4666  campaigns[campaignId] */\n      dup2\n      mstore\n      0x20\n      add\n      swap1\n      dup2\n      mstore\n      0x20\n      add\n      0x00\n      keccak256\n        /* \"CrowdFund.sol\":4618:4666  Campaign memory campaign = campaigns[campaignId] */\n      mload(0x40)\n      dup1\n      0xc0\n      add\n      0x40\n      mstore\n      swap1\n      dup2\n      0x00\n      dup3\n      add\n      0x00\n      swap1\n      sload\n      swap1\n      0x0100\n      exp\n      swap1\n      div\n      0xffffffffffffffffffffffffffffffffffffffff\n      and\n      0xffffffffffffffffffffffffffffffffffffffff\n      and\n      0xffffffffffffffffffffffffffffffffffffffff\n      and\n      dup2\n      mstore\n      0x20\n      add\n      0x01\n      dup3\n      add\n      sload\n      dup2\n      mstore\n      0x20\n      add\n      0x02\n      dup3\n      add\n      sload\n      dup2\n      mstore\n      0x20\n      add\n      0x03\n      dup3\n      add\n      0x00\n      swap1\n      sload\n      swap1\n      0x0100\n      exp\n      swap1\n      div\n      0xffffffff\n      and\n      0xffffffff\n      and\n      0xffffffff\n      and\n      dup2\n      mstore\n      0x20\n      add\n      0x03\n      dup3\n      add\n      0x04\n      swap1\n      sload\n      swap1\n      0x0100\n      exp\n      swap1\n      div\n      0xffffffff\n      and\n      0xffffffff\n      and\n      0xffffffff\n      and\n      dup2\n      mstore\n      0x20\n      add\n      0x03\n      dup3\n      add\n      0x08\n      swap1\n      sload\n      swap1\n      0x0100\n      exp\n      swap1\n      div\n      0xff\n      and\n      iszero\n      iszero\n      iszero\n      iszero\n      dup2\n      mstore\n      pop\n      pop\n      swap1\n      pop\n        /* \"CrowdFund.sol\":4805:4813  campaign */\n      dup1\n        /* \"CrowdFund.sol\":4805:4821  campaign.creator */\n      0x00\n      add\n      mload\n        /* \"CrowdFund.sol\":4791:4821  msg.sender == campaign.creator */\n      0xffffffffffffffffffffffffffffffffffffffff\n      and\n        /* \"CrowdFund.sol\":4791:4801  msg.sender */\n      caller\n        /* \"CrowdFund.sol\":4791:4821  msg.sender == campaign.creator */\n      0xffffffffffffffffffffffffffffffffffffffff\n      and\n      eq\n        /* \"CrowdFund.sol\":4783:4872  require(msg.sender == campaign.creator, \"You must be creator to perform this operation.\") */\n      tag_87\n      jumpi\n      mload(0x40)\n      0x08c379a000000000000000000000000000000000000000000000000000000000\n      dup2\n      mstore\n      0x04\n      add\n      tag_88\n      swap1\n      tag_71\n      jump\t// in\n    tag_88:\n      mload(0x40)\n      dup1\n      swap2\n      sub\n      swap1\n      revert\n    tag_87:\n        /* \"CrowdFund.sol\":5010:5018  campaign */\n      dup1\n        /* \"CrowdFund.sol\":5010:5026  campaign.startAt */\n      0x60\n      add\n      mload\n        /* \"CrowdFund.sol\":4992:5026  block.timestamp < campaign.startAt */\n      0xffffffff\n      and\n        /* \"CrowdFund.sol\":4992:5007  block.timestamp */\n      timestamp\n        /* \"CrowdFund.sol\":4992:5026  block.timestamp < campaign.startAt */\n      lt\n        /* \"CrowdFund.sol\":4984:5056  require(block.timestamp < campaign.startAt, \"Campaign already started!\") */\n      tag_89\n      jumpi\n      mload(0x40)\n      0x08c379a000000000000000000000000000000000000000000000000000000000\n      dup2\n      mstore\n      0x04\n      add\n      tag_90\n      swap1\n      tag_91\n      jump\t// in\n    tag_90:\n      mload(0x40)\n      dup1\n      swap2\n      sub\n      swap1\n      revert\n    tag_89:\n        /* \"CrowdFund.sol\":5180:5189  campaigns */\n      0x00\n        /* \"CrowdFund.sol\":5180:5201  campaigns[campaignId] */\n      dup1\n        /* \"CrowdFund.sol\":5190:5200  campaignId */\n      dup4\n        /* \"CrowdFund.sol\":5180:5201  campaigns[campaignId] */\n      dup2\n      mstore\n      0x20\n      add\n      swap1\n      dup2\n      mstore\n      0x20\n      add\n      0x00\n      keccak256\n      0x00\n        /* \"CrowdFund.sol\":5173:5201  delete campaigns[campaignId] */\n      dup1\n      dup3\n      add\n      exp(0x0100, 0x00)\n      dup2\n      sload\n      swap1\n      0xffffffffffffffffffffffffffffffffffffffff\n      mul\n      not\n      and\n      swap1\n      sstore\n      0x01\n      dup3\n      add\n      0x00\n      swap1\n      sstore\n      0x02\n      dup3\n      add\n      0x00\n      swap1\n      sstore\n      0x03\n      dup3\n      add\n      exp(0x0100, 0x00)\n      dup2\n      sload\n      swap1\n      0xffffffff\n      mul\n      not\n      and\n      swap1\n      sstore\n      0x03\n      dup3\n      add\n      exp(0x0100, 0x04)\n      dup2\n      sload\n      swap1\n      0xffffffff\n      mul\n      not\n      and\n      swap1\n      sstore\n      0x03\n      dup3\n      add\n      exp(0x0100, 0x08)\n      dup2\n      sload\n      swap1\n      0xff\n      mul\n      not\n      and\n      swap1\n      sstore\n      pop\n      pop\n        /* \"CrowdFund.sol\":5294:5312  Cancel(campaignId) */\n      0x8bf30e7ff26833413be5f69e1d373744864d600b664204b4a2f9844a8eedb9ed\n        /* \"CrowdFund.sol\":5301:5311  campaignId */\n      dup3\n        /* \"CrowdFund.sol\":5294:5312  Cancel(campaignId) */\n      mload(0x40)\n      tag_92\n      swap2\n      swap1\n      tag_17\n      jump\t// in\n    tag_92:\n      mload(0x40)\n      dup1\n      swap2\n      sub\n      swap1\n      log1\n        /* \"CrowdFund.sol\":4607:5398  {\r... */\n      pop\n        /* \"CrowdFund.sol\":4565:5398  function cancel(uint campaignId) external {\r... */\n      pop\n      jump\t// out\n        /* \"CrowdFund.sol\":6706:7657  function unpledge(uint campaignId, uint unpledgeAmount) external {\r... */\n    tag_36:\n        /* \"CrowdFund.sol\":6782:6807  Campaign storage campaign */\n      0x00\n        /* \"CrowdFund.sol\":6810:6819  campaigns */\n      dup1\n        /* \"CrowdFund.sol\":6810:6831  campaigns[campaignId] */\n      0x00\n        /* \"CrowdFund.sol\":6820:6830  campaignId */\n      dup5\n        /* \"CrowdFund.sol\":6810:6831  campaigns[campaignId] */\n      dup2\n      mstore\n      0x20\n      add\n      swap1\n      dup2\n      mstore\n      0x20\n      add\n      0x00\n      keccak256\n        /* \"CrowdFund.sol\":6782:6831  Campaign storage campaign = campaigns[campaignId] */\n      swap1\n      pop\n        /* \"CrowdFund.sol\":6974:6989  block.timestamp */\n      timestamp\n        /* \"CrowdFund.sol\":6956:6964  campaign */\n      dup2\n        /* \"CrowdFund.sol\":6956:6970  campaign.endAt */\n      0x03\n      add\n      0x04\n      swap1\n      sload\n      swap1\n      0x0100\n      exp\n      swap1\n      div\n      0xffffffff\n      and\n        /* \"CrowdFund.sol\":6956:6989  campaign.endAt >= block.timestamp */\n      0xffffffff\n      and\n      lt\n      iszero\n        /* \"CrowdFund.sol\":6948:7017  require(campaign.endAt >= block.timestamp, \"Campaign already ended!\") */\n      tag_94\n      jumpi\n      mload(0x40)\n      0x08c379a000000000000000000000000000000000000000000000000000000000\n      dup2\n      mstore\n      0x04\n      add\n      tag_95\n      swap1\n      tag_96\n      jump\t// in\n    tag_95:\n      mload(0x40)\n      dup1\n      swap2\n      sub\n      swap1\n      revert\n    tag_94:\n        /* \"CrowdFund.sol\":7150:7164  unpledgeAmount */\n      dup2\n        /* \"CrowdFund.sol\":7130:7138  campaign */\n      dup2\n        /* \"CrowdFund.sol\":7130:7146  campaign.pledged */\n      0x02\n      add\n      0x00\n        /* \"CrowdFund.sol\":7130:7164  campaign.pledged -= unpledgeAmount */\n      dup3\n      dup3\n      sload\n      tag_97\n      swap2\n      swap1\n      tag_98\n      jump\t// in\n    tag_97:\n      swap3\n      pop\n      pop\n      dup2\n      swap1\n      sstore\n      pop\n        /* \"CrowdFund.sol\":7283:7297  unpledgeAmount */\n      dup2\n        /* \"CrowdFund.sol\":7242:7255  pledgedAmount */\n      0x01\n        /* \"CrowdFund.sol\":7242:7267  pledgedAmount[campaignId] */\n      0x00\n        /* \"CrowdFund.sol\":7256:7266  campaignId */\n      dup6\n        /* \"CrowdFund.sol\":7242:7267  pledgedAmount[campaignId] */\n      dup2\n      mstore\n      0x20\n      add\n      swap1\n      dup2\n      mstore\n      0x20\n      add\n      0x00\n      keccak256\n        /* \"CrowdFund.sol\":7242:7279  pledgedAmount[campaignId][msg.sender] */\n      0x00\n        /* \"CrowdFund.sol\":7268:7278  msg.sender */\n      caller\n        /* \"CrowdFund.sol\":7242:7279  pledgedAmount[campaignId][msg.sender] */\n      0xffffffffffffffffffffffffffffffffffffffff\n      and\n      0xffffffffffffffffffffffffffffffffffffffff\n      and\n      dup2\n      mstore\n      0x20\n      add\n      swap1\n      dup2\n      mstore\n      0x20\n      add\n      0x00\n      keccak256\n      0x00\n        /* \"CrowdFund.sol\":7242:7297  pledgedAmount[campaignId][msg.sender] -= unpledgeAmount */\n      dup3\n      dup3\n      sload\n      tag_99\n      swap2\n      swap1\n      tag_98\n      jump\t// in\n    tag_99:\n      swap3\n      pop\n      pop\n      dup2\n      swap1\n      sstore\n      pop\n        /* \"CrowdFund.sol\":7402:7407  token */\n      immutable(\"0xd67d834462ca31eaef1f30157e31659f60355143b7441e6fc7d9eae1fa79f3f8\")\n        /* \"CrowdFund.sol\":7402:7416  token.transfer */\n      0xffffffffffffffffffffffffffffffffffffffff\n      and\n      0xa9059cbb\n        /* \"CrowdFund.sol\":7417:7427  msg.sender */\n      caller\n        /* \"CrowdFund.sol\":7429:7443  unpledgeAmount */\n      dup5\n        /* \"CrowdFund.sol\":7402:7444  token.transfer(msg.sender, unpledgeAmount) */\n      mload(0x40)\n      dup4\n      0xffffffff\n      and\n      0xe0\n      shl\n      dup2\n      mstore\n      0x04\n      add\n      tag_100\n      swap3\n      swap2\n      swap1\n      tag_61\n      jump\t// in\n    tag_100:\n      0x20\n      mload(0x40)\n      dup1\n      dup4\n      sub\n      dup2\n      0x00\n      dup8\n      dup1\n      extcodesize\n      iszero\n      dup1\n      iszero\n      tag_101\n      jumpi\n      0x00\n      dup1\n      revert\n    tag_101:\n      pop\n      gas\n      call\n      iszero\n      dup1\n      iszero\n      tag_103\n      jumpi\n      returndatasize\n      0x00\n      dup1\n      returndatacopy\n      revert(0x00, returndatasize)\n    tag_103:\n      pop\n      pop\n      pop\n      pop\n      mload(0x40)\n      returndatasize\n      not(0x1f)\n      0x1f\n      dup3\n      add\n      and\n      dup3\n      add\n      dup1\n      0x40\n      mstore\n      pop\n      dup2\n      add\n      swap1\n      tag_104\n      swap2\n      swap1\n      tag_66\n      jump\t// in\n    tag_104:\n      pop\n        /* \"CrowdFund.sol\":7541:7551  msg.sender */\n      caller\n        /* \"CrowdFund.sol\":7520:7568  Unpledge(campaignId, msg.sender, unpledgeAmount) */\n      0xffffffffffffffffffffffffffffffffffffffff\n      and\n        /* \"CrowdFund.sol\":7529:7539  campaignId */\n      dup4\n        /* \"CrowdFund.sol\":7520:7568  Unpledge(campaignId, msg.sender, unpledgeAmount) */\n      0x2eeeab891b26a214d1b25749f88a406bdea852bd8c9bfda977e0ef8114c180ba\n        /* \"CrowdFund.sol\":7553:7567  unpledgeAmount */\n      dup5\n        /* \"CrowdFund.sol\":7520:7568  Unpledge(campaignId, msg.sender, unpledgeAmount) */\n      mload(0x40)\n      tag_105\n      swap2\n      swap1\n      tag_17\n      jump\t// in\n    tag_105:\n      mload(0x40)\n      dup1\n      swap2\n      sub\n      swap1\n      log3\n        /* \"CrowdFund.sol\":6771:7657  {\r... */\n      pop\n        /* \"CrowdFund.sol\":6706:7657  function unpledge(uint campaignId, uint unpledgeAmount) external {\r... */\n      pop\n      pop\n      jump\t// out\n        /* \"CrowdFund.sol\":1212:1274  mapping(uint => mapping(address => uint)) public pledgedAmount */\n    tag_40:\n      mstore(0x20, 0x01)\n      dup2\n      0x00\n      mstore\n      mstore(0x20, keccak256(0x00, 0x40))\n      dup1\n      0x00\n      mstore\n      keccak256(0x00, 0x40)\n      0x00\n      swap2\n      pop\n      swap2\n      pop\n      pop\n      sload\n      dup2\n      jump\t// out\n        /* \"CrowdFund.sol\":3127:4459  function lunch(uint _goal, uint32 _startAt, uint32 _endAt) external {\r... */\n    tag_45:\n        /* \"CrowdFund.sol\":3226:3241  block.timestamp */\n      timestamp\n        /* \"CrowdFund.sol\":3214:3222  _startAt */\n      dup3\n        /* \"CrowdFund.sol\":3214:3241  _startAt >= block.timestamp */\n      0xffffffff\n      and\n      lt\n      iszero\n        /* \"CrowdFund.sol\":3206:3260  require(_startAt >= block.timestamp, \"start at < now\") */\n      tag_107\n      jumpi\n      mload(0x40)\n      0x08c379a000000000000000000000000000000000000000000000000000000000\n      dup2\n      mstore\n      0x04\n      add\n      tag_108\n      swap1\n      tag_109\n      jump\t// in\n    tag_108:\n      mload(0x40)\n      dup1\n      swap2\n      sub\n      swap1\n      revert\n    tag_107:\n        /* \"CrowdFund.sol\":3397:3403  _endAt */\n      dup1\n        /* \"CrowdFund.sol\":3385:3403  _startAt <= _endAt */\n      0xffffffff\n      and\n        /* \"CrowdFund.sol\":3385:3393  _startAt */\n      dup3\n        /* \"CrowdFund.sol\":3385:3403  _startAt <= _endAt */\n      0xffffffff\n      and\n      gt\n      iszero\n        /* \"CrowdFund.sol\":3377:3422  require(_startAt <= _endAt, \"start at < now\") */\n      tag_110\n      jumpi\n      mload(0x40)\n      0x08c379a000000000000000000000000000000000000000000000000000000000\n      dup2\n      mstore\n      0x04\n      add\n      tag_111\n      swap1\n      tag_109\n      jump\t// in\n    tag_111:\n      mload(0x40)\n      dup1\n      swap2\n      sub\n      swap1\n      revert\n    tag_110:\n        /* \"CrowdFund.sol\":3577:3584  90 days */\n      0x76a700\n        /* \"CrowdFund.sol\":3559:3574  block.timestamp */\n      timestamp\n        /* \"CrowdFund.sol\":3559:3584  block.timestamp + 90 days */\n      tag_112\n      swap2\n      swap1\n      tag_113\n      jump\t// in\n    tag_112:\n        /* \"CrowdFund.sol\":3549:3555  _endAt */\n      dup2\n        /* \"CrowdFund.sol\":3549:3584  _endAt <= block.timestamp + 90 days */\n      0xffffffff\n      and\n      gt\n      iszero\n        /* \"CrowdFund.sol\":3541:3603  require(_endAt <= block.timestamp + 90 days, \"start at < now\") */\n      tag_114\n      jumpi\n      mload(0x40)\n      0x08c379a000000000000000000000000000000000000000000000000000000000\n      dup2\n      mstore\n      0x04\n      add\n      tag_115\n      swap1\n      tag_109\n      jump\t// in\n    tag_115:\n      mload(0x40)\n      dup1\n      swap2\n      sub\n      swap1\n      revert\n    tag_114:\n        /* \"CrowdFund.sol\":3754:3755  1 */\n      0x01\n        /* \"CrowdFund.sol\":3745:3750  count */\n      0x02\n      0x00\n        /* \"CrowdFund.sol\":3745:3755  count += 1 */\n      dup3\n      dup3\n      sload\n      tag_116\n      swap2\n      swap1\n      tag_113\n      jump\t// in\n    tag_116:\n      swap3\n      pop\n      pop\n      dup2\n      swap1\n      sstore\n      pop\n        /* \"CrowdFund.sol\":3849:4305  Campaign({   // We transfer the campaign information to be launched over the current campaign amount to Campaigns mapping with a struct.\r... */\n      mload(0x40)\n      dup1\n      0xc0\n      add\n      0x40\n      mstore\n      dup1\n        /* \"CrowdFund.sol\":4008:4018  msg.sender */\n      caller\n        /* \"CrowdFund.sol\":3849:4305  Campaign({   // We transfer the campaign information to be launched over the current campaign amount to Campaigns mapping with a struct.\r... */\n      0xffffffffffffffffffffffffffffffffffffffff\n      and\n      dup2\n      mstore\n      0x20\n      add\n        /* \"CrowdFund.sol\":4128:4133  _goal */\n      dup5\n        /* \"CrowdFund.sol\":3849:4305  Campaign({   // We transfer the campaign information to be launched over the current campaign amount to Campaigns mapping with a struct.\r... */\n      dup2\n      mstore\n      0x20\n      add\n        /* \"CrowdFund.sol\":4090:4091  0 */\n      0x00\n        /* \"CrowdFund.sol\":3849:4305  Campaign({   // We transfer the campaign information to be launched over the current campaign amount to Campaigns mapping with a struct.\r... */\n      dup2\n      mstore\n      0x20\n      add\n        /* \"CrowdFund.sol\":4157:4165  _startAt */\n      dup4\n        /* \"CrowdFund.sol\":3849:4305  Campaign({   // We transfer the campaign information to be launched over the current campaign amount to Campaigns mapping with a struct.\r... */\n      0xffffffff\n      and\n      dup2\n      mstore\n      0x20\n      add\n        /* \"CrowdFund.sol\":4187:4193  _endAt */\n      dup3\n        /* \"CrowdFund.sol\":3849:4305  Campaign({   // We transfer the campaign information to be launched over the current campaign amount to Campaigns mapping with a struct.\r... */\n      0xffffffff\n      and\n      dup2\n      mstore\n      0x20\n      add\n        /* \"CrowdFund.sol\":4217:4222  false */\n      0x00\n        /* \"CrowdFund.sol\":3849:4305  Campaign({   // We transfer the campaign information to be launched over the current campaign amount to Campaigns mapping with a struct.\r... */\n      iszero\n      iszero\n      dup2\n      mstore\n      pop\n        /* \"CrowdFund.sol\":3830:3839  campaigns */\n      0x00\n        /* \"CrowdFund.sol\":3830:3846  campaigns[count] */\n      dup1\n        /* \"CrowdFund.sol\":3840:3845  count */\n      sload(0x02)\n        /* \"CrowdFund.sol\":3830:3846  campaigns[count] */\n      dup2\n      mstore\n      0x20\n      add\n      swap1\n      dup2\n      mstore\n      0x20\n      add\n      0x00\n      keccak256\n        /* \"CrowdFund.sol\":3830:4305  campaigns[count] = Campaign({   // We transfer the campaign information to be launched over the current campaign amount to Campaigns mapping with a struct.\r... */\n      0x00\n      dup3\n      add\n      mload\n      dup2\n      0x00\n      add\n      exp(0x0100, 0x00)\n      dup2\n      sload\n      dup2\n      0xffffffffffffffffffffffffffffffffffffffff\n      mul\n      not\n      and\n      swap1\n      dup4\n      0xffffffffffffffffffffffffffffffffffffffff\n      and\n      mul\n      or\n      swap1\n      sstore\n      pop\n      0x20\n      dup3\n      add\n      mload\n      dup2\n      0x01\n      add\n      sstore\n      0x40\n      dup3\n      add\n      mload\n      dup2\n      0x02\n      add\n      sstore\n      0x60\n      dup3\n      add\n      mload\n      dup2\n      0x03\n      add\n      exp(0x0100, 0x00)\n      dup2\n      sload\n      dup2\n      0xffffffff\n      mul\n      not\n      and\n      swap1\n      dup4\n      0xffffffff\n      and\n      mul\n      or\n      swap1\n      sstore\n      pop\n      0x80\n      dup3\n      add\n      mload\n      dup2\n      0x03\n      add\n      exp(0x0100, 0x04)\n      dup2\n      sload\n      dup2\n      0xffffffff\n      mul\n      not\n      and\n      swap1\n      dup4\n      0xffffffff\n      and\n      mul\n      or\n      swap1\n      sstore\n      pop\n      0xa0\n      dup3\n      add\n      mload\n      dup2\n      0x03\n      add\n      exp(0x0100, 0x08)\n      dup2\n      sload\n      dup2\n      0xff\n      mul\n      not\n      and\n      swap1\n      dup4\n      iszero\n      iszero\n      mul\n      or\n      swap1\n      sstore\n      pop\n      swap1\n      pop\n      pop\n        /* \"CrowdFund.sol\":4337:4347  msg.sender */\n      caller\n        /* \"CrowdFund.sol\":4323:4373  Launch(count, msg.sender, _goal, _startAt, _endAt) */\n      0xffffffffffffffffffffffffffffffffffffffff\n      and\n      0x0601cd0d650b473037e838a2696d41e654433d065b3f56b28d1d3302e44a304f\n        /* \"CrowdFund.sol\":4330:4335  count */\n      sload(0x02)\n        /* \"CrowdFund.sol\":4349:4354  _goal */\n      dup6\n        /* \"CrowdFund.sol\":4356:4364  _startAt */\n      dup6\n        /* \"CrowdFund.sol\":4366:4372  _endAt */\n      dup6\n        /* \"CrowdFund.sol\":4323:4373  Launch(count, msg.sender, _goal, _startAt, _endAt) */\n      mload(0x40)\n      tag_117\n      swap5\n      swap4\n      swap3\n      swap2\n      swap1\n      tag_118\n      jump\t// in\n    tag_117:\n      mload(0x40)\n      dup1\n      swap2\n      sub\n      swap1\n      log2\n        /* \"CrowdFund.sol\":3127:4459  function lunch(uint _goal, uint32 _startAt, uint32 _endAt) external {\r... */\n      pop\n      pop\n      pop\n      jump\t// out\n        /* \"CrowdFund.sol\":973:1002  IERC20 public immutable token */\n    tag_47:\n      immutable(\"0xd67d834462ca31eaef1f30157e31659f60355143b7441e6fc7d9eae1fa79f3f8\")\n      dup2\n      jump\t// out\n        /* \"CrowdFund.sol\":5492:6608  function pledge(uint campaignId, uint amount) external {\r... */\n    tag_52:\n        /* \"CrowdFund.sol\":5558:5583  Campaign storage campaign */\n      0x00\n        /* \"CrowdFund.sol\":5586:5595  campaigns */\n      dup1\n        /* \"CrowdFund.sol\":5586:5607  campaigns[campaignId] */\n      0x00\n        /* \"CrowdFund.sol\":5596:5606  campaignId */\n      dup5\n        /* \"CrowdFund.sol\":5586:5607  campaigns[campaignId] */\n      dup2\n      mstore\n      0x20\n      add\n      swap1\n      dup2\n      mstore\n      0x20\n      add\n      0x00\n      keccak256\n        /* \"CrowdFund.sol\":5558:5607  Campaign storage campaign = campaigns[campaignId] */\n      swap1\n      pop\n        /* \"CrowdFund.sol\":5752:5767  block.timestamp */\n      timestamp\n        /* \"CrowdFund.sol\":5732:5740  campaign */\n      dup2\n        /* \"CrowdFund.sol\":5732:5748  campaign.startAt */\n      0x03\n      add\n      0x00\n      swap1\n      sload\n      swap1\n      0x0100\n      exp\n      swap1\n      div\n      0xffffffff\n      and\n        /* \"CrowdFund.sol\":5732:5767  campaign.startAt <= block.timestamp */\n      0xffffffff\n      and\n      gt\n      iszero\n        /* \"CrowdFund.sol\":5724:5793  require(campaign.startAt <= block.timestamp, \"Campaign not started!\") */\n      tag_120\n      jumpi\n      mload(0x40)\n      0x08c379a000000000000000000000000000000000000000000000000000000000\n      dup2\n      mstore\n      0x04\n      add\n      tag_121\n      swap1\n      tag_122\n      jump\t// in\n    tag_121:\n      mload(0x40)\n      dup1\n      swap2\n      sub\n      swap1\n      revert\n    tag_120:\n        /* \"CrowdFund.sol\":5929:5944  block.timestamp */\n      timestamp\n        /* \"CrowdFund.sol\":5911:5919  campaign */\n      dup2\n        /* \"CrowdFund.sol\":5911:5925  campaign.endAt */\n      0x03\n      add\n      0x04\n      swap1\n      sload\n      swap1\n      0x0100\n      exp\n      swap1\n      div\n      0xffffffff\n      and\n        /* \"CrowdFund.sol\":5911:5944  campaign.endAt >= block.timestamp */\n      0xffffffff\n      and\n      lt\n      iszero\n        /* \"CrowdFund.sol\":5903:5972  require(campaign.endAt >= block.timestamp, \"Campaign already ended!\") */\n      tag_123\n      jumpi\n      mload(0x40)\n      0x08c379a000000000000000000000000000000000000000000000000000000000\n      dup2\n      mstore\n      0x04\n      add\n      tag_124\n      swap1\n      tag_96\n      jump\t// in\n    tag_124:\n      mload(0x40)\n      dup1\n      swap2\n      sub\n      swap1\n      revert\n    tag_123:\n        /* \"CrowdFund.sol\":6101:6107  amount */\n      dup2\n        /* \"CrowdFund.sol\":6081:6089  campaign */\n      dup2\n        /* \"CrowdFund.sol\":6081:6097  campaign.pledged */\n      0x02\n      add\n      0x00\n        /* \"CrowdFund.sol\":6081:6107  campaign.pledged += amount */\n      dup3\n      dup3\n      sload\n      tag_125\n      swap2\n      swap1\n      tag_113\n      jump\t// in\n    tag_125:\n      swap3\n      pop\n      pop\n      dup2\n      swap1\n      sstore\n      pop\n        /* \"CrowdFund.sol\":6226:6232  amount */\n      dup2\n        /* \"CrowdFund.sol\":6185:6198  pledgedAmount */\n      0x01\n        /* \"CrowdFund.sol\":6185:6210  pledgedAmount[campaignId] */\n      0x00\n        /* \"CrowdFund.sol\":6199:6209  campaignId */\n      dup6\n        /* \"CrowdFund.sol\":6185:6210  pledgedAmount[campaignId] */\n      dup2\n      mstore\n      0x20\n      add\n      swap1\n      dup2\n      mstore\n      0x20\n      add\n      0x00\n      keccak256\n        /* \"CrowdFund.sol\":6185:6222  pledgedAmount[campaignId][msg.sender] */\n      0x00\n        /* \"CrowdFund.sol\":6211:6221  msg.sender */\n      caller\n        /* \"CrowdFund.sol\":6185:6222  pledgedAmount[campaignId][msg.sender] */\n      0xffffffffffffffffffffffffffffffffffffffff\n      and\n      0xffffffffffffffffffffffffffffffffffffffff\n      and\n      dup2\n      mstore\n      0x20\n      add\n      swap1\n      dup2\n      mstore\n      0x20\n      add\n      0x00\n      keccak256\n      0x00\n        /* \"CrowdFund.sol\":6185:6232  pledgedAmount[campaignId][msg.sender] += amount */\n      dup3\n      dup3\n      sload\n      tag_126\n      swap2\n      swap1\n      tag_113\n      jump\t// in\n    tag_126:\n      swap3\n      pop\n      pop\n      dup2\n      swap1\n      sstore\n      pop\n        /* \"CrowdFund.sol\":6335:6340  token */\n      immutable(\"0xd67d834462ca31eaef1f30157e31659f60355143b7441e6fc7d9eae1fa79f3f8\")\n        /* \"CrowdFund.sol\":6335:6353  token.transferFrom */\n      0xffffffffffffffffffffffffffffffffffffffff\n      and\n      0x23b872dd\n        /* \"CrowdFund.sol\":6354:6364  msg.sender */\n      caller\n        /* \"CrowdFund.sol\":6374:6378  this */\n      address\n        /* \"CrowdFund.sol\":6381:6387  amount */\n      dup6\n        /* \"CrowdFund.sol\":6335:6388  token.transferFrom(msg.sender, address(this), amount) */\n      mload(0x40)\n      dup5\n      0xffffffff\n      and\n      0xe0\n      shl\n      dup2\n      mstore\n      0x04\n      add\n      tag_127\n      swap4\n      swap3\n      swap2\n      swap1\n      tag_128\n      jump\t// in\n    tag_127:\n      0x20\n      mload(0x40)\n      dup1\n      dup4\n      sub\n      dup2\n      0x00\n      dup8\n      dup1\n      extcodesize\n      iszero\n      dup1\n      iszero\n      tag_129\n      jumpi\n      0x00\n      dup1\n      revert\n    tag_129:\n      pop\n      gas\n      call\n      iszero\n      dup1\n      iszero\n      tag_131\n      jumpi\n      returndatasize\n      0x00\n      dup1\n      returndatacopy\n      revert(0x00, returndatasize)\n    tag_131:\n      pop\n      pop\n      pop\n      pop\n      mload(0x40)\n      returndatasize\n      not(0x1f)\n      0x1f\n      dup3\n      add\n      and\n      dup3\n      add\n      dup1\n      0x40\n      mstore\n      pop\n      dup2\n      add\n      swap1\n      tag_132\n      swap2\n      swap1\n      tag_66\n      jump\t// in\n    tag_132:\n      pop\n        /* \"CrowdFund.sol\":6503:6513  msg.sender */\n      caller\n        /* \"CrowdFund.sol\":6484:6522  Pledge(campaignId, msg.sender, amount) */\n      0xffffffffffffffffffffffffffffffffffffffff\n      and\n        /* \"CrowdFund.sol\":6491:6501  campaignId */\n      dup4\n        /* \"CrowdFund.sol\":6484:6522  Pledge(campaignId, msg.sender, amount) */\n      0x06bdb975df800a73232998e71ed585d536222f1dfeaa622d7f62a23ada686c82\n        /* \"CrowdFund.sol\":6515:6521  amount */\n      dup5\n        /* \"CrowdFund.sol\":6484:6522  Pledge(campaignId, msg.sender, amount) */\n      mload(0x40)\n      tag_133\n      swap2\n      swap1\n      tag_17\n      jump\t// in\n    tag_133:\n      mload(0x40)\n      dup1\n      swap2\n      sub\n      swap1\n      log3\n        /* \"CrowdFund.sol\":5547:6608  {\r... */\n      pop\n        /* \"CrowdFund.sol\":5492:6608  function pledge(uint campaignId, uint amount) external {\r... */\n      pop\n      pop\n      jump\t// out\n        /* \"#utility.yul\":7:146   */\n    tag_135:\n        /* \"#utility.yul\":53:58   */\n      0x00\n        /* \"#utility.yul\":91:97   */\n      dup2\n        /* \"#utility.yul\":78:98   */\n      calldataload\n        /* \"#utility.yul\":69:98   */\n      swap1\n      pop\n        /* \"#utility.yul\":107:140   */\n      tag_137\n        /* \"#utility.yul\":134:139   */\n      dup2\n        /* \"#utility.yul\":107:140   */\n      tag_138\n      jump\t// in\n    tag_137:\n        /* \"#utility.yul\":7:146   */\n      swap3\n      swap2\n      pop\n      pop\n      jump\t// out\n        /* \"#utility.yul\":152:289   */\n    tag_139:\n        /* \"#utility.yul\":206:211   */\n      0x00\n        /* \"#utility.yul\":237:243   */\n      dup2\n        /* \"#utility.yul\":231:244   */\n      mload\n        /* \"#utility.yul\":222:244   */\n      swap1\n      pop\n        /* \"#utility.yul\":253:283   */\n      tag_141\n        /* \"#utility.yul\":277:282   */\n      dup2\n        /* \"#utility.yul\":253:283   */\n      tag_142\n      jump\t// in\n    tag_141:\n        /* \"#utility.yul\":152:289   */\n      swap3\n      swap2\n      pop\n      pop\n      jump\t// out\n        /* \"#utility.yul\":295:434   */\n    tag_143:\n        /* \"#utility.yul\":341:346   */\n      0x00\n        /* \"#utility.yul\":379:385   */\n      dup2\n        /* \"#utility.yul\":366:386   */\n      calldataload\n        /* \"#utility.yul\":357:386   */\n      swap1\n      pop\n        /* \"#utility.yul\":395:428   */\n      tag_145\n        /* \"#utility.yul\":422:427   */\n      dup2\n        /* \"#utility.yul\":395:428   */\n      tag_146\n      jump\t// in\n    tag_145:\n        /* \"#utility.yul\":295:434   */\n      swap3\n      swap2\n      pop\n      pop\n      jump\t// out\n        /* \"#utility.yul\":440:577   */\n    tag_147:\n        /* \"#utility.yul\":485:490   */\n      0x00\n        /* \"#utility.yul\":523:529   */\n      dup2\n        /* \"#utility.yul\":510:530   */\n      calldataload\n        /* \"#utility.yul\":501:530   */\n      swap1\n      pop\n        /* \"#utility.yul\":539:571   */\n      tag_149\n        /* \"#utility.yul\":565:570   */\n      dup2\n        /* \"#utility.yul\":539:571   */\n      tag_150\n      jump\t// in\n    tag_149:\n        /* \"#utility.yul\":440:577   */\n      swap3\n      swap2\n      pop\n      pop\n      jump\t// out\n        /* \"#utility.yul\":583:928   */\n    tag_66:\n        /* \"#utility.yul\":650:656   */\n      0x00\n        /* \"#utility.yul\":699:701   */\n      0x20\n        /* \"#utility.yul\":687:696   */\n      dup3\n        /* \"#utility.yul\":678:685   */\n      dup5\n        /* \"#utility.yul\":674:697   */\n      sub\n        /* \"#utility.yul\":670:702   */\n      slt\n        /* \"#utility.yul\":667:786   */\n      iszero\n      tag_152\n      jumpi\n        /* \"#utility.yul\":705:784   */\n      tag_153\n      tag_154\n      jump\t// in\n    tag_153:\n        /* \"#utility.yul\":667:786   */\n    tag_152:\n        /* \"#utility.yul\":825:826   */\n      0x00\n        /* \"#utility.yul\":850:911   */\n      tag_155\n        /* \"#utility.yul\":903:910   */\n      dup5\n        /* \"#utility.yul\":894:900   */\n      dup3\n        /* \"#utility.yul\":883:892   */\n      dup6\n        /* \"#utility.yul\":879:901   */\n      add\n        /* \"#utility.yul\":850:911   */\n      tag_139\n      jump\t// in\n    tag_155:\n        /* \"#utility.yul\":840:911   */\n      swap2\n      pop\n        /* \"#utility.yul\":796:921   */\n      pop\n        /* \"#utility.yul\":583:928   */\n      swap3\n      swap2\n      pop\n      pop\n      jump\t// out\n        /* \"#utility.yul\":934:1263   */\n    tag_20:\n        /* \"#utility.yul\":993:999   */\n      0x00\n        /* \"#utility.yul\":1042:1044   */\n      0x20\n        /* \"#utility.yul\":1030:1039   */\n      dup3\n        /* \"#utility.yul\":1021:1028   */\n      dup5\n        /* \"#utility.yul\":1017:1040   */\n      sub\n        /* \"#utility.yul\":1013:1045   */\n      slt\n        /* \"#utility.yul\":1010:1129   */\n      iszero\n      tag_157\n      jumpi\n        /* \"#utility.yul\":1048:1127   */\n      tag_158\n      tag_154\n      jump\t// in\n    tag_158:\n        /* \"#utility.yul\":1010:1129   */\n    tag_157:\n        /* \"#utility.yul\":1168:1169   */\n      0x00\n        /* \"#utility.yul\":1193:1246   */\n      tag_159\n        /* \"#utility.yul\":1238:1245   */\n      dup5\n        /* \"#utility.yul\":1229:1235   */\n      dup3\n        /* \"#utility.yul\":1218:1227   */\n      dup6\n        /* \"#utility.yul\":1214:1236   */\n      add\n        /* \"#utility.yul\":1193:1246   */\n      tag_143\n      jump\t// in\n    tag_159:\n        /* \"#utility.yul\":1183:1246   */\n      swap2\n      pop\n        /* \"#utility.yul\":1139:1256   */\n      pop\n        /* \"#utility.yul\":934:1263   */\n      swap3\n      swap2\n      pop\n      pop\n      jump\t// out\n        /* \"#utility.yul\":1269:1743   */\n    tag_39:\n        /* \"#utility.yul\":1337:1343   */\n      0x00\n        /* \"#utility.yul\":1345:1351   */\n      dup1\n        /* \"#utility.yul\":1394:1396   */\n      0x40\n        /* \"#utility.yul\":1382:1391   */\n      dup4\n        /* \"#utility.yul\":1373:1380   */\n      dup6\n        /* \"#utility.yul\":1369:1392   */\n      sub\n        /* \"#utility.yul\":1365:1397   */\n      slt\n        /* \"#utility.yul\":1362:1481   */\n      iszero\n      tag_161\n      jumpi\n        /* \"#utility.yul\":1400:1479   */\n      tag_162\n      tag_154\n      jump\t// in\n    tag_162:\n        /* \"#utility.yul\":1362:1481   */\n    tag_161:\n        /* \"#utility.yul\":1520:1521   */\n      0x00\n        /* \"#utility.yul\":1545:1598   */\n      tag_163\n        /* \"#utility.yul\":1590:1597   */\n      dup6\n        /* \"#utility.yul\":1581:1587   */\n      dup3\n        /* \"#utility.yul\":1570:1579   */\n      dup7\n        /* \"#utility.yul\":1566:1588   */\n      add\n        /* \"#utility.yul\":1545:1598   */\n      tag_143\n      jump\t// in\n    tag_163:\n        /* \"#utility.yul\":1535:1598   */\n      swap3\n      pop\n        /* \"#utility.yul\":1491:1608   */\n      pop\n        /* \"#utility.yul\":1647:1649   */\n      0x20\n        /* \"#utility.yul\":1673:1726   */\n      tag_164\n        /* \"#utility.yul\":1718:1725   */\n      dup6\n        /* \"#utility.yul\":1709:1715   */\n      dup3\n        /* \"#utility.yul\":1698:1707   */\n      dup7\n        /* \"#utility.yul\":1694:1716   */\n      add\n        /* \"#utility.yul\":1673:1726   */\n      tag_135\n      jump\t// in\n    tag_164:\n        /* \"#utility.yul\":1663:1726   */\n      swap2\n      pop\n        /* \"#utility.yul\":1618:1736   */\n      pop\n        /* \"#utility.yul\":1269:1743   */\n      swap3\n      pop\n      swap3\n      swap1\n      pop\n      jump\t// out\n        /* \"#utility.yul\":1749:2223   */\n    tag_35:\n        /* \"#utility.yul\":1817:1823   */\n      0x00\n        /* \"#utility.yul\":1825:1831   */\n      dup1\n        /* \"#utility.yul\":1874:1876   */\n      0x40\n        /* \"#utility.yul\":1862:1871   */\n      dup4\n        /* \"#utility.yul\":1853:1860   */\n      dup6\n        /* \"#utility.yul\":1849:1872   */\n      sub\n        /* \"#utility.yul\":1845:1877   */\n      slt\n        /* \"#utility.yul\":1842:1961   */\n      iszero\n      tag_166\n      jumpi\n        /* \"#utility.yul\":1880:1959   */\n      tag_167\n      tag_154\n      jump\t// in\n    tag_167:\n        /* \"#utility.yul\":1842:1961   */\n    tag_166:\n        /* \"#utility.yul\":2000:2001   */\n      0x00\n        /* \"#utility.yul\":2025:2078   */\n      tag_168\n        /* \"#utility.yul\":2070:2077   */\n      dup6\n        /* \"#utility.yul\":2061:2067   */\n      dup3\n        /* \"#utility.yul\":2050:2059   */\n      dup7\n        /* \"#utility.yul\":2046:2068   */\n      add\n        /* \"#utility.yul\":2025:2078   */\n      tag_143\n      jump\t// in\n    tag_168:\n        /* \"#utility.yul\":2015:2078   */\n      swap3\n      pop\n        /* \"#utility.yul\":1971:2088   */\n      pop\n        /* \"#utility.yul\":2127:2129   */\n      0x20\n        /* \"#utility.yul\":2153:2206   */\n      tag_169\n        /* \"#utility.yul\":2198:2205   */\n      dup6\n        /* \"#utility.yul\":2189:2195   */\n      dup3\n        /* \"#utility.yul\":2178:2187   */\n      dup7\n        /* \"#utility.yul\":2174:2196   */\n      add\n        /* \"#utility.yul\":2153:2206   */\n      tag_143\n      jump\t// in\n    tag_169:\n        /* \"#utility.yul\":2143:2206   */\n      swap2\n      pop\n        /* \"#utility.yul\":2098:2216   */\n      pop\n        /* \"#utility.yul\":1749:2223   */\n      swap3\n      pop\n      swap3\n      swap1\n      pop\n      jump\t// out\n        /* \"#utility.yul\":2229:2844   */\n    tag_44:\n        /* \"#utility.yul\":2304:2310   */\n      0x00\n        /* \"#utility.yul\":2312:2318   */\n      dup1\n        /* \"#utility.yul\":2320:2326   */\n      0x00\n        /* \"#utility.yul\":2369:2371   */\n      0x60\n        /* \"#utility.yul\":2357:2366   */\n      dup5\n        /* \"#utility.yul\":2348:2355   */\n      dup7\n        /* \"#utility.yul\":2344:2367   */\n      sub\n        /* \"#utility.yul\":2340:2372   */\n      slt\n        /* \"#utility.yul\":2337:2456   */\n      iszero\n      tag_171\n      jumpi\n        /* \"#utility.yul\":2375:2454   */\n      tag_172\n      tag_154\n      jump\t// in\n    tag_172:\n        /* \"#utility.yul\":2337:2456   */\n    tag_171:\n        /* \"#utility.yul\":2495:2496   */\n      0x00\n        /* \"#utility.yul\":2520:2573   */\n      tag_173\n        /* \"#utility.yul\":2565:2572   */\n      dup7\n        /* \"#utility.yul\":2556:2562   */\n      dup3\n        /* \"#utility.yul\":2545:2554   */\n      dup8\n        /* \"#utility.yul\":2541:2563   */\n      add\n        /* \"#utility.yul\":2520:2573   */\n      tag_143\n      jump\t// in\n    tag_173:\n        /* \"#utility.yul\":2510:2573   */\n      swap4\n      pop\n        /* \"#utility.yul\":2466:2583   */\n      pop\n        /* \"#utility.yul\":2622:2624   */\n      0x20\n        /* \"#utility.yul\":2648:2700   */\n      tag_174\n        /* \"#utility.yul\":2692:2699   */\n      dup7\n        /* \"#utility.yul\":2683:2689   */\n      dup3\n        /* \"#utility.yul\":2672:2681   */\n      dup8\n        /* \"#utility.yul\":2668:2690   */\n      add\n        /* \"#utility.yul\":2648:2700   */\n      tag_147\n      jump\t// in\n    tag_174:\n        /* \"#utility.yul\":2638:2700   */\n      swap3\n      pop\n        /* \"#utility.yul\":2593:2710   */\n      pop\n        /* \"#utility.yul\":2749:2751   */\n      0x40\n        /* \"#utility.yul\":2775:2827   */\n      tag_175\n        /* \"#utility.yul\":2819:2826   */\n      dup7\n        /* \"#utility.yul\":2810:2816   */\n      dup3\n        /* \"#utility.yul\":2799:2808   */\n      dup8\n        /* \"#utility.yul\":2795:2817   */\n      add\n        /* \"#utility.yul\":2775:2827   */\n      tag_147\n      jump\t// in\n    tag_175:\n        /* \"#utility.yul\":2765:2827   */\n      swap2\n      pop\n        /* \"#utility.yul\":2720:2837   */\n      pop\n        /* \"#utility.yul\":2229:2844   */\n      swap3\n      pop\n      swap3\n      pop\n      swap3\n      jump\t// out\n        /* \"#utility.yul\":2850:2968   */\n    tag_176:\n        /* \"#utility.yul\":2937:2961   */\n      tag_178\n        /* \"#utility.yul\":2955:2960   */\n      dup2\n        /* \"#utility.yul\":2937:2961   */\n      tag_179\n      jump\t// in\n    tag_178:\n        /* \"#utility.yul\":2932:2935   */\n      dup3\n        /* \"#utility.yul\":2925:2962   */\n      mstore\n        /* \"#utility.yul\":2850:2968   */\n      pop\n      pop\n      jump\t// out\n        /* \"#utility.yul\":2974:3083   */\n    tag_180:\n        /* \"#utility.yul\":3055:3076   */\n      tag_182\n        /* \"#utility.yul\":3070:3075   */\n      dup2\n        /* \"#utility.yul\":3055:3076   */\n      tag_183\n      jump\t// in\n    tag_182:\n        /* \"#utility.yul\":3050:3053   */\n      dup3\n        /* \"#utility.yul\":3043:3077   */\n      mstore\n        /* \"#utility.yul\":2974:3083   */\n      pop\n      pop\n      jump\t// out\n        /* \"#utility.yul\":3089:3246   */\n    tag_184:\n        /* \"#utility.yul\":3189:3239   */\n      tag_186\n        /* \"#utility.yul\":3233:3238   */\n      dup2\n        /* \"#utility.yul\":3189:3239   */\n      tag_187\n      jump\t// in\n    tag_186:\n        /* \"#utility.yul\":3184:3187   */\n      dup3\n        /* \"#utility.yul\":3177:3240   */\n      mstore\n        /* \"#utility.yul\":3089:3246   */\n      pop\n      pop\n      jump\t// out\n        /* \"#utility.yul\":3252:3618   */\n    tag_188:\n        /* \"#utility.yul\":3394:3397   */\n      0x00\n        /* \"#utility.yul\":3415:3482   */\n      tag_190\n        /* \"#utility.yul\":3479:3481   */\n      0x1d\n        /* \"#utility.yul\":3474:3477   */\n      dup4\n        /* \"#utility.yul\":3415:3482   */\n      tag_191\n      jump\t// in\n    tag_190:\n        /* \"#utility.yul\":3408:3482   */\n      swap2\n      pop\n        /* \"#utility.yul\":3491:3584   */\n      tag_192\n        /* \"#utility.yul\":3580:3583   */\n      dup3\n        /* \"#utility.yul\":3491:3584   */\n      tag_193\n      jump\t// in\n    tag_192:\n        /* \"#utility.yul\":3609:3611   */\n      0x20\n        /* \"#utility.yul\":3604:3607   */\n      dup3\n        /* \"#utility.yul\":3600:3612   */\n      add\n        /* \"#utility.yul\":3593:3612   */\n      swap1\n      pop\n        /* \"#utility.yul\":3252:3618   */\n      swap2\n      swap1\n      pop\n      jump\t// out\n        /* \"#utility.yul\":3624:3990   */\n    tag_194:\n        /* \"#utility.yul\":3766:3769   */\n      0x00\n        /* \"#utility.yul\":3787:3854   */\n      tag_196\n        /* \"#utility.yul\":3851:3853   */\n      0x13\n        /* \"#utility.yul\":3846:3849   */\n      dup4\n        /* \"#utility.yul\":3787:3854   */\n      tag_191\n      jump\t// in\n    tag_196:\n        /* \"#utility.yul\":3780:3854   */\n      swap2\n      pop\n        /* \"#utility.yul\":3863:3956   */\n      tag_197\n        /* \"#utility.yul\":3952:3955   */\n      dup3\n        /* \"#utility.yul\":3863:3956   */\n      tag_198\n      jump\t// in\n    tag_197:\n        /* \"#utility.yul\":3981:3983   */\n      0x20\n        /* \"#utility.yul\":3976:3979   */\n      dup3\n        /* \"#utility.yul\":3972:3984   */\n      add\n        /* \"#utility.yul\":3965:3984   */\n      swap1\n      pop\n        /* \"#utility.yul\":3624:3990   */\n      swap2\n      swap1\n      pop\n      jump\t// out\n        /* \"#utility.yul\":3996:4362   */\n    tag_199:\n        /* \"#utility.yul\":4138:4141   */\n      0x00\n        /* \"#utility.yul\":4159:4226   */\n      tag_201\n        /* \"#utility.yul\":4223:4225   */\n      0x1d\n        /* \"#utility.yul\":4218:4221   */\n      dup4\n        /* \"#utility.yul\":4159:4226   */\n      tag_191\n      jump\t// in\n    tag_201:\n        /* \"#utility.yul\":4152:4226   */\n      swap2\n      pop\n        /* \"#utility.yul\":4235:4328   */\n      tag_202\n        /* \"#utility.yul\":4324:4327   */\n      dup3\n        /* \"#utility.yul\":4235:4328   */\n      tag_203\n      jump\t// in\n    tag_202:\n        /* \"#utility.yul\":4353:4355   */\n      0x20\n        /* \"#utility.yul\":4348:4351   */\n      dup3\n        /* \"#utility.yul\":4344:4356   */\n      add\n        /* \"#utility.yul\":4337:4356   */\n      swap1\n      pop\n        /* \"#utility.yul\":3996:4362   */\n      swap2\n      swap1\n      pop\n      jump\t// out\n        /* \"#utility.yul\":4368:4734   */\n    tag_204:\n        /* \"#utility.yul\":4510:4513   */\n      0x00\n        /* \"#utility.yul\":4531:4598   */\n      tag_206\n        /* \"#utility.yul\":4595:4597   */\n      0x0e\n        /* \"#utility.yul\":4590:4593   */\n      dup4\n        /* \"#utility.yul\":4531:4598   */\n      tag_191\n      jump\t// in\n    tag_206:\n        /* \"#utility.yul\":4524:4598   */\n      swap2\n      pop\n        /* \"#utility.yul\":4607:4700   */\n      tag_207\n        /* \"#utility.yul\":4696:4699   */\n      dup3\n        /* \"#utility.yul\":4607:4700   */\n      tag_208\n      jump\t// in\n    tag_207:\n        /* \"#utility.yul\":4725:4727   */\n      0x20\n        /* \"#utility.yul\":4720:4723   */\n      dup3\n        /* \"#utility.yul\":4716:4728   */\n      add\n        /* \"#utility.yul\":4709:4728   */\n      swap1\n      pop\n        /* \"#utility.yul\":4368:4734   */\n      swap2\n      swap1\n      pop\n      jump\t// out\n        /* \"#utility.yul\":4740:5106   */\n    tag_209:\n        /* \"#utility.yul\":4882:4885   */\n      0x00\n        /* \"#utility.yul\":4903:4970   */\n      tag_211\n        /* \"#utility.yul\":4967:4969   */\n      0x22\n        /* \"#utility.yul\":4962:4965   */\n      dup4\n        /* \"#utility.yul\":4903:4970   */\n      tag_191\n      jump\t// in\n    tag_211:\n        /* \"#utility.yul\":4896:4970   */\n      swap2\n      pop\n        /* \"#utility.yul\":4979:5072   */\n      tag_212\n        /* \"#utility.yul\":5068:5071   */\n      dup3\n        /* \"#utility.yul\":4979:5072   */\n      tag_213\n      jump\t// in\n    tag_212:\n        /* \"#utility.yul\":5097:5099   */\n      0x40\n        /* \"#utility.yul\":5092:5095   */\n      dup3\n        /* \"#utility.yul\":5088:5100   */\n      add\n        /* \"#utility.yul\":5081:5100   */\n      swap1\n      pop\n        /* \"#utility.yul\":4740:5106   */\n      swap2\n      swap1\n      pop\n      jump\t// out\n        /* \"#utility.yul\":5112:5478   */\n    tag_214:\n        /* \"#utility.yul\":5254:5257   */\n      0x00\n        /* \"#utility.yul\":5275:5342   */\n      tag_216\n        /* \"#utility.yul\":5339:5341   */\n      0x15\n        /* \"#utility.yul\":5334:5337   */\n      dup4\n        /* \"#utility.yul\":5275:5342   */\n      tag_191\n      jump\t// in\n    tag_216:\n        /* \"#utility.yul\":5268:5342   */\n      swap2\n      pop\n        /* \"#utility.yul\":5351:5444   */\n      tag_217\n        /* \"#utility.yul\":5440:5443   */\n      dup3\n        /* \"#utility.yul\":5351:5444   */\n      tag_218\n      jump\t// in\n    tag_217:\n        /* \"#utility.yul\":5469:5471   */\n      0x20\n        /* \"#utility.yul\":5464:5467   */\n      dup3\n        /* \"#utility.yul\":5460:5472   */\n      add\n        /* \"#utility.yul\":5453:5472   */\n      swap1\n      pop\n        /* \"#utility.yul\":5112:5478   */\n      swap2\n      swap1\n      pop\n      jump\t// out\n        /* \"#utility.yul\":5484:5850   */\n    tag_219:\n        /* \"#utility.yul\":5626:5629   */\n      0x00\n        /* \"#utility.yul\":5647:5714   */\n      tag_221\n        /* \"#utility.yul\":5711:5713   */\n      0x2e\n        /* \"#utility.yul\":5706:5709   */\n      dup4\n        /* \"#utility.yul\":5647:5714   */\n      tag_191\n      jump\t// in\n    tag_221:\n        /* \"#utility.yul\":5640:5714   */\n      swap2\n      pop\n        /* \"#utility.yul\":5723:5816   */\n      tag_222\n        /* \"#utility.yul\":5812:5815   */\n      dup3\n        /* \"#utility.yul\":5723:5816   */\n      tag_223\n      jump\t// in\n    tag_222:\n        /* \"#utility.yul\":5841:5843   */\n      0x40\n        /* \"#utility.yul\":5836:5839   */\n      dup3\n        /* \"#utility.yul\":5832:5844   */\n      add\n        /* \"#utility.yul\":5825:5844   */\n      swap1\n      pop\n        /* \"#utility.yul\":5484:5850   */\n      swap2\n      swap1\n      pop\n      jump\t// out\n        /* \"#utility.yul\":5856:6222   */\n    tag_224:\n        /* \"#utility.yul\":5998:6001   */\n      0x00\n        /* \"#utility.yul\":6019:6086   */\n      tag_226\n        /* \"#utility.yul\":6083:6085   */\n      0x19\n        /* \"#utility.yul\":6078:6081   */\n      dup4\n        /* \"#utility.yul\":6019:6086   */\n      tag_191\n      jump\t// in\n    tag_226:\n        /* \"#utility.yul\":6012:6086   */\n      swap2\n      pop\n        /* \"#utility.yul\":6095:6188   */\n      tag_227\n        /* \"#utility.yul\":6184:6187   */\n      dup3\n        /* \"#utility.yul\":6095:6188   */\n      tag_228\n      jump\t// in\n    tag_227:\n        /* \"#utility.yul\":6213:6215   */\n      0x20\n        /* \"#utility.yul\":6208:6211   */\n      dup3\n        /* \"#utility.yul\":6204:6216   */\n      add\n        /* \"#utility.yul\":6197:6216   */\n      swap1\n      pop\n        /* \"#utility.yul\":5856:6222   */\n      swap2\n      swap1\n      pop\n      jump\t// out\n        /* \"#utility.yul\":6228:6594   */\n    tag_229:\n        /* \"#utility.yul\":6370:6373   */\n      0x00\n        /* \"#utility.yul\":6391:6458   */\n      tag_231\n        /* \"#utility.yul\":6455:6457   */\n      0x17\n        /* \"#utility.yul\":6450:6453   */\n      dup4\n        /* \"#utility.yul\":6391:6458   */\n      tag_191\n      jump\t// in\n    tag_231:\n        /* \"#utility.yul\":6384:6458   */\n      swap2\n      pop\n        /* \"#utility.yul\":6467:6560   */\n      tag_232\n        /* \"#utility.yul\":6556:6559   */\n      dup3\n        /* \"#utility.yul\":6467:6560   */\n      tag_233\n      jump\t// in\n    tag_232:\n        /* \"#utility.yul\":6585:6587   */\n      0x20\n        /* \"#utility.yul\":6580:6583   */\n      dup3\n        /* \"#utility.yul\":6576:6588   */\n      add\n        /* \"#utility.yul\":6569:6588   */\n      swap1\n      pop\n        /* \"#utility.yul\":6228:6594   */\n      swap2\n      swap1\n      pop\n      jump\t// out\n        /* \"#utility.yul\":6600:6718   */\n    tag_234:\n        /* \"#utility.yul\":6687:6711   */\n      tag_236\n        /* \"#utility.yul\":6705:6710   */\n      dup2\n        /* \"#utility.yul\":6687:6711   */\n      tag_237\n      jump\t// in\n    tag_236:\n        /* \"#utility.yul\":6682:6685   */\n      dup3\n        /* \"#utility.yul\":6675:6712   */\n      mstore\n        /* \"#utility.yul\":6600:6718   */\n      pop\n      pop\n      jump\t// out\n        /* \"#utility.yul\":6724:6839   */\n    tag_238:\n        /* \"#utility.yul\":6809:6832   */\n      tag_240\n        /* \"#utility.yul\":6826:6831   */\n      dup2\n        /* \"#utility.yul\":6809:6832   */\n      tag_241\n      jump\t// in\n    tag_240:\n        /* \"#utility.yul\":6804:6807   */\n      dup3\n        /* \"#utility.yul\":6797:6833   */\n      mstore\n        /* \"#utility.yul\":6724:6839   */\n      pop\n      pop\n      jump\t// out\n        /* \"#utility.yul\":6845:7287   */\n    tag_128:\n        /* \"#utility.yul\":6994:6998   */\n      0x00\n        /* \"#utility.yul\":7032:7034   */\n      0x60\n        /* \"#utility.yul\":7021:7030   */\n      dup3\n        /* \"#utility.yul\":7017:7035   */\n      add\n        /* \"#utility.yul\":7009:7035   */\n      swap1\n      pop\n        /* \"#utility.yul\":7045:7116   */\n      tag_243\n        /* \"#utility.yul\":7113:7114   */\n      0x00\n        /* \"#utility.yul\":7102:7111   */\n      dup4\n        /* \"#utility.yul\":7098:7115   */\n      add\n        /* \"#utility.yul\":7089:7095   */\n      dup7\n        /* \"#utility.yul\":7045:7116   */\n      tag_176\n      jump\t// in\n    tag_243:\n        /* \"#utility.yul\":7126:7198   */\n      tag_244\n        /* \"#utility.yul\":7194:7196   */\n      0x20\n        /* \"#utility.yul\":7183:7192   */\n      dup4\n        /* \"#utility.yul\":7179:7197   */\n      add\n        /* \"#utility.yul\":7170:7176   */\n      dup6\n        /* \"#utility.yul\":7126:7198   */\n      tag_176\n      jump\t// in\n    tag_244:\n        /* \"#utility.yul\":7208:7280   */\n      tag_245\n        /* \"#utility.yul\":7276:7278   */\n      0x40\n        /* \"#utility.yul\":7265:7274   */\n      dup4\n        /* \"#utility.yul\":7261:7279   */\n      add\n        /* \"#utility.yul\":7252:7258   */\n      dup5\n        /* \"#utility.yul\":7208:7280   */\n      tag_234\n      jump\t// in\n    tag_245:\n        /* \"#utility.yul\":6845:7287   */\n      swap5\n      swap4\n      pop\n      pop\n      pop\n      pop\n      jump\t// out\n        /* \"#utility.yul\":7293:7625   */\n    tag_61:\n        /* \"#utility.yul\":7414:7418   */\n      0x00\n        /* \"#utility.yul\":7452:7454   */\n      0x40\n        /* \"#utility.yul\":7441:7450   */\n      dup3\n        /* \"#utility.yul\":7437:7455   */\n      add\n        /* \"#utility.yul\":7429:7455   */\n      swap1\n      pop\n        /* \"#utility.yul\":7465:7536   */\n      tag_247\n        /* \"#utility.yul\":7533:7534   */\n      0x00\n        /* \"#utility.yul\":7522:7531   */\n      dup4\n        /* \"#utility.yul\":7518:7535   */\n      add\n        /* \"#utility.yul\":7509:7515   */\n      dup6\n        /* \"#utility.yul\":7465:7536   */\n      tag_176\n      jump\t// in\n    tag_247:\n        /* \"#utility.yul\":7546:7618   */\n      tag_248\n        /* \"#utility.yul\":7614:7616   */\n      0x20\n        /* \"#utility.yul\":7603:7612   */\n      dup4\n        /* \"#utility.yul\":7599:7617   */\n      add\n        /* \"#utility.yul\":7590:7596   */\n      dup5\n        /* \"#utility.yul\":7546:7618   */\n      tag_234\n      jump\t// in\n    tag_248:\n        /* \"#utility.yul\":7293:7625   */\n      swap4\n      swap3\n      pop\n      pop\n      pop\n      jump\t// out\n        /* \"#utility.yul\":7631:8386   */\n    tag_23:\n        /* \"#utility.yul\":7854:7858   */\n      0x00\n        /* \"#utility.yul\":7892:7895   */\n      0xc0\n        /* \"#utility.yul\":7881:7890   */\n      dup3\n        /* \"#utility.yul\":7877:7896   */\n      add\n        /* \"#utility.yul\":7869:7896   */\n      swap1\n      pop\n        /* \"#utility.yul\":7906:7977   */\n      tag_250\n        /* \"#utility.yul\":7974:7975   */\n      0x00\n        /* \"#utility.yul\":7963:7972   */\n      dup4\n        /* \"#utility.yul\":7959:7976   */\n      add\n        /* \"#utility.yul\":7950:7956   */\n      dup10\n        /* \"#utility.yul\":7906:7977   */\n      tag_176\n      jump\t// in\n    tag_250:\n        /* \"#utility.yul\":7987:8059   */\n      tag_251\n        /* \"#utility.yul\":8055:8057   */\n      0x20\n        /* \"#utility.yul\":8044:8053   */\n      dup4\n        /* \"#utility.yul\":8040:8058   */\n      add\n        /* \"#utility.yul\":8031:8037   */\n      dup9\n        /* \"#utility.yul\":7987:8059   */\n      tag_234\n      jump\t// in\n    tag_251:\n        /* \"#utility.yul\":8069:8141   */\n      tag_252\n        /* \"#utility.yul\":8137:8139   */\n      0x40\n        /* \"#utility.yul\":8126:8135   */\n      dup4\n        /* \"#utility.yul\":8122:8140   */\n      add\n        /* \"#utility.yul\":8113:8119   */\n      dup8\n        /* \"#utility.yul\":8069:8141   */\n      tag_234\n      jump\t// in\n    tag_252:\n        /* \"#utility.yul\":8151:8221   */\n      tag_253\n        /* \"#utility.yul\":8217:8219   */\n      0x60\n        /* \"#utility.yul\":8206:8215   */\n      dup4\n        /* \"#utility.yul\":8202:8220   */\n      add\n        /* \"#utility.yul\":8193:8199   */\n      dup7\n        /* \"#utility.yul\":8151:8221   */\n      tag_238\n      jump\t// in\n    tag_253:\n        /* \"#utility.yul\":8231:8302   */\n      tag_254\n        /* \"#utility.yul\":8297:8300   */\n      0x80\n        /* \"#utility.yul\":8286:8295   */\n      dup4\n        /* \"#utility.yul\":8282:8301   */\n      add\n        /* \"#utility.yul\":8273:8279   */\n      dup6\n        /* \"#utility.yul\":8231:8302   */\n      tag_238\n      jump\t// in\n    tag_254:\n        /* \"#utility.yul\":8312:8379   */\n      tag_255\n        /* \"#utility.yul\":8374:8377   */\n      0xa0\n        /* \"#utility.yul\":8363:8372   */\n      dup4\n        /* \"#utility.yul\":8359:8378   */\n      add\n        /* \"#utility.yul\":8350:8356   */\n      dup5\n        /* \"#utility.yul\":8312:8379   */\n      tag_180\n      jump\t// in\n    tag_255:\n        /* \"#utility.yul\":7631:8386   */\n      swap8\n      swap7\n      pop\n      pop\n      pop\n      pop\n      pop\n      pop\n      pop\n      jump\t// out\n        /* \"#utility.yul\":8392:8640   */\n    tag_49:\n        /* \"#utility.yul\":8498:8502   */\n      0x00\n        /* \"#utility.yul\":8536:8538   */\n      0x20\n        /* \"#utility.yul\":8525:8534   */\n      dup3\n        /* \"#utility.yul\":8521:8539   */\n      add\n        /* \"#utility.yul\":8513:8539   */\n      swap1\n      pop\n        /* \"#utility.yul\":8549:8633   */\n      tag_257\n        /* \"#utility.yul\":8630:8631   */\n      0x00\n        /* \"#utility.yul\":8619:8628   */\n      dup4\n        /* \"#utility.yul\":8615:8632   */\n      add\n        /* \"#utility.yul\":8606:8612   */\n      dup5\n        /* \"#utility.yul\":8549:8633   */\n      tag_184\n      jump\t// in\n    tag_257:\n        /* \"#utility.yul\":8392:8640   */\n      swap3\n      swap2\n      pop\n      pop\n      jump\t// out\n        /* \"#utility.yul\":8646:9065   */\n    tag_56:\n        /* \"#utility.yul\":8812:8816   */\n      0x00\n        /* \"#utility.yul\":8850:8852   */\n      0x20\n        /* \"#utility.yul\":8839:8848   */\n      dup3\n        /* \"#utility.yul\":8835:8853   */\n      add\n        /* \"#utility.yul\":8827:8853   */\n      swap1\n      pop\n        /* \"#utility.yul\":8899:8908   */\n      dup2\n        /* \"#utility.yul\":8893:8897   */\n      dup2\n        /* \"#utility.yul\":8889:8909   */\n      sub\n        /* \"#utility.yul\":8885:8886   */\n      0x00\n        /* \"#utility.yul\":8874:8883   */\n      dup4\n        /* \"#utility.yul\":8870:8887   */\n      add\n        /* \"#utility.yul\":8863:8910   */\n      mstore\n        /* \"#utility.yul\":8927:9058   */\n      tag_259\n        /* \"#utility.yul\":9053:9057   */\n      dup2\n        /* \"#utility.yul\":8927:9058   */\n      tag_188\n      jump\t// in\n    tag_259:\n        /* \"#utility.yul\":8919:9058   */\n      swap1\n      pop\n        /* \"#utility.yul\":8646:9065   */\n      swap2\n      swap1\n      pop\n      jump\t// out\n        /* \"#utility.yul\":9071:9490   */\n    tag_79:\n        /* \"#utility.yul\":9237:9241   */\n      0x00\n        /* \"#utility.yul\":9275:9277   */\n      0x20\n        /* \"#utility.yul\":9264:9273   */\n      dup3\n        /* \"#utility.yul\":9260:9278   */\n      add\n        /* \"#utility.yul\":9252:9278   */\n      swap1\n      pop\n        /* \"#utility.yul\":9324:9333   */\n      dup2\n        /* \"#utility.yul\":9318:9322   */\n      dup2\n        /* \"#utility.yul\":9314:9334   */\n      sub\n        /* \"#utility.yul\":9310:9311   */\n      0x00\n        /* \"#utility.yul\":9299:9308   */\n      dup4\n        /* \"#utility.yul\":9295:9312   */\n      add\n        /* \"#utility.yul\":9288:9335   */\n      mstore\n        /* \"#utility.yul\":9352:9483   */\n      tag_261\n        /* \"#utility.yul\":9478:9482   */\n      dup2\n        /* \"#utility.yul\":9352:9483   */\n      tag_194\n      jump\t// in\n    tag_261:\n        /* \"#utility.yul\":9344:9483   */\n      swap1\n      pop\n        /* \"#utility.yul\":9071:9490   */\n      swap2\n      swap1\n      pop\n      jump\t// out\n        /* \"#utility.yul\":9496:9915   */\n    tag_74:\n        /* \"#utility.yul\":9662:9666   */\n      0x00\n        /* \"#utility.yul\":9700:9702   */\n      0x20\n        /* \"#utility.yul\":9689:9698   */\n      dup3\n        /* \"#utility.yul\":9685:9703   */\n      add\n        /* \"#utility.yul\":9677:9703   */\n      swap1\n      pop\n        /* \"#utility.yul\":9749:9758   */\n      dup2\n        /* \"#utility.yul\":9743:9747   */\n      dup2\n        /* \"#utility.yul\":9739:9759   */\n      sub\n        /* \"#utility.yul\":9735:9736   */\n      0x00\n        /* \"#utility.yul\":9724:9733   */\n      dup4\n        /* \"#utility.yul\":9720:9737   */\n      add\n        /* \"#utility.yul\":9713:9760   */\n      mstore\n        /* \"#utility.yul\":9777:9908   */\n      tag_263\n        /* \"#utility.yul\":9903:9907   */\n      dup2\n        /* \"#utility.yul\":9777:9908   */\n      tag_199\n      jump\t// in\n    tag_263:\n        /* \"#utility.yul\":9769:9908   */\n      swap1\n      pop\n        /* \"#utility.yul\":9496:9915   */\n      swap2\n      swap1\n      pop\n      jump\t// out\n        /* \"#utility.yul\":9921:10340   */\n    tag_109:\n        /* \"#utility.yul\":10087:10091   */\n      0x00\n        /* \"#utility.yul\":10125:10127   */\n      0x20\n        /* \"#utility.yul\":10114:10123   */\n      dup3\n        /* \"#utility.yul\":10110:10128   */\n      add\n        /* \"#utility.yul\":10102:10128   */\n      swap1\n      pop\n        /* \"#utility.yul\":10174:10183   */\n      dup2\n        /* \"#utility.yul\":10168:10172   */\n      dup2\n        /* \"#utility.yul\":10164:10184   */\n      sub\n        /* \"#utility.yul\":10160:10161   */\n      0x00\n        /* \"#utility.yul\":10149:10158   */\n      dup4\n        /* \"#utility.yul\":10145:10162   */\n      add\n        /* \"#utility.yul\":10138:10185   */\n      mstore\n        /* \"#utility.yul\":10202:10333   */\n      tag_265\n        /* \"#utility.yul\":10328:10332   */\n      dup2\n        /* \"#utility.yul\":10202:10333   */\n      tag_204\n      jump\t// in\n    tag_265:\n        /* \"#utility.yul\":10194:10333   */\n      swap1\n      pop\n        /* \"#utility.yul\":9921:10340   */\n      swap2\n      swap1\n      pop\n      jump\t// out\n        /* \"#utility.yul\":10346:10765   */\n    tag_59:\n        /* \"#utility.yul\":10512:10516   */\n      0x00\n        /* \"#utility.yul\":10550:10552   */\n      0x20\n        /* \"#utility.yul\":10539:10548   */\n      dup3\n        /* \"#utility.yul\":10535:10553   */\n      add\n        /* \"#utility.yul\":10527:10553   */\n      swap1\n      pop\n        /* \"#utility.yul\":10599:10608   */\n      dup2\n        /* \"#utility.yul\":10593:10597   */\n      dup2\n        /* \"#utility.yul\":10589:10609   */\n      sub\n        /* \"#utility.yul\":10585:10586   */\n      0x00\n        /* \"#utility.yul\":10574:10583   */\n      dup4\n        /* \"#utility.yul\":10570:10587   */\n      add\n        /* \"#utility.yul\":10563:10610   */\n      mstore\n        /* \"#utility.yul\":10627:10758   */\n      tag_267\n        /* \"#utility.yul\":10753:10757   */\n      dup2\n        /* \"#utility.yul\":10627:10758   */\n      tag_209\n      jump\t// in\n    tag_267:\n        /* \"#utility.yul\":10619:10758   */\n      swap1\n      pop\n        /* \"#utility.yul\":10346:10765   */\n      swap2\n      swap1\n      pop\n      jump\t// out\n        /* \"#utility.yul\":10771:11190   */\n    tag_122:\n        /* \"#utility.yul\":10937:10941   */\n      0x00\n        /* \"#utility.yul\":10975:10977   */\n      0x20\n        /* \"#utility.yul\":10964:10973   */\n      dup3\n        /* \"#utility.yul\":10960:10978   */\n      add\n        /* \"#utility.yul\":10952:10978   */\n      swap1\n      pop\n        /* \"#utility.yul\":11024:11033   */\n      dup2\n        /* \"#utility.yul\":11018:11022   */\n      dup2\n        /* \"#utility.yul\":11014:11034   */\n      sub\n        /* \"#utility.yul\":11010:11011   */\n      0x00\n        /* \"#utility.yul\":10999:11008   */\n      dup4\n        /* \"#utility.yul\":10995:11012   */\n      add\n        /* \"#utility.yul\":10988:11035   */\n      mstore\n        /* \"#utility.yul\":11052:11183   */\n      tag_269\n        /* \"#utility.yul\":11178:11182   */\n      dup2\n        /* \"#utility.yul\":11052:11183   */\n      tag_214\n      jump\t// in\n    tag_269:\n        /* \"#utility.yul\":11044:11183   */\n      swap1\n      pop\n        /* \"#utility.yul\":10771:11190   */\n      swap2\n      swap1\n      pop\n      jump\t// out\n        /* \"#utility.yul\":11196:11615   */\n    tag_71:\n        /* \"#utility.yul\":11362:11366   */\n      0x00\n        /* \"#utility.yul\":11400:11402   */\n      0x20\n        /* \"#utility.yul\":11389:11398   */\n      dup3\n        /* \"#utility.yul\":11385:11403   */\n      add\n        /* \"#utility.yul\":11377:11403   */\n      swap1\n      pop\n        /* \"#utility.yul\":11449:11458   */\n      dup2\n        /* \"#utility.yul\":11443:11447   */\n      dup2\n        /* \"#utility.yul\":11439:11459   */\n      sub\n        /* \"#utility.yul\":11435:11436   */\n      0x00\n        /* \"#utility.yul\":11424:11433   */\n      dup4\n        /* \"#utility.yul\":11420:11437   */\n      add\n        /* \"#utility.yul\":11413:11460   */\n      mstore\n        /* \"#utility.yul\":11477:11608   */\n      tag_271\n        /* \"#utility.yul\":11603:11607   */\n      dup2\n        /* \"#utility.yul\":11477:11608   */\n      tag_219\n      jump\t// in\n    tag_271:\n        /* \"#utility.yul\":11469:11608   */\n      swap1\n      pop\n        /* \"#utility.yul\":11196:11615   */\n      swap2\n      swap1\n      pop\n      jump\t// out\n        /* \"#utility.yul\":11621:12040   */\n    tag_91:\n        /* \"#utility.yul\":11787:11791   */\n      0x00\n        /* \"#utility.yul\":11825:11827   */\n      0x20\n        /* \"#utility.yul\":11814:11823   */\n      dup3\n        /* \"#utility.yul\":11810:11828   */\n      add\n        /* \"#utility.yul\":11802:11828   */\n      swap1\n      pop\n        /* \"#utility.yul\":11874:11883   */\n      dup2\n        /* \"#utility.yul\":11868:11872   */\n      dup2\n        /* \"#utility.yul\":11864:11884   */\n      sub\n        /* \"#utility.yul\":11860:11861   */\n      0x00\n        /* \"#utility.yul\":11849:11858   */\n      dup4\n        /* \"#utility.yul\":11845:11862   */\n      add\n        /* \"#utility.yul\":11838:11885   */\n      mstore\n        /* \"#utility.yul\":11902:12033   */\n      tag_273\n        /* \"#utility.yul\":12028:12032   */\n      dup2\n        /* \"#utility.yul\":11902:12033   */\n      tag_224\n      jump\t// in\n    tag_273:\n        /* \"#utility.yul\":11894:12033   */\n      swap1\n      pop\n        /* \"#utility.yul\":11621:12040   */\n      swap2\n      swap1\n      pop\n      jump\t// out\n        /* \"#utility.yul\":12046:12465   */\n    tag_96:\n        /* \"#utility.yul\":12212:12216   */\n      0x00\n        /* \"#utility.yul\":12250:12252   */\n      0x20\n        /* \"#utility.yul\":12239:12248   */\n      dup3\n        /* \"#utility.yul\":12235:12253   */\n      add\n        /* \"#utility.yul\":12227:12253   */\n      swap1\n      pop\n        /* \"#utility.yul\":12299:12308   */\n      dup2\n        /* \"#utility.yul\":12293:12297   */\n      dup2\n        /* \"#utility.yul\":12289:12309   */\n      sub\n        /* \"#utility.yul\":12285:12286   */\n      0x00\n        /* \"#utility.yul\":12274:12283   */\n      dup4\n        /* \"#utility.yul\":12270:12287   */\n      add\n        /* \"#utility.yul\":12263:12310   */\n      mstore\n        /* \"#utility.yul\":12327:12458   */\n      tag_275\n        /* \"#utility.yul\":12453:12457   */\n      dup2\n        /* \"#utility.yul\":12327:12458   */\n      tag_229\n      jump\t// in\n    tag_275:\n        /* \"#utility.yul\":12319:12458   */\n      swap1\n      pop\n        /* \"#utility.yul\":12046:12465   */\n      swap2\n      swap1\n      pop\n      jump\t// out\n        /* \"#utility.yul\":12471:12693   */\n    tag_17:\n        /* \"#utility.yul\":12564:12568   */\n      0x00\n        /* \"#utility.yul\":12602:12604   */\n      0x20\n        /* \"#utility.yul\":12591:12600   */\n      dup3\n        /* \"#utility.yul\":12587:12605   */\n      add\n        /* \"#utility.yul\":12579:12605   */\n      swap1\n      pop\n        /* \"#utility.yul\":12615:12686   */\n      tag_277\n        /* \"#utility.yul\":12683:12684   */\n      0x00\n        /* \"#utility.yul\":12672:12681   */\n      dup4\n        /* \"#utility.yul\":12668:12685   */\n      add\n        /* \"#utility.yul\":12659:12665   */\n      dup5\n        /* \"#utility.yul\":12615:12686   */\n      tag_234\n      jump\t// in\n    tag_277:\n        /* \"#utility.yul\":12471:12693   */\n      swap3\n      swap2\n      pop\n      pop\n      jump\t// out\n        /* \"#utility.yul\":12699:13244   */\n    tag_118:\n        /* \"#utility.yul\":12872:12876   */\n      0x00\n        /* \"#utility.yul\":12910:12913   */\n      0x80\n        /* \"#utility.yul\":12899:12908   */\n      dup3\n        /* \"#utility.yul\":12895:12914   */\n      add\n        /* \"#utility.yul\":12887:12914   */\n      swap1\n      pop\n        /* \"#utility.yul\":12924:12995   */\n      tag_279\n        /* \"#utility.yul\":12992:12993   */\n      0x00\n        /* \"#utility.yul\":12981:12990   */\n      dup4\n        /* \"#utility.yul\":12977:12994   */\n      add\n        /* \"#utility.yul\":12968:12974   */\n      dup8\n        /* \"#utility.yul\":12924:12995   */\n      tag_234\n      jump\t// in\n    tag_279:\n        /* \"#utility.yul\":13005:13077   */\n      tag_280\n        /* \"#utility.yul\":13073:13075   */\n      0x20\n        /* \"#utility.yul\":13062:13071   */\n      dup4\n        /* \"#utility.yul\":13058:13076   */\n      add\n        /* \"#utility.yul\":13049:13055   */\n      dup7\n        /* \"#utility.yul\":13005:13077   */\n      tag_234\n      jump\t// in\n    tag_280:\n        /* \"#utility.yul\":13087:13157   */\n      tag_281\n        /* \"#utility.yul\":13153:13155   */\n      0x40\n        /* \"#utility.yul\":13142:13151   */\n      dup4\n        /* \"#utility.yul\":13138:13156   */\n      add\n        /* \"#utility.yul\":13129:13135   */\n      dup6\n        /* \"#utility.yul\":13087:13157   */\n      tag_238\n      jump\t// in\n    tag_281:\n        /* \"#utility.yul\":13167:13237   */\n      tag_282\n        /* \"#utility.yul\":13233:13235   */\n      0x60\n        /* \"#utility.yul\":13222:13231   */\n      dup4\n        /* \"#utility.yul\":13218:13236   */\n      add\n        /* \"#utility.yul\":13209:13215   */\n      dup5\n        /* \"#utility.yul\":13167:13237   */\n      tag_238\n      jump\t// in\n    tag_282:\n        /* \"#utility.yul\":12699:13244   */\n      swap6\n      swap5\n      pop\n      pop\n      pop\n      pop\n      pop\n      jump\t// out\n        /* \"#utility.yul\":13331:13500   */\n    tag_191:\n        /* \"#utility.yul\":13415:13426   */\n      0x00\n        /* \"#utility.yul\":13449:13455   */\n      dup3\n        /* \"#utility.yul\":13444:13447   */\n      dup3\n        /* \"#utility.yul\":13437:13456   */\n      mstore\n        /* \"#utility.yul\":13489:13493   */\n      0x20\n        /* \"#utility.yul\":13484:13487   */\n      dup3\n        /* \"#utility.yul\":13480:13494   */\n      add\n        /* \"#utility.yul\":13465:13494   */\n      swap1\n      pop\n        /* \"#utility.yul\":13331:13500   */\n      swap3\n      swap2\n      pop\n      pop\n      jump\t// out\n        /* \"#utility.yul\":13506:13811   */\n    tag_113:\n        /* \"#utility.yul\":13546:13549   */\n      0x00\n        /* \"#utility.yul\":13565:13585   */\n      tag_287\n        /* \"#utility.yul\":13583:13584   */\n      dup3\n        /* \"#utility.yul\":13565:13585   */\n      tag_237\n      jump\t// in\n    tag_287:\n        /* \"#utility.yul\":13560:13585   */\n      swap2\n      pop\n        /* \"#utility.yul\":13599:13619   */\n      tag_288\n        /* \"#utility.yul\":13617:13618   */\n      dup4\n        /* \"#utility.yul\":13599:13619   */\n      tag_237\n      jump\t// in\n    tag_288:\n        /* \"#utility.yul\":13594:13619   */\n      swap3\n      pop\n        /* \"#utility.yul\":13753:13754   */\n      dup3\n        /* \"#utility.yul\":13685:13751   */\n      0xffffffffffffffffffffffffffffffffffffffffffffffffffffffffffffffff\n        /* \"#utility.yul\":13681:13755   */\n      sub\n        /* \"#utility.yul\":13678:13679   */\n      dup3\n        /* \"#utility.yul\":13675:13756   */\n      gt\n        /* \"#utility.yul\":13672:13779   */\n      iszero\n      tag_289\n      jumpi\n        /* \"#utility.yul\":13759:13777   */\n      tag_290\n      tag_291\n      jump\t// in\n    tag_290:\n        /* \"#utility.yul\":13672:13779   */\n    tag_289:\n        /* \"#utility.yul\":13803:13804   */\n      dup3\n        /* \"#utility.yul\":13800:13801   */\n      dup3\n        /* \"#utility.yul\":13796:13805   */\n      add\n        /* \"#utility.yul\":13789:13805   */\n      swap1\n      pop\n        /* \"#utility.yul\":13506:13811   */\n      swap3\n      swap2\n      pop\n      pop\n      jump\t// out\n        /* \"#utility.yul\":13817:14008   */\n    tag_98:\n        /* \"#utility.yul\":13857:13861   */\n      0x00\n        /* \"#utility.yul\":13877:13897   */\n      tag_293\n        /* \"#utility.yul\":13895:13896   */\n      dup3\n        /* \"#utility.yul\":13877:13897   */\n      tag_237\n      jump\t// in\n    tag_293:\n        /* \"#utility.yul\":13872:13897   */\n      swap2\n      pop\n        /* \"#utility.yul\":13911:13931   */\n      tag_294\n        /* \"#utility.yul\":13929:13930   */\n      dup4\n        /* \"#utility.yul\":13911:13931   */\n      tag_237\n      jump\t// in\n    tag_294:\n        /* \"#utility.yul\":13906:13931   */\n      swap3\n      pop\n        /* \"#utility.yul\":13950:13951   */\n      dup3\n        /* \"#utility.yul\":13947:13948   */\n      dup3\n        /* \"#utility.yul\":13944:13952   */\n      lt\n        /* \"#utility.yul\":13941:13975   */\n      iszero\n      tag_295\n      jumpi\n        /* \"#utility.yul\":13955:13973   */\n      tag_296\n      tag_291\n      jump\t// in\n    tag_296:\n        /* \"#utility.yul\":13941:13975   */\n    tag_295:\n        /* \"#utility.yul\":14000:14001   */\n      dup3\n        /* \"#utility.yul\":13997:13998   */\n      dup3\n        /* \"#utility.yul\":13993:14002   */\n      sub\n        /* \"#utility.yul\":13985:14002   */\n      swap1\n      pop\n        /* \"#utility.yul\":13817:14008   */\n      swap3\n      swap2\n      pop\n      pop\n      jump\t// out\n        /* \"#utility.yul\":14014:14110   */\n    tag_179:\n        /* \"#utility.yul\":14051:14058   */\n      0x00\n        /* \"#utility.yul\":14080:14104   */\n      tag_298\n        /* \"#utility.yul\":14098:14103   */\n      dup3\n        /* \"#utility.yul\":14080:14104   */\n      tag_299\n      jump\t// in\n    tag_298:\n        /* \"#utility.yul\":14069:14104   */\n      swap1\n      pop\n        /* \"#utility.yul\":14014:14110   */\n      swap2\n      swap1\n      pop\n      jump\t// out\n        /* \"#utility.yul\":14116:14206   */\n    tag_183:\n        /* \"#utility.yul\":14150:14157   */\n      0x00\n        /* \"#utility.yul\":14193:14198   */\n      dup2\n        /* \"#utility.yul\":14186:14199   */\n      iszero\n        /* \"#utility.yul\":14179:14200   */\n      iszero\n        /* \"#utility.yul\":14168:14200   */\n      swap1\n      pop\n        /* \"#utility.yul\":14116:14206   */\n      swap2\n      swap1\n      pop\n      jump\t// out\n        /* \"#utility.yul\":14212:14338   */\n    tag_299:\n        /* \"#utility.yul\":14249:14256   */\n      0x00\n        /* \"#utility.yul\":14289:14331   */\n      0xffffffffffffffffffffffffffffffffffffffff\n        /* \"#utility.yul\":14282:14287   */\n      dup3\n        /* \"#utility.yul\":14278:14332   */\n      and\n        /* \"#utility.yul\":14267:14332   */\n      swap1\n      pop\n        /* \"#utility.yul\":14212:14338   */\n      swap2\n      swap1\n      pop\n      jump\t// out\n        /* \"#utility.yul\":14344:14421   */\n    tag_237:\n        /* \"#utility.yul\":14381:14388   */\n      0x00\n        /* \"#utility.yul\":14410:14415   */\n      dup2\n        /* \"#utility.yul\":14399:14415   */\n      swap1\n      pop\n        /* \"#utility.yul\":14344:14421   */\n      swap2\n      swap1\n      pop\n      jump\t// out\n        /* \"#utility.yul\":14427:14520   */\n    tag_241:\n        /* \"#utility.yul\":14463:14470   */\n      0x00\n        /* \"#utility.yul\":14503:14513   */\n      0xffffffff\n        /* \"#utility.yul\":14496:14501   */\n      dup3\n        /* \"#utility.yul\":14492:14514   */\n      and\n        /* \"#utility.yul\":14481:14514   */\n      swap1\n      pop\n        /* \"#utility.yul\":14427:14520   */\n      swap2\n      swap1\n      pop\n      jump\t// out\n        /* \"#utility.yul\":14526:14665   */\n    tag_187:\n        /* \"#utility.yul\":14589:14598   */\n      0x00\n        /* \"#utility.yul\":14622:14659   */\n      tag_305\n        /* \"#utility.yul\":14653:14658   */\n      dup3\n        /* \"#utility.yul\":14622:14659   */\n      tag_306\n      jump\t// in\n    tag_305:\n        /* \"#utility.yul\":14609:14659   */\n      swap1\n      pop\n        /* \"#utility.yul\":14526:14665   */\n      swap2\n      swap1\n      pop\n      jump\t// out\n        /* \"#utility.yul\":14671:14797   */\n    tag_306:\n        /* \"#utility.yul\":14721:14730   */\n      0x00\n        /* \"#utility.yul\":14754:14791   */\n      tag_308\n        /* \"#utility.yul\":14785:14790   */\n      dup3\n        /* \"#utility.yul\":14754:14791   */\n      tag_309\n      jump\t// in\n    tag_308:\n        /* \"#utility.yul\":14741:14791   */\n      swap1\n      pop\n        /* \"#utility.yul\":14671:14797   */\n      swap2\n      swap1\n      pop\n      jump\t// out\n        /* \"#utility.yul\":14803:14916   */\n    tag_309:\n        /* \"#utility.yul\":14853:14862   */\n      0x00\n        /* \"#utility.yul\":14886:14910   */\n      tag_311\n        /* \"#utility.yul\":14904:14909   */\n      dup3\n        /* \"#utility.yul\":14886:14910   */\n      tag_299\n      jump\t// in\n    tag_311:\n        /* \"#utility.yul\":14873:14910   */\n      swap1\n      pop\n        /* \"#utility.yul\":14803:14916   */\n      swap2\n      swap1\n      pop\n      jump\t// out\n        /* \"#utility.yul\":14922:15102   */\n    tag_291:\n        /* \"#utility.yul\":14970:15047   */\n      0x4e487b7100000000000000000000000000000000000000000000000000000000\n        /* \"#utility.yul\":14967:14968   */\n      0x00\n        /* \"#utility.yul\":14960:15048   */\n      mstore\n        /* \"#utility.yul\":15067:15071   */\n      0x11\n        /* \"#utility.yul\":15064:15065   */\n      0x04\n        /* \"#utility.yul\":15057:15072   */\n      mstore\n        /* \"#utility.yul\":15091:15095   */\n      0x24\n        /* \"#utility.yul\":15088:15089   */\n      0x00\n        /* \"#utility.yul\":15081:15096   */\n      revert\n        /* \"#utility.yul\":15231:15348   */\n    tag_154:\n        /* \"#utility.yul\":15340:15341   */\n      0x00\n        /* \"#utility.yul\":15337:15338   */\n      dup1\n        /* \"#utility.yul\":15330:15342   */\n      revert\n        /* \"#utility.yul\":15354:15533   */\n    tag_193:\n        /* \"#utility.yul\":15494:15525   */\n      0x5468652063616d706169676e206973206e6f74206f7665722079657421000000\n        /* \"#utility.yul\":15490:15491   */\n      0x00\n        /* \"#utility.yul\":15482:15488   */\n      dup3\n        /* \"#utility.yul\":15478:15492   */\n      add\n        /* \"#utility.yul\":15471:15526   */\n      mstore\n        /* \"#utility.yul\":15354:15533   */\n      pop\n      jump\t// out\n        /* \"#utility.yul\":15539:15708   */\n    tag_198:\n        /* \"#utility.yul\":15679:15700   */\n      0x546172676574206e6f7420726561636865642100000000000000000000000000\n        /* \"#utility.yul\":15675:15676   */\n      0x00\n        /* \"#utility.yul\":15667:15673   */\n      dup3\n        /* \"#utility.yul\":15663:15677   */\n      add\n        /* \"#utility.yul\":15656:15701   */\n      mstore\n        /* \"#utility.yul\":15539:15708   */\n      pop\n      jump\t// out\n        /* \"#utility.yul\":15714:15893   */\n    tag_203:\n        /* \"#utility.yul\":15854:15885   */\n      0x5468652063616d706169676e20616c726561647920636c61696d656421000000\n        /* \"#utility.yul\":15850:15851   */\n      0x00\n        /* \"#utility.yul\":15842:15848   */\n      dup3\n        /* \"#utility.yul\":15838:15852   */\n      add\n        /* \"#utility.yul\":15831:15886   */\n      mstore\n        /* \"#utility.yul\":15714:15893   */\n      pop\n      jump\t// out\n        /* \"#utility.yul\":15899:16063   */\n    tag_208:\n        /* \"#utility.yul\":16039:16055   */\n      0x7374617274206174203c206e6f77000000000000000000000000000000000000\n        /* \"#utility.yul\":16035:16036   */\n      0x00\n        /* \"#utility.yul\":16027:16033   */\n      dup3\n        /* \"#utility.yul\":16023:16037   */\n      add\n        /* \"#utility.yul\":16016:16056   */\n      mstore\n        /* \"#utility.yul\":15899:16063   */\n      pop\n      jump\t// out\n        /* \"#utility.yul\":16069:16290   */\n    tag_213:\n        /* \"#utility.yul\":16209:16243   */\n      0x5468652063616d706169676e2068617320726561636865642069747320676f61\n        /* \"#utility.yul\":16205:16206   */\n      0x00\n        /* \"#utility.yul\":16197:16203   */\n      dup3\n        /* \"#utility.yul\":16193:16207   */\n      add\n        /* \"#utility.yul\":16186:16244   */\n      mstore\n        /* \"#utility.yul\":16278:16282   */\n      0x6c21000000000000000000000000000000000000000000000000000000000000\n        /* \"#utility.yul\":16273:16275   */\n      0x20\n        /* \"#utility.yul\":16265:16271   */\n      dup3\n        /* \"#utility.yul\":16261:16276   */\n      add\n        /* \"#utility.yul\":16254:16283   */\n      mstore\n        /* \"#utility.yul\":16069:16290   */\n      pop\n      jump\t// out\n        /* \"#utility.yul\":16296:16467   */\n    tag_218:\n        /* \"#utility.yul\":16436:16459   */\n      0x43616d706169676e206e6f742073746172746564210000000000000000000000\n        /* \"#utility.yul\":16432:16433   */\n      0x00\n        /* \"#utility.yul\":16424:16430   */\n      dup3\n        /* \"#utility.yul\":16420:16434   */\n      add\n        /* \"#utility.yul\":16413:16460   */\n      mstore\n        /* \"#utility.yul\":16296:16467   */\n      pop\n      jump\t// out\n        /* \"#utility.yul\":16473:16706   */\n    tag_223:\n        /* \"#utility.yul\":16613:16647   */\n      0x596f75206d7573742062652063726561746f7220746f20706572666f726d2074\n        /* \"#utility.yul\":16609:16610   */\n      0x00\n        /* \"#utility.yul\":16601:16607   */\n      dup3\n        /* \"#utility.yul\":16597:16611   */\n      add\n        /* \"#utility.yul\":16590:16648   */\n      mstore\n        /* \"#utility.yul\":16682:16698   */\n      0x686973206f7065726174696f6e2e000000000000000000000000000000000000\n        /* \"#utility.yul\":16677:16679   */\n      0x20\n        /* \"#utility.yul\":16669:16675   */\n      dup3\n        /* \"#utility.yul\":16665:16680   */\n      add\n        /* \"#utility.yul\":16658:16699   */\n      mstore\n        /* \"#utility.yul\":16473:16706   */\n      pop\n      jump\t// out\n        /* \"#utility.yul\":16712:16887   */\n    tag_228:\n        /* \"#utility.yul\":16852:16879   */\n      0x43616d706169676e20616c726561647920737461727465642100000000000000\n        /* \"#utility.yul\":16848:16849   */\n      0x00\n        /* \"#utility.yul\":16840:16846   */\n      dup3\n        /* \"#utility.yul\":16836:16850   */\n      add\n        /* \"#utility.yul\":16829:16880   */\n      mstore\n        /* \"#utility.yul\":16712:16887   */\n      pop\n      jump\t// out\n        /* \"#utility.yul\":16893:17066   */\n    tag_233:\n        /* \"#utility.yul\":17033:17058   */\n      0x43616d706169676e20616c726561647920656e64656421000000000000000000\n        /* \"#utility.yul\":17029:17030   */\n      0x00\n        /* \"#utility.yul\":17021:17027   */\n      dup3\n        /* \"#utility.yul\":17017:17031   */\n      add\n        /* \"#utility.yul\":17010:17059   */\n      mstore\n        /* \"#utility.yul\":16893:17066   */\n      pop\n      jump\t// out\n        /* \"#utility.yul\":17072:17194   */\n    tag_138:\n        /* \"#utility.yul\":17145:17169   */\n      tag_326\n        /* \"#utility.yul\":17163:17168   */\n      dup2\n        /* \"#utility.yul\":17145:17169   */\n      tag_179\n      jump\t// in\n    tag_326:\n        /* \"#utility.yul\":17138:17143   */\n      dup2\n        /* \"#utility.yul\":17135:17170   */\n      eq\n        /* \"#utility.yul\":17125:17188   */\n      tag_327\n      jumpi\n        /* \"#utility.yul\":17184:17185   */\n      0x00\n        /* \"#utility.yul\":17181:17182   */\n      dup1\n        /* \"#utility.yul\":17174:17186   */\n      revert\n        /* \"#utility.yul\":17125:17188   */\n    tag_327:\n        /* \"#utility.yul\":17072:17194   */\n      pop\n      jump\t// out\n        /* \"#utility.yul\":17200:17316   */\n    tag_142:\n        /* \"#utility.yul\":17270:17291   */\n      tag_329\n        /* \"#utility.yul\":17285:17290   */\n      dup2\n        /* \"#utility.yul\":17270:17291   */\n      tag_183\n      jump\t// in\n    tag_329:\n        /* \"#utility.yul\":17263:17268   */\n      dup2\n        /* \"#utility.yul\":17260:17292   */\n      eq\n        /* \"#utility.yul\":17250:17310   */\n      tag_330\n      jumpi\n        /* \"#utility.yul\":17306:17307   */\n      0x00\n        /* \"#utility.yul\":17303:17304   */\n      dup1\n        /* \"#utility.yul\":17296:17308   */\n      revert\n        /* \"#utility.yul\":17250:17310   */\n    tag_330:\n        /* \"#utility.yul\":17200:17316   */\n      pop\n      jump\t// out\n        /* \"#utility.yul\":17322:17444   */\n    tag_146:\n        /* \"#utility.yul\":17395:17419   */\n      tag_332\n        /* \"#utility.yul\":17413:17418   */\n      dup2\n        /* \"#utility.yul\":17395:17419   */\n      tag_237\n      jump\t// in\n    tag_332:\n        /* \"#utility.yul\":17388:17393   */\n      dup2\n        /* \"#utility.yul\":17385:17420   */\n      eq\n        /* \"#utility.yul\":17375:17438   */\n      tag_333\n      jumpi\n        /* \"#utility.yul\":17434:17435   */\n      0x00\n        /* \"#utility.yul\":17431:17432   */\n      dup1\n        /* \"#utility.yul\":17424:17436   */\n      revert\n        /* \"#utility.yul\":17375:17438   */\n    tag_333:\n        /* \"#utility.yul\":17322:17444   */\n      pop\n      jump\t// out\n        /* \"#utility.yul\":17450:17570   */\n    tag_150:\n        /* \"#utility.yul\":17522:17545   */\n      tag_335\n        /* \"#utility.yul\":17539:17544   */\n      dup2\n        /* \"#utility.yul\":17522:17545   */\n      tag_241\n      jump\t// in\n    tag_335:\n        /* \"#utility.yul\":17515:17520   */\n      dup2\n        /* \"#utility.yul\":17512:17546   */\n      eq\n        /* \"#utility.yul\":17502:17564   */\n      tag_336\n      jumpi\n        /* \"#utility.yul\":17560:17561   */\n      0x00\n        /* \"#utility.yul\":17557:17558   */\n      dup1\n        /* \"#utility.yul\":17550:17562   */\n      revert\n        /* \"#utility.yul\":17502:17564   */\n    tag_336:\n        /* \"#utility.yul\":17450:17570   */\n      pop\n      jump\t// out\n\n    auxdata: 0xa26469706673582212204f16d271cfb44382ea89d76507bddf5844de5f207db3cfa7e9e96e0bc058654564736f6c63430008070033\n}\n",
				"bytecode": {
					"linkReferences": {},
					"object": "60a06040523480156200001157600080fd5b5060405162001b9038038062001b9083398181016040528101906200003791906200008c565b8073ffffffffffffffffffffffffffffffffffffffff1660808173ffffffffffffffffffffffffffffffffffffffff1660601b815250505062000111565b6000815190506200008681620000f7565b92915050565b600060208284031215620000a557620000a4620000f2565b5b6000620000b58482850162000075565b91505092915050565b6000620000cb82620000d2565b9050919050565b600073ffffffffffffffffffffffffffffffffffffffff82169050919050565b600080fd5b6200010281620000be565b81146200010e57600080fd5b50565b60805160601c611a446200014c600039600081816103e4015281816106a401528181610aff01528181610ebd01526110330152611a446000f3fe608060405234801561001057600080fd5b506004361061009e5760003560e01c8063711853ab11610066578063711853ab1461014a578063aa4fb63a14610166578063daf6994014610196578063fc0c546a146101b2578063fde327be146101d05761009e565b806306661abd146100a3578063141961bc146100c1578063278ecde1146100f6578063379607f51461011257806340e58ee51461012e575b600080fd5b6100ab6101ec565b6040516100b89190611638565b60405180910390f35b6100db60048036038101906100d691906111b6565b6101f2565b6040516100ed9695949392919061149c565b60405180910390f35b610110600480360381019061010b91906111b6565b61027b565b005b61012c600480360381019061012791906111b6565b6104e4565b005b610148600480360381019061014391906111b6565b61078f565b005b610164600480360381019061015f9190611223565b610a08565b005b610180600480360381019061017b91906111e3565b610bff565b60405161018d9190611638565b60405180910390f35b6101b060048036038101906101ab9190611263565b610c24565b005b6101ba610ebb565b6040516101c791906114fd565b60405180910390f35b6101ea60048036038101906101e59190611223565b610edf565b005b60025481565b60006020528060005260406000206000915090508060000160009054906101000a900473ffffffffffffffffffffffffffffffffffffffff16908060010154908060020154908060030160009054906101000a900463ffffffff16908060030160049054906101000a900463ffffffff16908060030160089054906101000a900460ff16905086565b60008060008381526020019081526020016000209050428160030160049054906101000a900463ffffffff1663ffffffff16106102ed576040517f08c379a00000000000000000000000000000000000000000000000000000000081526004016102e490611518565b60405180910390fd5b8060010154816002015410610337576040517f08c379a000000000000000000000000000000000000000000000000000000000815260040161032e90611598565b60405180910390fd5b60006001600084815260200190815260200160002060003373ffffffffffffffffffffffffffffffffffffffff1673ffffffffffffffffffffffffffffffffffffffff16815260200190815260200160002054905060006001600085815260200190815260200160002060003373ffffffffffffffffffffffffffffffffffffffff1673ffffffffffffffffffffffffffffffffffffffff168152602001908152602001600020819055507f000000000000000000000000000000000000000000000000000000000000000073ffffffffffffffffffffffffffffffffffffffff1663a9059cbb33836040518363ffffffff1660e01b815260040161043d929190611473565b602060405180830381600087803b15801561045757600080fd5b505af115801561046b573d6000803e3d6000fd5b505050506040513d601f19601f8201168201806040525081019061048f9190611189565b503373ffffffffffffffffffffffffffffffffffffffff16837f21e12a7cad0da5928167e1084ea4d5fdf8d9af66657a2543a9ac76a0ca081477836040516104d79190611638565b60405180910390a3505050565b600080600083815260200190815260200160002090503373ffffffffffffffffffffffffffffffffffffffff168160000160009054906101000a900473ffffffffffffffffffffffffffffffffffffffff1673ffffffffffffffffffffffffffffffffffffffff161461058c576040517f08c379a0000000000000000000000000000000000000000000000000000000008152600401610583906115d8565b60405180910390fd5b8060030160089054906101000a900460ff16156105de576040517f08c379a00000000000000000000000000000000000000000000000000000000081526004016105d590611558565b60405180910390fd5b428160030160049054906101000a900463ffffffff1663ffffffff161061063a576040517f08c379a000000000000000000000000000000000000000000000000000000000815260040161063190611518565b60405180910390fd5b806001015481600201541015610685576040517f08c379a000000000000000000000000000000000000000000000000000000000815260040161067c90611538565b60405180910390fd5b60018160030160086101000a81548160ff0219169083151502179055507f000000000000000000000000000000000000000000000000000000000000000073ffffffffffffffffffffffffffffffffffffffff1663a9059cbb3383600201546040518363ffffffff1660e01b8152600401610701929190611473565b602060405180830381600087803b15801561071b57600080fd5b505af115801561072f573d6000803e3d6000fd5b505050506040513d601f19601f820116820180604052508101906107539190611189565b507f7bb2b3c10797baccb6f8c4791f1edd6ca2f0d028ee0eda64b01a9a57e3a653f7826040516107839190611638565b60405180910390a15050565b60008060008381526020019081526020016000206040518060c00160405290816000820160009054906101000a900473ffffffffffffffffffffffffffffffffffffffff1673ffffffffffffffffffffffffffffffffffffffff1673ffffffffffffffffffffffffffffffffffffffff16815260200160018201548152602001600282015481526020016003820160009054906101000a900463ffffffff1663ffffffff1663ffffffff1681526020016003820160049054906101000a900463ffffffff1663ffffffff1663ffffffff1681526020016003820160089054906101000a900460ff1615151515815250509050806000015173ffffffffffffffffffffffffffffffffffffffff163373ffffffffffffffffffffffffffffffffffffffff16146108f3576040517f08c379a00000000000000000000000000000000000000000000000000000000081526004016108ea906115d8565b60405180910390fd5b806060015163ffffffff16421061093f576040517f08c379a0000000000000000000000000000000000000000000000000000000008152600401610936906115f8565b60405180910390fd5b600080838152602001908152602001600020600080820160006101000a81549073ffffffffffffffffffffffffffffffffffffffff0219169055600182016000905560028201600090556003820160006101000a81549063ffffffff02191690556003820160046101000a81549063ffffffff02191690556003820160086101000a81549060ff021916905550507f8bf30e7ff26833413be5f69e1d373744864d600b664204b4a2f9844a8eedb9ed826040516109fc9190611638565b60405180910390a15050565b60008060008481526020019081526020016000209050428160030160049054906101000a900463ffffffff1663ffffffff161015610a7b576040517f08c379a0000000000000000000000000000000000000000000000000000000008152600401610a7290611618565b60405180910390fd5b81816002016000828254610a8f91906116ff565b92505081905550816001600085815260200190815260200160002060003373ffffffffffffffffffffffffffffffffffffffff1673ffffffffffffffffffffffffffffffffffffffff1681526020019081526020016000206000828254610af691906116ff565b925050819055507f000000000000000000000000000000000000000000000000000000000000000073ffffffffffffffffffffffffffffffffffffffff1663a9059cbb33846040518363ffffffff1660e01b8152600401610b58929190611473565b602060405180830381600087803b158015610b7257600080fd5b505af1158015610b86573d6000803e3d6000fd5b505050506040513d601f19601f82011682018060405250810190610baa9190611189565b503373ffffffffffffffffffffffffffffffffffffffff16837f2eeeab891b26a214d1b25749f88a406bdea852bd8c9bfda977e0ef8114c180ba84604051610bf29190611638565b60405180910390a3505050565b6001602052816000526040600020602052806000526040600020600091509150505481565b428263ffffffff161015610c6d576040517f08c379a0000000000000000000000000000000000000000000000000000000008152600401610c6490611578565b60405180910390fd5b8063ffffffff168263ffffffff161115610cbc576040517f08c379a0000000000000000000000000000000000000000000000000000000008152600401610cb390611578565b60405180910390fd5b6276a70042610ccb91906116a9565b8163ffffffff161115610d13576040517f08c379a0000000000000000000000000000000000000000000000000000000008152600401610d0a90611578565b60405180910390fd5b600160026000828254610d2691906116a9565b925050819055506040518060c001604052803373ffffffffffffffffffffffffffffffffffffffff168152602001848152602001600081526020018363ffffffff1681526020018263ffffffff16815260200160001515815250600080600254815260200190815260200160002060008201518160000160006101000a81548173ffffffffffffffffffffffffffffffffffffffff021916908373ffffffffffffffffffffffffffffffffffffffff160217905550602082015181600101556040820151816002015560608201518160030160006101000a81548163ffffffff021916908363ffffffff16021790555060808201518160030160046101000a81548163ffffffff021916908363ffffffff16021790555060a08201518160030160086101000a81548160ff0219169083151502179055509050503373ffffffffffffffffffffffffffffffffffffffff167f0601cd0d650b473037e838a2696d41e654433d065b3f56b28d1d3302e44a304f600254858585604051610eae9493929190611653565b60405180910390a2505050565b7f000000000000000000000000000000000000000000000000000000000000000081565b60008060008481526020019081526020016000209050428160030160009054906101000a900463ffffffff1663ffffffff161115610f52576040517f08c379a0000000000000000000000000000000000000000000000000000000008152600401610f49906115b8565b60405180910390fd5b428160030160049054906101000a900463ffffffff1663ffffffff161015610faf576040517f08c379a0000000000000000000000000000000000000000000000000000000008152600401610fa690611618565b60405180910390fd5b81816002016000828254610fc391906116a9565b92505081905550816001600085815260200190815260200160002060003373ffffffffffffffffffffffffffffffffffffffff1673ffffffffffffffffffffffffffffffffffffffff168152602001908152602001600020600082825461102a91906116a9565b925050819055507f000000000000000000000000000000000000000000000000000000000000000073ffffffffffffffffffffffffffffffffffffffff166323b872dd3330856040518463ffffffff1660e01b815260040161108e9392919061143c565b602060405180830381600087803b1580156110a857600080fd5b505af11580156110bc573d6000803e3d6000fd5b505050506040513d601f19601f820116820180604052508101906110e09190611189565b503373ffffffffffffffffffffffffffffffffffffffff16837f06bdb975df800a73232998e71ed585d536222f1dfeaa622d7f62a23ada686c82846040516111289190611638565b60405180910390a3505050565b600081359050611144816119b2565b92915050565b600081519050611159816119c9565b92915050565b60008135905061116e816119e0565b92915050565b600081359050611183816119f7565b92915050565b60006020828403121561119f5761119e6117f0565b5b60006111ad8482850161114a565b91505092915050565b6000602082840312156111cc576111cb6117f0565b5b60006111da8482850161115f565b91505092915050565b600080604083850312156111fa576111f96117f0565b5b60006112088582860161115f565b925050602061121985828601611135565b9150509250929050565b6000806040838503121561123a576112396117f0565b5b60006112488582860161115f565b92505060206112598582860161115f565b9150509250929050565b60008060006060848603121561127c5761127b6117f0565b5b600061128a8682870161115f565b935050602061129b86828701611174565b92505060406112ac86828701611174565b9150509250925092565b6112bf81611733565b82525050565b6112ce81611745565b82525050565b6112dd8161178b565b82525050565b60006112f0601d83611698565b91506112fb826117f5565b602082019050919050565b6000611313601383611698565b915061131e8261181e565b602082019050919050565b6000611336601d83611698565b915061134182611847565b602082019050919050565b6000611359600e83611698565b915061136482611870565b602082019050919050565b600061137c602283611698565b915061138782611899565b604082019050919050565b600061139f601583611698565b91506113aa826118e8565b602082019050919050565b60006113c2602e83611698565b91506113cd82611911565b604082019050919050565b60006113e5601983611698565b91506113f082611960565b602082019050919050565b6000611408601783611698565b915061141382611989565b602082019050919050565b61142781611771565b82525050565b6114368161177b565b82525050565b600060608201905061145160008301866112b6565b61145e60208301856112b6565b61146b604083018461141e565b949350505050565b600060408201905061148860008301856112b6565b611495602083018461141e565b9392505050565b600060c0820190506114b160008301896112b6565b6114be602083018861141e565b6114cb604083018761141e565b6114d8606083018661142d565b6114e5608083018561142d565b6114f260a08301846112c5565b979650505050505050565b600060208201905061151260008301846112d4565b92915050565b60006020820190508181036000830152611531816112e3565b9050919050565b6000602082019050818103600083015261155181611306565b9050919050565b6000602082019050818103600083015261157181611329565b9050919050565b600060208201905081810360008301526115918161134c565b9050919050565b600060208201905081810360008301526115b18161136f565b9050919050565b600060208201905081810360008301526115d181611392565b9050919050565b600060208201905081810360008301526115f1816113b5565b9050919050565b60006020820190508181036000830152611611816113d8565b9050919050565b60006020820190508181036000830152611631816113fb565b9050919050565b600060208201905061164d600083018461141e565b92915050565b6000608082019050611668600083018761141e565b611675602083018661141e565b611682604083018561142d565b61168f606083018461142d565b95945050505050565b600082825260208201905092915050565b60006116b482611771565b91506116bf83611771565b9250827fffffffffffffffffffffffffffffffffffffffffffffffffffffffffffffffff038211156116f4576116f36117c1565b5b828201905092915050565b600061170a82611771565b915061171583611771565b925082821015611728576117276117c1565b5b828203905092915050565b600061173e82611751565b9050919050565b60008115159050919050565b600073ffffffffffffffffffffffffffffffffffffffff82169050919050565b6000819050919050565b600063ffffffff82169050919050565b60006117968261179d565b9050919050565b60006117a8826117af565b9050919050565b60006117ba82611751565b9050919050565b7f4e487b7100000000000000000000000000000000000000000000000000000000600052601160045260246000fd5b600080fd5b7f5468652063616d706169676e206973206e6f74206f7665722079657421000000600082015250565b7f546172676574206e6f7420726561636865642100000000000000000000000000600082015250565b7f5468652063616d706169676e20616c726561647920636c61696d656421000000600082015250565b7f7374617274206174203c206e6f77000000000000000000000000000000000000600082015250565b7f5468652063616d706169676e2068617320726561636865642069747320676f6160008201527f6c21000000000000000000000000000000000000000000000000000000000000602082015250565b7f43616d706169676e206e6f742073746172746564210000000000000000000000600082015250565b7f596f75206d7573742062652063726561746f7220746f20706572666f726d207460008201527f686973206f7065726174696f6e2e000000000000000000000000000000000000602082015250565b7f43616d706169676e20616c726561647920737461727465642100000000000000600082015250565b7f43616d706169676e20616c726561647920656e64656421000000000000000000600082015250565b6119bb81611733565b81146119c657600080fd5b50565b6119d281611745565b81146119dd57600080fd5b50565b6119e981611771565b81146119f457600080fd5b50565b611a008161177b565b8114611a0b57600080fd5b5056fea26469706673582212204f16d271cfb44382ea89d76507bddf5844de5f207db3cfa7e9e96e0bc058654564736f6c63430008070033",
					"opcodes": "PUSH1 0xA0 PUSH1 0x40 MSTORE CALLVALUE DUP1 ISZERO PUSH3 0x11 JUMPI PUSH1 0x0 DUP1 REVERT JUMPDEST POP PUSH1 0x40 MLOAD PUSH3 0x1B90 CODESIZE SUB DUP1 PUSH3 0x1B90 DUP4 CODECOPY DUP2 DUP2 ADD PUSH1 0x40 MSTORE DUP2 ADD SWAP1 PUSH3 0x37 SWAP2 SWAP1 PUSH3 0x8C JUMP JUMPDEST DUP1 PUSH20 0xFFFFFFFFFFFFFFFFFFFFFFFFFFFFFFFFFFFFFFFF AND PUSH1 0x80 DUP2 PUSH20 0xFFFFFFFFFFFFFFFFFFFFFFFFFFFFFFFFFFFFFFFF AND PUSH1 0x60 SHL DUP2 MSTORE POP POP POP PUSH3 0x111 JUMP JUMPDEST PUSH1 0x0 DUP2 MLOAD SWAP1 POP PUSH3 0x86 DUP2 PUSH3 0xF7 JUMP JUMPDEST SWAP3 SWAP2 POP POP JUMP JUMPDEST PUSH1 0x0 PUSH1 0x20 DUP3 DUP5 SUB SLT ISZERO PUSH3 0xA5 JUMPI PUSH3 0xA4 PUSH3 0xF2 JUMP JUMPDEST JUMPDEST PUSH1 0x0 PUSH3 0xB5 DUP5 DUP3 DUP6 ADD PUSH3 0x75 JUMP JUMPDEST SWAP2 POP POP SWAP3 SWAP2 POP POP JUMP JUMPDEST PUSH1 0x0 PUSH3 0xCB DUP3 PUSH3 0xD2 JUMP JUMPDEST SWAP1 POP SWAP2 SWAP1 POP JUMP JUMPDEST PUSH1 0x0 PUSH20 0xFFFFFFFFFFFFFFFFFFFFFFFFFFFFFFFFFFFFFFFF DUP3 AND SWAP1 POP SWAP2 SWAP1 POP JUMP JUMPDEST PUSH1 0x0 DUP1 REVERT JUMPDEST PUSH3 0x102 DUP2 PUSH3 0xBE JUMP JUMPDEST DUP2 EQ PUSH3 0x10E JUMPI PUSH1 0x0 DUP1 REVERT JUMPDEST POP JUMP JUMPDEST PUSH1 0x80 MLOAD PUSH1 0x60 SHR PUSH2 0x1A44 PUSH3 0x14C PUSH1 0x0 CODECOPY PUSH1 0x0 DUP2 DUP2 PUSH2 0x3E4 ADD MSTORE DUP2 DUP2 PUSH2 0x6A4 ADD MSTORE DUP2 DUP2 PUSH2 0xAFF ADD MSTORE DUP2 DUP2 PUSH2 0xEBD ADD MSTORE PUSH2 0x1033 ADD MSTORE PUSH2 0x1A44 PUSH1 0x0 RETURN INVALID PUSH1 0x80 PUSH1 0x40 MSTORE CALLVALUE DUP1 ISZERO PUSH2 0x10 JUMPI PUSH1 0x0 DUP1 REVERT JUMPDEST POP PUSH1 0x4 CALLDATASIZE LT PUSH2 0x9E JUMPI PUSH1 0x0 CALLDATALOAD PUSH1 0xE0 SHR DUP1 PUSH4 0x711853AB GT PUSH2 0x66 JUMPI DUP1 PUSH4 0x711853AB EQ PUSH2 0x14A JUMPI DUP1 PUSH4 0xAA4FB63A EQ PUSH2 0x166 JUMPI DUP1 PUSH4 0xDAF69940 EQ PUSH2 0x196 JUMPI DUP1 PUSH4 0xFC0C546A EQ PUSH2 0x1B2 JUMPI DUP1 PUSH4 0xFDE327BE EQ PUSH2 0x1D0 JUMPI PUSH2 0x9E JUMP JUMPDEST DUP1 PUSH4 0x6661ABD EQ PUSH2 0xA3 JUMPI DUP1 PUSH4 0x141961BC EQ PUSH2 0xC1 JUMPI DUP1 PUSH4 0x278ECDE1 EQ PUSH2 0xF6 JUMPI DUP1 PUSH4 0x379607F5 EQ PUSH2 0x112 JUMPI DUP1 PUSH4 0x40E58EE5 EQ PUSH2 0x12E JUMPI JUMPDEST PUSH1 0x0 DUP1 REVERT JUMPDEST PUSH2 0xAB PUSH2 0x1EC JUMP JUMPDEST PUSH1 0x40 MLOAD PUSH2 0xB8 SWAP2 SWAP1 PUSH2 0x1638 JUMP JUMPDEST PUSH1 0x40 MLOAD DUP1 SWAP2 SUB SWAP1 RETURN JUMPDEST PUSH2 0xDB PUSH1 0x4 DUP1 CALLDATASIZE SUB DUP2 ADD SWAP1 PUSH2 0xD6 SWAP2 SWAP1 PUSH2 0x11B6 JUMP JUMPDEST PUSH2 0x1F2 JUMP JUMPDEST PUSH1 0x40 MLOAD PUSH2 0xED SWAP7 SWAP6 SWAP5 SWAP4 SWAP3 SWAP2 SWAP1 PUSH2 0x149C JUMP JUMPDEST PUSH1 0x40 MLOAD DUP1 SWAP2 SUB SWAP1 RETURN JUMPDEST PUSH2 0x110 PUSH1 0x4 DUP1 CALLDATASIZE SUB DUP2 ADD SWAP1 PUSH2 0x10B SWAP2 SWAP1 PUSH2 0x11B6 JUMP JUMPDEST PUSH2 0x27B JUMP JUMPDEST STOP JUMPDEST PUSH2 0x12C PUSH1 0x4 DUP1 CALLDATASIZE SUB DUP2 ADD SWAP1 PUSH2 0x127 SWAP2 SWAP1 PUSH2 0x11B6 JUMP JUMPDEST PUSH2 0x4E4 JUMP JUMPDEST STOP JUMPDEST PUSH2 0x148 PUSH1 0x4 DUP1 CALLDATASIZE SUB DUP2 ADD SWAP1 PUSH2 0x143 SWAP2 SWAP1 PUSH2 0x11B6 JUMP JUMPDEST PUSH2 0x78F JUMP JUMPDEST STOP JUMPDEST PUSH2 0x164 PUSH1 0x4 DUP1 CALLDATASIZE SUB DUP2 ADD SWAP1 PUSH2 0x15F SWAP2 SWAP1 PUSH2 0x1223 JUMP JUMPDEST PUSH2 0xA08 JUMP JUMPDEST STOP JUMPDEST PUSH2 0x180 PUSH1 0x4 DUP1 CALLDATASIZE SUB DUP2 ADD SWAP1 PUSH2 0x17B SWAP2 SWAP1 PUSH2 0x11E3 JUMP JUMPDEST PUSH2 0xBFF JUMP JUMPDEST PUSH1 0x40 MLOAD PUSH2 0x18D SWAP2 SWAP1 PUSH2 0x1638 JUMP JUMPDEST PUSH1 0x40 MLOAD DUP1 SWAP2 SUB SWAP1 RETURN JUMPDEST PUSH2 0x1B0 PUSH1 0x4 DUP1 CALLDATASIZE SUB DUP2 ADD SWAP1 PUSH2 0x1AB SWAP2 SWAP1 PUSH2 0x1263 JUMP JUMPDEST PUSH2 0xC24 JUMP JUMPDEST STOP JUMPDEST PUSH2 0x1BA PUSH2 0xEBB JUMP JUMPDEST PUSH1 0x40 MLOAD PUSH2 0x1C7 SWAP2 SWAP1 PUSH2 0x14FD JUMP JUMPDEST PUSH1 0x40 MLOAD DUP1 SWAP2 SUB SWAP1 RETURN JUMPDEST PUSH2 0x1EA PUSH1 0x4 DUP1 CALLDATASIZE SUB DUP2 ADD SWAP1 PUSH2 0x1E5 SWAP2 SWAP1 PUSH2 0x1223 JUMP JUMPDEST PUSH2 0xEDF JUMP JUMPDEST STOP JUMPDEST PUSH1 0x2 SLOAD DUP2 JUMP JUMPDEST PUSH1 0x0 PUSH1 0x20 MSTORE DUP1 PUSH1 0x0 MSTORE PUSH1 0x40 PUSH1 0x0 KECCAK256 PUSH1 0x0 SWAP2 POP SWAP1 POP DUP1 PUSH1 0x0 ADD PUSH1 0x0 SWAP1 SLOAD SWAP1 PUSH2 0x100 EXP SWAP1 DIV PUSH20 0xFFFFFFFFFFFFFFFFFFFFFFFFFFFFFFFFFFFFFFFF AND SWAP1 DUP1 PUSH1 0x1 ADD SLOAD SWAP1 DUP1 PUSH1 0x2 ADD SLOAD SWAP1 DUP1 PUSH1 0x3 ADD PUSH1 0x0 SWAP1 SLOAD SWAP1 PUSH2 0x100 EXP SWAP1 DIV PUSH4 0xFFFFFFFF AND SWAP1 DUP1 PUSH1 0x3 ADD PUSH1 0x4 SWAP1 SLOAD SWAP1 PUSH2 0x100 EXP SWAP1 DIV PUSH4 0xFFFFFFFF AND SWAP1 DUP1 PUSH1 0x3 ADD PUSH1 0x8 SWAP1 SLOAD SWAP1 PUSH2 0x100 EXP SWAP1 DIV PUSH1 0xFF AND SWAP1 POP DUP7 JUMP JUMPDEST PUSH1 0x0 DUP1 PUSH1 0x0 DUP4 DUP2 MSTORE PUSH1 0x20 ADD SWAP1 DUP2 MSTORE PUSH1 0x20 ADD PUSH1 0x0 KECCAK256 SWAP1 POP TIMESTAMP DUP2 PUSH1 0x3 ADD PUSH1 0x4 SWAP1 SLOAD SWAP1 PUSH2 0x100 EXP SWAP1 DIV PUSH4 0xFFFFFFFF AND PUSH4 0xFFFFFFFF AND LT PUSH2 0x2ED JUMPI PUSH1 0x40 MLOAD PUSH32 0x8C379A000000000000000000000000000000000000000000000000000000000 DUP2 MSTORE PUSH1 0x4 ADD PUSH2 0x2E4 SWAP1 PUSH2 0x1518 JUMP JUMPDEST PUSH1 0x40 MLOAD DUP1 SWAP2 SUB SWAP1 REVERT JUMPDEST DUP1 PUSH1 0x1 ADD SLOAD DUP2 PUSH1 0x2 ADD SLOAD LT PUSH2 0x337 JUMPI PUSH1 0x40 MLOAD PUSH32 0x8C379A000000000000000000000000000000000000000000000000000000000 DUP2 MSTORE PUSH1 0x4 ADD PUSH2 0x32E SWAP1 PUSH2 0x1598 JUMP JUMPDEST PUSH1 0x40 MLOAD DUP1 SWAP2 SUB SWAP1 REVERT JUMPDEST PUSH1 0x0 PUSH1 0x1 PUSH1 0x0 DUP5 DUP2 MSTORE PUSH1 0x20 ADD SWAP1 DUP2 MSTORE PUSH1 0x20 ADD PUSH1 0x0 KECCAK256 PUSH1 0x0 CALLER PUSH20 0xFFFFFFFFFFFFFFFFFFFFFFFFFFFFFFFFFFFFFFFF AND PUSH20 0xFFFFFFFFFFFFFFFFFFFFFFFFFFFFFFFFFFFFFFFF AND DUP2 MSTORE PUSH1 0x20 ADD SWAP1 DUP2 MSTORE PUSH1 0x20 ADD PUSH1 0x0 KECCAK256 SLOAD SWAP1 POP PUSH1 0x0 PUSH1 0x1 PUSH1 0x0 DUP6 DUP2 MSTORE PUSH1 0x20 ADD SWAP1 DUP2 MSTORE PUSH1 0x20 ADD PUSH1 0x0 KECCAK256 PUSH1 0x0 CALLER PUSH20 0xFFFFFFFFFFFFFFFFFFFFFFFFFFFFFFFFFFFFFFFF AND PUSH20 0xFFFFFFFFFFFFFFFFFFFFFFFFFFFFFFFFFFFFFFFF AND DUP2 MSTORE PUSH1 0x20 ADD SWAP1 DUP2 MSTORE PUSH1 0x20 ADD PUSH1 0x0 KECCAK256 DUP2 SWAP1 SSTORE POP PUSH32 0x0 PUSH20 0xFFFFFFFFFFFFFFFFFFFFFFFFFFFFFFFFFFFFFFFF AND PUSH4 0xA9059CBB CALLER DUP4 PUSH1 0x40 MLOAD DUP4 PUSH4 0xFFFFFFFF AND PUSH1 0xE0 SHL DUP2 MSTORE PUSH1 0x4 ADD PUSH2 0x43D SWAP3 SWAP2 SWAP1 PUSH2 0x1473 JUMP JUMPDEST PUSH1 0x20 PUSH1 0x40 MLOAD DUP1 DUP4 SUB DUP2 PUSH1 0x0 DUP8 DUP1 EXTCODESIZE ISZERO DUP1 ISZERO PUSH2 0x457 JUMPI PUSH1 0x0 DUP1 REVERT JUMPDEST POP GAS CALL ISZERO DUP1 ISZERO PUSH2 0x46B JUMPI RETURNDATASIZE PUSH1 0x0 DUP1 RETURNDATACOPY RETURNDATASIZE PUSH1 0x0 REVERT JUMPDEST POP POP POP POP PUSH1 0x40 MLOAD RETURNDATASIZE PUSH1 0x1F NOT PUSH1 0x1F DUP3 ADD AND DUP3 ADD DUP1 PUSH1 0x40 MSTORE POP DUP2 ADD SWAP1 PUSH2 0x48F SWAP2 SWAP1 PUSH2 0x1189 JUMP JUMPDEST POP CALLER PUSH20 0xFFFFFFFFFFFFFFFFFFFFFFFFFFFFFFFFFFFFFFFF AND DUP4 PUSH32 0x21E12A7CAD0DA5928167E1084EA4D5FDF8D9AF66657A2543A9AC76A0CA081477 DUP4 PUSH1 0x40 MLOAD PUSH2 0x4D7 SWAP2 SWAP1 PUSH2 0x1638 JUMP JUMPDEST PUSH1 0x40 MLOAD DUP1 SWAP2 SUB SWAP1 LOG3 POP POP POP JUMP JUMPDEST PUSH1 0x0 DUP1 PUSH1 0x0 DUP4 DUP2 MSTORE PUSH1 0x20 ADD SWAP1 DUP2 MSTORE PUSH1 0x20 ADD PUSH1 0x0 KECCAK256 SWAP1 POP CALLER PUSH20 0xFFFFFFFFFFFFFFFFFFFFFFFFFFFFFFFFFFFFFFFF AND DUP2 PUSH1 0x0 ADD PUSH1 0x0 SWAP1 SLOAD SWAP1 PUSH2 0x100 EXP SWAP1 DIV PUSH20 0xFFFFFFFFFFFFFFFFFFFFFFFFFFFFFFFFFFFFFFFF AND PUSH20 0xFFFFFFFFFFFFFFFFFFFFFFFFFFFFFFFFFFFFFFFF AND EQ PUSH2 0x58C JUMPI PUSH1 0x40 MLOAD PUSH32 0x8C379A000000000000000000000000000000000000000000000000000000000 DUP2 MSTORE PUSH1 0x4 ADD PUSH2 0x583 SWAP1 PUSH2 0x15D8 JUMP JUMPDEST PUSH1 0x40 MLOAD DUP1 SWAP2 SUB SWAP1 REVERT JUMPDEST DUP1 PUSH1 0x3 ADD PUSH1 0x8 SWAP1 SLOAD SWAP1 PUSH2 0x100 EXP SWAP1 DIV PUSH1 0xFF AND ISZERO PUSH2 0x5DE JUMPI PUSH1 0x40 MLOAD PUSH32 0x8C379A000000000000000000000000000000000000000000000000000000000 DUP2 MSTORE PUSH1 0x4 ADD PUSH2 0x5D5 SWAP1 PUSH2 0x1558 JUMP JUMPDEST PUSH1 0x40 MLOAD DUP1 SWAP2 SUB SWAP1 REVERT JUMPDEST TIMESTAMP DUP2 PUSH1 0x3 ADD PUSH1 0x4 SWAP1 SLOAD SWAP1 PUSH2 0x100 EXP SWAP1 DIV PUSH4 0xFFFFFFFF AND PUSH4 0xFFFFFFFF AND LT PUSH2 0x63A JUMPI PUSH1 0x40 MLOAD PUSH32 0x8C379A000000000000000000000000000000000000000000000000000000000 DUP2 MSTORE PUSH1 0x4 ADD PUSH2 0x631 SWAP1 PUSH2 0x1518 JUMP JUMPDEST PUSH1 0x40 MLOAD DUP1 SWAP2 SUB SWAP1 REVERT JUMPDEST DUP1 PUSH1 0x1 ADD SLOAD DUP2 PUSH1 0x2 ADD SLOAD LT ISZERO PUSH2 0x685 JUMPI PUSH1 0x40 MLOAD PUSH32 0x8C379A000000000000000000000000000000000000000000000000000000000 DUP2 MSTORE PUSH1 0x4 ADD PUSH2 0x67C SWAP1 PUSH2 0x1538 JUMP JUMPDEST PUSH1 0x40 MLOAD DUP1 SWAP2 SUB SWAP1 REVERT JUMPDEST PUSH1 0x1 DUP2 PUSH1 0x3 ADD PUSH1 0x8 PUSH2 0x100 EXP DUP2 SLOAD DUP2 PUSH1 0xFF MUL NOT AND SWAP1 DUP4 ISZERO ISZERO MUL OR SWAP1 SSTORE POP PUSH32 0x0 PUSH20 0xFFFFFFFFFFFFFFFFFFFFFFFFFFFFFFFFFFFFFFFF AND PUSH4 0xA9059CBB CALLER DUP4 PUSH1 0x2 ADD SLOAD PUSH1 0x40 MLOAD DUP4 PUSH4 0xFFFFFFFF AND PUSH1 0xE0 SHL DUP2 MSTORE PUSH1 0x4 ADD PUSH2 0x701 SWAP3 SWAP2 SWAP1 PUSH2 0x1473 JUMP JUMPDEST PUSH1 0x20 PUSH1 0x40 MLOAD DUP1 DUP4 SUB DUP2 PUSH1 0x0 DUP8 DUP1 EXTCODESIZE ISZERO DUP1 ISZERO PUSH2 0x71B JUMPI PUSH1 0x0 DUP1 REVERT JUMPDEST POP GAS CALL ISZERO DUP1 ISZERO PUSH2 0x72F JUMPI RETURNDATASIZE PUSH1 0x0 DUP1 RETURNDATACOPY RETURNDATASIZE PUSH1 0x0 REVERT JUMPDEST POP POP POP POP PUSH1 0x40 MLOAD RETURNDATASIZE PUSH1 0x1F NOT PUSH1 0x1F DUP3 ADD AND DUP3 ADD DUP1 PUSH1 0x40 MSTORE POP DUP2 ADD SWAP1 PUSH2 0x753 SWAP2 SWAP1 PUSH2 0x1189 JUMP JUMPDEST POP PUSH32 0x7BB2B3C10797BACCB6F8C4791F1EDD6CA2F0D028EE0EDA64B01A9A57E3A653F7 DUP3 PUSH1 0x40 MLOAD PUSH2 0x783 SWAP2 SWAP1 PUSH2 0x1638 JUMP JUMPDEST PUSH1 0x40 MLOAD DUP1 SWAP2 SUB SWAP1 LOG1 POP POP JUMP JUMPDEST PUSH1 0x0 DUP1 PUSH1 0x0 DUP4 DUP2 MSTORE PUSH1 0x20 ADD SWAP1 DUP2 MSTORE PUSH1 0x20 ADD PUSH1 0x0 KECCAK256 PUSH1 0x40 MLOAD DUP1 PUSH1 0xC0 ADD PUSH1 0x40 MSTORE SWAP1 DUP2 PUSH1 0x0 DUP3 ADD PUSH1 0x0 SWAP1 SLOAD SWAP1 PUSH2 0x100 EXP SWAP1 DIV PUSH20 0xFFFFFFFFFFFFFFFFFFFFFFFFFFFFFFFFFFFFFFFF AND PUSH20 0xFFFFFFFFFFFFFFFFFFFFFFFFFFFFFFFFFFFFFFFF AND PUSH20 0xFFFFFFFFFFFFFFFFFFFFFFFFFFFFFFFFFFFFFFFF AND DUP2 MSTORE PUSH1 0x20 ADD PUSH1 0x1 DUP3 ADD SLOAD DUP2 MSTORE PUSH1 0x20 ADD PUSH1 0x2 DUP3 ADD SLOAD DUP2 MSTORE PUSH1 0x20 ADD PUSH1 0x3 DUP3 ADD PUSH1 0x0 SWAP1 SLOAD SWAP1 PUSH2 0x100 EXP SWAP1 DIV PUSH4 0xFFFFFFFF AND PUSH4 0xFFFFFFFF AND PUSH4 0xFFFFFFFF AND DUP2 MSTORE PUSH1 0x20 ADD PUSH1 0x3 DUP3 ADD PUSH1 0x4 SWAP1 SLOAD SWAP1 PUSH2 0x100 EXP SWAP1 DIV PUSH4 0xFFFFFFFF AND PUSH4 0xFFFFFFFF AND PUSH4 0xFFFFFFFF AND DUP2 MSTORE PUSH1 0x20 ADD PUSH1 0x3 DUP3 ADD PUSH1 0x8 SWAP1 SLOAD SWAP1 PUSH2 0x100 EXP SWAP1 DIV PUSH1 0xFF AND ISZERO ISZERO ISZERO ISZERO DUP2 MSTORE POP POP SWAP1 POP DUP1 PUSH1 0x0 ADD MLOAD PUSH20 0xFFFFFFFFFFFFFFFFFFFFFFFFFFFFFFFFFFFFFFFF AND CALLER PUSH20 0xFFFFFFFFFFFFFFFFFFFFFFFFFFFFFFFFFFFFFFFF AND EQ PUSH2 0x8F3 JUMPI PUSH1 0x40 MLOAD PUSH32 0x8C379A000000000000000000000000000000000000000000000000000000000 DUP2 MSTORE PUSH1 0x4 ADD PUSH2 0x8EA SWAP1 PUSH2 0x15D8 JUMP JUMPDEST PUSH1 0x40 MLOAD DUP1 SWAP2 SUB SWAP1 REVERT JUMPDEST DUP1 PUSH1 0x60 ADD MLOAD PUSH4 0xFFFFFFFF AND TIMESTAMP LT PUSH2 0x93F JUMPI PUSH1 0x40 MLOAD PUSH32 0x8C379A000000000000000000000000000000000000000000000000000000000 DUP2 MSTORE PUSH1 0x4 ADD PUSH2 0x936 SWAP1 PUSH2 0x15F8 JUMP JUMPDEST PUSH1 0x40 MLOAD DUP1 SWAP2 SUB SWAP1 REVERT JUMPDEST PUSH1 0x0 DUP1 DUP4 DUP2 MSTORE PUSH1 0x20 ADD SWAP1 DUP2 MSTORE PUSH1 0x20 ADD PUSH1 0x0 KECCAK256 PUSH1 0x0 DUP1 DUP3 ADD PUSH1 0x0 PUSH2 0x100 EXP DUP2 SLOAD SWAP1 PUSH20 0xFFFFFFFFFFFFFFFFFFFFFFFFFFFFFFFFFFFFFFFF MUL NOT AND SWAP1 SSTORE PUSH1 0x1 DUP3 ADD PUSH1 0x0 SWAP1 SSTORE PUSH1 0x2 DUP3 ADD PUSH1 0x0 SWAP1 SSTORE PUSH1 0x3 DUP3 ADD PUSH1 0x0 PUSH2 0x100 EXP DUP2 SLOAD SWAP1 PUSH4 0xFFFFFFFF MUL NOT AND SWAP1 SSTORE PUSH1 0x3 DUP3 ADD PUSH1 0x4 PUSH2 0x100 EXP DUP2 SLOAD SWAP1 PUSH4 0xFFFFFFFF MUL NOT AND SWAP1 SSTORE PUSH1 0x3 DUP3 ADD PUSH1 0x8 PUSH2 0x100 EXP DUP2 SLOAD SWAP1 PUSH1 0xFF MUL NOT AND SWAP1 SSTORE POP POP PUSH32 0x8BF30E7FF26833413BE5F69E1D373744864D600B664204B4A2F9844A8EEDB9ED DUP3 PUSH1 0x40 MLOAD PUSH2 0x9FC SWAP2 SWAP1 PUSH2 0x1638 JUMP JUMPDEST PUSH1 0x40 MLOAD DUP1 SWAP2 SUB SWAP1 LOG1 POP POP JUMP JUMPDEST PUSH1 0x0 DUP1 PUSH1 0x0 DUP5 DUP2 MSTORE PUSH1 0x20 ADD SWAP1 DUP2 MSTORE PUSH1 0x20 ADD PUSH1 0x0 KECCAK256 SWAP1 POP TIMESTAMP DUP2 PUSH1 0x3 ADD PUSH1 0x4 SWAP1 SLOAD SWAP1 PUSH2 0x100 EXP SWAP1 DIV PUSH4 0xFFFFFFFF AND PUSH4 0xFFFFFFFF AND LT ISZERO PUSH2 0xA7B JUMPI PUSH1 0x40 MLOAD PUSH32 0x8C379A000000000000000000000000000000000000000000000000000000000 DUP2 MSTORE PUSH1 0x4 ADD PUSH2 0xA72 SWAP1 PUSH2 0x1618 JUMP JUMPDEST PUSH1 0x40 MLOAD DUP1 SWAP2 SUB SWAP1 REVERT JUMPDEST DUP2 DUP2 PUSH1 0x2 ADD PUSH1 0x0 DUP3 DUP3 SLOAD PUSH2 0xA8F SWAP2 SWAP1 PUSH2 0x16FF JUMP JUMPDEST SWAP3 POP POP DUP2 SWAP1 SSTORE POP DUP2 PUSH1 0x1 PUSH1 0x0 DUP6 DUP2 MSTORE PUSH1 0x20 ADD SWAP1 DUP2 MSTORE PUSH1 0x20 ADD PUSH1 0x0 KECCAK256 PUSH1 0x0 CALLER PUSH20 0xFFFFFFFFFFFFFFFFFFFFFFFFFFFFFFFFFFFFFFFF AND PUSH20 0xFFFFFFFFFFFFFFFFFFFFFFFFFFFFFFFFFFFFFFFF AND DUP2 MSTORE PUSH1 0x20 ADD SWAP1 DUP2 MSTORE PUSH1 0x20 ADD PUSH1 0x0 KECCAK256 PUSH1 0x0 DUP3 DUP3 SLOAD PUSH2 0xAF6 SWAP2 SWAP1 PUSH2 0x16FF JUMP JUMPDEST SWAP3 POP POP DUP2 SWAP1 SSTORE POP PUSH32 0x0 PUSH20 0xFFFFFFFFFFFFFFFFFFFFFFFFFFFFFFFFFFFFFFFF AND PUSH4 0xA9059CBB CALLER DUP5 PUSH1 0x40 MLOAD DUP4 PUSH4 0xFFFFFFFF AND PUSH1 0xE0 SHL DUP2 MSTORE PUSH1 0x4 ADD PUSH2 0xB58 SWAP3 SWAP2 SWAP1 PUSH2 0x1473 JUMP JUMPDEST PUSH1 0x20 PUSH1 0x40 MLOAD DUP1 DUP4 SUB DUP2 PUSH1 0x0 DUP8 DUP1 EXTCODESIZE ISZERO DUP1 ISZERO PUSH2 0xB72 JUMPI PUSH1 0x0 DUP1 REVERT JUMPDEST POP GAS CALL ISZERO DUP1 ISZERO PUSH2 0xB86 JUMPI RETURNDATASIZE PUSH1 0x0 DUP1 RETURNDATACOPY RETURNDATASIZE PUSH1 0x0 REVERT JUMPDEST POP POP POP POP PUSH1 0x40 MLOAD RETURNDATASIZE PUSH1 0x1F NOT PUSH1 0x1F DUP3 ADD AND DUP3 ADD DUP1 PUSH1 0x40 MSTORE POP DUP2 ADD SWAP1 PUSH2 0xBAA SWAP2 SWAP1 PUSH2 0x1189 JUMP JUMPDEST POP CALLER PUSH20 0xFFFFFFFFFFFFFFFFFFFFFFFFFFFFFFFFFFFFFFFF AND DUP4 PUSH32 0x2EEEAB891B26A214D1B25749F88A406BDEA852BD8C9BFDA977E0EF8114C180BA DUP5 PUSH1 0x40 MLOAD PUSH2 0xBF2 SWAP2 SWAP1 PUSH2 0x1638 JUMP JUMPDEST PUSH1 0x40 MLOAD DUP1 SWAP2 SUB SWAP1 LOG3 POP POP POP JUMP JUMPDEST PUSH1 0x1 PUSH1 0x20 MSTORE DUP2 PUSH1 0x0 MSTORE PUSH1 0x40 PUSH1 0x0 KECCAK256 PUSH1 0x20 MSTORE DUP1 PUSH1 0x0 MSTORE PUSH1 0x40 PUSH1 0x0 KECCAK256 PUSH1 0x0 SWAP2 POP SWAP2 POP POP SLOAD DUP2 JUMP JUMPDEST TIMESTAMP DUP3 PUSH4 0xFFFFFFFF AND LT ISZERO PUSH2 0xC6D JUMPI PUSH1 0x40 MLOAD PUSH32 0x8C379A000000000000000000000000000000000000000000000000000000000 DUP2 MSTORE PUSH1 0x4 ADD PUSH2 0xC64 SWAP1 PUSH2 0x1578 JUMP JUMPDEST PUSH1 0x40 MLOAD DUP1 SWAP2 SUB SWAP1 REVERT JUMPDEST DUP1 PUSH4 0xFFFFFFFF AND DUP3 PUSH4 0xFFFFFFFF AND GT ISZERO PUSH2 0xCBC JUMPI PUSH1 0x40 MLOAD PUSH32 0x8C379A000000000000000000000000000000000000000000000000000000000 DUP2 MSTORE PUSH1 0x4 ADD PUSH2 0xCB3 SWAP1 PUSH2 0x1578 JUMP JUMPDEST PUSH1 0x40 MLOAD DUP1 SWAP2 SUB SWAP1 REVERT JUMPDEST PUSH3 0x76A700 TIMESTAMP PUSH2 0xCCB SWAP2 SWAP1 PUSH2 0x16A9 JUMP JUMPDEST DUP2 PUSH4 0xFFFFFFFF AND GT ISZERO PUSH2 0xD13 JUMPI PUSH1 0x40 MLOAD PUSH32 0x8C379A000000000000000000000000000000000000000000000000000000000 DUP2 MSTORE PUSH1 0x4 ADD PUSH2 0xD0A SWAP1 PUSH2 0x1578 JUMP JUMPDEST PUSH1 0x40 MLOAD DUP1 SWAP2 SUB SWAP1 REVERT JUMPDEST PUSH1 0x1 PUSH1 0x2 PUSH1 0x0 DUP3 DUP3 SLOAD PUSH2 0xD26 SWAP2 SWAP1 PUSH2 0x16A9 JUMP JUMPDEST SWAP3 POP POP DUP2 SWAP1 SSTORE POP PUSH1 0x40 MLOAD DUP1 PUSH1 0xC0 ADD PUSH1 0x40 MSTORE DUP1 CALLER PUSH20 0xFFFFFFFFFFFFFFFFFFFFFFFFFFFFFFFFFFFFFFFF AND DUP2 MSTORE PUSH1 0x20 ADD DUP5 DUP2 MSTORE PUSH1 0x20 ADD PUSH1 0x0 DUP2 MSTORE PUSH1 0x20 ADD DUP4 PUSH4 0xFFFFFFFF AND DUP2 MSTORE PUSH1 0x20 ADD DUP3 PUSH4 0xFFFFFFFF AND DUP2 MSTORE PUSH1 0x20 ADD PUSH1 0x0 ISZERO ISZERO DUP2 MSTORE POP PUSH1 0x0 DUP1 PUSH1 0x2 SLOAD DUP2 MSTORE PUSH1 0x20 ADD SWAP1 DUP2 MSTORE PUSH1 0x20 ADD PUSH1 0x0 KECCAK256 PUSH1 0x0 DUP3 ADD MLOAD DUP2 PUSH1 0x0 ADD PUSH1 0x0 PUSH2 0x100 EXP DUP2 SLOAD DUP2 PUSH20 0xFFFFFFFFFFFFFFFFFFFFFFFFFFFFFFFFFFFFFFFF MUL NOT AND SWAP1 DUP4 PUSH20 0xFFFFFFFFFFFFFFFFFFFFFFFFFFFFFFFFFFFFFFFF AND MUL OR SWAP1 SSTORE POP PUSH1 0x20 DUP3 ADD MLOAD DUP2 PUSH1 0x1 ADD SSTORE PUSH1 0x40 DUP3 ADD MLOAD DUP2 PUSH1 0x2 ADD SSTORE PUSH1 0x60 DUP3 ADD MLOAD DUP2 PUSH1 0x3 ADD PUSH1 0x0 PUSH2 0x100 EXP DUP2 SLOAD DUP2 PUSH4 0xFFFFFFFF MUL NOT AND SWAP1 DUP4 PUSH4 0xFFFFFFFF AND MUL OR SWAP1 SSTORE POP PUSH1 0x80 DUP3 ADD MLOAD DUP2 PUSH1 0x3 ADD PUSH1 0x4 PUSH2 0x100 EXP DUP2 SLOAD DUP2 PUSH4 0xFFFFFFFF MUL NOT AND SWAP1 DUP4 PUSH4 0xFFFFFFFF AND MUL OR SWAP1 SSTORE POP PUSH1 0xA0 DUP3 ADD MLOAD DUP2 PUSH1 0x3 ADD PUSH1 0x8 PUSH2 0x100 EXP DUP2 SLOAD DUP2 PUSH1 0xFF MUL NOT AND SWAP1 DUP4 ISZERO ISZERO MUL OR SWAP1 SSTORE POP SWAP1 POP POP CALLER PUSH20 0xFFFFFFFFFFFFFFFFFFFFFFFFFFFFFFFFFFFFFFFF AND PUSH32 0x601CD0D650B473037E838A2696D41E654433D065B3F56B28D1D3302E44A304F PUSH1 0x2 SLOAD DUP6 DUP6 DUP6 PUSH1 0x40 MLOAD PUSH2 0xEAE SWAP5 SWAP4 SWAP3 SWAP2 SWAP1 PUSH2 0x1653 JUMP JUMPDEST PUSH1 0x40 MLOAD DUP1 SWAP2 SUB SWAP1 LOG2 POP POP POP JUMP JUMPDEST PUSH32 0x0 DUP2 JUMP JUMPDEST PUSH1 0x0 DUP1 PUSH1 0x0 DUP5 DUP2 MSTORE PUSH1 0x20 ADD SWAP1 DUP2 MSTORE PUSH1 0x20 ADD PUSH1 0x0 KECCAK256 SWAP1 POP TIMESTAMP DUP2 PUSH1 0x3 ADD PUSH1 0x0 SWAP1 SLOAD SWAP1 PUSH2 0x100 EXP SWAP1 DIV PUSH4 0xFFFFFFFF AND PUSH4 0xFFFFFFFF AND GT ISZERO PUSH2 0xF52 JUMPI PUSH1 0x40 MLOAD PUSH32 0x8C379A000000000000000000000000000000000000000000000000000000000 DUP2 MSTORE PUSH1 0x4 ADD PUSH2 0xF49 SWAP1 PUSH2 0x15B8 JUMP JUMPDEST PUSH1 0x40 MLOAD DUP1 SWAP2 SUB SWAP1 REVERT JUMPDEST TIMESTAMP DUP2 PUSH1 0x3 ADD PUSH1 0x4 SWAP1 SLOAD SWAP1 PUSH2 0x100 EXP SWAP1 DIV PUSH4 0xFFFFFFFF AND PUSH4 0xFFFFFFFF AND LT ISZERO PUSH2 0xFAF JUMPI PUSH1 0x40 MLOAD PUSH32 0x8C379A000000000000000000000000000000000000000000000000000000000 DUP2 MSTORE PUSH1 0x4 ADD PUSH2 0xFA6 SWAP1 PUSH2 0x1618 JUMP JUMPDEST PUSH1 0x40 MLOAD DUP1 SWAP2 SUB SWAP1 REVERT JUMPDEST DUP2 DUP2 PUSH1 0x2 ADD PUSH1 0x0 DUP3 DUP3 SLOAD PUSH2 0xFC3 SWAP2 SWAP1 PUSH2 0x16A9 JUMP JUMPDEST SWAP3 POP POP DUP2 SWAP1 SSTORE POP DUP2 PUSH1 0x1 PUSH1 0x0 DUP6 DUP2 MSTORE PUSH1 0x20 ADD SWAP1 DUP2 MSTORE PUSH1 0x20 ADD PUSH1 0x0 KECCAK256 PUSH1 0x0 CALLER PUSH20 0xFFFFFFFFFFFFFFFFFFFFFFFFFFFFFFFFFFFFFFFF AND PUSH20 0xFFFFFFFFFFFFFFFFFFFFFFFFFFFFFFFFFFFFFFFF AND DUP2 MSTORE PUSH1 0x20 ADD SWAP1 DUP2 MSTORE PUSH1 0x20 ADD PUSH1 0x0 KECCAK256 PUSH1 0x0 DUP3 DUP3 SLOAD PUSH2 0x102A SWAP2 SWAP1 PUSH2 0x16A9 JUMP JUMPDEST SWAP3 POP POP DUP2 SWAP1 SSTORE POP PUSH32 0x0 PUSH20 0xFFFFFFFFFFFFFFFFFFFFFFFFFFFFFFFFFFFFFFFF AND PUSH4 0x23B872DD CALLER ADDRESS DUP6 PUSH1 0x40 MLOAD DUP5 PUSH4 0xFFFFFFFF AND PUSH1 0xE0 SHL DUP2 MSTORE PUSH1 0x4 ADD PUSH2 0x108E SWAP4 SWAP3 SWAP2 SWAP1 PUSH2 0x143C JUMP JUMPDEST PUSH1 0x20 PUSH1 0x40 MLOAD DUP1 DUP4 SUB DUP2 PUSH1 0x0 DUP8 DUP1 EXTCODESIZE ISZERO DUP1 ISZERO PUSH2 0x10A8 JUMPI PUSH1 0x0 DUP1 REVERT JUMPDEST POP GAS CALL ISZERO DUP1 ISZERO PUSH2 0x10BC JUMPI RETURNDATASIZE PUSH1 0x0 DUP1 RETURNDATACOPY RETURNDATASIZE PUSH1 0x0 REVERT JUMPDEST POP POP POP POP PUSH1 0x40 MLOAD RETURNDATASIZE PUSH1 0x1F NOT PUSH1 0x1F DUP3 ADD AND DUP3 ADD DUP1 PUSH1 0x40 MSTORE POP DUP2 ADD SWAP1 PUSH2 0x10E0 SWAP2 SWAP1 PUSH2 0x1189 JUMP JUMPDEST POP CALLER PUSH20 0xFFFFFFFFFFFFFFFFFFFFFFFFFFFFFFFFFFFFFFFF AND DUP4 PUSH32 0x6BDB975DF800A73232998E71ED585D536222F1DFEAA622D7F62A23ADA686C82 DUP5 PUSH1 0x40 MLOAD PUSH2 0x1128 SWAP2 SWAP1 PUSH2 0x1638 JUMP JUMPDEST PUSH1 0x40 MLOAD DUP1 SWAP2 SUB SWAP1 LOG3 POP POP POP JUMP JUMPDEST PUSH1 0x0 DUP2 CALLDATALOAD SWAP1 POP PUSH2 0x1144 DUP2 PUSH2 0x19B2 JUMP JUMPDEST SWAP3 SWAP2 POP POP JUMP JUMPDEST PUSH1 0x0 DUP2 MLOAD SWAP1 POP PUSH2 0x1159 DUP2 PUSH2 0x19C9 JUMP JUMPDEST SWAP3 SWAP2 POP POP JUMP JUMPDEST PUSH1 0x0 DUP2 CALLDATALOAD SWAP1 POP PUSH2 0x116E DUP2 PUSH2 0x19E0 JUMP JUMPDEST SWAP3 SWAP2 POP POP JUMP JUMPDEST PUSH1 0x0 DUP2 CALLDATALOAD SWAP1 POP PUSH2 0x1183 DUP2 PUSH2 0x19F7 JUMP JUMPDEST SWAP3 SWAP2 POP POP JUMP JUMPDEST PUSH1 0x0 PUSH1 0x20 DUP3 DUP5 SUB SLT ISZERO PUSH2 0x119F JUMPI PUSH2 0x119E PUSH2 0x17F0 JUMP JUMPDEST JUMPDEST PUSH1 0x0 PUSH2 0x11AD DUP5 DUP3 DUP6 ADD PUSH2 0x114A JUMP JUMPDEST SWAP2 POP POP SWAP3 SWAP2 POP POP JUMP JUMPDEST PUSH1 0x0 PUSH1 0x20 DUP3 DUP5 SUB SLT ISZERO PUSH2 0x11CC JUMPI PUSH2 0x11CB PUSH2 0x17F0 JUMP JUMPDEST JUMPDEST PUSH1 0x0 PUSH2 0x11DA DUP5 DUP3 DUP6 ADD PUSH2 0x115F JUMP JUMPDEST SWAP2 POP POP SWAP3 SWAP2 POP POP JUMP JUMPDEST PUSH1 0x0 DUP1 PUSH1 0x40 DUP4 DUP6 SUB SLT ISZERO PUSH2 0x11FA JUMPI PUSH2 0x11F9 PUSH2 0x17F0 JUMP JUMPDEST JUMPDEST PUSH1 0x0 PUSH2 0x1208 DUP6 DUP3 DUP7 ADD PUSH2 0x115F JUMP JUMPDEST SWAP3 POP POP PUSH1 0x20 PUSH2 0x1219 DUP6 DUP3 DUP7 ADD PUSH2 0x1135 JUMP JUMPDEST SWAP2 POP POP SWAP3 POP SWAP3 SWAP1 POP JUMP JUMPDEST PUSH1 0x0 DUP1 PUSH1 0x40 DUP4 DUP6 SUB SLT ISZERO PUSH2 0x123A JUMPI PUSH2 0x1239 PUSH2 0x17F0 JUMP JUMPDEST JUMPDEST PUSH1 0x0 PUSH2 0x1248 DUP6 DUP3 DUP7 ADD PUSH2 0x115F JUMP JUMPDEST SWAP3 POP POP PUSH1 0x20 PUSH2 0x1259 DUP6 DUP3 DUP7 ADD PUSH2 0x115F JUMP JUMPDEST SWAP2 POP POP SWAP3 POP SWAP3 SWAP1 POP JUMP JUMPDEST PUSH1 0x0 DUP1 PUSH1 0x0 PUSH1 0x60 DUP5 DUP7 SUB SLT ISZERO PUSH2 0x127C JUMPI PUSH2 0x127B PUSH2 0x17F0 JUMP JUMPDEST JUMPDEST PUSH1 0x0 PUSH2 0x128A DUP7 DUP3 DUP8 ADD PUSH2 0x115F JUMP JUMPDEST SWAP4 POP POP PUSH1 0x20 PUSH2 0x129B DUP7 DUP3 DUP8 ADD PUSH2 0x1174 JUMP JUMPDEST SWAP3 POP POP PUSH1 0x40 PUSH2 0x12AC DUP7 DUP3 DUP8 ADD PUSH2 0x1174 JUMP JUMPDEST SWAP2 POP POP SWAP3 POP SWAP3 POP SWAP3 JUMP JUMPDEST PUSH2 0x12BF DUP2 PUSH2 0x1733 JUMP JUMPDEST DUP3 MSTORE POP POP JUMP JUMPDEST PUSH2 0x12CE DUP2 PUSH2 0x1745 JUMP JUMPDEST DUP3 MSTORE POP POP JUMP JUMPDEST PUSH2 0x12DD DUP2 PUSH2 0x178B JUMP JUMPDEST DUP3 MSTORE POP POP JUMP JUMPDEST PUSH1 0x0 PUSH2 0x12F0 PUSH1 0x1D DUP4 PUSH2 0x1698 JUMP JUMPDEST SWAP2 POP PUSH2 0x12FB DUP3 PUSH2 0x17F5 JUMP JUMPDEST PUSH1 0x20 DUP3 ADD SWAP1 POP SWAP2 SWAP1 POP JUMP JUMPDEST PUSH1 0x0 PUSH2 0x1313 PUSH1 0x13 DUP4 PUSH2 0x1698 JUMP JUMPDEST SWAP2 POP PUSH2 0x131E DUP3 PUSH2 0x181E JUMP JUMPDEST PUSH1 0x20 DUP3 ADD SWAP1 POP SWAP2 SWAP1 POP JUMP JUMPDEST PUSH1 0x0 PUSH2 0x1336 PUSH1 0x1D DUP4 PUSH2 0x1698 JUMP JUMPDEST SWAP2 POP PUSH2 0x1341 DUP3 PUSH2 0x1847 JUMP JUMPDEST PUSH1 0x20 DUP3 ADD SWAP1 POP SWAP2 SWAP1 POP JUMP JUMPDEST PUSH1 0x0 PUSH2 0x1359 PUSH1 0xE DUP4 PUSH2 0x1698 JUMP JUMPDEST SWAP2 POP PUSH2 0x1364 DUP3 PUSH2 0x1870 JUMP JUMPDEST PUSH1 0x20 DUP3 ADD SWAP1 POP SWAP2 SWAP1 POP JUMP JUMPDEST PUSH1 0x0 PUSH2 0x137C PUSH1 0x22 DUP4 PUSH2 0x1698 JUMP JUMPDEST SWAP2 POP PUSH2 0x1387 DUP3 PUSH2 0x1899 JUMP JUMPDEST PUSH1 0x40 DUP3 ADD SWAP1 POP SWAP2 SWAP1 POP JUMP JUMPDEST PUSH1 0x0 PUSH2 0x139F PUSH1 0x15 DUP4 PUSH2 0x1698 JUMP JUMPDEST SWAP2 POP PUSH2 0x13AA DUP3 PUSH2 0x18E8 JUMP JUMPDEST PUSH1 0x20 DUP3 ADD SWAP1 POP SWAP2 SWAP1 POP JUMP JUMPDEST PUSH1 0x0 PUSH2 0x13C2 PUSH1 0x2E DUP4 PUSH2 0x1698 JUMP JUMPDEST SWAP2 POP PUSH2 0x13CD DUP3 PUSH2 0x1911 JUMP JUMPDEST PUSH1 0x40 DUP3 ADD SWAP1 POP SWAP2 SWAP1 POP JUMP JUMPDEST PUSH1 0x0 PUSH2 0x13E5 PUSH1 0x19 DUP4 PUSH2 0x1698 JUMP JUMPDEST SWAP2 POP PUSH2 0x13F0 DUP3 PUSH2 0x1960 JUMP JUMPDEST PUSH1 0x20 DUP3 ADD SWAP1 POP SWAP2 SWAP1 POP JUMP JUMPDEST PUSH1 0x0 PUSH2 0x1408 PUSH1 0x17 DUP4 PUSH2 0x1698 JUMP JUMPDEST SWAP2 POP PUSH2 0x1413 DUP3 PUSH2 0x1989 JUMP JUMPDEST PUSH1 0x20 DUP3 ADD SWAP1 POP SWAP2 SWAP1 POP JUMP JUMPDEST PUSH2 0x1427 DUP2 PUSH2 0x1771 JUMP JUMPDEST DUP3 MSTORE POP POP JUMP JUMPDEST PUSH2 0x1436 DUP2 PUSH2 0x177B JUMP JUMPDEST DUP3 MSTORE POP POP JUMP JUMPDEST PUSH1 0x0 PUSH1 0x60 DUP3 ADD SWAP1 POP PUSH2 0x1451 PUSH1 0x0 DUP4 ADD DUP7 PUSH2 0x12B6 JUMP JUMPDEST PUSH2 0x145E PUSH1 0x20 DUP4 ADD DUP6 PUSH2 0x12B6 JUMP JUMPDEST PUSH2 0x146B PUSH1 0x40 DUP4 ADD DUP5 PUSH2 0x141E JUMP JUMPDEST SWAP5 SWAP4 POP POP POP POP JUMP JUMPDEST PUSH1 0x0 PUSH1 0x40 DUP3 ADD SWAP1 POP PUSH2 0x1488 PUSH1 0x0 DUP4 ADD DUP6 PUSH2 0x12B6 JUMP JUMPDEST PUSH2 0x1495 PUSH1 0x20 DUP4 ADD DUP5 PUSH2 0x141E JUMP JUMPDEST SWAP4 SWAP3 POP POP POP JUMP JUMPDEST PUSH1 0x0 PUSH1 0xC0 DUP3 ADD SWAP1 POP PUSH2 0x14B1 PUSH1 0x0 DUP4 ADD DUP10 PUSH2 0x12B6 JUMP JUMPDEST PUSH2 0x14BE PUSH1 0x20 DUP4 ADD DUP9 PUSH2 0x141E JUMP JUMPDEST PUSH2 0x14CB PUSH1 0x40 DUP4 ADD DUP8 PUSH2 0x141E JUMP JUMPDEST PUSH2 0x14D8 PUSH1 0x60 DUP4 ADD DUP7 PUSH2 0x142D JUMP JUMPDEST PUSH2 0x14E5 PUSH1 0x80 DUP4 ADD DUP6 PUSH2 0x142D JUMP JUMPDEST PUSH2 0x14F2 PUSH1 0xA0 DUP4 ADD DUP5 PUSH2 0x12C5 JUMP JUMPDEST SWAP8 SWAP7 POP POP POP POP POP POP POP JUMP JUMPDEST PUSH1 0x0 PUSH1 0x20 DUP3 ADD SWAP1 POP PUSH2 0x1512 PUSH1 0x0 DUP4 ADD DUP5 PUSH2 0x12D4 JUMP JUMPDEST SWAP3 SWAP2 POP POP JUMP JUMPDEST PUSH1 0x0 PUSH1 0x20 DUP3 ADD SWAP1 POP DUP2 DUP2 SUB PUSH1 0x0 DUP4 ADD MSTORE PUSH2 0x1531 DUP2 PUSH2 0x12E3 JUMP JUMPDEST SWAP1 POP SWAP2 SWAP1 POP JUMP JUMPDEST PUSH1 0x0 PUSH1 0x20 DUP3 ADD SWAP1 POP DUP2 DUP2 SUB PUSH1 0x0 DUP4 ADD MSTORE PUSH2 0x1551 DUP2 PUSH2 0x1306 JUMP JUMPDEST SWAP1 POP SWAP2 SWAP1 POP JUMP JUMPDEST PUSH1 0x0 PUSH1 0x20 DUP3 ADD SWAP1 POP DUP2 DUP2 SUB PUSH1 0x0 DUP4 ADD MSTORE PUSH2 0x1571 DUP2 PUSH2 0x1329 JUMP JUMPDEST SWAP1 POP SWAP2 SWAP1 POP JUMP JUMPDEST PUSH1 0x0 PUSH1 0x20 DUP3 ADD SWAP1 POP DUP2 DUP2 SUB PUSH1 0x0 DUP4 ADD MSTORE PUSH2 0x1591 DUP2 PUSH2 0x134C JUMP JUMPDEST SWAP1 POP SWAP2 SWAP1 POP JUMP JUMPDEST PUSH1 0x0 PUSH1 0x20 DUP3 ADD SWAP1 POP DUP2 DUP2 SUB PUSH1 0x0 DUP4 ADD MSTORE PUSH2 0x15B1 DUP2 PUSH2 0x136F JUMP JUMPDEST SWAP1 POP SWAP2 SWAP1 POP JUMP JUMPDEST PUSH1 0x0 PUSH1 0x20 DUP3 ADD SWAP1 POP DUP2 DUP2 SUB PUSH1 0x0 DUP4 ADD MSTORE PUSH2 0x15D1 DUP2 PUSH2 0x1392 JUMP JUMPDEST SWAP1 POP SWAP2 SWAP1 POP JUMP JUMPDEST PUSH1 0x0 PUSH1 0x20 DUP3 ADD SWAP1 POP DUP2 DUP2 SUB PUSH1 0x0 DUP4 ADD MSTORE PUSH2 0x15F1 DUP2 PUSH2 0x13B5 JUMP JUMPDEST SWAP1 POP SWAP2 SWAP1 POP JUMP JUMPDEST PUSH1 0x0 PUSH1 0x20 DUP3 ADD SWAP1 POP DUP2 DUP2 SUB PUSH1 0x0 DUP4 ADD MSTORE PUSH2 0x1611 DUP2 PUSH2 0x13D8 JUMP JUMPDEST SWAP1 POP SWAP2 SWAP1 POP JUMP JUMPDEST PUSH1 0x0 PUSH1 0x20 DUP3 ADD SWAP1 POP DUP2 DUP2 SUB PUSH1 0x0 DUP4 ADD MSTORE PUSH2 0x1631 DUP2 PUSH2 0x13FB JUMP JUMPDEST SWAP1 POP SWAP2 SWAP1 POP JUMP JUMPDEST PUSH1 0x0 PUSH1 0x20 DUP3 ADD SWAP1 POP PUSH2 0x164D PUSH1 0x0 DUP4 ADD DUP5 PUSH2 0x141E JUMP JUMPDEST SWAP3 SWAP2 POP POP JUMP JUMPDEST PUSH1 0x0 PUSH1 0x80 DUP3 ADD SWAP1 POP PUSH2 0x1668 PUSH1 0x0 DUP4 ADD DUP8 PUSH2 0x141E JUMP JUMPDEST PUSH2 0x1675 PUSH1 0x20 DUP4 ADD DUP7 PUSH2 0x141E JUMP JUMPDEST PUSH2 0x1682 PUSH1 0x40 DUP4 ADD DUP6 PUSH2 0x142D JUMP JUMPDEST PUSH2 0x168F PUSH1 0x60 DUP4 ADD DUP5 PUSH2 0x142D JUMP JUMPDEST SWAP6 SWAP5 POP POP POP POP POP JUMP JUMPDEST PUSH1 0x0 DUP3 DUP3 MSTORE PUSH1 0x20 DUP3 ADD SWAP1 POP SWAP3 SWAP2 POP POP JUMP JUMPDEST PUSH1 0x0 PUSH2 0x16B4 DUP3 PUSH2 0x1771 JUMP JUMPDEST SWAP2 POP PUSH2 0x16BF DUP4 PUSH2 0x1771 JUMP JUMPDEST SWAP3 POP DUP3 PUSH32 0xFFFFFFFFFFFFFFFFFFFFFFFFFFFFFFFFFFFFFFFFFFFFFFFFFFFFFFFFFFFFFFFF SUB DUP3 GT ISZERO PUSH2 0x16F4 JUMPI PUSH2 0x16F3 PUSH2 0x17C1 JUMP JUMPDEST JUMPDEST DUP3 DUP3 ADD SWAP1 POP SWAP3 SWAP2 POP POP JUMP JUMPDEST PUSH1 0x0 PUSH2 0x170A DUP3 PUSH2 0x1771 JUMP JUMPDEST SWAP2 POP PUSH2 0x1715 DUP4 PUSH2 0x1771 JUMP JUMPDEST SWAP3 POP DUP3 DUP3 LT ISZERO PUSH2 0x1728 JUMPI PUSH2 0x1727 PUSH2 0x17C1 JUMP JUMPDEST JUMPDEST DUP3 DUP3 SUB SWAP1 POP SWAP3 SWAP2 POP POP JUMP JUMPDEST PUSH1 0x0 PUSH2 0x173E DUP3 PUSH2 0x1751 JUMP JUMPDEST SWAP1 POP SWAP2 SWAP1 POP JUMP JUMPDEST PUSH1 0x0 DUP2 ISZERO ISZERO SWAP1 POP SWAP2 SWAP1 POP JUMP JUMPDEST PUSH1 0x0 PUSH20 0xFFFFFFFFFFFFFFFFFFFFFFFFFFFFFFFFFFFFFFFF DUP3 AND SWAP1 POP SWAP2 SWAP1 POP JUMP JUMPDEST PUSH1 0x0 DUP2 SWAP1 POP SWAP2 SWAP1 POP JUMP JUMPDEST PUSH1 0x0 PUSH4 0xFFFFFFFF DUP3 AND SWAP1 POP SWAP2 SWAP1 POP JUMP JUMPDEST PUSH1 0x0 PUSH2 0x1796 DUP3 PUSH2 0x179D JUMP JUMPDEST SWAP1 POP SWAP2 SWAP1 POP JUMP JUMPDEST PUSH1 0x0 PUSH2 0x17A8 DUP3 PUSH2 0x17AF JUMP JUMPDEST SWAP1 POP SWAP2 SWAP1 POP JUMP JUMPDEST PUSH1 0x0 PUSH2 0x17BA DUP3 PUSH2 0x1751 JUMP JUMPDEST SWAP1 POP SWAP2 SWAP1 POP JUMP JUMPDEST PUSH32 0x4E487B7100000000000000000000000000000000000000000000000000000000 PUSH1 0x0 MSTORE PUSH1 0x11 PUSH1 0x4 MSTORE PUSH1 0x24 PUSH1 0x0 REVERT JUMPDEST PUSH1 0x0 DUP1 REVERT JUMPDEST PUSH32 0x5468652063616D706169676E206973206E6F74206F7665722079657421000000 PUSH1 0x0 DUP3 ADD MSTORE POP JUMP JUMPDEST PUSH32 0x546172676574206E6F7420726561636865642100000000000000000000000000 PUSH1 0x0 DUP3 ADD MSTORE POP JUMP JUMPDEST PUSH32 0x5468652063616D706169676E20616C726561647920636C61696D656421000000 PUSH1 0x0 DUP3 ADD MSTORE POP JUMP JUMPDEST PUSH32 0x7374617274206174203C206E6F77000000000000000000000000000000000000 PUSH1 0x0 DUP3 ADD MSTORE POP JUMP JUMPDEST PUSH32 0x5468652063616D706169676E2068617320726561636865642069747320676F61 PUSH1 0x0 DUP3 ADD MSTORE PUSH32 0x6C21000000000000000000000000000000000000000000000000000000000000 PUSH1 0x20 DUP3 ADD MSTORE POP JUMP JUMPDEST PUSH32 0x43616D706169676E206E6F742073746172746564210000000000000000000000 PUSH1 0x0 DUP3 ADD MSTORE POP JUMP JUMPDEST PUSH32 0x596F75206D7573742062652063726561746F7220746F20706572666F726D2074 PUSH1 0x0 DUP3 ADD MSTORE PUSH32 0x686973206F7065726174696F6E2E000000000000000000000000000000000000 PUSH1 0x20 DUP3 ADD MSTORE POP JUMP JUMPDEST PUSH32 0x43616D706169676E20616C726561647920737461727465642100000000000000 PUSH1 0x0 DUP3 ADD MSTORE POP JUMP JUMPDEST PUSH32 0x43616D706169676E20616C726561647920656E64656421000000000000000000 PUSH1 0x0 DUP3 ADD MSTORE POP JUMP JUMPDEST PUSH2 0x19BB DUP2 PUSH2 0x1733 JUMP JUMPDEST DUP2 EQ PUSH2 0x19C6 JUMPI PUSH1 0x0 DUP1 REVERT JUMPDEST POP JUMP JUMPDEST PUSH2 0x19D2 DUP2 PUSH2 0x1745 JUMP JUMPDEST DUP2 EQ PUSH2 0x19DD JUMPI PUSH1 0x0 DUP1 REVERT JUMPDEST POP JUMP JUMPDEST PUSH2 0x19E9 DUP2 PUSH2 0x1771 JUMP JUMPDEST DUP2 EQ PUSH2 0x19F4 JUMPI PUSH1 0x0 DUP1 REVERT JUMPDEST POP JUMP JUMPDEST PUSH2 0x1A00 DUP2 PUSH2 0x177B JUMP JUMPDEST DUP2 EQ PUSH2 0x1A0B JUMPI PUSH1 0x0 DUP1 REVERT JUMPDEST POP JUMP INVALID LOG2 PUSH5 0x6970667358 0x22 SLT KECCAK256 0x4F AND 0xD2 PUSH18 0xCFB44382EA89D76507BDDF5844DE5F207DB3 0xCF 0xA7 0xE9 0xE9 PUSH15 0xBC058654564736F6C634300080700 CALLER "
				},
				"gasEstimates": {
					"creation": {
						"codeDepositCost": "1344800",
						"executionCost": "infinite",
						"totalCost": "infinite"
					},
					"external": {
						"campaigns(uint256)": "infinite",
						"cancel(uint256)": "infinite",
						"claim(uint256)": "infinite",
						"count()": "2430",
						"lunch(uint256,uint32,uint32)": "infinite",
						"pledge(uint256,uint256)": "infinite",
						"pledgedAmount(uint256,address)": "infinite",
						"refund(uint256)": "infinite",
						"token()": "infinite",
						"unpledge(uint256,uint256)": "infinite"
					}
				},
				"methodIdentifiers": {
					"campaigns(uint256)": "141961bc",
					"cancel(uint256)": "40e58ee5",
					"claim(uint256)": "379607f5",
					"count()": "06661abd",
					"lunch(uint256,uint32,uint32)": "daf69940",
					"pledge(uint256,uint256)": "fde327be",
					"pledgedAmount(uint256,address)": "aa4fb63a",
					"refund(uint256)": "278ecde1",
					"token()": "fc0c546a",
					"unpledge(uint256,uint256)": "711853ab"
				}
			},
			"storageLayout": {
				"storage": [
					{
						"astId": 43,
						"contract": "CrowdFund.sol:CrowdFund",
						"label": "campaigns",
						"offset": 0,
						"slot": "0",
						"type": "t_mapping(t_uint256,t_struct(Campaign)35_storage)"
					},
					{
						"astId": 49,
						"contract": "CrowdFund.sol:CrowdFund",
						"label": "pledgedAmount",
						"offset": 0,
						"slot": "1",
						"type": "t_mapping(t_uint256,t_mapping(t_address,t_uint256))"
					},
					{
						"astId": 51,
						"contract": "CrowdFund.sol:CrowdFund",
						"label": "count",
						"offset": 0,
						"slot": "2",
						"type": "t_uint256"
					}
				],
				"types": {
					"t_address": {
						"encoding": "inplace",
						"label": "address",
						"numberOfBytes": "20"
					},
					"t_bool": {
						"encoding": "inplace",
						"label": "bool",
						"numberOfBytes": "1"
					},
					"t_mapping(t_address,t_uint256)": {
						"encoding": "mapping",
						"key": "t_address",
						"label": "mapping(address => uint256)",
						"numberOfBytes": "32",
						"value": "t_uint256"
					},
					"t_mapping(t_uint256,t_mapping(t_address,t_uint256))": {
						"encoding": "mapping",
						"key": "t_uint256",
						"label": "mapping(uint256 => mapping(address => uint256))",
						"numberOfBytes": "32",
						"value": "t_mapping(t_address,t_uint256)"
					},
					"t_mapping(t_uint256,t_struct(Campaign)35_storage)": {
						"encoding": "mapping",
						"key": "t_uint256",
						"label": "mapping(uint256 => struct CrowdFund.Campaign)",
						"numberOfBytes": "32",
						"value": "t_struct(Campaign)35_storage"
					},
					"t_struct(Campaign)35_storage": {
						"encoding": "inplace",
						"label": "struct CrowdFund.Campaign",
						"members": [
							{
								"astId": 24,
								"contract": "CrowdFund.sol:CrowdFund",
								"label": "creator",
								"offset": 0,
								"slot": "0",
								"type": "t_address"
							},
							{
								"astId": 26,
								"contract": "CrowdFund.sol:CrowdFund",
								"label": "goal",
								"offset": 0,
								"slot": "1",
								"type": "t_uint256"
							},
							{
								"astId": 28,
								"contract": "CrowdFund.sol:CrowdFund",
								"label": "pledged",
								"offset": 0,
								"slot": "2",
								"type": "t_uint256"
							},
							{
								"astId": 30,
								"contract": "CrowdFund.sol:CrowdFund",
								"label": "startAt",
								"offset": 0,
								"slot": "3",
								"type": "t_uint32"
							},
							{
								"astId": 32,
								"contract": "CrowdFund.sol:CrowdFund",
								"label": "endAt",
								"offset": 4,
								"slot": "3",
								"type": "t_uint32"
							},
							{
								"astId": 34,
								"contract": "CrowdFund.sol:CrowdFund",
								"label": "claimed",
								"offset": 8,
								"slot": "3",
								"type": "t_bool"
							}
						],
						"numberOfBytes": "128"
					},
					"t_uint256": {
						"encoding": "inplace",
						"label": "uint256",
						"numberOfBytes": "32"
					},
					"t_uint32": {
						"encoding": "inplace",
						"label": "uint32",
						"numberOfBytes": "4"
					}
				}
			},
			"userdoc": {
				"kind": "user",
				"methods": {},
				"version": 1
			}
		}
	}
}