{
	"CrowdFund.sol": {
		"CrowdFund": {
			"abi": [
				{
					"inputs": [
						{
							"internalType": "address",
							"name": "_token",
							"type": "address"
						}
					],
					"stateMutability": "nonpayable",
					"type": "constructor"
				},
				{
					"anonymous": false,
					"inputs": [
						{
							"indexed": false,
							"internalType": "uint256",
							"name": "id",
							"type": "uint256"
						},
						{
							"indexed": true,
							"internalType": "address",
							"name": "creator",
							"type": "address"
						},
						{
							"indexed": false,
							"internalType": "uint256",
							"name": "goal",
							"type": "uint256"
						},
						{
							"indexed": false,
							"internalType": "uint32",
							"name": "startAt",
							"type": "uint32"
						},
						{
							"indexed": false,
							"internalType": "uint32",
							"name": "endAt",
							"type": "uint32"
						}
					],
					"name": "Launch",
					"type": "event"
				},
				{
					"inputs": [
						{
							"internalType": "uint256",
							"name": "",
							"type": "uint256"
						}
					],
					"name": "campaigns",
					"outputs": [
						{
							"internalType": "address",
							"name": "creator",
							"type": "address"
						},
						{
							"internalType": "uint256",
							"name": "goal",
							"type": "uint256"
						},
						{
							"internalType": "uint256",
							"name": "pledged",
							"type": "uint256"
						},
						{
							"internalType": "uint32",
							"name": "startAt",
							"type": "uint32"
						},
						{
							"internalType": "uint32",
							"name": "endAt",
							"type": "uint32"
						},
						{
							"internalType": "bool",
							"name": "claimed",
							"type": "bool"
						}
					],
					"stateMutability": "view",
					"type": "function"
				},
				{
					"inputs": [
						{
							"internalType": "uint256",
							"name": "campaignId",
							"type": "uint256"
						}
					],
					"name": "cancel",
					"outputs": [],
					"stateMutability": "nonpayable",
					"type": "function"
				},
				{
					"inputs": [
						{
							"internalType": "uint256",
							"name": "campaignId",
							"type": "uint256"
						}
					],
					"name": "claim",
					"outputs": [],
					"stateMutability": "nonpayable",
					"type": "function"
				},
				{
					"inputs": [],
					"name": "count",
					"outputs": [
						{
							"internalType": "uint256",
							"name": "",
							"type": "uint256"
						}
					],
					"stateMutability": "view",
					"type": "function"
				},
				{
					"inputs": [
						{
							"internalType": "uint256",
							"name": "_goal",
							"type": "uint256"
						},
						{
							"internalType": "uint32",
							"name": "_startAt",
							"type": "uint32"
						},
						{
							"internalType": "uint32",
							"name": "_endAt",
							"type": "uint32"
						}
					],
					"name": "lunch",
					"outputs": [],
					"stateMutability": "nonpayable",
					"type": "function"
				},
				{
					"inputs": [
						{
							"internalType": "uint256",
							"name": "",
							"type": "uint256"
						},
						{
							"internalType": "uint256",
							"name": "",
							"type": "uint256"
						}
					],
					"name": "plagedAmount",
					"outputs": [
						{
							"internalType": "address",
							"name": "",
							"type": "address"
						}
					],
					"stateMutability": "view",
					"type": "function"
				},
				{
					"inputs": [
						{
							"internalType": "uint256",
							"name": "campaignId",
							"type": "uint256"
						},
						{
							"internalType": "uint256",
							"name": "pledgeAmount",
							"type": "uint256"
						}
					],
					"name": "pledge",
					"outputs": [],
					"stateMutability": "nonpayable",
					"type": "function"
				},
				{
					"inputs": [
						{
							"internalType": "uint256",
							"name": "campaignId",
							"type": "uint256"
						}
					],
					"name": "refund",
					"outputs": [],
					"stateMutability": "nonpayable",
					"type": "function"
				},
				{
					"inputs": [],
					"name": "token",
					"outputs": [
						{
							"internalType": "contract IERC20",
							"name": "",
							"type": "address"
						}
					],
					"stateMutability": "view",
					"type": "function"
				},
				{
					"inputs": [
						{
							"internalType": "uint256",
							"name": "campaignId",
							"type": "uint256"
						},
						{
							"internalType": "uint256",
							"name": "unpledgeAmount",
							"type": "uint256"
						}
					],
					"name": "unpledge",
					"outputs": [],
					"stateMutability": "nonpayable",
					"type": "function"
				}
			],
			"devdoc": {
				"kind": "dev",
				"methods": {},
				"version": 1
			},
			"evm": {
				"assembly": "    /* \"CrowdFund.sol\":86:2731  contract CrowdFund{\r... */\n  mstore(0x40, 0xa0)\n    /* \"CrowdFund.sol\":900:968  constructor(address _token){\r... */\n  callvalue\n  dup1\n  iszero\n  tag_1\n  jumpi\n  0x00\n  dup1\n  revert\ntag_1:\n  pop\n  mload(0x40)\n  sub(codesize, bytecodeSize)\n  dup1\n  bytecodeSize\n  dup4\n  codecopy\n  dup2\n  dup2\n  add\n  0x40\n  mstore\n  dup2\n  add\n  swap1\n  tag_2\n  swap2\n  swap1\n  tag_3\n  jump\t// in\ntag_2:\n    /* \"CrowdFund.sol\":953:959  _token */\n  dup1\n    /* \"CrowdFund.sol\":938:960  token = IERC20(_token) */\n  0xffffffffffffffffffffffffffffffffffffffff\n  and\n  0x80\n  dup2\n  0xffffffffffffffffffffffffffffffffffffffff\n  and\n  0x60\n  shl\n  dup2\n  mstore\n  pop\n  pop\n    /* \"CrowdFund.sol\":900:968  constructor(address _token){\r... */\n  pop\n    /* \"CrowdFund.sol\":86:2731  contract CrowdFund{\r... */\n  jump(tag_6)\n    /* \"#utility.yul\":7:150   */\ntag_8:\n    /* \"#utility.yul\":64:69   */\n  0x00\n    /* \"#utility.yul\":95:101   */\n  dup2\n    /* \"#utility.yul\":89:102   */\n  mload\n    /* \"#utility.yul\":80:102   */\n  swap1\n  pop\n    /* \"#utility.yul\":111:144   */\n  tag_10\n    /* \"#utility.yul\":138:143   */\n  dup2\n    /* \"#utility.yul\":111:144   */\n  tag_11\n  jump\t// in\ntag_10:\n    /* \"#utility.yul\":7:150   */\n  swap3\n  swap2\n  pop\n  pop\n  jump\t// out\n    /* \"#utility.yul\":156:507   */\ntag_3:\n    /* \"#utility.yul\":226:232   */\n  0x00\n    /* \"#utility.yul\":275:277   */\n  0x20\n    /* \"#utility.yul\":263:272   */\n  dup3\n    /* \"#utility.yul\":254:261   */\n  dup5\n    /* \"#utility.yul\":250:273   */\n  sub\n    /* \"#utility.yul\":246:278   */\n  slt\n    /* \"#utility.yul\":243:362   */\n  iszero\n  tag_13\n  jumpi\n    /* \"#utility.yul\":281:360   */\n  tag_14\n  tag_15\n  jump\t// in\ntag_14:\n    /* \"#utility.yul\":243:362   */\ntag_13:\n    /* \"#utility.yul\":401:402   */\n  0x00\n    /* \"#utility.yul\":426:490   */\n  tag_16\n    /* \"#utility.yul\":482:489   */\n  dup5\n    /* \"#utility.yul\":473:479   */\n  dup3\n    /* \"#utility.yul\":462:471   */\n  dup6\n    /* \"#utility.yul\":458:480   */\n  add\n    /* \"#utility.yul\":426:490   */\n  tag_8\n  jump\t// in\ntag_16:\n    /* \"#utility.yul\":416:490   */\n  swap2\n  pop\n    /* \"#utility.yul\":372:500   */\n  pop\n    /* \"#utility.yul\":156:507   */\n  swap3\n  swap2\n  pop\n  pop\n  jump\t// out\n    /* \"#utility.yul\":594:690   */\ntag_19:\n    /* \"#utility.yul\":631:638   */\n  0x00\n    /* \"#utility.yul\":660:684   */\n  tag_21\n    /* \"#utility.yul\":678:683   */\n  dup3\n    /* \"#utility.yul\":660:684   */\n  tag_22\n  jump\t// in\ntag_21:\n    /* \"#utility.yul\":649:684   */\n  swap1\n  pop\n    /* \"#utility.yul\":594:690   */\n  swap2\n  swap1\n  pop\n  jump\t// out\n    /* \"#utility.yul\":696:822   */\ntag_22:\n    /* \"#utility.yul\":733:740   */\n  0x00\n    /* \"#utility.yul\":773:815   */\n  0xffffffffffffffffffffffffffffffffffffffff\n    /* \"#utility.yul\":766:771   */\n  dup3\n    /* \"#utility.yul\":762:816   */\n  and\n    /* \"#utility.yul\":751:816   */\n  swap1\n  pop\n    /* \"#utility.yul\":696:822   */\n  swap2\n  swap1\n  pop\n  jump\t// out\n    /* \"#utility.yul\":951:1068   */\ntag_15:\n    /* \"#utility.yul\":1060:1061   */\n  0x00\n    /* \"#utility.yul\":1057:1058   */\n  dup1\n    /* \"#utility.yul\":1050:1062   */\n  revert\n    /* \"#utility.yul\":1074:1196   */\ntag_11:\n    /* \"#utility.yul\":1147:1171   */\n  tag_28\n    /* \"#utility.yul\":1165:1170   */\n  dup2\n    /* \"#utility.yul\":1147:1171   */\n  tag_19\n  jump\t// in\ntag_28:\n    /* \"#utility.yul\":1140:1145   */\n  dup2\n    /* \"#utility.yul\":1137:1172   */\n  eq\n    /* \"#utility.yul\":1127:1190   */\n  tag_29\n  jumpi\n    /* \"#utility.yul\":1186:1187   */\n  0x00\n    /* \"#utility.yul\":1183:1184   */\n  dup1\n    /* \"#utility.yul\":1176:1188   */\n  revert\n    /* \"#utility.yul\":1127:1190   */\ntag_29:\n    /* \"#utility.yul\":1074:1196   */\n  pop\n  jump\t// out\n    /* \"CrowdFund.sol\":86:2731  contract CrowdFund{\r... */\ntag_6:\n  shr(0x60, mload(0x80))\n  codecopy(0x00, dataOffset(sub_0), dataSize(sub_0))\n  0x00\n  assignImmutable(\"0x8fef2229291b68be841adf029e58b87f39ba144b2d3b0af1760243d0a9bc6a1c\")\n  return(0x00, dataSize(sub_0))\nstop\n\nsub_0: assembly {\n        /* \"CrowdFund.sol\":86:2731  contract CrowdFund{\r... */\n      mstore(0x40, 0x80)\n      callvalue\n      dup1\n      iszero\n      tag_1\n      jumpi\n      0x00\n      dup1\n      revert\n    tag_1:\n      pop\n      jumpi(tag_2, lt(calldatasize, 0x04))\n      shr(0xe0, calldataload(0x00))\n      dup1\n      0x711853ab\n      gt\n      tag_13\n      jumpi\n      dup1\n      0x711853ab\n      eq\n      tag_8\n      jumpi\n      dup1\n      0xdaf69940\n      eq\n      tag_9\n      jumpi\n      dup1\n      0xf2d57b21\n      eq\n      tag_10\n      jumpi\n      dup1\n      0xfc0c546a\n      eq\n      tag_11\n      jumpi\n      dup1\n      0xfde327be\n      eq\n      tag_12\n      jumpi\n      jump(tag_2)\n    tag_13:\n      dup1\n      0x06661abd\n      eq\n      tag_3\n      jumpi\n      dup1\n      0x141961bc\n      eq\n      tag_4\n      jumpi\n      dup1\n      0x278ecde1\n      eq\n      tag_5\n      jumpi\n      dup1\n      0x379607f5\n      eq\n      tag_6\n      jumpi\n      dup1\n      0x40e58ee5\n      eq\n      tag_7\n      jumpi\n    tag_2:\n      0x00\n      dup1\n      revert\n        /* \"CrowdFund.sol\":818:835  uint public count */\n    tag_3:\n      tag_14\n      tag_15\n      jump\t// in\n    tag_14:\n      mload(0x40)\n      tag_16\n      swap2\n      swap1\n      tag_17\n      jump\t// in\n    tag_16:\n      mload(0x40)\n      dup1\n      swap2\n      sub\n      swap1\n      return\n        /* \"CrowdFund.sol\":701:743  mapping(uint => Campaign) public campaigns */\n    tag_4:\n      tag_18\n      0x04\n      dup1\n      calldatasize\n      sub\n      dup2\n      add\n      swap1\n      tag_19\n      swap2\n      swap1\n      tag_20\n      jump\t// in\n    tag_19:\n      tag_21\n      jump\t// in\n    tag_18:\n      mload(0x40)\n      tag_22\n      swap7\n      swap6\n      swap5\n      swap4\n      swap3\n      swap2\n      swap1\n      tag_23\n      jump\t// in\n    tag_22:\n      mload(0x40)\n      dup1\n      swap2\n      sub\n      swap1\n      return\n        /* \"CrowdFund.sol\":2680:2724  function refund(uint campaignId) external {} */\n    tag_5:\n      tag_24\n      0x04\n      dup1\n      calldatasize\n      sub\n      dup2\n      add\n      swap1\n      tag_25\n      swap2\n      swap1\n      tag_20\n      jump\t// in\n    tag_25:\n      tag_26\n      jump\t// in\n    tag_24:\n      stop\n        /* \"CrowdFund.sol\":2514:2557  function claim(uint campaignId) external {} */\n    tag_6:\n      tag_27\n      0x04\n      dup1\n      calldatasize\n      sub\n      dup2\n      add\n      swap1\n      tag_28\n      swap2\n      swap1\n      tag_20\n      jump\t// in\n    tag_28:\n      tag_29\n      jump\t// in\n    tag_27:\n      stop\n        /* \"CrowdFund.sol\":2025:2069  function cancel(uint campaignId) external {} */\n    tag_7:\n      tag_30\n      0x04\n      dup1\n      calldatasize\n      sub\n      dup2\n      add\n      swap1\n      tag_31\n      swap2\n      swap1\n      tag_20\n      jump\t// in\n    tag_31:\n      tag_32\n      jump\t// in\n    tag_30:\n      stop\n        /* \"CrowdFund.sol\":2324:2391  function unpledge(uint campaignId, uint unpledgeAmount) external {} */\n    tag_8:\n      tag_33\n      0x04\n      dup1\n      calldatasize\n      sub\n      dup2\n      add\n      swap1\n      tag_34\n      swap2\n      swap1\n      tag_35\n      jump\t// in\n    tag_34:\n      tag_36\n      jump\t// in\n    tag_33:\n      stop\n        /* \"CrowdFund.sol\":1333:1919  function lunch(uint _goal, uint32 _startAt, uint32 _endAt) external {\r... */\n    tag_9:\n      tag_37\n      0x04\n      dup1\n      calldatasize\n      sub\n      dup2\n      add\n      swap1\n      tag_38\n      swap2\n      swap1\n      tag_39\n      jump\t// in\n    tag_38:\n      tag_40\n      jump\t// in\n    tag_37:\n      stop\n        /* \"CrowdFund.sol\":750:811  mapping(uint => mapping(uint => address)) public plagedAmount */\n    tag_10:\n      tag_41\n      0x04\n      dup1\n      calldatasize\n      sub\n      dup2\n      add\n      swap1\n      tag_42\n      swap2\n      swap1\n      tag_35\n      jump\t// in\n    tag_42:\n      tag_43\n      jump\t// in\n    tag_41:\n      mload(0x40)\n      tag_44\n      swap2\n      swap1\n      tag_45\n      jump\t// in\n    tag_44:\n      mload(0x40)\n      dup1\n      swap2\n      sub\n      swap1\n      return\n        /* \"CrowdFund.sol\":665:694  IERC20 public immutable token */\n    tag_11:\n      tag_46\n      tag_47\n      jump\t// in\n    tag_46:\n      mload(0x40)\n      tag_48\n      swap2\n      swap1\n      tag_49\n      jump\t// in\n    tag_48:\n      mload(0x40)\n      dup1\n      swap2\n      sub\n      swap1\n      return\n        /* \"CrowdFund.sol\":2163:2226  function pledge(uint campaignId, uint pledgeAmount) external {} */\n    tag_12:\n      tag_50\n      0x04\n      dup1\n      calldatasize\n      sub\n      dup2\n      add\n      swap1\n      tag_51\n      swap2\n      swap1\n      tag_35\n      jump\t// in\n    tag_51:\n      tag_52\n      jump\t// in\n    tag_50:\n      stop\n        /* \"CrowdFund.sol\":818:835  uint public count */\n    tag_15:\n      sload(0x02)\n      dup2\n      jump\t// out\n        /* \"CrowdFund.sol\":701:743  mapping(uint => Campaign) public campaigns */\n    tag_21:\n      mstore(0x20, 0x00)\n      dup1\n      0x00\n      mstore\n      keccak256(0x00, 0x40)\n      0x00\n      swap2\n      pop\n      swap1\n      pop\n      dup1\n      0x00\n      add\n      0x00\n      swap1\n      sload\n      swap1\n      0x0100\n      exp\n      swap1\n      div\n      0xffffffffffffffffffffffffffffffffffffffff\n      and\n      swap1\n      dup1\n      0x01\n      add\n      sload\n      swap1\n      dup1\n      0x02\n      add\n      sload\n      swap1\n      dup1\n      0x03\n      add\n      0x00\n      swap1\n      sload\n      swap1\n      0x0100\n      exp\n      swap1\n      div\n      0xffffffff\n      and\n      swap1\n      dup1\n      0x03\n      add\n      0x04\n      swap1\n      sload\n      swap1\n      0x0100\n      exp\n      swap1\n      div\n      0xffffffff\n      and\n      swap1\n      dup1\n      0x03\n      add\n      0x08\n      swap1\n      sload\n      swap1\n      0x0100\n      exp\n      swap1\n      div\n      0xff\n      and\n      swap1\n      pop\n      dup7\n      jump\t// out\n        /* \"CrowdFund.sol\":2680:2724  function refund(uint campaignId) external {} */\n    tag_26:\n      pop\n      jump\t// out\n        /* \"CrowdFund.sol\":2514:2557  function claim(uint campaignId) external {} */\n    tag_29:\n      pop\n      jump\t// out\n        /* \"CrowdFund.sol\":2025:2069  function cancel(uint campaignId) external {} */\n    tag_32:\n      pop\n      jump\t// out\n        /* \"CrowdFund.sol\":2324:2391  function unpledge(uint campaignId, uint unpledgeAmount) external {} */\n    tag_36:\n      pop\n      pop\n      jump\t// out\n        /* \"CrowdFund.sol\":1333:1919  function lunch(uint _goal, uint32 _startAt, uint32 _endAt) external {\r... */\n    tag_40:\n        /* \"CrowdFund.sol\":1432:1447  block.timestamp */\n      timestamp\n        /* \"CrowdFund.sol\":1420:1428  _startAt */\n      dup3\n        /* \"CrowdFund.sol\":1420:1447  _startAt >= block.timestamp */\n      0xffffffff\n      and\n      lt\n      iszero\n        /* \"CrowdFund.sol\":1412:1466  require(_startAt >= block.timestamp, \"start at < now\") */\n      tag_58\n      jumpi\n      mload(0x40)\n      0x08c379a000000000000000000000000000000000000000000000000000000000\n      dup2\n      mstore\n      0x04\n      add\n      tag_59\n      swap1\n      tag_60\n      jump\t// in\n    tag_59:\n      mload(0x40)\n      dup1\n      swap2\n      sub\n      swap1\n      revert\n    tag_58:\n        /* \"CrowdFund.sol\":1497:1503  _endAt */\n      dup1\n        /* \"CrowdFund.sol\":1485:1503  _startAt <= _endAt */\n      0xffffffff\n      and\n        /* \"CrowdFund.sol\":1485:1493  _startAt */\n      dup3\n        /* \"CrowdFund.sol\":1485:1503  _startAt <= _endAt */\n      0xffffffff\n      and\n      gt\n      iszero\n        /* \"CrowdFund.sol\":1477:1522  require(_startAt <= _endAt, \"start at < now\") */\n      tag_61\n      jumpi\n      mload(0x40)\n      0x08c379a000000000000000000000000000000000000000000000000000000000\n      dup2\n      mstore\n      0x04\n      add\n      tag_62\n      swap1\n      tag_60\n      jump\t// in\n    tag_62:\n      mload(0x40)\n      dup1\n      swap2\n      sub\n      swap1\n      revert\n    tag_61:\n        /* \"CrowdFund.sol\":1569:1576  90 days */\n      0x76a700\n        /* \"CrowdFund.sol\":1551:1566  block.timestamp */\n      timestamp\n        /* \"CrowdFund.sol\":1551:1576  block.timestamp + 90 days */\n      tag_63\n      swap2\n      swap1\n      tag_64\n      jump\t// in\n    tag_63:\n        /* \"CrowdFund.sol\":1541:1547  _endAt */\n      dup2\n        /* \"CrowdFund.sol\":1541:1576  _endAt <= block.timestamp + 90 days */\n      0xffffffff\n      and\n      gt\n      iszero\n        /* \"CrowdFund.sol\":1533:1595  require(_endAt <= block.timestamp + 90 days, \"start at < now\") */\n      tag_65\n      jumpi\n      mload(0x40)\n      0x08c379a000000000000000000000000000000000000000000000000000000000\n      dup2\n      mstore\n      0x04\n      add\n      tag_66\n      swap1\n      tag_60\n      jump\t// in\n    tag_66:\n      mload(0x40)\n      dup1\n      swap2\n      sub\n      swap1\n      revert\n    tag_65:\n        /* \"CrowdFund.sol\":1617:1618  1 */\n      0x01\n        /* \"CrowdFund.sol\":1608:1613  count */\n      0x02\n      0x00\n        /* \"CrowdFund.sol\":1608:1618  count += 1 */\n      dup3\n      dup3\n      sload\n      tag_67\n      swap2\n      swap1\n      tag_64\n      jump\t// in\n    tag_67:\n      swap3\n      pop\n      pop\n      dup2\n      swap1\n      sstore\n      pop\n        /* \"CrowdFund.sol\":1648:1843  Campaign({\r... */\n      mload(0x40)\n      dup1\n      0xc0\n      add\n      0x40\n      mstore\n      dup1\n        /* \"CrowdFund.sol\":1681:1691  msg.sender */\n      caller\n        /* \"CrowdFund.sol\":1648:1843  Campaign({\r... */\n      0xffffffffffffffffffffffffffffffffffffffff\n      and\n      dup2\n      mstore\n      0x20\n      add\n        /* \"CrowdFund.sol\":1737:1742  _goal */\n      dup5\n        /* \"CrowdFund.sol\":1648:1843  Campaign({\r... */\n      dup2\n      mstore\n      0x20\n      add\n        /* \"CrowdFund.sol\":1715:1716  0 */\n      0x00\n        /* \"CrowdFund.sol\":1648:1843  Campaign({\r... */\n      dup2\n      mstore\n      0x20\n      add\n        /* \"CrowdFund.sol\":1766:1774  _startAt */\n      dup4\n        /* \"CrowdFund.sol\":1648:1843  Campaign({\r... */\n      0xffffffff\n      and\n      dup2\n      mstore\n      0x20\n      add\n        /* \"CrowdFund.sol\":1796:1802  _endAt */\n      dup3\n        /* \"CrowdFund.sol\":1648:1843  Campaign({\r... */\n      0xffffffff\n      and\n      dup2\n      mstore\n      0x20\n      add\n        /* \"CrowdFund.sol\":1826:1831  false */\n      0x00\n        /* \"CrowdFund.sol\":1648:1843  Campaign({\r... */\n      iszero\n      iszero\n      dup2\n      mstore\n      pop\n        /* \"CrowdFund.sol\":1629:1638  campaigns */\n      0x00\n        /* \"CrowdFund.sol\":1629:1645  campaigns[count] */\n      dup1\n        /* \"CrowdFund.sol\":1639:1644  count */\n      sload(0x02)\n        /* \"CrowdFund.sol\":1629:1645  campaigns[count] */\n      dup2\n      mstore\n      0x20\n      add\n      swap1\n      dup2\n      mstore\n      0x20\n      add\n      0x00\n      keccak256\n        /* \"CrowdFund.sol\":1629:1843  campaigns[count] = Campaign({\r... */\n      0x00\n      dup3\n      add\n      mload\n      dup2\n      0x00\n      add\n      exp(0x0100, 0x00)\n      dup2\n      sload\n      dup2\n      0xffffffffffffffffffffffffffffffffffffffff\n      mul\n      not\n      and\n      swap1\n      dup4\n      0xffffffffffffffffffffffffffffffffffffffff\n      and\n      mul\n      or\n      swap1\n      sstore\n      pop\n      0x20\n      dup3\n      add\n      mload\n      dup2\n      0x01\n      add\n      sstore\n      0x40\n      dup3\n      add\n      mload\n      dup2\n      0x02\n      add\n      sstore\n      0x60\n      dup3\n      add\n      mload\n      dup2\n      0x03\n      add\n      exp(0x0100, 0x00)\n      dup2\n      sload\n      dup2\n      0xffffffff\n      mul\n      not\n      and\n      swap1\n      dup4\n      0xffffffff\n      and\n      mul\n      or\n      swap1\n      sstore\n      pop\n      0x80\n      dup3\n      add\n      mload\n      dup2\n      0x03\n      add\n      exp(0x0100, 0x04)\n      dup2\n      sload\n      dup2\n      0xffffffff\n      mul\n      not\n      and\n      swap1\n      dup4\n      0xffffffff\n      and\n      mul\n      or\n      swap1\n      sstore\n      pop\n      0xa0\n      dup3\n      add\n      mload\n      dup2\n      0x03\n      add\n      exp(0x0100, 0x08)\n      dup2\n      sload\n      dup2\n      0xff\n      mul\n      not\n      and\n      swap1\n      dup4\n      iszero\n      iszero\n      mul\n      or\n      swap1\n      sstore\n      pop\n      swap1\n      pop\n      pop\n        /* \"CrowdFund.sol\":1875:1885  msg.sender */\n      caller\n        /* \"CrowdFund.sol\":1861:1911  Launch(count, msg.sender, _goal, _startAt, _endAt) */\n      0xffffffffffffffffffffffffffffffffffffffff\n      and\n      0x0601cd0d650b473037e838a2696d41e654433d065b3f56b28d1d3302e44a304f\n        /* \"CrowdFund.sol\":1868:1873  count */\n      sload(0x02)\n        /* \"CrowdFund.sol\":1887:1892  _goal */\n      dup6\n        /* \"CrowdFund.sol\":1894:1902  _startAt */\n      dup6\n        /* \"CrowdFund.sol\":1904:1910  _endAt */\n      dup6\n        /* \"CrowdFund.sol\":1861:1911  Launch(count, msg.sender, _goal, _startAt, _endAt) */\n      mload(0x40)\n      tag_68\n      swap5\n      swap4\n      swap3\n      swap2\n      swap1\n      tag_69\n      jump\t// in\n    tag_68:\n      mload(0x40)\n      dup1\n      swap2\n      sub\n      swap1\n      log2\n        /* \"CrowdFund.sol\":1333:1919  function lunch(uint _goal, uint32 _startAt, uint32 _endAt) external {\r... */\n      pop\n      pop\n      pop\n      jump\t// out\n        /* \"CrowdFund.sol\":750:811  mapping(uint => mapping(uint => address)) public plagedAmount */\n    tag_43:\n      mstore(0x20, 0x01)\n      dup2\n      0x00\n      mstore\n      mstore(0x20, keccak256(0x00, 0x40))\n      dup1\n      0x00\n      mstore\n      keccak256(0x00, 0x40)\n      0x00\n      swap2\n      pop\n      swap2\n      pop\n      swap1\n      sload\n      swap1\n      0x0100\n      exp\n      swap1\n      div\n      0xffffffffffffffffffffffffffffffffffffffff\n      and\n      dup2\n      jump\t// out\n        /* \"CrowdFund.sol\":665:694  IERC20 public immutable token */\n    tag_47:\n      immutable(\"0x8fef2229291b68be841adf029e58b87f39ba144b2d3b0af1760243d0a9bc6a1c\")\n      dup2\n      jump\t// out\n        /* \"CrowdFund.sol\":2163:2226  function pledge(uint campaignId, uint pledgeAmount) external {} */\n    tag_52:\n      pop\n      pop\n      jump\t// out\n        /* \"#utility.yul\":7:146   */\n    tag_72:\n        /* \"#utility.yul\":53:58   */\n      0x00\n        /* \"#utility.yul\":91:97   */\n      dup2\n        /* \"#utility.yul\":78:98   */\n      calldataload\n        /* \"#utility.yul\":69:98   */\n      swap1\n      pop\n        /* \"#utility.yul\":107:140   */\n      tag_74\n        /* \"#utility.yul\":134:139   */\n      dup2\n        /* \"#utility.yul\":107:140   */\n      tag_75\n      jump\t// in\n    tag_74:\n        /* \"#utility.yul\":7:146   */\n      swap3\n      swap2\n      pop\n      pop\n      jump\t// out\n        /* \"#utility.yul\":152:289   */\n    tag_76:\n        /* \"#utility.yul\":197:202   */\n      0x00\n        /* \"#utility.yul\":235:241   */\n      dup2\n        /* \"#utility.yul\":222:242   */\n      calldataload\n        /* \"#utility.yul\":213:242   */\n      swap1\n      pop\n        /* \"#utility.yul\":251:283   */\n      tag_78\n        /* \"#utility.yul\":277:282   */\n      dup2\n        /* \"#utility.yul\":251:283   */\n      tag_79\n      jump\t// in\n    tag_78:\n        /* \"#utility.yul\":152:289   */\n      swap3\n      swap2\n      pop\n      pop\n      jump\t// out\n        /* \"#utility.yul\":295:624   */\n    tag_20:\n        /* \"#utility.yul\":354:360   */\n      0x00\n        /* \"#utility.yul\":403:405   */\n      0x20\n        /* \"#utility.yul\":391:400   */\n      dup3\n        /* \"#utility.yul\":382:389   */\n      dup5\n        /* \"#utility.yul\":378:401   */\n      sub\n        /* \"#utility.yul\":374:406   */\n      slt\n        /* \"#utility.yul\":371:490   */\n      iszero\n      tag_81\n      jumpi\n        /* \"#utility.yul\":409:488   */\n      tag_82\n      tag_83\n      jump\t// in\n    tag_82:\n        /* \"#utility.yul\":371:490   */\n    tag_81:\n        /* \"#utility.yul\":529:530   */\n      0x00\n        /* \"#utility.yul\":554:607   */\n      tag_84\n        /* \"#utility.yul\":599:606   */\n      dup5\n        /* \"#utility.yul\":590:596   */\n      dup3\n        /* \"#utility.yul\":579:588   */\n      dup6\n        /* \"#utility.yul\":575:597   */\n      add\n        /* \"#utility.yul\":554:607   */\n      tag_72\n      jump\t// in\n    tag_84:\n        /* \"#utility.yul\":544:607   */\n      swap2\n      pop\n        /* \"#utility.yul\":500:617   */\n      pop\n        /* \"#utility.yul\":295:624   */\n      swap3\n      swap2\n      pop\n      pop\n      jump\t// out\n        /* \"#utility.yul\":630:1104   */\n    tag_35:\n        /* \"#utility.yul\":698:704   */\n      0x00\n        /* \"#utility.yul\":706:712   */\n      dup1\n        /* \"#utility.yul\":755:757   */\n      0x40\n        /* \"#utility.yul\":743:752   */\n      dup4\n        /* \"#utility.yul\":734:741   */\n      dup6\n        /* \"#utility.yul\":730:753   */\n      sub\n        /* \"#utility.yul\":726:758   */\n      slt\n        /* \"#utility.yul\":723:842   */\n      iszero\n      tag_86\n      jumpi\n        /* \"#utility.yul\":761:840   */\n      tag_87\n      tag_83\n      jump\t// in\n    tag_87:\n        /* \"#utility.yul\":723:842   */\n    tag_86:\n        /* \"#utility.yul\":881:882   */\n      0x00\n        /* \"#utility.yul\":906:959   */\n      tag_88\n        /* \"#utility.yul\":951:958   */\n      dup6\n        /* \"#utility.yul\":942:948   */\n      dup3\n        /* \"#utility.yul\":931:940   */\n      dup7\n        /* \"#utility.yul\":927:949   */\n      add\n        /* \"#utility.yul\":906:959   */\n      tag_72\n      jump\t// in\n    tag_88:\n        /* \"#utility.yul\":896:959   */\n      swap3\n      pop\n        /* \"#utility.yul\":852:969   */\n      pop\n        /* \"#utility.yul\":1008:1010   */\n      0x20\n        /* \"#utility.yul\":1034:1087   */\n      tag_89\n        /* \"#utility.yul\":1079:1086   */\n      dup6\n        /* \"#utility.yul\":1070:1076   */\n      dup3\n        /* \"#utility.yul\":1059:1068   */\n      dup7\n        /* \"#utility.yul\":1055:1077   */\n      add\n        /* \"#utility.yul\":1034:1087   */\n      tag_72\n      jump\t// in\n    tag_89:\n        /* \"#utility.yul\":1024:1087   */\n      swap2\n      pop\n        /* \"#utility.yul\":979:1097   */\n      pop\n        /* \"#utility.yul\":630:1104   */\n      swap3\n      pop\n      swap3\n      swap1\n      pop\n      jump\t// out\n        /* \"#utility.yul\":1110:1725   */\n    tag_39:\n        /* \"#utility.yul\":1185:1191   */\n      0x00\n        /* \"#utility.yul\":1193:1199   */\n      dup1\n        /* \"#utility.yul\":1201:1207   */\n      0x00\n        /* \"#utility.yul\":1250:1252   */\n      0x60\n        /* \"#utility.yul\":1238:1247   */\n      dup5\n        /* \"#utility.yul\":1229:1236   */\n      dup7\n        /* \"#utility.yul\":1225:1248   */\n      sub\n        /* \"#utility.yul\":1221:1253   */\n      slt\n        /* \"#utility.yul\":1218:1337   */\n      iszero\n      tag_91\n      jumpi\n        /* \"#utility.yul\":1256:1335   */\n      tag_92\n      tag_83\n      jump\t// in\n    tag_92:\n        /* \"#utility.yul\":1218:1337   */\n    tag_91:\n        /* \"#utility.yul\":1376:1377   */\n      0x00\n        /* \"#utility.yul\":1401:1454   */\n      tag_93\n        /* \"#utility.yul\":1446:1453   */\n      dup7\n        /* \"#utility.yul\":1437:1443   */\n      dup3\n        /* \"#utility.yul\":1426:1435   */\n      dup8\n        /* \"#utility.yul\":1422:1444   */\n      add\n        /* \"#utility.yul\":1401:1454   */\n      tag_72\n      jump\t// in\n    tag_93:\n        /* \"#utility.yul\":1391:1454   */\n      swap4\n      pop\n        /* \"#utility.yul\":1347:1464   */\n      pop\n        /* \"#utility.yul\":1503:1505   */\n      0x20\n        /* \"#utility.yul\":1529:1581   */\n      tag_94\n        /* \"#utility.yul\":1573:1580   */\n      dup7\n        /* \"#utility.yul\":1564:1570   */\n      dup3\n        /* \"#utility.yul\":1553:1562   */\n      dup8\n        /* \"#utility.yul\":1549:1571   */\n      add\n        /* \"#utility.yul\":1529:1581   */\n      tag_76\n      jump\t// in\n    tag_94:\n        /* \"#utility.yul\":1519:1581   */\n      swap3\n      pop\n        /* \"#utility.yul\":1474:1591   */\n      pop\n        /* \"#utility.yul\":1630:1632   */\n      0x40\n        /* \"#utility.yul\":1656:1708   */\n      tag_95\n        /* \"#utility.yul\":1700:1707   */\n      dup7\n        /* \"#utility.yul\":1691:1697   */\n      dup3\n        /* \"#utility.yul\":1680:1689   */\n      dup8\n        /* \"#utility.yul\":1676:1698   */\n      add\n        /* \"#utility.yul\":1656:1708   */\n      tag_76\n      jump\t// in\n    tag_95:\n        /* \"#utility.yul\":1646:1708   */\n      swap2\n      pop\n        /* \"#utility.yul\":1601:1718   */\n      pop\n        /* \"#utility.yul\":1110:1725   */\n      swap3\n      pop\n      swap3\n      pop\n      swap3\n      jump\t// out\n        /* \"#utility.yul\":1731:1849   */\n    tag_96:\n        /* \"#utility.yul\":1818:1842   */\n      tag_98\n        /* \"#utility.yul\":1836:1841   */\n      dup2\n        /* \"#utility.yul\":1818:1842   */\n      tag_99\n      jump\t// in\n    tag_98:\n        /* \"#utility.yul\":1813:1816   */\n      dup3\n        /* \"#utility.yul\":1806:1843   */\n      mstore\n        /* \"#utility.yul\":1731:1849   */\n      pop\n      pop\n      jump\t// out\n        /* \"#utility.yul\":1855:1964   */\n    tag_100:\n        /* \"#utility.yul\":1936:1957   */\n      tag_102\n        /* \"#utility.yul\":1951:1956   */\n      dup2\n        /* \"#utility.yul\":1936:1957   */\n      tag_103\n      jump\t// in\n    tag_102:\n        /* \"#utility.yul\":1931:1934   */\n      dup3\n        /* \"#utility.yul\":1924:1958   */\n      mstore\n        /* \"#utility.yul\":1855:1964   */\n      pop\n      pop\n      jump\t// out\n        /* \"#utility.yul\":1970:2129   */\n    tag_104:\n        /* \"#utility.yul\":2071:2122   */\n      tag_106\n        /* \"#utility.yul\":2116:2121   */\n      dup2\n        /* \"#utility.yul\":2071:2122   */\n      tag_107\n      jump\t// in\n    tag_106:\n        /* \"#utility.yul\":2066:2069   */\n      dup3\n        /* \"#utility.yul\":2059:2123   */\n      mstore\n        /* \"#utility.yul\":1970:2129   */\n      pop\n      pop\n      jump\t// out\n        /* \"#utility.yul\":2135:2501   */\n    tag_108:\n        /* \"#utility.yul\":2277:2280   */\n      0x00\n        /* \"#utility.yul\":2298:2365   */\n      tag_110\n        /* \"#utility.yul\":2362:2364   */\n      0x0e\n        /* \"#utility.yul\":2357:2360   */\n      dup4\n        /* \"#utility.yul\":2298:2365   */\n      tag_111\n      jump\t// in\n    tag_110:\n        /* \"#utility.yul\":2291:2365   */\n      swap2\n      pop\n        /* \"#utility.yul\":2374:2467   */\n      tag_112\n        /* \"#utility.yul\":2463:2466   */\n      dup3\n        /* \"#utility.yul\":2374:2467   */\n      tag_113\n      jump\t// in\n    tag_112:\n        /* \"#utility.yul\":2492:2494   */\n      0x20\n        /* \"#utility.yul\":2487:2490   */\n      dup3\n        /* \"#utility.yul\":2483:2495   */\n      add\n        /* \"#utility.yul\":2476:2495   */\n      swap1\n      pop\n        /* \"#utility.yul\":2135:2501   */\n      swap2\n      swap1\n      pop\n      jump\t// out\n        /* \"#utility.yul\":2507:2625   */\n    tag_114:\n        /* \"#utility.yul\":2594:2618   */\n      tag_116\n        /* \"#utility.yul\":2612:2617   */\n      dup2\n        /* \"#utility.yul\":2594:2618   */\n      tag_117\n      jump\t// in\n    tag_116:\n        /* \"#utility.yul\":2589:2592   */\n      dup3\n        /* \"#utility.yul\":2582:2619   */\n      mstore\n        /* \"#utility.yul\":2507:2625   */\n      pop\n      pop\n      jump\t// out\n        /* \"#utility.yul\":2631:2746   */\n    tag_118:\n        /* \"#utility.yul\":2716:2739   */\n      tag_120\n        /* \"#utility.yul\":2733:2738   */\n      dup2\n        /* \"#utility.yul\":2716:2739   */\n      tag_121\n      jump\t// in\n    tag_120:\n        /* \"#utility.yul\":2711:2714   */\n      dup3\n        /* \"#utility.yul\":2704:2740   */\n      mstore\n        /* \"#utility.yul\":2631:2746   */\n      pop\n      pop\n      jump\t// out\n        /* \"#utility.yul\":2752:2974   */\n    tag_45:\n        /* \"#utility.yul\":2845:2849   */\n      0x00\n        /* \"#utility.yul\":2883:2885   */\n      0x20\n        /* \"#utility.yul\":2872:2881   */\n      dup3\n        /* \"#utility.yul\":2868:2886   */\n      add\n        /* \"#utility.yul\":2860:2886   */\n      swap1\n      pop\n        /* \"#utility.yul\":2896:2967   */\n      tag_123\n        /* \"#utility.yul\":2964:2965   */\n      0x00\n        /* \"#utility.yul\":2953:2962   */\n      dup4\n        /* \"#utility.yul\":2949:2966   */\n      add\n        /* \"#utility.yul\":2940:2946   */\n      dup5\n        /* \"#utility.yul\":2896:2967   */\n      tag_96\n      jump\t// in\n    tag_123:\n        /* \"#utility.yul\":2752:2974   */\n      swap3\n      swap2\n      pop\n      pop\n      jump\t// out\n        /* \"#utility.yul\":2980:3735   */\n    tag_23:\n        /* \"#utility.yul\":3203:3207   */\n      0x00\n        /* \"#utility.yul\":3241:3244   */\n      0xc0\n        /* \"#utility.yul\":3230:3239   */\n      dup3\n        /* \"#utility.yul\":3226:3245   */\n      add\n        /* \"#utility.yul\":3218:3245   */\n      swap1\n      pop\n        /* \"#utility.yul\":3255:3326   */\n      tag_125\n        /* \"#utility.yul\":3323:3324   */\n      0x00\n        /* \"#utility.yul\":3312:3321   */\n      dup4\n        /* \"#utility.yul\":3308:3325   */\n      add\n        /* \"#utility.yul\":3299:3305   */\n      dup10\n        /* \"#utility.yul\":3255:3326   */\n      tag_96\n      jump\t// in\n    tag_125:\n        /* \"#utility.yul\":3336:3408   */\n      tag_126\n        /* \"#utility.yul\":3404:3406   */\n      0x20\n        /* \"#utility.yul\":3393:3402   */\n      dup4\n        /* \"#utility.yul\":3389:3407   */\n      add\n        /* \"#utility.yul\":3380:3386   */\n      dup9\n        /* \"#utility.yul\":3336:3408   */\n      tag_114\n      jump\t// in\n    tag_126:\n        /* \"#utility.yul\":3418:3490   */\n      tag_127\n        /* \"#utility.yul\":3486:3488   */\n      0x40\n        /* \"#utility.yul\":3475:3484   */\n      dup4\n        /* \"#utility.yul\":3471:3489   */\n      add\n        /* \"#utility.yul\":3462:3468   */\n      dup8\n        /* \"#utility.yul\":3418:3490   */\n      tag_114\n      jump\t// in\n    tag_127:\n        /* \"#utility.yul\":3500:3570   */\n      tag_128\n        /* \"#utility.yul\":3566:3568   */\n      0x60\n        /* \"#utility.yul\":3555:3564   */\n      dup4\n        /* \"#utility.yul\":3551:3569   */\n      add\n        /* \"#utility.yul\":3542:3548   */\n      dup7\n        /* \"#utility.yul\":3500:3570   */\n      tag_118\n      jump\t// in\n    tag_128:\n        /* \"#utility.yul\":3580:3651   */\n      tag_129\n        /* \"#utility.yul\":3646:3649   */\n      0x80\n        /* \"#utility.yul\":3635:3644   */\n      dup4\n        /* \"#utility.yul\":3631:3650   */\n      add\n        /* \"#utility.yul\":3622:3628   */\n      dup6\n        /* \"#utility.yul\":3580:3651   */\n      tag_118\n      jump\t// in\n    tag_129:\n        /* \"#utility.yul\":3661:3728   */\n      tag_130\n        /* \"#utility.yul\":3723:3726   */\n      0xa0\n        /* \"#utility.yul\":3712:3721   */\n      dup4\n        /* \"#utility.yul\":3708:3727   */\n      add\n        /* \"#utility.yul\":3699:3705   */\n      dup5\n        /* \"#utility.yul\":3661:3728   */\n      tag_100\n      jump\t// in\n    tag_130:\n        /* \"#utility.yul\":2980:3735   */\n      swap8\n      swap7\n      pop\n      pop\n      pop\n      pop\n      pop\n      pop\n      pop\n      jump\t// out\n        /* \"#utility.yul\":3741:3991   */\n    tag_49:\n        /* \"#utility.yul\":3848:3852   */\n      0x00\n        /* \"#utility.yul\":3886:3888   */\n      0x20\n        /* \"#utility.yul\":3875:3884   */\n      dup3\n        /* \"#utility.yul\":3871:3889   */\n      add\n        /* \"#utility.yul\":3863:3889   */\n      swap1\n      pop\n        /* \"#utility.yul\":3899:3984   */\n      tag_132\n        /* \"#utility.yul\":3981:3982   */\n      0x00\n        /* \"#utility.yul\":3970:3979   */\n      dup4\n        /* \"#utility.yul\":3966:3983   */\n      add\n        /* \"#utility.yul\":3957:3963   */\n      dup5\n        /* \"#utility.yul\":3899:3984   */\n      tag_104\n      jump\t// in\n    tag_132:\n        /* \"#utility.yul\":3741:3991   */\n      swap3\n      swap2\n      pop\n      pop\n      jump\t// out\n        /* \"#utility.yul\":3997:4416   */\n    tag_60:\n        /* \"#utility.yul\":4163:4167   */\n      0x00\n        /* \"#utility.yul\":4201:4203   */\n      0x20\n        /* \"#utility.yul\":4190:4199   */\n      dup3\n        /* \"#utility.yul\":4186:4204   */\n      add\n        /* \"#utility.yul\":4178:4204   */\n      swap1\n      pop\n        /* \"#utility.yul\":4250:4259   */\n      dup2\n        /* \"#utility.yul\":4244:4248   */\n      dup2\n        /* \"#utility.yul\":4240:4260   */\n      sub\n        /* \"#utility.yul\":4236:4237   */\n      0x00\n        /* \"#utility.yul\":4225:4234   */\n      dup4\n        /* \"#utility.yul\":4221:4238   */\n      add\n        /* \"#utility.yul\":4214:4261   */\n      mstore\n        /* \"#utility.yul\":4278:4409   */\n      tag_134\n        /* \"#utility.yul\":4404:4408   */\n      dup2\n        /* \"#utility.yul\":4278:4409   */\n      tag_108\n      jump\t// in\n    tag_134:\n        /* \"#utility.yul\":4270:4409   */\n      swap1\n      pop\n        /* \"#utility.yul\":3997:4416   */\n      swap2\n      swap1\n      pop\n      jump\t// out\n        /* \"#utility.yul\":4422:4644   */\n    tag_17:\n        /* \"#utility.yul\":4515:4519   */\n      0x00\n        /* \"#utility.yul\":4553:4555   */\n      0x20\n        /* \"#utility.yul\":4542:4551   */\n      dup3\n        /* \"#utility.yul\":4538:4556   */\n      add\n        /* \"#utility.yul\":4530:4556   */\n      swap1\n      pop\n        /* \"#utility.yul\":4566:4637   */\n      tag_136\n        /* \"#utility.yul\":4634:4635   */\n      0x00\n        /* \"#utility.yul\":4623:4632   */\n      dup4\n        /* \"#utility.yul\":4619:4636   */\n      add\n        /* \"#utility.yul\":4610:4616   */\n      dup5\n        /* \"#utility.yul\":4566:4637   */\n      tag_114\n      jump\t// in\n    tag_136:\n        /* \"#utility.yul\":4422:4644   */\n      swap3\n      swap2\n      pop\n      pop\n      jump\t// out\n        /* \"#utility.yul\":4650:5195   */\n    tag_69:\n        /* \"#utility.yul\":4823:4827   */\n      0x00\n        /* \"#utility.yul\":4861:4864   */\n      0x80\n        /* \"#utility.yul\":4850:4859   */\n      dup3\n        /* \"#utility.yul\":4846:4865   */\n      add\n        /* \"#utility.yul\":4838:4865   */\n      swap1\n      pop\n        /* \"#utility.yul\":4875:4946   */\n      tag_138\n        /* \"#utility.yul\":4943:4944   */\n      0x00\n        /* \"#utility.yul\":4932:4941   */\n      dup4\n        /* \"#utility.yul\":4928:4945   */\n      add\n        /* \"#utility.yul\":4919:4925   */\n      dup8\n        /* \"#utility.yul\":4875:4946   */\n      tag_114\n      jump\t// in\n    tag_138:\n        /* \"#utility.yul\":4956:5028   */\n      tag_139\n        /* \"#utility.yul\":5024:5026   */\n      0x20\n        /* \"#utility.yul\":5013:5022   */\n      dup4\n        /* \"#utility.yul\":5009:5027   */\n      add\n        /* \"#utility.yul\":5000:5006   */\n      dup7\n        /* \"#utility.yul\":4956:5028   */\n      tag_114\n      jump\t// in\n    tag_139:\n        /* \"#utility.yul\":5038:5108   */\n      tag_140\n        /* \"#utility.yul\":5104:5106   */\n      0x40\n        /* \"#utility.yul\":5093:5102   */\n      dup4\n        /* \"#utility.yul\":5089:5107   */\n      add\n        /* \"#utility.yul\":5080:5086   */\n      dup6\n        /* \"#utility.yul\":5038:5108   */\n      tag_118\n      jump\t// in\n    tag_140:\n        /* \"#utility.yul\":5118:5188   */\n      tag_141\n        /* \"#utility.yul\":5184:5186   */\n      0x60\n        /* \"#utility.yul\":5173:5182   */\n      dup4\n        /* \"#utility.yul\":5169:5187   */\n      add\n        /* \"#utility.yul\":5160:5166   */\n      dup5\n        /* \"#utility.yul\":5118:5188   */\n      tag_118\n      jump\t// in\n    tag_141:\n        /* \"#utility.yul\":4650:5195   */\n      swap6\n      swap5\n      pop\n      pop\n      pop\n      pop\n      pop\n      jump\t// out\n        /* \"#utility.yul\":5282:5451   */\n    tag_111:\n        /* \"#utility.yul\":5366:5377   */\n      0x00\n        /* \"#utility.yul\":5400:5406   */\n      dup3\n        /* \"#utility.yul\":5395:5398   */\n      dup3\n        /* \"#utility.yul\":5388:5407   */\n      mstore\n        /* \"#utility.yul\":5440:5444   */\n      0x20\n        /* \"#utility.yul\":5435:5438   */\n      dup3\n        /* \"#utility.yul\":5431:5445   */\n      add\n        /* \"#utility.yul\":5416:5445   */\n      swap1\n      pop\n        /* \"#utility.yul\":5282:5451   */\n      swap3\n      swap2\n      pop\n      pop\n      jump\t// out\n        /* \"#utility.yul\":5457:5762   */\n    tag_64:\n        /* \"#utility.yul\":5497:5500   */\n      0x00\n        /* \"#utility.yul\":5516:5536   */\n      tag_146\n        /* \"#utility.yul\":5534:5535   */\n      dup3\n        /* \"#utility.yul\":5516:5536   */\n      tag_117\n      jump\t// in\n    tag_146:\n        /* \"#utility.yul\":5511:5536   */\n      swap2\n      pop\n        /* \"#utility.yul\":5550:5570   */\n      tag_147\n        /* \"#utility.yul\":5568:5569   */\n      dup4\n        /* \"#utility.yul\":5550:5570   */\n      tag_117\n      jump\t// in\n    tag_147:\n        /* \"#utility.yul\":5545:5570   */\n      swap3\n      pop\n        /* \"#utility.yul\":5704:5705   */\n      dup3\n        /* \"#utility.yul\":5636:5702   */\n      0xffffffffffffffffffffffffffffffffffffffffffffffffffffffffffffffff\n        /* \"#utility.yul\":5632:5706   */\n      sub\n        /* \"#utility.yul\":5629:5630   */\n      dup3\n        /* \"#utility.yul\":5626:5707   */\n      gt\n        /* \"#utility.yul\":5623:5730   */\n      iszero\n      tag_148\n      jumpi\n        /* \"#utility.yul\":5710:5728   */\n      tag_149\n      tag_150\n      jump\t// in\n    tag_149:\n        /* \"#utility.yul\":5623:5730   */\n    tag_148:\n        /* \"#utility.yul\":5754:5755   */\n      dup3\n        /* \"#utility.yul\":5751:5752   */\n      dup3\n        /* \"#utility.yul\":5747:5756   */\n      add\n        /* \"#utility.yul\":5740:5756   */\n      swap1\n      pop\n        /* \"#utility.yul\":5457:5762   */\n      swap3\n      swap2\n      pop\n      pop\n      jump\t// out\n        /* \"#utility.yul\":5768:5864   */\n    tag_99:\n        /* \"#utility.yul\":5805:5812   */\n      0x00\n        /* \"#utility.yul\":5834:5858   */\n      tag_152\n        /* \"#utility.yul\":5852:5857   */\n      dup3\n        /* \"#utility.yul\":5834:5858   */\n      tag_153\n      jump\t// in\n    tag_152:\n        /* \"#utility.yul\":5823:5858   */\n      swap1\n      pop\n        /* \"#utility.yul\":5768:5864   */\n      swap2\n      swap1\n      pop\n      jump\t// out\n        /* \"#utility.yul\":5870:5960   */\n    tag_103:\n        /* \"#utility.yul\":5904:5911   */\n      0x00\n        /* \"#utility.yul\":5947:5952   */\n      dup2\n        /* \"#utility.yul\":5940:5953   */\n      iszero\n        /* \"#utility.yul\":5933:5954   */\n      iszero\n        /* \"#utility.yul\":5922:5954   */\n      swap1\n      pop\n        /* \"#utility.yul\":5870:5960   */\n      swap2\n      swap1\n      pop\n      jump\t// out\n        /* \"#utility.yul\":5966:6092   */\n    tag_153:\n        /* \"#utility.yul\":6003:6010   */\n      0x00\n        /* \"#utility.yul\":6043:6085   */\n      0xffffffffffffffffffffffffffffffffffffffff\n        /* \"#utility.yul\":6036:6041   */\n      dup3\n        /* \"#utility.yul\":6032:6086   */\n      and\n        /* \"#utility.yul\":6021:6086   */\n      swap1\n      pop\n        /* \"#utility.yul\":5966:6092   */\n      swap2\n      swap1\n      pop\n      jump\t// out\n        /* \"#utility.yul\":6098:6175   */\n    tag_117:\n        /* \"#utility.yul\":6135:6142   */\n      0x00\n        /* \"#utility.yul\":6164:6169   */\n      dup2\n        /* \"#utility.yul\":6153:6169   */\n      swap1\n      pop\n        /* \"#utility.yul\":6098:6175   */\n      swap2\n      swap1\n      pop\n      jump\t// out\n        /* \"#utility.yul\":6181:6274   */\n    tag_121:\n        /* \"#utility.yul\":6217:6224   */\n      0x00\n        /* \"#utility.yul\":6257:6267   */\n      0xffffffff\n        /* \"#utility.yul\":6250:6255   */\n      dup3\n        /* \"#utility.yul\":6246:6268   */\n      and\n        /* \"#utility.yul\":6235:6268   */\n      swap1\n      pop\n        /* \"#utility.yul\":6181:6274   */\n      swap2\n      swap1\n      pop\n      jump\t// out\n        /* \"#utility.yul\":6280:6420   */\n    tag_107:\n        /* \"#utility.yul\":6344:6353   */\n      0x00\n        /* \"#utility.yul\":6377:6414   */\n      tag_159\n        /* \"#utility.yul\":6408:6413   */\n      dup3\n        /* \"#utility.yul\":6377:6414   */\n      tag_160\n      jump\t// in\n    tag_159:\n        /* \"#utility.yul\":6364:6414   */\n      swap1\n      pop\n        /* \"#utility.yul\":6280:6420   */\n      swap2\n      swap1\n      pop\n      jump\t// out\n        /* \"#utility.yul\":6426:6552   */\n    tag_160:\n        /* \"#utility.yul\":6476:6485   */\n      0x00\n        /* \"#utility.yul\":6509:6546   */\n      tag_162\n        /* \"#utility.yul\":6540:6545   */\n      dup3\n        /* \"#utility.yul\":6509:6546   */\n      tag_163\n      jump\t// in\n    tag_162:\n        /* \"#utility.yul\":6496:6546   */\n      swap1\n      pop\n        /* \"#utility.yul\":6426:6552   */\n      swap2\n      swap1\n      pop\n      jump\t// out\n        /* \"#utility.yul\":6558:6671   */\n    tag_163:\n        /* \"#utility.yul\":6608:6617   */\n      0x00\n        /* \"#utility.yul\":6641:6665   */\n      tag_165\n        /* \"#utility.yul\":6659:6664   */\n      dup3\n        /* \"#utility.yul\":6641:6665   */\n      tag_153\n      jump\t// in\n    tag_165:\n        /* \"#utility.yul\":6628:6665   */\n      swap1\n      pop\n        /* \"#utility.yul\":6558:6671   */\n      swap2\n      swap1\n      pop\n      jump\t// out\n        /* \"#utility.yul\":6677:6857   */\n    tag_150:\n        /* \"#utility.yul\":6725:6802   */\n      0x4e487b7100000000000000000000000000000000000000000000000000000000\n        /* \"#utility.yul\":6722:6723   */\n      0x00\n        /* \"#utility.yul\":6715:6803   */\n      mstore\n        /* \"#utility.yul\":6822:6826   */\n      0x11\n        /* \"#utility.yul\":6819:6820   */\n      0x04\n        /* \"#utility.yul\":6812:6827   */\n      mstore\n        /* \"#utility.yul\":6846:6850   */\n      0x24\n        /* \"#utility.yul\":6843:6844   */\n      0x00\n        /* \"#utility.yul\":6836:6851   */\n      revert\n        /* \"#utility.yul\":6986:7103   */\n    tag_83:\n        /* \"#utility.yul\":7095:7096   */\n      0x00\n        /* \"#utility.yul\":7092:7093   */\n      dup1\n        /* \"#utility.yul\":7085:7097   */\n      revert\n        /* \"#utility.yul\":7109:7273   */\n    tag_113:\n        /* \"#utility.yul\":7249:7265   */\n      0x7374617274206174203c206e6f77000000000000000000000000000000000000\n        /* \"#utility.yul\":7245:7246   */\n      0x00\n        /* \"#utility.yul\":7237:7243   */\n      dup3\n        /* \"#utility.yul\":7233:7247   */\n      add\n        /* \"#utility.yul\":7226:7266   */\n      mstore\n        /* \"#utility.yul\":7109:7273   */\n      pop\n      jump\t// out\n        /* \"#utility.yul\":7279:7401   */\n    tag_75:\n        /* \"#utility.yul\":7352:7376   */\n      tag_172\n        /* \"#utility.yul\":7370:7375   */\n      dup2\n        /* \"#utility.yul\":7352:7376   */\n      tag_117\n      jump\t// in\n    tag_172:\n        /* \"#utility.yul\":7345:7350   */\n      dup2\n        /* \"#utility.yul\":7342:7377   */\n      eq\n        /* \"#utility.yul\":7332:7395   */\n      tag_173\n      jumpi\n        /* \"#utility.yul\":7391:7392   */\n      0x00\n        /* \"#utility.yul\":7388:7389   */\n      dup1\n        /* \"#utility.yul\":7381:7393   */\n      revert\n        /* \"#utility.yul\":7332:7395   */\n    tag_173:\n        /* \"#utility.yul\":7279:7401   */\n      pop\n      jump\t// out\n        /* \"#utility.yul\":7407:7527   */\n    tag_79:\n        /* \"#utility.yul\":7479:7502   */\n      tag_175\n        /* \"#utility.yul\":7496:7501   */\n      dup2\n        /* \"#utility.yul\":7479:7502   */\n      tag_121\n      jump\t// in\n    tag_175:\n        /* \"#utility.yul\":7472:7477   */\n      dup2\n        /* \"#utility.yul\":7469:7503   */\n      eq\n        /* \"#utility.yul\":7459:7521   */\n      tag_176\n      jumpi\n        /* \"#utility.yul\":7517:7518   */\n      0x00\n        /* \"#utility.yul\":7514:7515   */\n      dup1\n        /* \"#utility.yul\":7507:7519   */\n      revert\n        /* \"#utility.yul\":7459:7521   */\n    tag_176:\n        /* \"#utility.yul\":7407:7527   */\n      pop\n      jump\t// out\n\n    auxdata: 0xa2646970667358221220631397ea765adf48dacd0d34b3185b93562db5d5e4df51b1c8573a50d809040264736f6c63430008070033\n}\n",
				"bytecode": {
					"linkReferences": {},
					"object": "60a060405234801561001057600080fd5b50604051610acb380380610acb83398181016040528101906100329190610084565b8073ffffffffffffffffffffffffffffffffffffffff1660808173ffffffffffffffffffffffffffffffffffffffff1660601b81525050506100ff565b60008151905061007e816100e8565b92915050565b60006020828403121561009a576100996100e3565b5b60006100a88482850161006f565b91505092915050565b60006100bc826100c3565b9050919050565b600073ffffffffffffffffffffffffffffffffffffffff82169050919050565b600080fd5b6100f1816100b1565b81146100fc57600080fd5b50565b60805160601c6109ae61011d600039600061056301526109ae6000f3fe608060405234801561001057600080fd5b506004361061009e5760003560e01c8063711853ab11610066578063711853ab1461014a578063daf6994014610166578063f2d57b2114610182578063fc0c546a146101b2578063fde327be146101d05761009e565b806306661abd146100a3578063141961bc146100c1578063278ecde1146100f6578063379607f51461011257806340e58ee51461012e575b600080fd5b6100ab6101ec565b6040516100b89190610798565b60405180910390f35b6100db60048036038101906100d691906105b3565b6101f2565b6040516100ed969594939291906106fc565b60405180910390f35b610110600480360381019061010b91906105b3565b61027b565b005b61012c600480360381019061012791906105b3565b61027e565b005b610148600480360381019061014391906105b3565b610281565b005b610164600480360381019061015f91906105e0565b610284565b005b610180600480360381019061017b9190610620565b610288565b005b61019c600480360381019061019791906105e0565b61051f565b6040516101a991906106e1565b60405180910390f35b6101ba610561565b6040516101c7919061075d565b60405180910390f35b6101ea60048036038101906101e591906105e0565b610585565b005b60025481565b60006020528060005260406000206000915090508060000160009054906101000a900473ffffffffffffffffffffffffffffffffffffffff16908060010154908060020154908060030160009054906101000a900463ffffffff16908060030160049054906101000a900463ffffffff16908060030160089054906101000a900460ff16905086565b50565b50565b50565b5050565b428263ffffffff1610156102d1576040517f08c379a00000000000000000000000000000000000000000000000000000000081526004016102c890610778565b60405180910390fd5b8063ffffffff168263ffffffff161115610320576040517f08c379a000000000000000000000000000000000000000000000000000000000815260040161031790610778565b60405180910390fd5b6276a7004261032f9190610809565b8163ffffffff161115610377576040517f08c379a000000000000000000000000000000000000000000000000000000000815260040161036e90610778565b60405180910390fd5b60016002600082825461038a9190610809565b925050819055506040518060c001604052803373ffffffffffffffffffffffffffffffffffffffff168152602001848152602001600081526020018363ffffffff1681526020018263ffffffff16815260200160001515815250600080600254815260200190815260200160002060008201518160000160006101000a81548173ffffffffffffffffffffffffffffffffffffffff021916908373ffffffffffffffffffffffffffffffffffffffff160217905550602082015181600101556040820151816002015560608201518160030160006101000a81548163ffffffff021916908363ffffffff16021790555060808201518160030160046101000a81548163ffffffff021916908363ffffffff16021790555060a08201518160030160086101000a81548160ff0219169083151502179055509050503373ffffffffffffffffffffffffffffffffffffffff167f0601cd0d650b473037e838a2696d41e654433d065b3f56b28d1d3302e44a304f60025485858560405161051294939291906107b3565b60405180910390a2505050565b60016020528160005260406000206020528060005260406000206000915091509054906101000a900473ffffffffffffffffffffffffffffffffffffffff1681565b7f000000000000000000000000000000000000000000000000000000000000000081565b5050565b6000813590506105988161094a565b92915050565b6000813590506105ad81610961565b92915050565b6000602082840312156105c9576105c861091c565b5b60006105d784828501610589565b91505092915050565b600080604083850312156105f7576105f661091c565b5b600061060585828601610589565b925050602061061685828601610589565b9150509250929050565b6000806000606084860312156106395761063861091c565b5b600061064786828701610589565b93505060206106588682870161059e565b92505060406106698682870161059e565b9150509250925092565b61067c8161085f565b82525050565b61068b81610871565b82525050565b61069a816108b7565b82525050565b60006106ad600e836107f8565b91506106b882610921565b602082019050919050565b6106cc8161089d565b82525050565b6106db816108a7565b82525050565b60006020820190506106f66000830184610673565b92915050565b600060c0820190506107116000830189610673565b61071e60208301886106c3565b61072b60408301876106c3565b61073860608301866106d2565b61074560808301856106d2565b61075260a0830184610682565b979650505050505050565b60006020820190506107726000830184610691565b92915050565b60006020820190508181036000830152610791816106a0565b9050919050565b60006020820190506107ad60008301846106c3565b92915050565b60006080820190506107c860008301876106c3565b6107d560208301866106c3565b6107e260408301856106d2565b6107ef60608301846106d2565b95945050505050565b600082825260208201905092915050565b60006108148261089d565b915061081f8361089d565b9250827fffffffffffffffffffffffffffffffffffffffffffffffffffffffffffffffff03821115610854576108536108ed565b5b828201905092915050565b600061086a8261087d565b9050919050565b60008115159050919050565b600073ffffffffffffffffffffffffffffffffffffffff82169050919050565b6000819050919050565b600063ffffffff82169050919050565b60006108c2826108c9565b9050919050565b60006108d4826108db565b9050919050565b60006108e68261087d565b9050919050565b7f4e487b7100000000000000000000000000000000000000000000000000000000600052601160045260246000fd5b600080fd5b7f7374617274206174203c206e6f77000000000000000000000000000000000000600082015250565b6109538161089d565b811461095e57600080fd5b50565b61096a816108a7565b811461097557600080fd5b5056fea2646970667358221220631397ea765adf48dacd0d34b3185b93562db5d5e4df51b1c8573a50d809040264736f6c63430008070033",
					"opcodes": "PUSH1 0xA0 PUSH1 0x40 MSTORE CALLVALUE DUP1 ISZERO PUSH2 0x10 JUMPI PUSH1 0x0 DUP1 REVERT JUMPDEST POP PUSH1 0x40 MLOAD PUSH2 0xACB CODESIZE SUB DUP1 PUSH2 0xACB DUP4 CODECOPY DUP2 DUP2 ADD PUSH1 0x40 MSTORE DUP2 ADD SWAP1 PUSH2 0x32 SWAP2 SWAP1 PUSH2 0x84 JUMP JUMPDEST DUP1 PUSH20 0xFFFFFFFFFFFFFFFFFFFFFFFFFFFFFFFFFFFFFFFF AND PUSH1 0x80 DUP2 PUSH20 0xFFFFFFFFFFFFFFFFFFFFFFFFFFFFFFFFFFFFFFFF AND PUSH1 0x60 SHL DUP2 MSTORE POP POP POP PUSH2 0xFF JUMP JUMPDEST PUSH1 0x0 DUP2 MLOAD SWAP1 POP PUSH2 0x7E DUP2 PUSH2 0xE8 JUMP JUMPDEST SWAP3 SWAP2 POP POP JUMP JUMPDEST PUSH1 0x0 PUSH1 0x20 DUP3 DUP5 SUB SLT ISZERO PUSH2 0x9A JUMPI PUSH2 0x99 PUSH2 0xE3 JUMP JUMPDEST JUMPDEST PUSH1 0x0 PUSH2 0xA8 DUP5 DUP3 DUP6 ADD PUSH2 0x6F JUMP JUMPDEST SWAP2 POP POP SWAP3 SWAP2 POP POP JUMP JUMPDEST PUSH1 0x0 PUSH2 0xBC DUP3 PUSH2 0xC3 JUMP JUMPDEST SWAP1 POP SWAP2 SWAP1 POP JUMP JUMPDEST PUSH1 0x0 PUSH20 0xFFFFFFFFFFFFFFFFFFFFFFFFFFFFFFFFFFFFFFFF DUP3 AND SWAP1 POP SWAP2 SWAP1 POP JUMP JUMPDEST PUSH1 0x0 DUP1 REVERT JUMPDEST PUSH2 0xF1 DUP2 PUSH2 0xB1 JUMP JUMPDEST DUP2 EQ PUSH2 0xFC JUMPI PUSH1 0x0 DUP1 REVERT JUMPDEST POP JUMP JUMPDEST PUSH1 0x80 MLOAD PUSH1 0x60 SHR PUSH2 0x9AE PUSH2 0x11D PUSH1 0x0 CODECOPY PUSH1 0x0 PUSH2 0x563 ADD MSTORE PUSH2 0x9AE PUSH1 0x0 RETURN INVALID PUSH1 0x80 PUSH1 0x40 MSTORE CALLVALUE DUP1 ISZERO PUSH2 0x10 JUMPI PUSH1 0x0 DUP1 REVERT JUMPDEST POP PUSH1 0x4 CALLDATASIZE LT PUSH2 0x9E JUMPI PUSH1 0x0 CALLDATALOAD PUSH1 0xE0 SHR DUP1 PUSH4 0x711853AB GT PUSH2 0x66 JUMPI DUP1 PUSH4 0x711853AB EQ PUSH2 0x14A JUMPI DUP1 PUSH4 0xDAF69940 EQ PUSH2 0x166 JUMPI DUP1 PUSH4 0xF2D57B21 EQ PUSH2 0x182 JUMPI DUP1 PUSH4 0xFC0C546A EQ PUSH2 0x1B2 JUMPI DUP1 PUSH4 0xFDE327BE EQ PUSH2 0x1D0 JUMPI PUSH2 0x9E JUMP JUMPDEST DUP1 PUSH4 0x6661ABD EQ PUSH2 0xA3 JUMPI DUP1 PUSH4 0x141961BC EQ PUSH2 0xC1 JUMPI DUP1 PUSH4 0x278ECDE1 EQ PUSH2 0xF6 JUMPI DUP1 PUSH4 0x379607F5 EQ PUSH2 0x112 JUMPI DUP1 PUSH4 0x40E58EE5 EQ PUSH2 0x12E JUMPI JUMPDEST PUSH1 0x0 DUP1 REVERT JUMPDEST PUSH2 0xAB PUSH2 0x1EC JUMP JUMPDEST PUSH1 0x40 MLOAD PUSH2 0xB8 SWAP2 SWAP1 PUSH2 0x798 JUMP JUMPDEST PUSH1 0x40 MLOAD DUP1 SWAP2 SUB SWAP1 RETURN JUMPDEST PUSH2 0xDB PUSH1 0x4 DUP1 CALLDATASIZE SUB DUP2 ADD SWAP1 PUSH2 0xD6 SWAP2 SWAP1 PUSH2 0x5B3 JUMP JUMPDEST PUSH2 0x1F2 JUMP JUMPDEST PUSH1 0x40 MLOAD PUSH2 0xED SWAP7 SWAP6 SWAP5 SWAP4 SWAP3 SWAP2 SWAP1 PUSH2 0x6FC JUMP JUMPDEST PUSH1 0x40 MLOAD DUP1 SWAP2 SUB SWAP1 RETURN JUMPDEST PUSH2 0x110 PUSH1 0x4 DUP1 CALLDATASIZE SUB DUP2 ADD SWAP1 PUSH2 0x10B SWAP2 SWAP1 PUSH2 0x5B3 JUMP JUMPDEST PUSH2 0x27B JUMP JUMPDEST STOP JUMPDEST PUSH2 0x12C PUSH1 0x4 DUP1 CALLDATASIZE SUB DUP2 ADD SWAP1 PUSH2 0x127 SWAP2 SWAP1 PUSH2 0x5B3 JUMP JUMPDEST PUSH2 0x27E JUMP JUMPDEST STOP JUMPDEST PUSH2 0x148 PUSH1 0x4 DUP1 CALLDATASIZE SUB DUP2 ADD SWAP1 PUSH2 0x143 SWAP2 SWAP1 PUSH2 0x5B3 JUMP JUMPDEST PUSH2 0x281 JUMP JUMPDEST STOP JUMPDEST PUSH2 0x164 PUSH1 0x4 DUP1 CALLDATASIZE SUB DUP2 ADD SWAP1 PUSH2 0x15F SWAP2 SWAP1 PUSH2 0x5E0 JUMP JUMPDEST PUSH2 0x284 JUMP JUMPDEST STOP JUMPDEST PUSH2 0x180 PUSH1 0x4 DUP1 CALLDATASIZE SUB DUP2 ADD SWAP1 PUSH2 0x17B SWAP2 SWAP1 PUSH2 0x620 JUMP JUMPDEST PUSH2 0x288 JUMP JUMPDEST STOP JUMPDEST PUSH2 0x19C PUSH1 0x4 DUP1 CALLDATASIZE SUB DUP2 ADD SWAP1 PUSH2 0x197 SWAP2 SWAP1 PUSH2 0x5E0 JUMP JUMPDEST PUSH2 0x51F JUMP JUMPDEST PUSH1 0x40 MLOAD PUSH2 0x1A9 SWAP2 SWAP1 PUSH2 0x6E1 JUMP JUMPDEST PUSH1 0x40 MLOAD DUP1 SWAP2 SUB SWAP1 RETURN JUMPDEST PUSH2 0x1BA PUSH2 0x561 JUMP JUMPDEST PUSH1 0x40 MLOAD PUSH2 0x1C7 SWAP2 SWAP1 PUSH2 0x75D JUMP JUMPDEST PUSH1 0x40 MLOAD DUP1 SWAP2 SUB SWAP1 RETURN JUMPDEST PUSH2 0x1EA PUSH1 0x4 DUP1 CALLDATASIZE SUB DUP2 ADD SWAP1 PUSH2 0x1E5 SWAP2 SWAP1 PUSH2 0x5E0 JUMP JUMPDEST PUSH2 0x585 JUMP JUMPDEST STOP JUMPDEST PUSH1 0x2 SLOAD DUP2 JUMP JUMPDEST PUSH1 0x0 PUSH1 0x20 MSTORE DUP1 PUSH1 0x0 MSTORE PUSH1 0x40 PUSH1 0x0 KECCAK256 PUSH1 0x0 SWAP2 POP SWAP1 POP DUP1 PUSH1 0x0 ADD PUSH1 0x0 SWAP1 SLOAD SWAP1 PUSH2 0x100 EXP SWAP1 DIV PUSH20 0xFFFFFFFFFFFFFFFFFFFFFFFFFFFFFFFFFFFFFFFF AND SWAP1 DUP1 PUSH1 0x1 ADD SLOAD SWAP1 DUP1 PUSH1 0x2 ADD SLOAD SWAP1 DUP1 PUSH1 0x3 ADD PUSH1 0x0 SWAP1 SLOAD SWAP1 PUSH2 0x100 EXP SWAP1 DIV PUSH4 0xFFFFFFFF AND SWAP1 DUP1 PUSH1 0x3 ADD PUSH1 0x4 SWAP1 SLOAD SWAP1 PUSH2 0x100 EXP SWAP1 DIV PUSH4 0xFFFFFFFF AND SWAP1 DUP1 PUSH1 0x3 ADD PUSH1 0x8 SWAP1 SLOAD SWAP1 PUSH2 0x100 EXP SWAP1 DIV PUSH1 0xFF AND SWAP1 POP DUP7 JUMP JUMPDEST POP JUMP JUMPDEST POP JUMP JUMPDEST POP JUMP JUMPDEST POP POP JUMP JUMPDEST TIMESTAMP DUP3 PUSH4 0xFFFFFFFF AND LT ISZERO PUSH2 0x2D1 JUMPI PUSH1 0x40 MLOAD PUSH32 0x8C379A000000000000000000000000000000000000000000000000000000000 DUP2 MSTORE PUSH1 0x4 ADD PUSH2 0x2C8 SWAP1 PUSH2 0x778 JUMP JUMPDEST PUSH1 0x40 MLOAD DUP1 SWAP2 SUB SWAP1 REVERT JUMPDEST DUP1 PUSH4 0xFFFFFFFF AND DUP3 PUSH4 0xFFFFFFFF AND GT ISZERO PUSH2 0x320 JUMPI PUSH1 0x40 MLOAD PUSH32 0x8C379A000000000000000000000000000000000000000000000000000000000 DUP2 MSTORE PUSH1 0x4 ADD PUSH2 0x317 SWAP1 PUSH2 0x778 JUMP JUMPDEST PUSH1 0x40 MLOAD DUP1 SWAP2 SUB SWAP1 REVERT JUMPDEST PUSH3 0x76A700 TIMESTAMP PUSH2 0x32F SWAP2 SWAP1 PUSH2 0x809 JUMP JUMPDEST DUP2 PUSH4 0xFFFFFFFF AND GT ISZERO PUSH2 0x377 JUMPI PUSH1 0x40 MLOAD PUSH32 0x8C379A000000000000000000000000000000000000000000000000000000000 DUP2 MSTORE PUSH1 0x4 ADD PUSH2 0x36E SWAP1 PUSH2 0x778 JUMP JUMPDEST PUSH1 0x40 MLOAD DUP1 SWAP2 SUB SWAP1 REVERT JUMPDEST PUSH1 0x1 PUSH1 0x2 PUSH1 0x0 DUP3 DUP3 SLOAD PUSH2 0x38A SWAP2 SWAP1 PUSH2 0x809 JUMP JUMPDEST SWAP3 POP POP DUP2 SWAP1 SSTORE POP PUSH1 0x40 MLOAD DUP1 PUSH1 0xC0 ADD PUSH1 0x40 MSTORE DUP1 CALLER PUSH20 0xFFFFFFFFFFFFFFFFFFFFFFFFFFFFFFFFFFFFFFFF AND DUP2 MSTORE PUSH1 0x20 ADD DUP5 DUP2 MSTORE PUSH1 0x20 ADD PUSH1 0x0 DUP2 MSTORE PUSH1 0x20 ADD DUP4 PUSH4 0xFFFFFFFF AND DUP2 MSTORE PUSH1 0x20 ADD DUP3 PUSH4 0xFFFFFFFF AND DUP2 MSTORE PUSH1 0x20 ADD PUSH1 0x0 ISZERO ISZERO DUP2 MSTORE POP PUSH1 0x0 DUP1 PUSH1 0x2 SLOAD DUP2 MSTORE PUSH1 0x20 ADD SWAP1 DUP2 MSTORE PUSH1 0x20 ADD PUSH1 0x0 KECCAK256 PUSH1 0x0 DUP3 ADD MLOAD DUP2 PUSH1 0x0 ADD PUSH1 0x0 PUSH2 0x100 EXP DUP2 SLOAD DUP2 PUSH20 0xFFFFFFFFFFFFFFFFFFFFFFFFFFFFFFFFFFFFFFFF MUL NOT AND SWAP1 DUP4 PUSH20 0xFFFFFFFFFFFFFFFFFFFFFFFFFFFFFFFFFFFFFFFF AND MUL OR SWAP1 SSTORE POP PUSH1 0x20 DUP3 ADD MLOAD DUP2 PUSH1 0x1 ADD SSTORE PUSH1 0x40 DUP3 ADD MLOAD DUP2 PUSH1 0x2 ADD SSTORE PUSH1 0x60 DUP3 ADD MLOAD DUP2 PUSH1 0x3 ADD PUSH1 0x0 PUSH2 0x100 EXP DUP2 SLOAD DUP2 PUSH4 0xFFFFFFFF MUL NOT AND SWAP1 DUP4 PUSH4 0xFFFFFFFF AND MUL OR SWAP1 SSTORE POP PUSH1 0x80 DUP3 ADD MLOAD DUP2 PUSH1 0x3 ADD PUSH1 0x4 PUSH2 0x100 EXP DUP2 SLOAD DUP2 PUSH4 0xFFFFFFFF MUL NOT AND SWAP1 DUP4 PUSH4 0xFFFFFFFF AND MUL OR SWAP1 SSTORE POP PUSH1 0xA0 DUP3 ADD MLOAD DUP2 PUSH1 0x3 ADD PUSH1 0x8 PUSH2 0x100 EXP DUP2 SLOAD DUP2 PUSH1 0xFF MUL NOT AND SWAP1 DUP4 ISZERO ISZERO MUL OR SWAP1 SSTORE POP SWAP1 POP POP CALLER PUSH20 0xFFFFFFFFFFFFFFFFFFFFFFFFFFFFFFFFFFFFFFFF AND PUSH32 0x601CD0D650B473037E838A2696D41E654433D065B3F56B28D1D3302E44A304F PUSH1 0x2 SLOAD DUP6 DUP6 DUP6 PUSH1 0x40 MLOAD PUSH2 0x512 SWAP5 SWAP4 SWAP3 SWAP2 SWAP1 PUSH2 0x7B3 JUMP JUMPDEST PUSH1 0x40 MLOAD DUP1 SWAP2 SUB SWAP1 LOG2 POP POP POP JUMP JUMPDEST PUSH1 0x1 PUSH1 0x20 MSTORE DUP2 PUSH1 0x0 MSTORE PUSH1 0x40 PUSH1 0x0 KECCAK256 PUSH1 0x20 MSTORE DUP1 PUSH1 0x0 MSTORE PUSH1 0x40 PUSH1 0x0 KECCAK256 PUSH1 0x0 SWAP2 POP SWAP2 POP SWAP1 SLOAD SWAP1 PUSH2 0x100 EXP SWAP1 DIV PUSH20 0xFFFFFFFFFFFFFFFFFFFFFFFFFFFFFFFFFFFFFFFF AND DUP2 JUMP JUMPDEST PUSH32 0x0 DUP2 JUMP JUMPDEST POP POP JUMP JUMPDEST PUSH1 0x0 DUP2 CALLDATALOAD SWAP1 POP PUSH2 0x598 DUP2 PUSH2 0x94A JUMP JUMPDEST SWAP3 SWAP2 POP POP JUMP JUMPDEST PUSH1 0x0 DUP2 CALLDATALOAD SWAP1 POP PUSH2 0x5AD DUP2 PUSH2 0x961 JUMP JUMPDEST SWAP3 SWAP2 POP POP JUMP JUMPDEST PUSH1 0x0 PUSH1 0x20 DUP3 DUP5 SUB SLT ISZERO PUSH2 0x5C9 JUMPI PUSH2 0x5C8 PUSH2 0x91C JUMP JUMPDEST JUMPDEST PUSH1 0x0 PUSH2 0x5D7 DUP5 DUP3 DUP6 ADD PUSH2 0x589 JUMP JUMPDEST SWAP2 POP POP SWAP3 SWAP2 POP POP JUMP JUMPDEST PUSH1 0x0 DUP1 PUSH1 0x40 DUP4 DUP6 SUB SLT ISZERO PUSH2 0x5F7 JUMPI PUSH2 0x5F6 PUSH2 0x91C JUMP JUMPDEST JUMPDEST PUSH1 0x0 PUSH2 0x605 DUP6 DUP3 DUP7 ADD PUSH2 0x589 JUMP JUMPDEST SWAP3 POP POP PUSH1 0x20 PUSH2 0x616 DUP6 DUP3 DUP7 ADD PUSH2 0x589 JUMP JUMPDEST SWAP2 POP POP SWAP3 POP SWAP3 SWAP1 POP JUMP JUMPDEST PUSH1 0x0 DUP1 PUSH1 0x0 PUSH1 0x60 DUP5 DUP7 SUB SLT ISZERO PUSH2 0x639 JUMPI PUSH2 0x638 PUSH2 0x91C JUMP JUMPDEST JUMPDEST PUSH1 0x0 PUSH2 0x647 DUP7 DUP3 DUP8 ADD PUSH2 0x589 JUMP JUMPDEST SWAP4 POP POP PUSH1 0x20 PUSH2 0x658 DUP7 DUP3 DUP8 ADD PUSH2 0x59E JUMP JUMPDEST SWAP3 POP POP PUSH1 0x40 PUSH2 0x669 DUP7 DUP3 DUP8 ADD PUSH2 0x59E JUMP JUMPDEST SWAP2 POP POP SWAP3 POP SWAP3 POP SWAP3 JUMP JUMPDEST PUSH2 0x67C DUP2 PUSH2 0x85F JUMP JUMPDEST DUP3 MSTORE POP POP JUMP JUMPDEST PUSH2 0x68B DUP2 PUSH2 0x871 JUMP JUMPDEST DUP3 MSTORE POP POP JUMP JUMPDEST PUSH2 0x69A DUP2 PUSH2 0x8B7 JUMP JUMPDEST DUP3 MSTORE POP POP JUMP JUMPDEST PUSH1 0x0 PUSH2 0x6AD PUSH1 0xE DUP4 PUSH2 0x7F8 JUMP JUMPDEST SWAP2 POP PUSH2 0x6B8 DUP3 PUSH2 0x921 JUMP JUMPDEST PUSH1 0x20 DUP3 ADD SWAP1 POP SWAP2 SWAP1 POP JUMP JUMPDEST PUSH2 0x6CC DUP2 PUSH2 0x89D JUMP JUMPDEST DUP3 MSTORE POP POP JUMP JUMPDEST PUSH2 0x6DB DUP2 PUSH2 0x8A7 JUMP JUMPDEST DUP3 MSTORE POP POP JUMP JUMPDEST PUSH1 0x0 PUSH1 0x20 DUP3 ADD SWAP1 POP PUSH2 0x6F6 PUSH1 0x0 DUP4 ADD DUP5 PUSH2 0x673 JUMP JUMPDEST SWAP3 SWAP2 POP POP JUMP JUMPDEST PUSH1 0x0 PUSH1 0xC0 DUP3 ADD SWAP1 POP PUSH2 0x711 PUSH1 0x0 DUP4 ADD DUP10 PUSH2 0x673 JUMP JUMPDEST PUSH2 0x71E PUSH1 0x20 DUP4 ADD DUP9 PUSH2 0x6C3 JUMP JUMPDEST PUSH2 0x72B PUSH1 0x40 DUP4 ADD DUP8 PUSH2 0x6C3 JUMP JUMPDEST PUSH2 0x738 PUSH1 0x60 DUP4 ADD DUP7 PUSH2 0x6D2 JUMP JUMPDEST PUSH2 0x745 PUSH1 0x80 DUP4 ADD DUP6 PUSH2 0x6D2 JUMP JUMPDEST PUSH2 0x752 PUSH1 0xA0 DUP4 ADD DUP5 PUSH2 0x682 JUMP JUMPDEST SWAP8 SWAP7 POP POP POP POP POP POP POP JUMP JUMPDEST PUSH1 0x0 PUSH1 0x20 DUP3 ADD SWAP1 POP PUSH2 0x772 PUSH1 0x0 DUP4 ADD DUP5 PUSH2 0x691 JUMP JUMPDEST SWAP3 SWAP2 POP POP JUMP JUMPDEST PUSH1 0x0 PUSH1 0x20 DUP3 ADD SWAP1 POP DUP2 DUP2 SUB PUSH1 0x0 DUP4 ADD MSTORE PUSH2 0x791 DUP2 PUSH2 0x6A0 JUMP JUMPDEST SWAP1 POP SWAP2 SWAP1 POP JUMP JUMPDEST PUSH1 0x0 PUSH1 0x20 DUP3 ADD SWAP1 POP PUSH2 0x7AD PUSH1 0x0 DUP4 ADD DUP5 PUSH2 0x6C3 JUMP JUMPDEST SWAP3 SWAP2 POP POP JUMP JUMPDEST PUSH1 0x0 PUSH1 0x80 DUP3 ADD SWAP1 POP PUSH2 0x7C8 PUSH1 0x0 DUP4 ADD DUP8 PUSH2 0x6C3 JUMP JUMPDEST PUSH2 0x7D5 PUSH1 0x20 DUP4 ADD DUP7 PUSH2 0x6C3 JUMP JUMPDEST PUSH2 0x7E2 PUSH1 0x40 DUP4 ADD DUP6 PUSH2 0x6D2 JUMP JUMPDEST PUSH2 0x7EF PUSH1 0x60 DUP4 ADD DUP5 PUSH2 0x6D2 JUMP JUMPDEST SWAP6 SWAP5 POP POP POP POP POP JUMP JUMPDEST PUSH1 0x0 DUP3 DUP3 MSTORE PUSH1 0x20 DUP3 ADD SWAP1 POP SWAP3 SWAP2 POP POP JUMP JUMPDEST PUSH1 0x0 PUSH2 0x814 DUP3 PUSH2 0x89D JUMP JUMPDEST SWAP2 POP PUSH2 0x81F DUP4 PUSH2 0x89D JUMP JUMPDEST SWAP3 POP DUP3 PUSH32 0xFFFFFFFFFFFFFFFFFFFFFFFFFFFFFFFFFFFFFFFFFFFFFFFFFFFFFFFFFFFFFFFF SUB DUP3 GT ISZERO PUSH2 0x854 JUMPI PUSH2 0x853 PUSH2 0x8ED JUMP JUMPDEST JUMPDEST DUP3 DUP3 ADD SWAP1 POP SWAP3 SWAP2 POP POP JUMP JUMPDEST PUSH1 0x0 PUSH2 0x86A DUP3 PUSH2 0x87D JUMP JUMPDEST SWAP1 POP SWAP2 SWAP1 POP JUMP JUMPDEST PUSH1 0x0 DUP2 ISZERO ISZERO SWAP1 POP SWAP2 SWAP1 POP JUMP JUMPDEST PUSH1 0x0 PUSH20 0xFFFFFFFFFFFFFFFFFFFFFFFFFFFFFFFFFFFFFFFF DUP3 AND SWAP1 POP SWAP2 SWAP1 POP JUMP JUMPDEST PUSH1 0x0 DUP2 SWAP1 POP SWAP2 SWAP1 POP JUMP JUMPDEST PUSH1 0x0 PUSH4 0xFFFFFFFF DUP3 AND SWAP1 POP SWAP2 SWAP1 POP JUMP JUMPDEST PUSH1 0x0 PUSH2 0x8C2 DUP3 PUSH2 0x8C9 JUMP JUMPDEST SWAP1 POP SWAP2 SWAP1 POP JUMP JUMPDEST PUSH1 0x0 PUSH2 0x8D4 DUP3 PUSH2 0x8DB JUMP JUMPDEST SWAP1 POP SWAP2 SWAP1 POP JUMP JUMPDEST PUSH1 0x0 PUSH2 0x8E6 DUP3 PUSH2 0x87D JUMP JUMPDEST SWAP1 POP SWAP2 SWAP1 POP JUMP JUMPDEST PUSH32 0x4E487B7100000000000000000000000000000000000000000000000000000000 PUSH1 0x0 MSTORE PUSH1 0x11 PUSH1 0x4 MSTORE PUSH1 0x24 PUSH1 0x0 REVERT JUMPDEST PUSH1 0x0 DUP1 REVERT JUMPDEST PUSH32 0x7374617274206174203C206E6F77000000000000000000000000000000000000 PUSH1 0x0 DUP3 ADD MSTORE POP JUMP JUMPDEST PUSH2 0x953 DUP2 PUSH2 0x89D JUMP JUMPDEST DUP2 EQ PUSH2 0x95E JUMPI PUSH1 0x0 DUP1 REVERT JUMPDEST POP JUMP JUMPDEST PUSH2 0x96A DUP2 PUSH2 0x8A7 JUMP JUMPDEST DUP2 EQ PUSH2 0x975 JUMPI PUSH1 0x0 DUP1 REVERT JUMPDEST POP JUMP INVALID LOG2 PUSH5 0x6970667358 0x22 SLT KECCAK256 PUSH4 0x1397EA76 GAS 0xDF BASEFEE 0xDA 0xCD 0xD CALLVALUE 0xB3 XOR JUMPDEST SWAP4 JUMP 0x2D 0xB5 0xD5 0xE4 0xDF MLOAD 0xB1 0xC8 JUMPI GASPRICE POP 0xD8 MULMOD DIV MUL PUSH5 0x736F6C6343 STOP ADDMOD SMOD STOP CALLER "
				},
				"gasEstimates": {
					"creation": {
						"codeDepositCost": "495600",
						"executionCost": "infinite",
						"totalCost": "infinite"
					},
					"external": {
						"campaigns(uint256)": "infinite",
						"cancel(uint256)": "495",
						"claim(uint256)": "473",
						"count()": "2430",
						"lunch(uint256,uint32,uint32)": "infinite",
						"plagedAmount(uint256,uint256)": "infinite",
						"pledge(uint256,uint256)": "infinite",
						"refund(uint256)": "451",
						"token()": "infinite",
						"unpledge(uint256,uint256)": "infinite"
					}
				},
				"methodIdentifiers": {
					"campaigns(uint256)": "141961bc",
					"cancel(uint256)": "40e58ee5",
					"claim(uint256)": "379607f5",
					"count()": "06661abd",
					"lunch(uint256,uint32,uint32)": "daf69940",
					"plagedAmount(uint256,uint256)": "f2d57b21",
					"pledge(uint256,uint256)": "fde327be",
					"refund(uint256)": "278ecde1",
					"token()": "fc0c546a",
					"unpledge(uint256,uint256)": "711853ab"
				}
			},
			"storageLayout": {
				"storage": [
					{
						"astId": 23,
						"contract": "CrowdFund.sol:CrowdFund",
						"label": "campaigns",
						"offset": 0,
						"slot": "0",
						"type": "t_mapping(t_uint256,t_struct(Campaign)15_storage)"
					},
					{
						"astId": 29,
						"contract": "CrowdFund.sol:CrowdFund",
						"label": "plagedAmount",
						"offset": 0,
						"slot": "1",
						"type": "t_mapping(t_uint256,t_mapping(t_uint256,t_address))"
					},
					{
						"astId": 31,
						"contract": "CrowdFund.sol:CrowdFund",
						"label": "count",
						"offset": 0,
						"slot": "2",
						"type": "t_uint256"
					}
				],
				"types": {
					"t_address": {
						"encoding": "inplace",
						"label": "address",
						"numberOfBytes": "20"
					},
					"t_bool": {
						"encoding": "inplace",
						"label": "bool",
						"numberOfBytes": "1"
					},
					"t_mapping(t_uint256,t_address)": {
						"encoding": "mapping",
						"key": "t_uint256",
						"label": "mapping(uint256 => address)",
						"numberOfBytes": "32",
						"value": "t_address"
					},
					"t_mapping(t_uint256,t_mapping(t_uint256,t_address))": {
						"encoding": "mapping",
						"key": "t_uint256",
						"label": "mapping(uint256 => mapping(uint256 => address))",
						"numberOfBytes": "32",
						"value": "t_mapping(t_uint256,t_address)"
					},
					"t_mapping(t_uint256,t_struct(Campaign)15_storage)": {
						"encoding": "mapping",
						"key": "t_uint256",
						"label": "mapping(uint256 => struct CrowdFund.Campaign)",
						"numberOfBytes": "32",
						"value": "t_struct(Campaign)15_storage"
					},
					"t_struct(Campaign)15_storage": {
						"encoding": "inplace",
						"label": "struct CrowdFund.Campaign",
						"members": [
							{
								"astId": 4,
								"contract": "CrowdFund.sol:CrowdFund",
								"label": "creator",
								"offset": 0,
								"slot": "0",
								"type": "t_address"
							},
							{
								"astId": 6,
								"contract": "CrowdFund.sol:CrowdFund",
								"label": "goal",
								"offset": 0,
								"slot": "1",
								"type": "t_uint256"
							},
							{
								"astId": 8,
								"contract": "CrowdFund.sol:CrowdFund",
								"label": "pledged",
								"offset": 0,
								"slot": "2",
								"type": "t_uint256"
							},
							{
								"astId": 10,
								"contract": "CrowdFund.sol:CrowdFund",
								"label": "startAt",
								"offset": 0,
								"slot": "3",
								"type": "t_uint32"
							},
							{
								"astId": 12,
								"contract": "CrowdFund.sol:CrowdFund",
								"label": "endAt",
								"offset": 4,
								"slot": "3",
								"type": "t_uint32"
							},
							{
								"astId": 14,
								"contract": "CrowdFund.sol:CrowdFund",
								"label": "claimed",
								"offset": 8,
								"slot": "3",
								"type": "t_bool"
							}
						],
						"numberOfBytes": "128"
					},
					"t_uint256": {
						"encoding": "inplace",
						"label": "uint256",
						"numberOfBytes": "32"
					},
					"t_uint32": {
						"encoding": "inplace",
						"label": "uint32",
						"numberOfBytes": "4"
					}
				}
			},
			"userdoc": {
				"kind": "user",
				"methods": {},
				"version": 1
			}
		}
	}
}