{
	"CrowdFund.sol": {
		"CrowdFund": {
			"abi": [
				{
					"inputs": [
						{
							"internalType": "address",
							"name": "_token",
							"type": "address"
						}
					],
					"stateMutability": "nonpayable",
					"type": "constructor"
				},
				{
					"anonymous": false,
					"inputs": [
						{
							"indexed": false,
							"internalType": "uint256",
							"name": "id",
							"type": "uint256"
						}
					],
					"name": "Cancel",
					"type": "event"
				},
				{
					"anonymous": false,
					"inputs": [
						{
							"indexed": false,
							"internalType": "uint256",
							"name": "id",
							"type": "uint256"
						}
					],
					"name": "Claim",
					"type": "event"
				},
				{
					"anonymous": false,
					"inputs": [
						{
							"indexed": false,
							"internalType": "uint256",
							"name": "id",
							"type": "uint256"
						},
						{
							"indexed": true,
							"internalType": "address",
							"name": "creator",
							"type": "address"
						},
						{
							"indexed": false,
							"internalType": "uint256",
							"name": "goal",
							"type": "uint256"
						},
						{
							"indexed": false,
							"internalType": "uint32",
							"name": "startAt",
							"type": "uint32"
						},
						{
							"indexed": false,
							"internalType": "uint32",
							"name": "endAt",
							"type": "uint32"
						}
					],
					"name": "Launch",
					"type": "event"
				},
				{
					"anonymous": false,
					"inputs": [
						{
							"indexed": true,
							"internalType": "uint256",
							"name": "id",
							"type": "uint256"
						},
						{
							"indexed": true,
							"internalType": "address",
							"name": "caller",
							"type": "address"
						},
						{
							"indexed": false,
							"internalType": "uint256",
							"name": "amount",
							"type": "uint256"
						}
					],
					"name": "Pledge",
					"type": "event"
				},
				{
					"anonymous": false,
					"inputs": [
						{
							"indexed": true,
							"internalType": "uint256",
							"name": "id",
							"type": "uint256"
						},
						{
							"indexed": true,
							"internalType": "address",
							"name": "caller",
							"type": "address"
						},
						{
							"indexed": false,
							"internalType": "uint256",
							"name": "amount",
							"type": "uint256"
						}
					],
					"name": "Refund",
					"type": "event"
				},
				{
					"anonymous": false,
					"inputs": [
						{
							"indexed": true,
							"internalType": "uint256",
							"name": "id",
							"type": "uint256"
						},
						{
							"indexed": true,
							"internalType": "address",
							"name": "caller",
							"type": "address"
						},
						{
							"indexed": false,
							"internalType": "uint256",
							"name": "amount",
							"type": "uint256"
						}
					],
					"name": "Unpledge",
					"type": "event"
				},
				{
					"inputs": [
						{
							"internalType": "uint256",
							"name": "",
							"type": "uint256"
						}
					],
					"name": "campaigns",
					"outputs": [
						{
							"internalType": "address",
							"name": "creator",
							"type": "address"
						},
						{
							"internalType": "uint256",
							"name": "goal",
							"type": "uint256"
						},
						{
							"internalType": "uint256",
							"name": "pledged",
							"type": "uint256"
						},
						{
							"internalType": "uint32",
							"name": "startAt",
							"type": "uint32"
						},
						{
							"internalType": "uint32",
							"name": "endAt",
							"type": "uint32"
						},
						{
							"internalType": "bool",
							"name": "claimed",
							"type": "bool"
						}
					],
					"stateMutability": "view",
					"type": "function"
				},
				{
					"inputs": [
						{
							"internalType": "uint256",
							"name": "campaignId",
							"type": "uint256"
						}
					],
					"name": "cancel",
					"outputs": [],
					"stateMutability": "nonpayable",
					"type": "function"
				},
				{
					"inputs": [
						{
							"internalType": "uint256",
							"name": "campaignId",
							"type": "uint256"
						}
					],
					"name": "claim",
					"outputs": [],
					"stateMutability": "nonpayable",
					"type": "function"
				},
				{
					"inputs": [],
					"name": "count",
					"outputs": [
						{
							"internalType": "uint256",
							"name": "",
							"type": "uint256"
						}
					],
					"stateMutability": "view",
					"type": "function"
				},
				{
					"inputs": [
						{
							"internalType": "uint256",
							"name": "_goal",
							"type": "uint256"
						},
						{
							"internalType": "uint32",
							"name": "_startAt",
							"type": "uint32"
						},
						{
							"internalType": "uint32",
							"name": "_endAt",
							"type": "uint32"
						}
					],
					"name": "lunch",
					"outputs": [],
					"stateMutability": "nonpayable",
					"type": "function"
				},
				{
					"inputs": [
						{
							"internalType": "uint256",
							"name": "campaignId",
							"type": "uint256"
						},
						{
							"internalType": "uint256",
							"name": "amount",
							"type": "uint256"
						}
					],
					"name": "pledge",
					"outputs": [],
					"stateMutability": "nonpayable",
					"type": "function"
				},
				{
					"inputs": [
						{
							"internalType": "uint256",
							"name": "",
							"type": "uint256"
						},
						{
							"internalType": "address",
							"name": "",
							"type": "address"
						}
					],
					"name": "pledgedAmount",
					"outputs": [
						{
							"internalType": "uint256",
							"name": "",
							"type": "uint256"
						}
					],
					"stateMutability": "view",
					"type": "function"
				},
				{
					"inputs": [
						{
							"internalType": "uint256",
							"name": "campaignId",
							"type": "uint256"
						}
					],
					"name": "refund",
					"outputs": [],
					"stateMutability": "nonpayable",
					"type": "function"
				},
				{
					"inputs": [],
					"name": "token",
					"outputs": [
						{
							"internalType": "contract IERC20",
							"name": "",
							"type": "address"
						}
					],
					"stateMutability": "view",
					"type": "function"
				},
				{
					"inputs": [
						{
							"internalType": "uint256",
							"name": "campaignId",
							"type": "uint256"
						},
						{
							"internalType": "uint256",
							"name": "unpledgeAmount",
							"type": "uint256"
						}
					],
					"name": "unpledge",
					"outputs": [],
					"stateMutability": "nonpayable",
					"type": "function"
				}
			],
			"devdoc": {
				"kind": "dev",
				"methods": {},
				"version": 1
			},
			"evm": {
				"assembly": "    /* \"CrowdFund.sol\":86:5721  contract CrowdFund{\r... */\n  mstore(0x40, 0xa0)\n    /* \"CrowdFund.sol\":1252:1320  constructor(address _token){\r... */\n  callvalue\n  dup1\n  iszero\n  tag_1\n  jumpi\n  0x00\n  dup1\n  revert\ntag_1:\n  pop\n  mload(0x40)\n  sub(codesize, bytecodeSize)\n  dup1\n  bytecodeSize\n  dup4\n  codecopy\n  dup2\n  dup2\n  add\n  0x40\n  mstore\n  dup2\n  add\n  swap1\n  tag_2\n  swap2\n  swap1\n  tag_3\n  jump\t// in\ntag_2:\n    /* \"CrowdFund.sol\":1305:1311  _token */\n  dup1\n    /* \"CrowdFund.sol\":1290:1312  token = IERC20(_token) */\n  0xffffffffffffffffffffffffffffffffffffffff\n  and\n  0x80\n  dup2\n  0xffffffffffffffffffffffffffffffffffffffff\n  and\n  0x60\n  shl\n  dup2\n  mstore\n  pop\n  pop\n    /* \"CrowdFund.sol\":1252:1320  constructor(address _token){\r... */\n  pop\n    /* \"CrowdFund.sol\":86:5721  contract CrowdFund{\r... */\n  jump(tag_6)\n    /* \"#utility.yul\":7:150   */\ntag_8:\n    /* \"#utility.yul\":64:69   */\n  0x00\n    /* \"#utility.yul\":95:101   */\n  dup2\n    /* \"#utility.yul\":89:102   */\n  mload\n    /* \"#utility.yul\":80:102   */\n  swap1\n  pop\n    /* \"#utility.yul\":111:144   */\n  tag_10\n    /* \"#utility.yul\":138:143   */\n  dup2\n    /* \"#utility.yul\":111:144   */\n  tag_11\n  jump\t// in\ntag_10:\n    /* \"#utility.yul\":7:150   */\n  swap3\n  swap2\n  pop\n  pop\n  jump\t// out\n    /* \"#utility.yul\":156:507   */\ntag_3:\n    /* \"#utility.yul\":226:232   */\n  0x00\n    /* \"#utility.yul\":275:277   */\n  0x20\n    /* \"#utility.yul\":263:272   */\n  dup3\n    /* \"#utility.yul\":254:261   */\n  dup5\n    /* \"#utility.yul\":250:273   */\n  sub\n    /* \"#utility.yul\":246:278   */\n  slt\n    /* \"#utility.yul\":243:362   */\n  iszero\n  tag_13\n  jumpi\n    /* \"#utility.yul\":281:360   */\n  tag_14\n  tag_15\n  jump\t// in\ntag_14:\n    /* \"#utility.yul\":243:362   */\ntag_13:\n    /* \"#utility.yul\":401:402   */\n  0x00\n    /* \"#utility.yul\":426:490   */\n  tag_16\n    /* \"#utility.yul\":482:489   */\n  dup5\n    /* \"#utility.yul\":473:479   */\n  dup3\n    /* \"#utility.yul\":462:471   */\n  dup6\n    /* \"#utility.yul\":458:480   */\n  add\n    /* \"#utility.yul\":426:490   */\n  tag_8\n  jump\t// in\ntag_16:\n    /* \"#utility.yul\":416:490   */\n  swap2\n  pop\n    /* \"#utility.yul\":372:500   */\n  pop\n    /* \"#utility.yul\":156:507   */\n  swap3\n  swap2\n  pop\n  pop\n  jump\t// out\n    /* \"#utility.yul\":594:690   */\ntag_19:\n    /* \"#utility.yul\":631:638   */\n  0x00\n    /* \"#utility.yul\":660:684   */\n  tag_21\n    /* \"#utility.yul\":678:683   */\n  dup3\n    /* \"#utility.yul\":660:684   */\n  tag_22\n  jump\t// in\ntag_21:\n    /* \"#utility.yul\":649:684   */\n  swap1\n  pop\n    /* \"#utility.yul\":594:690   */\n  swap2\n  swap1\n  pop\n  jump\t// out\n    /* \"#utility.yul\":696:822   */\ntag_22:\n    /* \"#utility.yul\":733:740   */\n  0x00\n    /* \"#utility.yul\":773:815   */\n  0xffffffffffffffffffffffffffffffffffffffff\n    /* \"#utility.yul\":766:771   */\n  dup3\n    /* \"#utility.yul\":762:816   */\n  and\n    /* \"#utility.yul\":751:816   */\n  swap1\n  pop\n    /* \"#utility.yul\":696:822   */\n  swap2\n  swap1\n  pop\n  jump\t// out\n    /* \"#utility.yul\":951:1068   */\ntag_15:\n    /* \"#utility.yul\":1060:1061   */\n  0x00\n    /* \"#utility.yul\":1057:1058   */\n  dup1\n    /* \"#utility.yul\":1050:1062   */\n  revert\n    /* \"#utility.yul\":1074:1196   */\ntag_11:\n    /* \"#utility.yul\":1147:1171   */\n  tag_28\n    /* \"#utility.yul\":1165:1170   */\n  dup2\n    /* \"#utility.yul\":1147:1171   */\n  tag_19\n  jump\t// in\ntag_28:\n    /* \"#utility.yul\":1140:1145   */\n  dup2\n    /* \"#utility.yul\":1137:1172   */\n  eq\n    /* \"#utility.yul\":1127:1190   */\n  tag_29\n  jumpi\n    /* \"#utility.yul\":1186:1187   */\n  0x00\n    /* \"#utility.yul\":1183:1184   */\n  dup1\n    /* \"#utility.yul\":1176:1188   */\n  revert\n    /* \"#utility.yul\":1127:1190   */\ntag_29:\n    /* \"#utility.yul\":1074:1196   */\n  pop\n  jump\t// out\n    /* \"CrowdFund.sol\":86:5721  contract CrowdFund{\r... */\ntag_6:\n  shr(0x60, mload(0x80))\n  codecopy(0x00, dataOffset(sub_0), dataSize(sub_0))\n  0x00\n  assignImmutable(\"0x8fef2229291b68be841adf029e58b87f39ba144b2d3b0af1760243d0a9bc6a1c\")\n  return(0x00, dataSize(sub_0))\nstop\n\nsub_0: assembly {\n        /* \"CrowdFund.sol\":86:5721  contract CrowdFund{\r... */\n      mstore(0x40, 0x80)\n      callvalue\n      dup1\n      iszero\n      tag_1\n      jumpi\n      0x00\n      dup1\n      revert\n    tag_1:\n      pop\n      jumpi(tag_2, lt(calldatasize, 0x04))\n      shr(0xe0, calldataload(0x00))\n      dup1\n      0x711853ab\n      gt\n      tag_13\n      jumpi\n      dup1\n      0x711853ab\n      eq\n      tag_8\n      jumpi\n      dup1\n      0xaa4fb63a\n      eq\n      tag_9\n      jumpi\n      dup1\n      0xdaf69940\n      eq\n      tag_10\n      jumpi\n      dup1\n      0xfc0c546a\n      eq\n      tag_11\n      jumpi\n      dup1\n      0xfde327be\n      eq\n      tag_12\n      jumpi\n      jump(tag_2)\n    tag_13:\n      dup1\n      0x06661abd\n      eq\n      tag_3\n      jumpi\n      dup1\n      0x141961bc\n      eq\n      tag_4\n      jumpi\n      dup1\n      0x278ecde1\n      eq\n      tag_5\n      jumpi\n      dup1\n      0x379607f5\n      eq\n      tag_6\n      jumpi\n      dup1\n      0x40e58ee5\n      eq\n      tag_7\n      jumpi\n    tag_2:\n      0x00\n      dup1\n      revert\n        /* \"CrowdFund.sol\":1170:1187  uint public count */\n    tag_3:\n      tag_14\n      tag_15\n      jump\t// in\n    tag_14:\n      mload(0x40)\n      tag_16\n      swap2\n      swap1\n      tag_17\n      jump\t// in\n    tag_16:\n      mload(0x40)\n      dup1\n      swap2\n      sub\n      swap1\n      return\n        /* \"CrowdFund.sol\":884:926  mapping(uint => Campaign) public campaigns */\n    tag_4:\n      tag_18\n      0x04\n      dup1\n      calldatasize\n      sub\n      dup2\n      add\n      swap1\n      tag_19\n      swap2\n      swap1\n      tag_20\n      jump\t// in\n    tag_19:\n      tag_21\n      jump\t// in\n    tag_18:\n      mload(0x40)\n      tag_22\n      swap7\n      swap6\n      swap5\n      swap4\n      swap3\n      swap2\n      swap1\n      tag_23\n      jump\t// in\n    tag_22:\n      mload(0x40)\n      dup1\n      swap2\n      sub\n      swap1\n      return\n        /* \"CrowdFund.sol\":5205:5714  function refund(uint campaignId) external {\r... */\n    tag_5:\n      tag_24\n      0x04\n      dup1\n      calldatasize\n      sub\n      dup2\n      add\n      swap1\n      tag_25\n      swap2\n      swap1\n      tag_20\n      jump\t// in\n    tag_25:\n      tag_26\n      jump\t// in\n    tag_24:\n      stop\n        /* \"CrowdFund.sol\":4412:5082  function claim(uint campaignId) external {\r... */\n    tag_6:\n      tag_27\n      0x04\n      dup1\n      calldatasize\n      sub\n      dup2\n      add\n      swap1\n      tag_28\n      swap2\n      swap1\n      tag_20\n      jump\t// in\n    tag_28:\n      tag_29\n      jump\t// in\n    tag_27:\n      stop\n        /* \"CrowdFund.sol\":2785:3152  function cancel(uint campaignId) external {\r... */\n    tag_7:\n      tag_30\n      0x04\n      dup1\n      calldatasize\n      sub\n      dup2\n      add\n      swap1\n      tag_31\n      swap2\n      swap1\n      tag_20\n      jump\t// in\n    tag_31:\n      tag_32\n      jump\t// in\n    tag_30:\n      stop\n        /* \"CrowdFund.sol\":3844:4289  function unpledge(uint campaignId, uint unpledgeAmount) external {\r... */\n    tag_8:\n      tag_33\n      0x04\n      dup1\n      calldatasize\n      sub\n      dup2\n      add\n      swap1\n      tag_34\n      swap2\n      swap1\n      tag_35\n      jump\t// in\n    tag_34:\n      tag_36\n      jump\t// in\n    tag_33:\n      stop\n        /* \"CrowdFund.sol\":1010:1072  mapping(uint => mapping(address => uint)) public pledgedAmount */\n    tag_9:\n      tag_37\n      0x04\n      dup1\n      calldatasize\n      sub\n      dup2\n      add\n      swap1\n      tag_38\n      swap2\n      swap1\n      tag_39\n      jump\t// in\n    tag_38:\n      tag_40\n      jump\t// in\n    tag_37:\n      mload(0x40)\n      tag_41\n      swap2\n      swap1\n      tag_17\n      jump\t// in\n    tag_41:\n      mload(0x40)\n      dup1\n      swap2\n      sub\n      swap1\n      return\n        /* \"CrowdFund.sol\":2093:2679  function lunch(uint _goal, uint32 _startAt, uint32 _endAt) external {\r... */\n    tag_10:\n      tag_42\n      0x04\n      dup1\n      calldatasize\n      sub\n      dup2\n      add\n      swap1\n      tag_43\n      swap2\n      swap1\n      tag_44\n      jump\t// in\n    tag_43:\n      tag_45\n      jump\t// in\n    tag_42:\n      stop\n        /* \"CrowdFund.sol\":771:800  IERC20 public immutable token */\n    tag_11:\n      tag_46\n      tag_47\n      jump\t// in\n    tag_46:\n      mload(0x40)\n      tag_48\n      swap2\n      swap1\n      tag_49\n      jump\t// in\n    tag_48:\n      mload(0x40)\n      dup1\n      swap2\n      sub\n      swap1\n      return\n        /* \"CrowdFund.sol\":3246:3746  function pledge(uint campaignId, uint amount) external {\r... */\n    tag_12:\n      tag_50\n      0x04\n      dup1\n      calldatasize\n      sub\n      dup2\n      add\n      swap1\n      tag_51\n      swap2\n      swap1\n      tag_35\n      jump\t// in\n    tag_51:\n      tag_52\n      jump\t// in\n    tag_50:\n      stop\n        /* \"CrowdFund.sol\":1170:1187  uint public count */\n    tag_15:\n      sload(0x02)\n      dup2\n      jump\t// out\n        /* \"CrowdFund.sol\":884:926  mapping(uint => Campaign) public campaigns */\n    tag_21:\n      mstore(0x20, 0x00)\n      dup1\n      0x00\n      mstore\n      keccak256(0x00, 0x40)\n      0x00\n      swap2\n      pop\n      swap1\n      pop\n      dup1\n      0x00\n      add\n      0x00\n      swap1\n      sload\n      swap1\n      0x0100\n      exp\n      swap1\n      div\n      0xffffffffffffffffffffffffffffffffffffffff\n      and\n      swap1\n      dup1\n      0x01\n      add\n      sload\n      swap1\n      dup1\n      0x02\n      add\n      sload\n      swap1\n      dup1\n      0x03\n      add\n      0x00\n      swap1\n      sload\n      swap1\n      0x0100\n      exp\n      swap1\n      div\n      0xffffffff\n      and\n      swap1\n      dup1\n      0x03\n      add\n      0x04\n      swap1\n      sload\n      swap1\n      0x0100\n      exp\n      swap1\n      div\n      0xffffffff\n      and\n      swap1\n      dup1\n      0x03\n      add\n      0x08\n      swap1\n      sload\n      swap1\n      0x0100\n      exp\n      swap1\n      div\n      0xff\n      and\n      swap1\n      pop\n      dup7\n      jump\t// out\n        /* \"CrowdFund.sol\":5205:5714  function refund(uint campaignId) external {\r... */\n    tag_26:\n        /* \"CrowdFund.sol\":5258:5283  Campaign storage campaign */\n      0x00\n        /* \"CrowdFund.sol\":5286:5295  campaigns */\n      dup1\n        /* \"CrowdFund.sol\":5286:5307  campaigns[campaignId] */\n      0x00\n        /* \"CrowdFund.sol\":5296:5306  campaignId */\n      dup4\n        /* \"CrowdFund.sol\":5286:5307  campaigns[campaignId] */\n      dup2\n      mstore\n      0x20\n      add\n      swap1\n      dup2\n      mstore\n      0x20\n      add\n      0x00\n      keccak256\n        /* \"CrowdFund.sol\":5258:5307  Campaign storage campaign = campaigns[campaignId] */\n      swap1\n      pop\n        /* \"CrowdFund.sol\":5343:5358  block.timestamp */\n      timestamp\n        /* \"CrowdFund.sol\":5326:5334  campaign */\n      dup2\n        /* \"CrowdFund.sol\":5326:5340  campaign.endAt */\n      0x03\n      add\n      0x04\n      swap1\n      sload\n      swap1\n      0x0100\n      exp\n      swap1\n      div\n      0xffffffff\n      and\n        /* \"CrowdFund.sol\":5326:5358  campaign.endAt < block.timestamp */\n      0xffffffff\n      and\n      lt\n        /* \"CrowdFund.sol\":5318:5392  require(campaign.endAt < block.timestamp, \"The campaign is not over yet!\") */\n      tag_54\n      jumpi\n      mload(0x40)\n      0x08c379a000000000000000000000000000000000000000000000000000000000\n      dup2\n      mstore\n      0x04\n      add\n      tag_55\n      swap1\n      tag_56\n      jump\t// in\n    tag_55:\n      mload(0x40)\n      dup1\n      swap2\n      sub\n      swap1\n      revert\n    tag_54:\n        /* \"CrowdFund.sol\":5430:5438  campaign */\n      dup1\n        /* \"CrowdFund.sol\":5430:5443  campaign.goal */\n      0x01\n      add\n      sload\n        /* \"CrowdFund.sol\":5411:5419  campaign */\n      dup2\n        /* \"CrowdFund.sol\":5411:5427  campaign.pledged */\n      0x02\n      add\n      sload\n        /* \"CrowdFund.sol\":5411:5443  campaign.pledged < campaign.goal */\n      lt\n        /* \"CrowdFund.sol\":5403:5482  require(campaign.pledged < campaign.goal, \"The campaign has reached its goal!\") */\n      tag_57\n      jumpi\n      mload(0x40)\n      0x08c379a000000000000000000000000000000000000000000000000000000000\n      dup2\n      mstore\n      0x04\n      add\n      tag_58\n      swap1\n      tag_59\n      jump\t// in\n    tag_58:\n      mload(0x40)\n      dup1\n      swap2\n      sub\n      swap1\n      revert\n    tag_57:\n        /* \"CrowdFund.sol\":5495:5507  uint balance */\n      0x00\n        /* \"CrowdFund.sol\":5510:5523  pledgedAmount */\n      0x01\n        /* \"CrowdFund.sol\":5510:5535  pledgedAmount[campaignId] */\n      0x00\n        /* \"CrowdFund.sol\":5524:5534  campaignId */\n      dup5\n        /* \"CrowdFund.sol\":5510:5535  pledgedAmount[campaignId] */\n      dup2\n      mstore\n      0x20\n      add\n      swap1\n      dup2\n      mstore\n      0x20\n      add\n      0x00\n      keccak256\n        /* \"CrowdFund.sol\":5510:5547  pledgedAmount[campaignId][msg.sender] */\n      0x00\n        /* \"CrowdFund.sol\":5536:5546  msg.sender */\n      caller\n        /* \"CrowdFund.sol\":5510:5547  pledgedAmount[campaignId][msg.sender] */\n      0xffffffffffffffffffffffffffffffffffffffff\n      and\n      0xffffffffffffffffffffffffffffffffffffffff\n      and\n      dup2\n      mstore\n      0x20\n      add\n      swap1\n      dup2\n      mstore\n      0x20\n      add\n      0x00\n      keccak256\n      sload\n        /* \"CrowdFund.sol\":5495:5547  uint balance = pledgedAmount[campaignId][msg.sender] */\n      swap1\n      pop\n        /* \"CrowdFund.sol\":5598:5599  0 */\n      0x00\n        /* \"CrowdFund.sol\":5558:5571  pledgedAmount */\n      0x01\n        /* \"CrowdFund.sol\":5558:5583  pledgedAmount[campaignId] */\n      0x00\n        /* \"CrowdFund.sol\":5572:5582  campaignId */\n      dup6\n        /* \"CrowdFund.sol\":5558:5583  pledgedAmount[campaignId] */\n      dup2\n      mstore\n      0x20\n      add\n      swap1\n      dup2\n      mstore\n      0x20\n      add\n      0x00\n      keccak256\n        /* \"CrowdFund.sol\":5558:5595  pledgedAmount[campaignId][msg.sender] */\n      0x00\n        /* \"CrowdFund.sol\":5584:5594  msg.sender */\n      caller\n        /* \"CrowdFund.sol\":5558:5595  pledgedAmount[campaignId][msg.sender] */\n      0xffffffffffffffffffffffffffffffffffffffff\n      and\n      0xffffffffffffffffffffffffffffffffffffffff\n      and\n      dup2\n      mstore\n      0x20\n      add\n      swap1\n      dup2\n      mstore\n      0x20\n      add\n      0x00\n      keccak256\n        /* \"CrowdFund.sol\":5558:5599  pledgedAmount[campaignId][msg.sender] = 0 */\n      dup2\n      swap1\n      sstore\n      pop\n        /* \"CrowdFund.sol\":5610:5615  token */\n      immutable(\"0x8fef2229291b68be841adf029e58b87f39ba144b2d3b0af1760243d0a9bc6a1c\")\n        /* \"CrowdFund.sol\":5610:5624  token.transfer */\n      0xffffffffffffffffffffffffffffffffffffffff\n      and\n      0xa9059cbb\n        /* \"CrowdFund.sol\":5625:5635  msg.sender */\n      caller\n        /* \"CrowdFund.sol\":5637:5644  balance */\n      dup4\n        /* \"CrowdFund.sol\":5610:5645  token.transfer(msg.sender, balance) */\n      mload(0x40)\n      dup4\n      0xffffffff\n      and\n      0xe0\n      shl\n      dup2\n      mstore\n      0x04\n      add\n      tag_60\n      swap3\n      swap2\n      swap1\n      tag_61\n      jump\t// in\n    tag_60:\n      0x20\n      mload(0x40)\n      dup1\n      dup4\n      sub\n      dup2\n      0x00\n      dup8\n      dup1\n      extcodesize\n      iszero\n      dup1\n      iszero\n      tag_62\n      jumpi\n      0x00\n      dup1\n      revert\n    tag_62:\n      pop\n      gas\n      call\n      iszero\n      dup1\n      iszero\n      tag_64\n      jumpi\n      returndatasize\n      0x00\n      dup1\n      returndatacopy\n      revert(0x00, returndatasize)\n    tag_64:\n      pop\n      pop\n      pop\n      pop\n      mload(0x40)\n      returndatasize\n      not(0x1f)\n      0x1f\n      dup3\n      add\n      and\n      dup3\n      add\n      dup1\n      0x40\n      mstore\n      pop\n      dup2\n      add\n      swap1\n      tag_65\n      swap2\n      swap1\n      tag_66\n      jump\t// in\n    tag_65:\n      pop\n        /* \"CrowdFund.sol\":5682:5692  msg.sender */\n      caller\n        /* \"CrowdFund.sol\":5663:5702  Refund(campaignId, msg.sender, balance) */\n      0xffffffffffffffffffffffffffffffffffffffff\n      and\n        /* \"CrowdFund.sol\":5670:5680  campaignId */\n      dup4\n        /* \"CrowdFund.sol\":5663:5702  Refund(campaignId, msg.sender, balance) */\n      0x21e12a7cad0da5928167e1084ea4d5fdf8d9af66657a2543a9ac76a0ca081477\n        /* \"CrowdFund.sol\":5694:5701  balance */\n      dup4\n        /* \"CrowdFund.sol\":5663:5702  Refund(campaignId, msg.sender, balance) */\n      mload(0x40)\n      tag_67\n      swap2\n      swap1\n      tag_17\n      jump\t// in\n    tag_67:\n      mload(0x40)\n      dup1\n      swap2\n      sub\n      swap1\n      log3\n        /* \"CrowdFund.sol\":5247:5714  {\r... */\n      pop\n      pop\n        /* \"CrowdFund.sol\":5205:5714  function refund(uint campaignId) external {\r... */\n      pop\n      jump\t// out\n        /* \"CrowdFund.sol\":4412:5082  function claim(uint campaignId) external {\r... */\n    tag_29:\n        /* \"CrowdFund.sol\":4464:4489  Campaign storage campaign */\n      0x00\n        /* \"CrowdFund.sol\":4492:4501  campaigns */\n      dup1\n        /* \"CrowdFund.sol\":4492:4513  campaigns[campaignId] */\n      0x00\n        /* \"CrowdFund.sol\":4502:4512  campaignId */\n      dup4\n        /* \"CrowdFund.sol\":4492:4513  campaigns[campaignId] */\n      dup2\n      mstore\n      0x20\n      add\n      swap1\n      dup2\n      mstore\n      0x20\n      add\n      0x00\n      keccak256\n        /* \"CrowdFund.sol\":4464:4513  Campaign storage campaign = campaigns[campaignId] */\n      swap1\n      pop\n        /* \"CrowdFund.sol\":4552:4562  msg.sender */\n      caller\n        /* \"CrowdFund.sol\":4532:4562  campaign.creator == msg.sender */\n      0xffffffffffffffffffffffffffffffffffffffff\n      and\n        /* \"CrowdFund.sol\":4532:4540  campaign */\n      dup2\n        /* \"CrowdFund.sol\":4532:4548  campaign.creator */\n      0x00\n      add\n      0x00\n      swap1\n      sload\n      swap1\n      0x0100\n      exp\n      swap1\n      div\n      0xffffffffffffffffffffffffffffffffffffffff\n      and\n        /* \"CrowdFund.sol\":4532:4562  campaign.creator == msg.sender */\n      0xffffffffffffffffffffffffffffffffffffffff\n      and\n      eq\n        /* \"CrowdFund.sol\":4524:4613  require(campaign.creator == msg.sender, \"You must be creator to perform this operation.\") */\n      tag_69\n      jumpi\n      mload(0x40)\n      0x08c379a000000000000000000000000000000000000000000000000000000000\n      dup2\n      mstore\n      0x04\n      add\n      tag_70\n      swap1\n      tag_71\n      jump\t// in\n    tag_70:\n      mload(0x40)\n      dup1\n      swap2\n      sub\n      swap1\n      revert\n    tag_69:\n        /* \"CrowdFund.sol\":4633:4641  campaign */\n      dup1\n        /* \"CrowdFund.sol\":4633:4649  campaign.claimed */\n      0x03\n      add\n      0x08\n      swap1\n      sload\n      swap1\n      0x0100\n      exp\n      swap1\n      div\n      0xff\n      and\n        /* \"CrowdFund.sol\":4632:4649  !campaign.claimed */\n      iszero\n        /* \"CrowdFund.sol\":4624:4683  require(!campaign.claimed, \"The campaign already claimed!\") */\n      tag_72\n      jumpi\n      mload(0x40)\n      0x08c379a000000000000000000000000000000000000000000000000000000000\n      dup2\n      mstore\n      0x04\n      add\n      tag_73\n      swap1\n      tag_74\n      jump\t// in\n    tag_73:\n      mload(0x40)\n      dup1\n      swap2\n      sub\n      swap1\n      revert\n    tag_72:\n        /* \"CrowdFund.sol\":4719:4734  block.timestamp */\n      timestamp\n        /* \"CrowdFund.sol\":4702:4710  campaign */\n      dup2\n        /* \"CrowdFund.sol\":4702:4716  campaign.endAt */\n      0x03\n      add\n      0x04\n      swap1\n      sload\n      swap1\n      0x0100\n      exp\n      swap1\n      div\n      0xffffffff\n      and\n        /* \"CrowdFund.sol\":4702:4734  campaign.endAt < block.timestamp */\n      0xffffffff\n      and\n      lt\n        /* \"CrowdFund.sol\":4694:4768  require(campaign.endAt < block.timestamp, \"The campaign is not over yet!\") */\n      tag_75\n      jumpi\n      mload(0x40)\n      0x08c379a000000000000000000000000000000000000000000000000000000000\n      dup2\n      mstore\n      0x04\n      add\n      tag_76\n      swap1\n      tag_56\n      jump\t// in\n    tag_76:\n      mload(0x40)\n      dup1\n      swap2\n      sub\n      swap1\n      revert\n    tag_75:\n        /* \"CrowdFund.sol\":4807:4815  campaign */\n      dup1\n        /* \"CrowdFund.sol\":4807:4820  campaign.goal */\n      0x01\n      add\n      sload\n        /* \"CrowdFund.sol\":4787:4795  campaign */\n      dup2\n        /* \"CrowdFund.sol\":4787:4803  campaign.pledged */\n      0x02\n      add\n      sload\n        /* \"CrowdFund.sol\":4787:4820  campaign.pledged >= campaign.goal */\n      lt\n      iszero\n        /* \"CrowdFund.sol\":4779:4844  require(campaign.pledged >= campaign.goal, \"Target not reached!\") */\n      tag_77\n      jumpi\n      mload(0x40)\n      0x08c379a000000000000000000000000000000000000000000000000000000000\n      dup2\n      mstore\n      0x04\n      add\n      tag_78\n      swap1\n      tag_79\n      jump\t// in\n    tag_78:\n      mload(0x40)\n      dup1\n      swap2\n      sub\n      swap1\n      revert\n    tag_77:\n        /* \"CrowdFund.sol\":4876:4880  true */\n      0x01\n        /* \"CrowdFund.sol\":4857:4865  campaign */\n      dup2\n        /* \"CrowdFund.sol\":4857:4873  campaign.claimed */\n      0x03\n      add\n      0x08\n        /* \"CrowdFund.sol\":4857:4880  campaign.claimed = true */\n      0x0100\n      exp\n      dup2\n      sload\n      dup2\n      0xff\n      mul\n      not\n      and\n      swap1\n      dup4\n      iszero\n      iszero\n      mul\n      or\n      swap1\n      sstore\n      pop\n        /* \"CrowdFund.sol\":4891:4896  token */\n      immutable(\"0x8fef2229291b68be841adf029e58b87f39ba144b2d3b0af1760243d0a9bc6a1c\")\n        /* \"CrowdFund.sol\":4891:4905  token.transfer */\n      0xffffffffffffffffffffffffffffffffffffffff\n      and\n      0xa9059cbb\n        /* \"CrowdFund.sol\":4906:4916  msg.sender */\n      caller\n        /* \"CrowdFund.sol\":4917:4925  campaign */\n      dup4\n        /* \"CrowdFund.sol\":4917:4933  campaign.pledged */\n      0x02\n      add\n      sload\n        /* \"CrowdFund.sol\":4891:4934  token.transfer(msg.sender,campaign.pledged) */\n      mload(0x40)\n      dup4\n      0xffffffff\n      and\n      0xe0\n      shl\n      dup2\n      mstore\n      0x04\n      add\n      tag_80\n      swap3\n      swap2\n      swap1\n      tag_61\n      jump\t// in\n    tag_80:\n      0x20\n      mload(0x40)\n      dup1\n      dup4\n      sub\n      dup2\n      0x00\n      dup8\n      dup1\n      extcodesize\n      iszero\n      dup1\n      iszero\n      tag_81\n      jumpi\n      0x00\n      dup1\n      revert\n    tag_81:\n      pop\n      gas\n      call\n      iszero\n      dup1\n      iszero\n      tag_83\n      jumpi\n      returndatasize\n      0x00\n      dup1\n      returndatacopy\n      revert(0x00, returndatasize)\n    tag_83:\n      pop\n      pop\n      pop\n      pop\n      mload(0x40)\n      returndatasize\n      not(0x1f)\n      0x1f\n      dup3\n      add\n      and\n      dup3\n      add\n      dup1\n      0x40\n      mstore\n      pop\n      dup2\n      add\n      swap1\n      tag_84\n      swap2\n      swap1\n      tag_66\n      jump\t// in\n    tag_84:\n      pop\n        /* \"CrowdFund.sol\":5057:5074  Claim(campaignId) */\n      0x7bb2b3c10797baccb6f8c4791f1edd6ca2f0d028ee0eda64b01a9a57e3a653f7\n        /* \"CrowdFund.sol\":5063:5073  campaignId */\n      dup3\n        /* \"CrowdFund.sol\":5057:5074  Claim(campaignId) */\n      mload(0x40)\n      tag_85\n      swap2\n      swap1\n      tag_17\n      jump\t// in\n    tag_85:\n      mload(0x40)\n      dup1\n      swap2\n      sub\n      swap1\n      log1\n        /* \"CrowdFund.sol\":4453:5082  {\r... */\n      pop\n        /* \"CrowdFund.sol\":4412:5082  function claim(uint campaignId) external {\r... */\n      pop\n      jump\t// out\n        /* \"CrowdFund.sol\":2785:3152  function cancel(uint campaignId) external {\r... */\n    tag_32:\n        /* \"CrowdFund.sol\":2838:2862  Campaign memory campaign */\n      0x00\n        /* \"CrowdFund.sol\":2865:2874  campaigns */\n      dup1\n        /* \"CrowdFund.sol\":2865:2886  campaigns[campaignId] */\n      0x00\n        /* \"CrowdFund.sol\":2875:2885  campaignId */\n      dup4\n        /* \"CrowdFund.sol\":2865:2886  campaigns[campaignId] */\n      dup2\n      mstore\n      0x20\n      add\n      swap1\n      dup2\n      mstore\n      0x20\n      add\n      0x00\n      keccak256\n        /* \"CrowdFund.sol\":2838:2886  Campaign memory campaign = campaigns[campaignId] */\n      mload(0x40)\n      dup1\n      0xc0\n      add\n      0x40\n      mstore\n      swap1\n      dup2\n      0x00\n      dup3\n      add\n      0x00\n      swap1\n      sload\n      swap1\n      0x0100\n      exp\n      swap1\n      div\n      0xffffffffffffffffffffffffffffffffffffffff\n      and\n      0xffffffffffffffffffffffffffffffffffffffff\n      and\n      0xffffffffffffffffffffffffffffffffffffffff\n      and\n      dup2\n      mstore\n      0x20\n      add\n      0x01\n      dup3\n      add\n      sload\n      dup2\n      mstore\n      0x20\n      add\n      0x02\n      dup3\n      add\n      sload\n      dup2\n      mstore\n      0x20\n      add\n      0x03\n      dup3\n      add\n      0x00\n      swap1\n      sload\n      swap1\n      0x0100\n      exp\n      swap1\n      div\n      0xffffffff\n      and\n      0xffffffff\n      and\n      0xffffffff\n      and\n      dup2\n      mstore\n      0x20\n      add\n      0x03\n      dup3\n      add\n      0x04\n      swap1\n      sload\n      swap1\n      0x0100\n      exp\n      swap1\n      div\n      0xffffffff\n      and\n      0xffffffff\n      and\n      0xffffffff\n      and\n      dup2\n      mstore\n      0x20\n      add\n      0x03\n      dup3\n      add\n      0x08\n      swap1\n      sload\n      swap1\n      0x0100\n      exp\n      swap1\n      div\n      0xff\n      and\n      iszero\n      iszero\n      iszero\n      iszero\n      dup2\n      mstore\n      pop\n      pop\n      swap1\n      pop\n        /* \"CrowdFund.sol\":2919:2927  campaign */\n      dup1\n        /* \"CrowdFund.sol\":2919:2935  campaign.creator */\n      0x00\n      add\n      mload\n        /* \"CrowdFund.sol\":2905:2935  msg.sender == campaign.creator */\n      0xffffffffffffffffffffffffffffffffffffffff\n      and\n        /* \"CrowdFund.sol\":2905:2915  msg.sender */\n      caller\n        /* \"CrowdFund.sol\":2905:2935  msg.sender == campaign.creator */\n      0xffffffffffffffffffffffffffffffffffffffff\n      and\n      eq\n        /* \"CrowdFund.sol\":2897:2986  require(msg.sender == campaign.creator, \"You must be creator to perform this operation.\") */\n      tag_87\n      jumpi\n      mload(0x40)\n      0x08c379a000000000000000000000000000000000000000000000000000000000\n      dup2\n      mstore\n      0x04\n      add\n      tag_88\n      swap1\n      tag_71\n      jump\t// in\n    tag_88:\n      mload(0x40)\n      dup1\n      swap2\n      sub\n      swap1\n      revert\n    tag_87:\n        /* \"CrowdFund.sol\":3023:3031  campaign */\n      dup1\n        /* \"CrowdFund.sol\":3023:3039  campaign.startAt */\n      0x60\n      add\n      mload\n        /* \"CrowdFund.sol\":3005:3039  block.timestamp < campaign.startAt */\n      0xffffffff\n      and\n        /* \"CrowdFund.sol\":3005:3020  block.timestamp */\n      timestamp\n        /* \"CrowdFund.sol\":3005:3039  block.timestamp < campaign.startAt */\n      lt\n        /* \"CrowdFund.sol\":2997:3069  require(block.timestamp < campaign.startAt, \"Campaign already started!\") */\n      tag_89\n      jumpi\n      mload(0x40)\n      0x08c379a000000000000000000000000000000000000000000000000000000000\n      dup2\n      mstore\n      0x04\n      add\n      tag_90\n      swap1\n      tag_91\n      jump\t// in\n    tag_90:\n      mload(0x40)\n      dup1\n      swap2\n      sub\n      swap1\n      revert\n    tag_89:\n        /* \"CrowdFund.sol\":3087:3096  campaigns */\n      0x00\n        /* \"CrowdFund.sol\":3087:3108  campaigns[campaignId] */\n      dup1\n        /* \"CrowdFund.sol\":3097:3107  campaignId */\n      dup4\n        /* \"CrowdFund.sol\":3087:3108  campaigns[campaignId] */\n      dup2\n      mstore\n      0x20\n      add\n      swap1\n      dup2\n      mstore\n      0x20\n      add\n      0x00\n      keccak256\n      0x00\n        /* \"CrowdFund.sol\":3080:3108  delete campaigns[campaignId] */\n      dup1\n      dup3\n      add\n      exp(0x0100, 0x00)\n      dup2\n      sload\n      swap1\n      0xffffffffffffffffffffffffffffffffffffffff\n      mul\n      not\n      and\n      swap1\n      sstore\n      0x01\n      dup3\n      add\n      0x00\n      swap1\n      sstore\n      0x02\n      dup3\n      add\n      0x00\n      swap1\n      sstore\n      0x03\n      dup3\n      add\n      exp(0x0100, 0x00)\n      dup2\n      sload\n      swap1\n      0xffffffff\n      mul\n      not\n      and\n      swap1\n      sstore\n      0x03\n      dup3\n      add\n      exp(0x0100, 0x04)\n      dup2\n      sload\n      swap1\n      0xffffffff\n      mul\n      not\n      and\n      swap1\n      sstore\n      0x03\n      dup3\n      add\n      exp(0x0100, 0x08)\n      dup2\n      sload\n      swap1\n      0xff\n      mul\n      not\n      and\n      swap1\n      sstore\n      pop\n      pop\n        /* \"CrowdFund.sol\":3126:3144  Cancel(campaignId) */\n      0x8bf30e7ff26833413be5f69e1d373744864d600b664204b4a2f9844a8eedb9ed\n        /* \"CrowdFund.sol\":3133:3143  campaignId */\n      dup3\n        /* \"CrowdFund.sol\":3126:3144  Cancel(campaignId) */\n      mload(0x40)\n      tag_92\n      swap2\n      swap1\n      tag_17\n      jump\t// in\n    tag_92:\n      mload(0x40)\n      dup1\n      swap2\n      sub\n      swap1\n      log1\n        /* \"CrowdFund.sol\":2827:3152  {\r... */\n      pop\n        /* \"CrowdFund.sol\":2785:3152  function cancel(uint campaignId) external {\r... */\n      pop\n      jump\t// out\n        /* \"CrowdFund.sol\":3844:4289  function unpledge(uint campaignId, uint unpledgeAmount) external {\r... */\n    tag_36:\n        /* \"CrowdFund.sol\":3920:3945  Campaign storage campaign */\n      0x00\n        /* \"CrowdFund.sol\":3948:3957  campaigns */\n      dup1\n        /* \"CrowdFund.sol\":3948:3969  campaigns[campaignId] */\n      0x00\n        /* \"CrowdFund.sol\":3958:3968  campaignId */\n      dup5\n        /* \"CrowdFund.sol\":3948:3969  campaigns[campaignId] */\n      dup2\n      mstore\n      0x20\n      add\n      swap1\n      dup2\n      mstore\n      0x20\n      add\n      0x00\n      keccak256\n        /* \"CrowdFund.sol\":3920:3969  Campaign storage campaign = campaigns[campaignId] */\n      swap1\n      pop\n        /* \"CrowdFund.sol\":4006:4021  block.timestamp */\n      timestamp\n        /* \"CrowdFund.sol\":3988:3996  campaign */\n      dup2\n        /* \"CrowdFund.sol\":3988:4002  campaign.endAt */\n      0x03\n      add\n      0x04\n      swap1\n      sload\n      swap1\n      0x0100\n      exp\n      swap1\n      div\n      0xffffffff\n      and\n        /* \"CrowdFund.sol\":3988:4021  campaign.endAt >= block.timestamp */\n      0xffffffff\n      and\n      lt\n      iszero\n        /* \"CrowdFund.sol\":3980:4049  require(campaign.endAt >= block.timestamp, \"Campaign already ended!\") */\n      tag_94\n      jumpi\n      mload(0x40)\n      0x08c379a000000000000000000000000000000000000000000000000000000000\n      dup2\n      mstore\n      0x04\n      add\n      tag_95\n      swap1\n      tag_96\n      jump\t// in\n    tag_95:\n      mload(0x40)\n      dup1\n      swap2\n      sub\n      swap1\n      revert\n    tag_94:\n        /* \"CrowdFund.sol\":4082:4096  unpledgeAmount */\n      dup2\n        /* \"CrowdFund.sol\":4062:4070  campaign */\n      dup2\n        /* \"CrowdFund.sol\":4062:4078  campaign.pledged */\n      0x02\n      add\n      0x00\n        /* \"CrowdFund.sol\":4062:4096  campaign.pledged -= unpledgeAmount */\n      dup3\n      dup3\n      sload\n      tag_97\n      swap2\n      swap1\n      tag_98\n      jump\t// in\n    tag_97:\n      swap3\n      pop\n      pop\n      dup2\n      swap1\n      sstore\n      pop\n        /* \"CrowdFund.sol\":4148:4162  unpledgeAmount */\n      dup2\n        /* \"CrowdFund.sol\":4107:4120  pledgedAmount */\n      0x01\n        /* \"CrowdFund.sol\":4107:4132  pledgedAmount[campaignId] */\n      0x00\n        /* \"CrowdFund.sol\":4121:4131  campaignId */\n      dup6\n        /* \"CrowdFund.sol\":4107:4132  pledgedAmount[campaignId] */\n      dup2\n      mstore\n      0x20\n      add\n      swap1\n      dup2\n      mstore\n      0x20\n      add\n      0x00\n      keccak256\n        /* \"CrowdFund.sol\":4107:4144  pledgedAmount[campaignId][msg.sender] */\n      0x00\n        /* \"CrowdFund.sol\":4133:4143  msg.sender */\n      caller\n        /* \"CrowdFund.sol\":4107:4144  pledgedAmount[campaignId][msg.sender] */\n      0xffffffffffffffffffffffffffffffffffffffff\n      and\n      0xffffffffffffffffffffffffffffffffffffffff\n      and\n      dup2\n      mstore\n      0x20\n      add\n      swap1\n      dup2\n      mstore\n      0x20\n      add\n      0x00\n      keccak256\n      0x00\n        /* \"CrowdFund.sol\":4107:4162  pledgedAmount[campaignId][msg.sender] -= unpledgeAmount */\n      dup3\n      dup3\n      sload\n      tag_99\n      swap2\n      swap1\n      tag_98\n      jump\t// in\n    tag_99:\n      swap3\n      pop\n      pop\n      dup2\n      swap1\n      sstore\n      pop\n        /* \"CrowdFund.sol\":4173:4178  token */\n      immutable(\"0x8fef2229291b68be841adf029e58b87f39ba144b2d3b0af1760243d0a9bc6a1c\")\n        /* \"CrowdFund.sol\":4173:4187  token.transfer */\n      0xffffffffffffffffffffffffffffffffffffffff\n      and\n      0xa9059cbb\n        /* \"CrowdFund.sol\":4188:4198  msg.sender */\n      caller\n        /* \"CrowdFund.sol\":4200:4214  unpledgeAmount */\n      dup5\n        /* \"CrowdFund.sol\":4173:4215  token.transfer(msg.sender, unpledgeAmount) */\n      mload(0x40)\n      dup4\n      0xffffffff\n      and\n      0xe0\n      shl\n      dup2\n      mstore\n      0x04\n      add\n      tag_100\n      swap3\n      swap2\n      swap1\n      tag_61\n      jump\t// in\n    tag_100:\n      0x20\n      mload(0x40)\n      dup1\n      dup4\n      sub\n      dup2\n      0x00\n      dup8\n      dup1\n      extcodesize\n      iszero\n      dup1\n      iszero\n      tag_101\n      jumpi\n      0x00\n      dup1\n      revert\n    tag_101:\n      pop\n      gas\n      call\n      iszero\n      dup1\n      iszero\n      tag_103\n      jumpi\n      returndatasize\n      0x00\n      dup1\n      returndatacopy\n      revert(0x00, returndatasize)\n    tag_103:\n      pop\n      pop\n      pop\n      pop\n      mload(0x40)\n      returndatasize\n      not(0x1f)\n      0x1f\n      dup3\n      add\n      and\n      dup3\n      add\n      dup1\n      0x40\n      mstore\n      pop\n      dup2\n      add\n      swap1\n      tag_104\n      swap2\n      swap1\n      tag_66\n      jump\t// in\n    tag_104:\n      pop\n        /* \"CrowdFund.sol\":4254:4264  msg.sender */\n      caller\n        /* \"CrowdFund.sol\":4233:4281  Unpledge(campaignId, msg.sender, unpledgeAmount) */\n      0xffffffffffffffffffffffffffffffffffffffff\n      and\n        /* \"CrowdFund.sol\":4242:4252  campaignId */\n      dup4\n        /* \"CrowdFund.sol\":4233:4281  Unpledge(campaignId, msg.sender, unpledgeAmount) */\n      0x2eeeab891b26a214d1b25749f88a406bdea852bd8c9bfda977e0ef8114c180ba\n        /* \"CrowdFund.sol\":4266:4280  unpledgeAmount */\n      dup5\n        /* \"CrowdFund.sol\":4233:4281  Unpledge(campaignId, msg.sender, unpledgeAmount) */\n      mload(0x40)\n      tag_105\n      swap2\n      swap1\n      tag_17\n      jump\t// in\n    tag_105:\n      mload(0x40)\n      dup1\n      swap2\n      sub\n      swap1\n      log3\n        /* \"CrowdFund.sol\":3909:4289  {\r... */\n      pop\n        /* \"CrowdFund.sol\":3844:4289  function unpledge(uint campaignId, uint unpledgeAmount) external {\r... */\n      pop\n      pop\n      jump\t// out\n        /* \"CrowdFund.sol\":1010:1072  mapping(uint => mapping(address => uint)) public pledgedAmount */\n    tag_40:\n      mstore(0x20, 0x01)\n      dup2\n      0x00\n      mstore\n      mstore(0x20, keccak256(0x00, 0x40))\n      dup1\n      0x00\n      mstore\n      keccak256(0x00, 0x40)\n      0x00\n      swap2\n      pop\n      swap2\n      pop\n      pop\n      sload\n      dup2\n      jump\t// out\n        /* \"CrowdFund.sol\":2093:2679  function lunch(uint _goal, uint32 _startAt, uint32 _endAt) external {\r... */\n    tag_45:\n        /* \"CrowdFund.sol\":2192:2207  block.timestamp */\n      timestamp\n        /* \"CrowdFund.sol\":2180:2188  _startAt */\n      dup3\n        /* \"CrowdFund.sol\":2180:2207  _startAt >= block.timestamp */\n      0xffffffff\n      and\n      lt\n      iszero\n        /* \"CrowdFund.sol\":2172:2226  require(_startAt >= block.timestamp, \"start at < now\") */\n      tag_107\n      jumpi\n      mload(0x40)\n      0x08c379a000000000000000000000000000000000000000000000000000000000\n      dup2\n      mstore\n      0x04\n      add\n      tag_108\n      swap1\n      tag_109\n      jump\t// in\n    tag_108:\n      mload(0x40)\n      dup1\n      swap2\n      sub\n      swap1\n      revert\n    tag_107:\n        /* \"CrowdFund.sol\":2257:2263  _endAt */\n      dup1\n        /* \"CrowdFund.sol\":2245:2263  _startAt <= _endAt */\n      0xffffffff\n      and\n        /* \"CrowdFund.sol\":2245:2253  _startAt */\n      dup3\n        /* \"CrowdFund.sol\":2245:2263  _startAt <= _endAt */\n      0xffffffff\n      and\n      gt\n      iszero\n        /* \"CrowdFund.sol\":2237:2282  require(_startAt <= _endAt, \"start at < now\") */\n      tag_110\n      jumpi\n      mload(0x40)\n      0x08c379a000000000000000000000000000000000000000000000000000000000\n      dup2\n      mstore\n      0x04\n      add\n      tag_111\n      swap1\n      tag_109\n      jump\t// in\n    tag_111:\n      mload(0x40)\n      dup1\n      swap2\n      sub\n      swap1\n      revert\n    tag_110:\n        /* \"CrowdFund.sol\":2329:2336  90 days */\n      0x76a700\n        /* \"CrowdFund.sol\":2311:2326  block.timestamp */\n      timestamp\n        /* \"CrowdFund.sol\":2311:2336  block.timestamp + 90 days */\n      tag_112\n      swap2\n      swap1\n      tag_113\n      jump\t// in\n    tag_112:\n        /* \"CrowdFund.sol\":2301:2307  _endAt */\n      dup2\n        /* \"CrowdFund.sol\":2301:2336  _endAt <= block.timestamp + 90 days */\n      0xffffffff\n      and\n      gt\n      iszero\n        /* \"CrowdFund.sol\":2293:2355  require(_endAt <= block.timestamp + 90 days, \"start at < now\") */\n      tag_114\n      jumpi\n      mload(0x40)\n      0x08c379a000000000000000000000000000000000000000000000000000000000\n      dup2\n      mstore\n      0x04\n      add\n      tag_115\n      swap1\n      tag_109\n      jump\t// in\n    tag_115:\n      mload(0x40)\n      dup1\n      swap2\n      sub\n      swap1\n      revert\n    tag_114:\n        /* \"CrowdFund.sol\":2377:2378  1 */\n      0x01\n        /* \"CrowdFund.sol\":2368:2373  count */\n      0x02\n      0x00\n        /* \"CrowdFund.sol\":2368:2378  count += 1 */\n      dup3\n      dup3\n      sload\n      tag_116\n      swap2\n      swap1\n      tag_113\n      jump\t// in\n    tag_116:\n      swap3\n      pop\n      pop\n      dup2\n      swap1\n      sstore\n      pop\n        /* \"CrowdFund.sol\":2408:2603  Campaign({\r... */\n      mload(0x40)\n      dup1\n      0xc0\n      add\n      0x40\n      mstore\n      dup1\n        /* \"CrowdFund.sol\":2441:2451  msg.sender */\n      caller\n        /* \"CrowdFund.sol\":2408:2603  Campaign({\r... */\n      0xffffffffffffffffffffffffffffffffffffffff\n      and\n      dup2\n      mstore\n      0x20\n      add\n        /* \"CrowdFund.sol\":2497:2502  _goal */\n      dup5\n        /* \"CrowdFund.sol\":2408:2603  Campaign({\r... */\n      dup2\n      mstore\n      0x20\n      add\n        /* \"CrowdFund.sol\":2475:2476  0 */\n      0x00\n        /* \"CrowdFund.sol\":2408:2603  Campaign({\r... */\n      dup2\n      mstore\n      0x20\n      add\n        /* \"CrowdFund.sol\":2526:2534  _startAt */\n      dup4\n        /* \"CrowdFund.sol\":2408:2603  Campaign({\r... */\n      0xffffffff\n      and\n      dup2\n      mstore\n      0x20\n      add\n        /* \"CrowdFund.sol\":2556:2562  _endAt */\n      dup3\n        /* \"CrowdFund.sol\":2408:2603  Campaign({\r... */\n      0xffffffff\n      and\n      dup2\n      mstore\n      0x20\n      add\n        /* \"CrowdFund.sol\":2586:2591  false */\n      0x00\n        /* \"CrowdFund.sol\":2408:2603  Campaign({\r... */\n      iszero\n      iszero\n      dup2\n      mstore\n      pop\n        /* \"CrowdFund.sol\":2389:2398  campaigns */\n      0x00\n        /* \"CrowdFund.sol\":2389:2405  campaigns[count] */\n      dup1\n        /* \"CrowdFund.sol\":2399:2404  count */\n      sload(0x02)\n        /* \"CrowdFund.sol\":2389:2405  campaigns[count] */\n      dup2\n      mstore\n      0x20\n      add\n      swap1\n      dup2\n      mstore\n      0x20\n      add\n      0x00\n      keccak256\n        /* \"CrowdFund.sol\":2389:2603  campaigns[count] = Campaign({\r... */\n      0x00\n      dup3\n      add\n      mload\n      dup2\n      0x00\n      add\n      exp(0x0100, 0x00)\n      dup2\n      sload\n      dup2\n      0xffffffffffffffffffffffffffffffffffffffff\n      mul\n      not\n      and\n      swap1\n      dup4\n      0xffffffffffffffffffffffffffffffffffffffff\n      and\n      mul\n      or\n      swap1\n      sstore\n      pop\n      0x20\n      dup3\n      add\n      mload\n      dup2\n      0x01\n      add\n      sstore\n      0x40\n      dup3\n      add\n      mload\n      dup2\n      0x02\n      add\n      sstore\n      0x60\n      dup3\n      add\n      mload\n      dup2\n      0x03\n      add\n      exp(0x0100, 0x00)\n      dup2\n      sload\n      dup2\n      0xffffffff\n      mul\n      not\n      and\n      swap1\n      dup4\n      0xffffffff\n      and\n      mul\n      or\n      swap1\n      sstore\n      pop\n      0x80\n      dup3\n      add\n      mload\n      dup2\n      0x03\n      add\n      exp(0x0100, 0x04)\n      dup2\n      sload\n      dup2\n      0xffffffff\n      mul\n      not\n      and\n      swap1\n      dup4\n      0xffffffff\n      and\n      mul\n      or\n      swap1\n      sstore\n      pop\n      0xa0\n      dup3\n      add\n      mload\n      dup2\n      0x03\n      add\n      exp(0x0100, 0x08)\n      dup2\n      sload\n      dup2\n      0xff\n      mul\n      not\n      and\n      swap1\n      dup4\n      iszero\n      iszero\n      mul\n      or\n      swap1\n      sstore\n      pop\n      swap1\n      pop\n      pop\n        /* \"CrowdFund.sol\":2635:2645  msg.sender */\n      caller\n        /* \"CrowdFund.sol\":2621:2671  Launch(count, msg.sender, _goal, _startAt, _endAt) */\n      0xffffffffffffffffffffffffffffffffffffffff\n      and\n      0x0601cd0d650b473037e838a2696d41e654433d065b3f56b28d1d3302e44a304f\n        /* \"CrowdFund.sol\":2628:2633  count */\n      sload(0x02)\n        /* \"CrowdFund.sol\":2647:2652  _goal */\n      dup6\n        /* \"CrowdFund.sol\":2654:2662  _startAt */\n      dup6\n        /* \"CrowdFund.sol\":2664:2670  _endAt */\n      dup6\n        /* \"CrowdFund.sol\":2621:2671  Launch(count, msg.sender, _goal, _startAt, _endAt) */\n      mload(0x40)\n      tag_117\n      swap5\n      swap4\n      swap3\n      swap2\n      swap1\n      tag_118\n      jump\t// in\n    tag_117:\n      mload(0x40)\n      dup1\n      swap2\n      sub\n      swap1\n      log2\n        /* \"CrowdFund.sol\":2093:2679  function lunch(uint _goal, uint32 _startAt, uint32 _endAt) external {\r... */\n      pop\n      pop\n      pop\n      jump\t// out\n        /* \"CrowdFund.sol\":771:800  IERC20 public immutable token */\n    tag_47:\n      immutable(\"0x8fef2229291b68be841adf029e58b87f39ba144b2d3b0af1760243d0a9bc6a1c\")\n      dup2\n      jump\t// out\n        /* \"CrowdFund.sol\":3246:3746  function pledge(uint campaignId, uint amount) external {\r... */\n    tag_52:\n        /* \"CrowdFund.sol\":3312:3337  Campaign storage campaign */\n      0x00\n        /* \"CrowdFund.sol\":3340:3349  campaigns */\n      dup1\n        /* \"CrowdFund.sol\":3340:3361  campaigns[campaignId] */\n      0x00\n        /* \"CrowdFund.sol\":3350:3360  campaignId */\n      dup5\n        /* \"CrowdFund.sol\":3340:3361  campaigns[campaignId] */\n      dup2\n      mstore\n      0x20\n      add\n      swap1\n      dup2\n      mstore\n      0x20\n      add\n      0x00\n      keccak256\n        /* \"CrowdFund.sol\":3312:3361  Campaign storage campaign = campaigns[campaignId] */\n      swap1\n      pop\n        /* \"CrowdFund.sol\":3400:3415  block.timestamp */\n      timestamp\n        /* \"CrowdFund.sol\":3380:3388  campaign */\n      dup2\n        /* \"CrowdFund.sol\":3380:3396  campaign.startAt */\n      0x03\n      add\n      0x00\n      swap1\n      sload\n      swap1\n      0x0100\n      exp\n      swap1\n      div\n      0xffffffff\n      and\n        /* \"CrowdFund.sol\":3380:3415  campaign.startAt <= block.timestamp */\n      0xffffffff\n      and\n      gt\n      iszero\n        /* \"CrowdFund.sol\":3372:3441  require(campaign.startAt <= block.timestamp, \"Campaign not started!\") */\n      tag_120\n      jumpi\n      mload(0x40)\n      0x08c379a000000000000000000000000000000000000000000000000000000000\n      dup2\n      mstore\n      0x04\n      add\n      tag_121\n      swap1\n      tag_122\n      jump\t// in\n    tag_121:\n      mload(0x40)\n      dup1\n      swap2\n      sub\n      swap1\n      revert\n    tag_120:\n        /* \"CrowdFund.sol\":3478:3493  block.timestamp */\n      timestamp\n        /* \"CrowdFund.sol\":3460:3468  campaign */\n      dup2\n        /* \"CrowdFund.sol\":3460:3474  campaign.endAt */\n      0x03\n      add\n      0x04\n      swap1\n      sload\n      swap1\n      0x0100\n      exp\n      swap1\n      div\n      0xffffffff\n      and\n        /* \"CrowdFund.sol\":3460:3493  campaign.endAt >= block.timestamp */\n      0xffffffff\n      and\n      lt\n      iszero\n        /* \"CrowdFund.sol\":3452:3521  require(campaign.endAt >= block.timestamp, \"Campaign already ended!\") */\n      tag_123\n      jumpi\n      mload(0x40)\n      0x08c379a000000000000000000000000000000000000000000000000000000000\n      dup2\n      mstore\n      0x04\n      add\n      tag_124\n      swap1\n      tag_96\n      jump\t// in\n    tag_124:\n      mload(0x40)\n      dup1\n      swap2\n      sub\n      swap1\n      revert\n    tag_123:\n        /* \"CrowdFund.sol\":3552:3558  amount */\n      dup2\n        /* \"CrowdFund.sol\":3532:3540  campaign */\n      dup2\n        /* \"CrowdFund.sol\":3532:3548  campaign.pledged */\n      0x02\n      add\n      0x00\n        /* \"CrowdFund.sol\":3532:3558  campaign.pledged += amount */\n      dup3\n      dup3\n      sload\n      tag_125\n      swap2\n      swap1\n      tag_113\n      jump\t// in\n    tag_125:\n      swap3\n      pop\n      pop\n      dup2\n      swap1\n      sstore\n      pop\n        /* \"CrowdFund.sol\":3612:3618  amount */\n      dup2\n        /* \"CrowdFund.sol\":3571:3584  pledgedAmount */\n      0x01\n        /* \"CrowdFund.sol\":3571:3596  pledgedAmount[campaignId] */\n      0x00\n        /* \"CrowdFund.sol\":3585:3595  campaignId */\n      dup6\n        /* \"CrowdFund.sol\":3571:3596  pledgedAmount[campaignId] */\n      dup2\n      mstore\n      0x20\n      add\n      swap1\n      dup2\n      mstore\n      0x20\n      add\n      0x00\n      keccak256\n        /* \"CrowdFund.sol\":3571:3608  pledgedAmount[campaignId][msg.sender] */\n      0x00\n        /* \"CrowdFund.sol\":3597:3607  msg.sender */\n      caller\n        /* \"CrowdFund.sol\":3571:3608  pledgedAmount[campaignId][msg.sender] */\n      0xffffffffffffffffffffffffffffffffffffffff\n      and\n      0xffffffffffffffffffffffffffffffffffffffff\n      and\n      dup2\n      mstore\n      0x20\n      add\n      swap1\n      dup2\n      mstore\n      0x20\n      add\n      0x00\n      keccak256\n      0x00\n        /* \"CrowdFund.sol\":3571:3618  pledgedAmount[campaignId][msg.sender] += amount */\n      dup3\n      dup3\n      sload\n      tag_126\n      swap2\n      swap1\n      tag_113\n      jump\t// in\n    tag_126:\n      swap3\n      pop\n      pop\n      dup2\n      swap1\n      sstore\n      pop\n        /* \"CrowdFund.sol\":3629:3634  token */\n      immutable(\"0x8fef2229291b68be841adf029e58b87f39ba144b2d3b0af1760243d0a9bc6a1c\")\n        /* \"CrowdFund.sol\":3629:3647  token.transferFrom */\n      0xffffffffffffffffffffffffffffffffffffffff\n      and\n      0x23b872dd\n        /* \"CrowdFund.sol\":3648:3658  msg.sender */\n      caller\n        /* \"CrowdFund.sol\":3668:3672  this */\n      address\n        /* \"CrowdFund.sol\":3675:3681  amount */\n      dup6\n        /* \"CrowdFund.sol\":3629:3682  token.transferFrom(msg.sender, address(this), amount) */\n      mload(0x40)\n      dup5\n      0xffffffff\n      and\n      0xe0\n      shl\n      dup2\n      mstore\n      0x04\n      add\n      tag_127\n      swap4\n      swap3\n      swap2\n      swap1\n      tag_128\n      jump\t// in\n    tag_127:\n      0x20\n      mload(0x40)\n      dup1\n      dup4\n      sub\n      dup2\n      0x00\n      dup8\n      dup1\n      extcodesize\n      iszero\n      dup1\n      iszero\n      tag_129\n      jumpi\n      0x00\n      dup1\n      revert\n    tag_129:\n      pop\n      gas\n      call\n      iszero\n      dup1\n      iszero\n      tag_131\n      jumpi\n      returndatasize\n      0x00\n      dup1\n      returndatacopy\n      revert(0x00, returndatasize)\n    tag_131:\n      pop\n      pop\n      pop\n      pop\n      mload(0x40)\n      returndatasize\n      not(0x1f)\n      0x1f\n      dup3\n      add\n      and\n      dup3\n      add\n      dup1\n      0x40\n      mstore\n      pop\n      dup2\n      add\n      swap1\n      tag_132\n      swap2\n      swap1\n      tag_66\n      jump\t// in\n    tag_132:\n      pop\n        /* \"CrowdFund.sol\":3719:3729  msg.sender */\n      caller\n        /* \"CrowdFund.sol\":3700:3738  Pledge(campaignId, msg.sender, amount) */\n      0xffffffffffffffffffffffffffffffffffffffff\n      and\n        /* \"CrowdFund.sol\":3707:3717  campaignId */\n      dup4\n        /* \"CrowdFund.sol\":3700:3738  Pledge(campaignId, msg.sender, amount) */\n      0x06bdb975df800a73232998e71ed585d536222f1dfeaa622d7f62a23ada686c82\n        /* \"CrowdFund.sol\":3731:3737  amount */\n      dup5\n        /* \"CrowdFund.sol\":3700:3738  Pledge(campaignId, msg.sender, amount) */\n      mload(0x40)\n      tag_133\n      swap2\n      swap1\n      tag_17\n      jump\t// in\n    tag_133:\n      mload(0x40)\n      dup1\n      swap2\n      sub\n      swap1\n      log3\n        /* \"CrowdFund.sol\":3301:3746  {\r... */\n      pop\n        /* \"CrowdFund.sol\":3246:3746  function pledge(uint campaignId, uint amount) external {\r... */\n      pop\n      pop\n      jump\t// out\n        /* \"#utility.yul\":7:146   */\n    tag_135:\n        /* \"#utility.yul\":53:58   */\n      0x00\n        /* \"#utility.yul\":91:97   */\n      dup2\n        /* \"#utility.yul\":78:98   */\n      calldataload\n        /* \"#utility.yul\":69:98   */\n      swap1\n      pop\n        /* \"#utility.yul\":107:140   */\n      tag_137\n        /* \"#utility.yul\":134:139   */\n      dup2\n        /* \"#utility.yul\":107:140   */\n      tag_138\n      jump\t// in\n    tag_137:\n        /* \"#utility.yul\":7:146   */\n      swap3\n      swap2\n      pop\n      pop\n      jump\t// out\n        /* \"#utility.yul\":152:289   */\n    tag_139:\n        /* \"#utility.yul\":206:211   */\n      0x00\n        /* \"#utility.yul\":237:243   */\n      dup2\n        /* \"#utility.yul\":231:244   */\n      mload\n        /* \"#utility.yul\":222:244   */\n      swap1\n      pop\n        /* \"#utility.yul\":253:283   */\n      tag_141\n        /* \"#utility.yul\":277:282   */\n      dup2\n        /* \"#utility.yul\":253:283   */\n      tag_142\n      jump\t// in\n    tag_141:\n        /* \"#utility.yul\":152:289   */\n      swap3\n      swap2\n      pop\n      pop\n      jump\t// out\n        /* \"#utility.yul\":295:434   */\n    tag_143:\n        /* \"#utility.yul\":341:346   */\n      0x00\n        /* \"#utility.yul\":379:385   */\n      dup2\n        /* \"#utility.yul\":366:386   */\n      calldataload\n        /* \"#utility.yul\":357:386   */\n      swap1\n      pop\n        /* \"#utility.yul\":395:428   */\n      tag_145\n        /* \"#utility.yul\":422:427   */\n      dup2\n        /* \"#utility.yul\":395:428   */\n      tag_146\n      jump\t// in\n    tag_145:\n        /* \"#utility.yul\":295:434   */\n      swap3\n      swap2\n      pop\n      pop\n      jump\t// out\n        /* \"#utility.yul\":440:577   */\n    tag_147:\n        /* \"#utility.yul\":485:490   */\n      0x00\n        /* \"#utility.yul\":523:529   */\n      dup2\n        /* \"#utility.yul\":510:530   */\n      calldataload\n        /* \"#utility.yul\":501:530   */\n      swap1\n      pop\n        /* \"#utility.yul\":539:571   */\n      tag_149\n        /* \"#utility.yul\":565:570   */\n      dup2\n        /* \"#utility.yul\":539:571   */\n      tag_150\n      jump\t// in\n    tag_149:\n        /* \"#utility.yul\":440:577   */\n      swap3\n      swap2\n      pop\n      pop\n      jump\t// out\n        /* \"#utility.yul\":583:928   */\n    tag_66:\n        /* \"#utility.yul\":650:656   */\n      0x00\n        /* \"#utility.yul\":699:701   */\n      0x20\n        /* \"#utility.yul\":687:696   */\n      dup3\n        /* \"#utility.yul\":678:685   */\n      dup5\n        /* \"#utility.yul\":674:697   */\n      sub\n        /* \"#utility.yul\":670:702   */\n      slt\n        /* \"#utility.yul\":667:786   */\n      iszero\n      tag_152\n      jumpi\n        /* \"#utility.yul\":705:784   */\n      tag_153\n      tag_154\n      jump\t// in\n    tag_153:\n        /* \"#utility.yul\":667:786   */\n    tag_152:\n        /* \"#utility.yul\":825:826   */\n      0x00\n        /* \"#utility.yul\":850:911   */\n      tag_155\n        /* \"#utility.yul\":903:910   */\n      dup5\n        /* \"#utility.yul\":894:900   */\n      dup3\n        /* \"#utility.yul\":883:892   */\n      dup6\n        /* \"#utility.yul\":879:901   */\n      add\n        /* \"#utility.yul\":850:911   */\n      tag_139\n      jump\t// in\n    tag_155:\n        /* \"#utility.yul\":840:911   */\n      swap2\n      pop\n        /* \"#utility.yul\":796:921   */\n      pop\n        /* \"#utility.yul\":583:928   */\n      swap3\n      swap2\n      pop\n      pop\n      jump\t// out\n        /* \"#utility.yul\":934:1263   */\n    tag_20:\n        /* \"#utility.yul\":993:999   */\n      0x00\n        /* \"#utility.yul\":1042:1044   */\n      0x20\n        /* \"#utility.yul\":1030:1039   */\n      dup3\n        /* \"#utility.yul\":1021:1028   */\n      dup5\n        /* \"#utility.yul\":1017:1040   */\n      sub\n        /* \"#utility.yul\":1013:1045   */\n      slt\n        /* \"#utility.yul\":1010:1129   */\n      iszero\n      tag_157\n      jumpi\n        /* \"#utility.yul\":1048:1127   */\n      tag_158\n      tag_154\n      jump\t// in\n    tag_158:\n        /* \"#utility.yul\":1010:1129   */\n    tag_157:\n        /* \"#utility.yul\":1168:1169   */\n      0x00\n        /* \"#utility.yul\":1193:1246   */\n      tag_159\n        /* \"#utility.yul\":1238:1245   */\n      dup5\n        /* \"#utility.yul\":1229:1235   */\n      dup3\n        /* \"#utility.yul\":1218:1227   */\n      dup6\n        /* \"#utility.yul\":1214:1236   */\n      add\n        /* \"#utility.yul\":1193:1246   */\n      tag_143\n      jump\t// in\n    tag_159:\n        /* \"#utility.yul\":1183:1246   */\n      swap2\n      pop\n        /* \"#utility.yul\":1139:1256   */\n      pop\n        /* \"#utility.yul\":934:1263   */\n      swap3\n      swap2\n      pop\n      pop\n      jump\t// out\n        /* \"#utility.yul\":1269:1743   */\n    tag_39:\n        /* \"#utility.yul\":1337:1343   */\n      0x00\n        /* \"#utility.yul\":1345:1351   */\n      dup1\n        /* \"#utility.yul\":1394:1396   */\n      0x40\n        /* \"#utility.yul\":1382:1391   */\n      dup4\n        /* \"#utility.yul\":1373:1380   */\n      dup6\n        /* \"#utility.yul\":1369:1392   */\n      sub\n        /* \"#utility.yul\":1365:1397   */\n      slt\n        /* \"#utility.yul\":1362:1481   */\n      iszero\n      tag_161\n      jumpi\n        /* \"#utility.yul\":1400:1479   */\n      tag_162\n      tag_154\n      jump\t// in\n    tag_162:\n        /* \"#utility.yul\":1362:1481   */\n    tag_161:\n        /* \"#utility.yul\":1520:1521   */\n      0x00\n        /* \"#utility.yul\":1545:1598   */\n      tag_163\n        /* \"#utility.yul\":1590:1597   */\n      dup6\n        /* \"#utility.yul\":1581:1587   */\n      dup3\n        /* \"#utility.yul\":1570:1579   */\n      dup7\n        /* \"#utility.yul\":1566:1588   */\n      add\n        /* \"#utility.yul\":1545:1598   */\n      tag_143\n      jump\t// in\n    tag_163:\n        /* \"#utility.yul\":1535:1598   */\n      swap3\n      pop\n        /* \"#utility.yul\":1491:1608   */\n      pop\n        /* \"#utility.yul\":1647:1649   */\n      0x20\n        /* \"#utility.yul\":1673:1726   */\n      tag_164\n        /* \"#utility.yul\":1718:1725   */\n      dup6\n        /* \"#utility.yul\":1709:1715   */\n      dup3\n        /* \"#utility.yul\":1698:1707   */\n      dup7\n        /* \"#utility.yul\":1694:1716   */\n      add\n        /* \"#utility.yul\":1673:1726   */\n      tag_135\n      jump\t// in\n    tag_164:\n        /* \"#utility.yul\":1663:1726   */\n      swap2\n      pop\n        /* \"#utility.yul\":1618:1736   */\n      pop\n        /* \"#utility.yul\":1269:1743   */\n      swap3\n      pop\n      swap3\n      swap1\n      pop\n      jump\t// out\n        /* \"#utility.yul\":1749:2223   */\n    tag_35:\n        /* \"#utility.yul\":1817:1823   */\n      0x00\n        /* \"#utility.yul\":1825:1831   */\n      dup1\n        /* \"#utility.yul\":1874:1876   */\n      0x40\n        /* \"#utility.yul\":1862:1871   */\n      dup4\n        /* \"#utility.yul\":1853:1860   */\n      dup6\n        /* \"#utility.yul\":1849:1872   */\n      sub\n        /* \"#utility.yul\":1845:1877   */\n      slt\n        /* \"#utility.yul\":1842:1961   */\n      iszero\n      tag_166\n      jumpi\n        /* \"#utility.yul\":1880:1959   */\n      tag_167\n      tag_154\n      jump\t// in\n    tag_167:\n        /* \"#utility.yul\":1842:1961   */\n    tag_166:\n        /* \"#utility.yul\":2000:2001   */\n      0x00\n        /* \"#utility.yul\":2025:2078   */\n      tag_168\n        /* \"#utility.yul\":2070:2077   */\n      dup6\n        /* \"#utility.yul\":2061:2067   */\n      dup3\n        /* \"#utility.yul\":2050:2059   */\n      dup7\n        /* \"#utility.yul\":2046:2068   */\n      add\n        /* \"#utility.yul\":2025:2078   */\n      tag_143\n      jump\t// in\n    tag_168:\n        /* \"#utility.yul\":2015:2078   */\n      swap3\n      pop\n        /* \"#utility.yul\":1971:2088   */\n      pop\n        /* \"#utility.yul\":2127:2129   */\n      0x20\n        /* \"#utility.yul\":2153:2206   */\n      tag_169\n        /* \"#utility.yul\":2198:2205   */\n      dup6\n        /* \"#utility.yul\":2189:2195   */\n      dup3\n        /* \"#utility.yul\":2178:2187   */\n      dup7\n        /* \"#utility.yul\":2174:2196   */\n      add\n        /* \"#utility.yul\":2153:2206   */\n      tag_143\n      jump\t// in\n    tag_169:\n        /* \"#utility.yul\":2143:2206   */\n      swap2\n      pop\n        /* \"#utility.yul\":2098:2216   */\n      pop\n        /* \"#utility.yul\":1749:2223   */\n      swap3\n      pop\n      swap3\n      swap1\n      pop\n      jump\t// out\n        /* \"#utility.yul\":2229:2844   */\n    tag_44:\n        /* \"#utility.yul\":2304:2310   */\n      0x00\n        /* \"#utility.yul\":2312:2318   */\n      dup1\n        /* \"#utility.yul\":2320:2326   */\n      0x00\n        /* \"#utility.yul\":2369:2371   */\n      0x60\n        /* \"#utility.yul\":2357:2366   */\n      dup5\n        /* \"#utility.yul\":2348:2355   */\n      dup7\n        /* \"#utility.yul\":2344:2367   */\n      sub\n        /* \"#utility.yul\":2340:2372   */\n      slt\n        /* \"#utility.yul\":2337:2456   */\n      iszero\n      tag_171\n      jumpi\n        /* \"#utility.yul\":2375:2454   */\n      tag_172\n      tag_154\n      jump\t// in\n    tag_172:\n        /* \"#utility.yul\":2337:2456   */\n    tag_171:\n        /* \"#utility.yul\":2495:2496   */\n      0x00\n        /* \"#utility.yul\":2520:2573   */\n      tag_173\n        /* \"#utility.yul\":2565:2572   */\n      dup7\n        /* \"#utility.yul\":2556:2562   */\n      dup3\n        /* \"#utility.yul\":2545:2554   */\n      dup8\n        /* \"#utility.yul\":2541:2563   */\n      add\n        /* \"#utility.yul\":2520:2573   */\n      tag_143\n      jump\t// in\n    tag_173:\n        /* \"#utility.yul\":2510:2573   */\n      swap4\n      pop\n        /* \"#utility.yul\":2466:2583   */\n      pop\n        /* \"#utility.yul\":2622:2624   */\n      0x20\n        /* \"#utility.yul\":2648:2700   */\n      tag_174\n        /* \"#utility.yul\":2692:2699   */\n      dup7\n        /* \"#utility.yul\":2683:2689   */\n      dup3\n        /* \"#utility.yul\":2672:2681   */\n      dup8\n        /* \"#utility.yul\":2668:2690   */\n      add\n        /* \"#utility.yul\":2648:2700   */\n      tag_147\n      jump\t// in\n    tag_174:\n        /* \"#utility.yul\":2638:2700   */\n      swap3\n      pop\n        /* \"#utility.yul\":2593:2710   */\n      pop\n        /* \"#utility.yul\":2749:2751   */\n      0x40\n        /* \"#utility.yul\":2775:2827   */\n      tag_175\n        /* \"#utility.yul\":2819:2826   */\n      dup7\n        /* \"#utility.yul\":2810:2816   */\n      dup3\n        /* \"#utility.yul\":2799:2808   */\n      dup8\n        /* \"#utility.yul\":2795:2817   */\n      add\n        /* \"#utility.yul\":2775:2827   */\n      tag_147\n      jump\t// in\n    tag_175:\n        /* \"#utility.yul\":2765:2827   */\n      swap2\n      pop\n        /* \"#utility.yul\":2720:2837   */\n      pop\n        /* \"#utility.yul\":2229:2844   */\n      swap3\n      pop\n      swap3\n      pop\n      swap3\n      jump\t// out\n        /* \"#utility.yul\":2850:2968   */\n    tag_176:\n        /* \"#utility.yul\":2937:2961   */\n      tag_178\n        /* \"#utility.yul\":2955:2960   */\n      dup2\n        /* \"#utility.yul\":2937:2961   */\n      tag_179\n      jump\t// in\n    tag_178:\n        /* \"#utility.yul\":2932:2935   */\n      dup3\n        /* \"#utility.yul\":2925:2962   */\n      mstore\n        /* \"#utility.yul\":2850:2968   */\n      pop\n      pop\n      jump\t// out\n        /* \"#utility.yul\":2974:3083   */\n    tag_180:\n        /* \"#utility.yul\":3055:3076   */\n      tag_182\n        /* \"#utility.yul\":3070:3075   */\n      dup2\n        /* \"#utility.yul\":3055:3076   */\n      tag_183\n      jump\t// in\n    tag_182:\n        /* \"#utility.yul\":3050:3053   */\n      dup3\n        /* \"#utility.yul\":3043:3077   */\n      mstore\n        /* \"#utility.yul\":2974:3083   */\n      pop\n      pop\n      jump\t// out\n        /* \"#utility.yul\":3089:3248   */\n    tag_184:\n        /* \"#utility.yul\":3190:3241   */\n      tag_186\n        /* \"#utility.yul\":3235:3240   */\n      dup2\n        /* \"#utility.yul\":3190:3241   */\n      tag_187\n      jump\t// in\n    tag_186:\n        /* \"#utility.yul\":3185:3188   */\n      dup3\n        /* \"#utility.yul\":3178:3242   */\n      mstore\n        /* \"#utility.yul\":3089:3248   */\n      pop\n      pop\n      jump\t// out\n        /* \"#utility.yul\":3254:3620   */\n    tag_188:\n        /* \"#utility.yul\":3396:3399   */\n      0x00\n        /* \"#utility.yul\":3417:3484   */\n      tag_190\n        /* \"#utility.yul\":3481:3483   */\n      0x1d\n        /* \"#utility.yul\":3476:3479   */\n      dup4\n        /* \"#utility.yul\":3417:3484   */\n      tag_191\n      jump\t// in\n    tag_190:\n        /* \"#utility.yul\":3410:3484   */\n      swap2\n      pop\n        /* \"#utility.yul\":3493:3586   */\n      tag_192\n        /* \"#utility.yul\":3582:3585   */\n      dup3\n        /* \"#utility.yul\":3493:3586   */\n      tag_193\n      jump\t// in\n    tag_192:\n        /* \"#utility.yul\":3611:3613   */\n      0x20\n        /* \"#utility.yul\":3606:3609   */\n      dup3\n        /* \"#utility.yul\":3602:3614   */\n      add\n        /* \"#utility.yul\":3595:3614   */\n      swap1\n      pop\n        /* \"#utility.yul\":3254:3620   */\n      swap2\n      swap1\n      pop\n      jump\t// out\n        /* \"#utility.yul\":3626:3992   */\n    tag_194:\n        /* \"#utility.yul\":3768:3771   */\n      0x00\n        /* \"#utility.yul\":3789:3856   */\n      tag_196\n        /* \"#utility.yul\":3853:3855   */\n      0x13\n        /* \"#utility.yul\":3848:3851   */\n      dup4\n        /* \"#utility.yul\":3789:3856   */\n      tag_191\n      jump\t// in\n    tag_196:\n        /* \"#utility.yul\":3782:3856   */\n      swap2\n      pop\n        /* \"#utility.yul\":3865:3958   */\n      tag_197\n        /* \"#utility.yul\":3954:3957   */\n      dup3\n        /* \"#utility.yul\":3865:3958   */\n      tag_198\n      jump\t// in\n    tag_197:\n        /* \"#utility.yul\":3983:3985   */\n      0x20\n        /* \"#utility.yul\":3978:3981   */\n      dup3\n        /* \"#utility.yul\":3974:3986   */\n      add\n        /* \"#utility.yul\":3967:3986   */\n      swap1\n      pop\n        /* \"#utility.yul\":3626:3992   */\n      swap2\n      swap1\n      pop\n      jump\t// out\n        /* \"#utility.yul\":3998:4364   */\n    tag_199:\n        /* \"#utility.yul\":4140:4143   */\n      0x00\n        /* \"#utility.yul\":4161:4228   */\n      tag_201\n        /* \"#utility.yul\":4225:4227   */\n      0x1d\n        /* \"#utility.yul\":4220:4223   */\n      dup4\n        /* \"#utility.yul\":4161:4228   */\n      tag_191\n      jump\t// in\n    tag_201:\n        /* \"#utility.yul\":4154:4228   */\n      swap2\n      pop\n        /* \"#utility.yul\":4237:4330   */\n      tag_202\n        /* \"#utility.yul\":4326:4329   */\n      dup3\n        /* \"#utility.yul\":4237:4330   */\n      tag_203\n      jump\t// in\n    tag_202:\n        /* \"#utility.yul\":4355:4357   */\n      0x20\n        /* \"#utility.yul\":4350:4353   */\n      dup3\n        /* \"#utility.yul\":4346:4358   */\n      add\n        /* \"#utility.yul\":4339:4358   */\n      swap1\n      pop\n        /* \"#utility.yul\":3998:4364   */\n      swap2\n      swap1\n      pop\n      jump\t// out\n        /* \"#utility.yul\":4370:4736   */\n    tag_204:\n        /* \"#utility.yul\":4512:4515   */\n      0x00\n        /* \"#utility.yul\":4533:4600   */\n      tag_206\n        /* \"#utility.yul\":4597:4599   */\n      0x0e\n        /* \"#utility.yul\":4592:4595   */\n      dup4\n        /* \"#utility.yul\":4533:4600   */\n      tag_191\n      jump\t// in\n    tag_206:\n        /* \"#utility.yul\":4526:4600   */\n      swap2\n      pop\n        /* \"#utility.yul\":4609:4702   */\n      tag_207\n        /* \"#utility.yul\":4698:4701   */\n      dup3\n        /* \"#utility.yul\":4609:4702   */\n      tag_208\n      jump\t// in\n    tag_207:\n        /* \"#utility.yul\":4727:4729   */\n      0x20\n        /* \"#utility.yul\":4722:4725   */\n      dup3\n        /* \"#utility.yul\":4718:4730   */\n      add\n        /* \"#utility.yul\":4711:4730   */\n      swap1\n      pop\n        /* \"#utility.yul\":4370:4736   */\n      swap2\n      swap1\n      pop\n      jump\t// out\n        /* \"#utility.yul\":4742:5108   */\n    tag_209:\n        /* \"#utility.yul\":4884:4887   */\n      0x00\n        /* \"#utility.yul\":4905:4972   */\n      tag_211\n        /* \"#utility.yul\":4969:4971   */\n      0x22\n        /* \"#utility.yul\":4964:4967   */\n      dup4\n        /* \"#utility.yul\":4905:4972   */\n      tag_191\n      jump\t// in\n    tag_211:\n        /* \"#utility.yul\":4898:4972   */\n      swap2\n      pop\n        /* \"#utility.yul\":4981:5074   */\n      tag_212\n        /* \"#utility.yul\":5070:5073   */\n      dup3\n        /* \"#utility.yul\":4981:5074   */\n      tag_213\n      jump\t// in\n    tag_212:\n        /* \"#utility.yul\":5099:5101   */\n      0x40\n        /* \"#utility.yul\":5094:5097   */\n      dup3\n        /* \"#utility.yul\":5090:5102   */\n      add\n        /* \"#utility.yul\":5083:5102   */\n      swap1\n      pop\n        /* \"#utility.yul\":4742:5108   */\n      swap2\n      swap1\n      pop\n      jump\t// out\n        /* \"#utility.yul\":5114:5480   */\n    tag_214:\n        /* \"#utility.yul\":5256:5259   */\n      0x00\n        /* \"#utility.yul\":5277:5344   */\n      tag_216\n        /* \"#utility.yul\":5341:5343   */\n      0x15\n        /* \"#utility.yul\":5336:5339   */\n      dup4\n        /* \"#utility.yul\":5277:5344   */\n      tag_191\n      jump\t// in\n    tag_216:\n        /* \"#utility.yul\":5270:5344   */\n      swap2\n      pop\n        /* \"#utility.yul\":5353:5446   */\n      tag_217\n        /* \"#utility.yul\":5442:5445   */\n      dup3\n        /* \"#utility.yul\":5353:5446   */\n      tag_218\n      jump\t// in\n    tag_217:\n        /* \"#utility.yul\":5471:5473   */\n      0x20\n        /* \"#utility.yul\":5466:5469   */\n      dup3\n        /* \"#utility.yul\":5462:5474   */\n      add\n        /* \"#utility.yul\":5455:5474   */\n      swap1\n      pop\n        /* \"#utility.yul\":5114:5480   */\n      swap2\n      swap1\n      pop\n      jump\t// out\n        /* \"#utility.yul\":5486:5852   */\n    tag_219:\n        /* \"#utility.yul\":5628:5631   */\n      0x00\n        /* \"#utility.yul\":5649:5716   */\n      tag_221\n        /* \"#utility.yul\":5713:5715   */\n      0x2e\n        /* \"#utility.yul\":5708:5711   */\n      dup4\n        /* \"#utility.yul\":5649:5716   */\n      tag_191\n      jump\t// in\n    tag_221:\n        /* \"#utility.yul\":5642:5716   */\n      swap2\n      pop\n        /* \"#utility.yul\":5725:5818   */\n      tag_222\n        /* \"#utility.yul\":5814:5817   */\n      dup3\n        /* \"#utility.yul\":5725:5818   */\n      tag_223\n      jump\t// in\n    tag_222:\n        /* \"#utility.yul\":5843:5845   */\n      0x40\n        /* \"#utility.yul\":5838:5841   */\n      dup3\n        /* \"#utility.yul\":5834:5846   */\n      add\n        /* \"#utility.yul\":5827:5846   */\n      swap1\n      pop\n        /* \"#utility.yul\":5486:5852   */\n      swap2\n      swap1\n      pop\n      jump\t// out\n        /* \"#utility.yul\":5858:6224   */\n    tag_224:\n        /* \"#utility.yul\":6000:6003   */\n      0x00\n        /* \"#utility.yul\":6021:6088   */\n      tag_226\n        /* \"#utility.yul\":6085:6087   */\n      0x19\n        /* \"#utility.yul\":6080:6083   */\n      dup4\n        /* \"#utility.yul\":6021:6088   */\n      tag_191\n      jump\t// in\n    tag_226:\n        /* \"#utility.yul\":6014:6088   */\n      swap2\n      pop\n        /* \"#utility.yul\":6097:6190   */\n      tag_227\n        /* \"#utility.yul\":6186:6189   */\n      dup3\n        /* \"#utility.yul\":6097:6190   */\n      tag_228\n      jump\t// in\n    tag_227:\n        /* \"#utility.yul\":6215:6217   */\n      0x20\n        /* \"#utility.yul\":6210:6213   */\n      dup3\n        /* \"#utility.yul\":6206:6218   */\n      add\n        /* \"#utility.yul\":6199:6218   */\n      swap1\n      pop\n        /* \"#utility.yul\":5858:6224   */\n      swap2\n      swap1\n      pop\n      jump\t// out\n        /* \"#utility.yul\":6230:6596   */\n    tag_229:\n        /* \"#utility.yul\":6372:6375   */\n      0x00\n        /* \"#utility.yul\":6393:6460   */\n      tag_231\n        /* \"#utility.yul\":6457:6459   */\n      0x17\n        /* \"#utility.yul\":6452:6455   */\n      dup4\n        /* \"#utility.yul\":6393:6460   */\n      tag_191\n      jump\t// in\n    tag_231:\n        /* \"#utility.yul\":6386:6460   */\n      swap2\n      pop\n        /* \"#utility.yul\":6469:6562   */\n      tag_232\n        /* \"#utility.yul\":6558:6561   */\n      dup3\n        /* \"#utility.yul\":6469:6562   */\n      tag_233\n      jump\t// in\n    tag_232:\n        /* \"#utility.yul\":6587:6589   */\n      0x20\n        /* \"#utility.yul\":6582:6585   */\n      dup3\n        /* \"#utility.yul\":6578:6590   */\n      add\n        /* \"#utility.yul\":6571:6590   */\n      swap1\n      pop\n        /* \"#utility.yul\":6230:6596   */\n      swap2\n      swap1\n      pop\n      jump\t// out\n        /* \"#utility.yul\":6602:6720   */\n    tag_234:\n        /* \"#utility.yul\":6689:6713   */\n      tag_236\n        /* \"#utility.yul\":6707:6712   */\n      dup2\n        /* \"#utility.yul\":6689:6713   */\n      tag_237\n      jump\t// in\n    tag_236:\n        /* \"#utility.yul\":6684:6687   */\n      dup3\n        /* \"#utility.yul\":6677:6714   */\n      mstore\n        /* \"#utility.yul\":6602:6720   */\n      pop\n      pop\n      jump\t// out\n        /* \"#utility.yul\":6726:6841   */\n    tag_238:\n        /* \"#utility.yul\":6811:6834   */\n      tag_240\n        /* \"#utility.yul\":6828:6833   */\n      dup2\n        /* \"#utility.yul\":6811:6834   */\n      tag_241\n      jump\t// in\n    tag_240:\n        /* \"#utility.yul\":6806:6809   */\n      dup3\n        /* \"#utility.yul\":6799:6835   */\n      mstore\n        /* \"#utility.yul\":6726:6841   */\n      pop\n      pop\n      jump\t// out\n        /* \"#utility.yul\":6847:7289   */\n    tag_128:\n        /* \"#utility.yul\":6996:7000   */\n      0x00\n        /* \"#utility.yul\":7034:7036   */\n      0x60\n        /* \"#utility.yul\":7023:7032   */\n      dup3\n        /* \"#utility.yul\":7019:7037   */\n      add\n        /* \"#utility.yul\":7011:7037   */\n      swap1\n      pop\n        /* \"#utility.yul\":7047:7118   */\n      tag_243\n        /* \"#utility.yul\":7115:7116   */\n      0x00\n        /* \"#utility.yul\":7104:7113   */\n      dup4\n        /* \"#utility.yul\":7100:7117   */\n      add\n        /* \"#utility.yul\":7091:7097   */\n      dup7\n        /* \"#utility.yul\":7047:7118   */\n      tag_176\n      jump\t// in\n    tag_243:\n        /* \"#utility.yul\":7128:7200   */\n      tag_244\n        /* \"#utility.yul\":7196:7198   */\n      0x20\n        /* \"#utility.yul\":7185:7194   */\n      dup4\n        /* \"#utility.yul\":7181:7199   */\n      add\n        /* \"#utility.yul\":7172:7178   */\n      dup6\n        /* \"#utility.yul\":7128:7200   */\n      tag_176\n      jump\t// in\n    tag_244:\n        /* \"#utility.yul\":7210:7282   */\n      tag_245\n        /* \"#utility.yul\":7278:7280   */\n      0x40\n        /* \"#utility.yul\":7267:7276   */\n      dup4\n        /* \"#utility.yul\":7263:7281   */\n      add\n        /* \"#utility.yul\":7254:7260   */\n      dup5\n        /* \"#utility.yul\":7210:7282   */\n      tag_234\n      jump\t// in\n    tag_245:\n        /* \"#utility.yul\":6847:7289   */\n      swap5\n      swap4\n      pop\n      pop\n      pop\n      pop\n      jump\t// out\n        /* \"#utility.yul\":7295:7627   */\n    tag_61:\n        /* \"#utility.yul\":7416:7420   */\n      0x00\n        /* \"#utility.yul\":7454:7456   */\n      0x40\n        /* \"#utility.yul\":7443:7452   */\n      dup3\n        /* \"#utility.yul\":7439:7457   */\n      add\n        /* \"#utility.yul\":7431:7457   */\n      swap1\n      pop\n        /* \"#utility.yul\":7467:7538   */\n      tag_247\n        /* \"#utility.yul\":7535:7536   */\n      0x00\n        /* \"#utility.yul\":7524:7533   */\n      dup4\n        /* \"#utility.yul\":7520:7537   */\n      add\n        /* \"#utility.yul\":7511:7517   */\n      dup6\n        /* \"#utility.yul\":7467:7538   */\n      tag_176\n      jump\t// in\n    tag_247:\n        /* \"#utility.yul\":7548:7620   */\n      tag_248\n        /* \"#utility.yul\":7616:7618   */\n      0x20\n        /* \"#utility.yul\":7605:7614   */\n      dup4\n        /* \"#utility.yul\":7601:7619   */\n      add\n        /* \"#utility.yul\":7592:7598   */\n      dup5\n        /* \"#utility.yul\":7548:7620   */\n      tag_234\n      jump\t// in\n    tag_248:\n        /* \"#utility.yul\":7295:7627   */\n      swap4\n      swap3\n      pop\n      pop\n      pop\n      jump\t// out\n        /* \"#utility.yul\":7633:8388   */\n    tag_23:\n        /* \"#utility.yul\":7856:7860   */\n      0x00\n        /* \"#utility.yul\":7894:7897   */\n      0xc0\n        /* \"#utility.yul\":7883:7892   */\n      dup3\n        /* \"#utility.yul\":7879:7898   */\n      add\n        /* \"#utility.yul\":7871:7898   */\n      swap1\n      pop\n        /* \"#utility.yul\":7908:7979   */\n      tag_250\n        /* \"#utility.yul\":7976:7977   */\n      0x00\n        /* \"#utility.yul\":7965:7974   */\n      dup4\n        /* \"#utility.yul\":7961:7978   */\n      add\n        /* \"#utility.yul\":7952:7958   */\n      dup10\n        /* \"#utility.yul\":7908:7979   */\n      tag_176\n      jump\t// in\n    tag_250:\n        /* \"#utility.yul\":7989:8061   */\n      tag_251\n        /* \"#utility.yul\":8057:8059   */\n      0x20\n        /* \"#utility.yul\":8046:8055   */\n      dup4\n        /* \"#utility.yul\":8042:8060   */\n      add\n        /* \"#utility.yul\":8033:8039   */\n      dup9\n        /* \"#utility.yul\":7989:8061   */\n      tag_234\n      jump\t// in\n    tag_251:\n        /* \"#utility.yul\":8071:8143   */\n      tag_252\n        /* \"#utility.yul\":8139:8141   */\n      0x40\n        /* \"#utility.yul\":8128:8137   */\n      dup4\n        /* \"#utility.yul\":8124:8142   */\n      add\n        /* \"#utility.yul\":8115:8121   */\n      dup8\n        /* \"#utility.yul\":8071:8143   */\n      tag_234\n      jump\t// in\n    tag_252:\n        /* \"#utility.yul\":8153:8223   */\n      tag_253\n        /* \"#utility.yul\":8219:8221   */\n      0x60\n        /* \"#utility.yul\":8208:8217   */\n      dup4\n        /* \"#utility.yul\":8204:8222   */\n      add\n        /* \"#utility.yul\":8195:8201   */\n      dup7\n        /* \"#utility.yul\":8153:8223   */\n      tag_238\n      jump\t// in\n    tag_253:\n        /* \"#utility.yul\":8233:8304   */\n      tag_254\n        /* \"#utility.yul\":8299:8302   */\n      0x80\n        /* \"#utility.yul\":8288:8297   */\n      dup4\n        /* \"#utility.yul\":8284:8303   */\n      add\n        /* \"#utility.yul\":8275:8281   */\n      dup6\n        /* \"#utility.yul\":8233:8304   */\n      tag_238\n      jump\t// in\n    tag_254:\n        /* \"#utility.yul\":8314:8381   */\n      tag_255\n        /* \"#utility.yul\":8376:8379   */\n      0xa0\n        /* \"#utility.yul\":8365:8374   */\n      dup4\n        /* \"#utility.yul\":8361:8380   */\n      add\n        /* \"#utility.yul\":8352:8358   */\n      dup5\n        /* \"#utility.yul\":8314:8381   */\n      tag_180\n      jump\t// in\n    tag_255:\n        /* \"#utility.yul\":7633:8388   */\n      swap8\n      swap7\n      pop\n      pop\n      pop\n      pop\n      pop\n      pop\n      pop\n      jump\t// out\n        /* \"#utility.yul\":8394:8644   */\n    tag_49:\n        /* \"#utility.yul\":8501:8505   */\n      0x00\n        /* \"#utility.yul\":8539:8541   */\n      0x20\n        /* \"#utility.yul\":8528:8537   */\n      dup3\n        /* \"#utility.yul\":8524:8542   */\n      add\n        /* \"#utility.yul\":8516:8542   */\n      swap1\n      pop\n        /* \"#utility.yul\":8552:8637   */\n      tag_257\n        /* \"#utility.yul\":8634:8635   */\n      0x00\n        /* \"#utility.yul\":8623:8632   */\n      dup4\n        /* \"#utility.yul\":8619:8636   */\n      add\n        /* \"#utility.yul\":8610:8616   */\n      dup5\n        /* \"#utility.yul\":8552:8637   */\n      tag_184\n      jump\t// in\n    tag_257:\n        /* \"#utility.yul\":8394:8644   */\n      swap3\n      swap2\n      pop\n      pop\n      jump\t// out\n        /* \"#utility.yul\":8650:9069   */\n    tag_56:\n        /* \"#utility.yul\":8816:8820   */\n      0x00\n        /* \"#utility.yul\":8854:8856   */\n      0x20\n        /* \"#utility.yul\":8843:8852   */\n      dup3\n        /* \"#utility.yul\":8839:8857   */\n      add\n        /* \"#utility.yul\":8831:8857   */\n      swap1\n      pop\n        /* \"#utility.yul\":8903:8912   */\n      dup2\n        /* \"#utility.yul\":8897:8901   */\n      dup2\n        /* \"#utility.yul\":8893:8913   */\n      sub\n        /* \"#utility.yul\":8889:8890   */\n      0x00\n        /* \"#utility.yul\":8878:8887   */\n      dup4\n        /* \"#utility.yul\":8874:8891   */\n      add\n        /* \"#utility.yul\":8867:8914   */\n      mstore\n        /* \"#utility.yul\":8931:9062   */\n      tag_259\n        /* \"#utility.yul\":9057:9061   */\n      dup2\n        /* \"#utility.yul\":8931:9062   */\n      tag_188\n      jump\t// in\n    tag_259:\n        /* \"#utility.yul\":8923:9062   */\n      swap1\n      pop\n        /* \"#utility.yul\":8650:9069   */\n      swap2\n      swap1\n      pop\n      jump\t// out\n        /* \"#utility.yul\":9075:9494   */\n    tag_79:\n        /* \"#utility.yul\":9241:9245   */\n      0x00\n        /* \"#utility.yul\":9279:9281   */\n      0x20\n        /* \"#utility.yul\":9268:9277   */\n      dup3\n        /* \"#utility.yul\":9264:9282   */\n      add\n        /* \"#utility.yul\":9256:9282   */\n      swap1\n      pop\n        /* \"#utility.yul\":9328:9337   */\n      dup2\n        /* \"#utility.yul\":9322:9326   */\n      dup2\n        /* \"#utility.yul\":9318:9338   */\n      sub\n        /* \"#utility.yul\":9314:9315   */\n      0x00\n        /* \"#utility.yul\":9303:9312   */\n      dup4\n        /* \"#utility.yul\":9299:9316   */\n      add\n        /* \"#utility.yul\":9292:9339   */\n      mstore\n        /* \"#utility.yul\":9356:9487   */\n      tag_261\n        /* \"#utility.yul\":9482:9486   */\n      dup2\n        /* \"#utility.yul\":9356:9487   */\n      tag_194\n      jump\t// in\n    tag_261:\n        /* \"#utility.yul\":9348:9487   */\n      swap1\n      pop\n        /* \"#utility.yul\":9075:9494   */\n      swap2\n      swap1\n      pop\n      jump\t// out\n        /* \"#utility.yul\":9500:9919   */\n    tag_74:\n        /* \"#utility.yul\":9666:9670   */\n      0x00\n        /* \"#utility.yul\":9704:9706   */\n      0x20\n        /* \"#utility.yul\":9693:9702   */\n      dup3\n        /* \"#utility.yul\":9689:9707   */\n      add\n        /* \"#utility.yul\":9681:9707   */\n      swap1\n      pop\n        /* \"#utility.yul\":9753:9762   */\n      dup2\n        /* \"#utility.yul\":9747:9751   */\n      dup2\n        /* \"#utility.yul\":9743:9763   */\n      sub\n        /* \"#utility.yul\":9739:9740   */\n      0x00\n        /* \"#utility.yul\":9728:9737   */\n      dup4\n        /* \"#utility.yul\":9724:9741   */\n      add\n        /* \"#utility.yul\":9717:9764   */\n      mstore\n        /* \"#utility.yul\":9781:9912   */\n      tag_263\n        /* \"#utility.yul\":9907:9911   */\n      dup2\n        /* \"#utility.yul\":9781:9912   */\n      tag_199\n      jump\t// in\n    tag_263:\n        /* \"#utility.yul\":9773:9912   */\n      swap1\n      pop\n        /* \"#utility.yul\":9500:9919   */\n      swap2\n      swap1\n      pop\n      jump\t// out\n        /* \"#utility.yul\":9925:10344   */\n    tag_109:\n        /* \"#utility.yul\":10091:10095   */\n      0x00\n        /* \"#utility.yul\":10129:10131   */\n      0x20\n        /* \"#utility.yul\":10118:10127   */\n      dup3\n        /* \"#utility.yul\":10114:10132   */\n      add\n        /* \"#utility.yul\":10106:10132   */\n      swap1\n      pop\n        /* \"#utility.yul\":10178:10187   */\n      dup2\n        /* \"#utility.yul\":10172:10176   */\n      dup2\n        /* \"#utility.yul\":10168:10188   */\n      sub\n        /* \"#utility.yul\":10164:10165   */\n      0x00\n        /* \"#utility.yul\":10153:10162   */\n      dup4\n        /* \"#utility.yul\":10149:10166   */\n      add\n        /* \"#utility.yul\":10142:10189   */\n      mstore\n        /* \"#utility.yul\":10206:10337   */\n      tag_265\n        /* \"#utility.yul\":10332:10336   */\n      dup2\n        /* \"#utility.yul\":10206:10337   */\n      tag_204\n      jump\t// in\n    tag_265:\n        /* \"#utility.yul\":10198:10337   */\n      swap1\n      pop\n        /* \"#utility.yul\":9925:10344   */\n      swap2\n      swap1\n      pop\n      jump\t// out\n        /* \"#utility.yul\":10350:10769   */\n    tag_59:\n        /* \"#utility.yul\":10516:10520   */\n      0x00\n        /* \"#utility.yul\":10554:10556   */\n      0x20\n        /* \"#utility.yul\":10543:10552   */\n      dup3\n        /* \"#utility.yul\":10539:10557   */\n      add\n        /* \"#utility.yul\":10531:10557   */\n      swap1\n      pop\n        /* \"#utility.yul\":10603:10612   */\n      dup2\n        /* \"#utility.yul\":10597:10601   */\n      dup2\n        /* \"#utility.yul\":10593:10613   */\n      sub\n        /* \"#utility.yul\":10589:10590   */\n      0x00\n        /* \"#utility.yul\":10578:10587   */\n      dup4\n        /* \"#utility.yul\":10574:10591   */\n      add\n        /* \"#utility.yul\":10567:10614   */\n      mstore\n        /* \"#utility.yul\":10631:10762   */\n      tag_267\n        /* \"#utility.yul\":10757:10761   */\n      dup2\n        /* \"#utility.yul\":10631:10762   */\n      tag_209\n      jump\t// in\n    tag_267:\n        /* \"#utility.yul\":10623:10762   */\n      swap1\n      pop\n        /* \"#utility.yul\":10350:10769   */\n      swap2\n      swap1\n      pop\n      jump\t// out\n        /* \"#utility.yul\":10775:11194   */\n    tag_122:\n        /* \"#utility.yul\":10941:10945   */\n      0x00\n        /* \"#utility.yul\":10979:10981   */\n      0x20\n        /* \"#utility.yul\":10968:10977   */\n      dup3\n        /* \"#utility.yul\":10964:10982   */\n      add\n        /* \"#utility.yul\":10956:10982   */\n      swap1\n      pop\n        /* \"#utility.yul\":11028:11037   */\n      dup2\n        /* \"#utility.yul\":11022:11026   */\n      dup2\n        /* \"#utility.yul\":11018:11038   */\n      sub\n        /* \"#utility.yul\":11014:11015   */\n      0x00\n        /* \"#utility.yul\":11003:11012   */\n      dup4\n        /* \"#utility.yul\":10999:11016   */\n      add\n        /* \"#utility.yul\":10992:11039   */\n      mstore\n        /* \"#utility.yul\":11056:11187   */\n      tag_269\n        /* \"#utility.yul\":11182:11186   */\n      dup2\n        /* \"#utility.yul\":11056:11187   */\n      tag_214\n      jump\t// in\n    tag_269:\n        /* \"#utility.yul\":11048:11187   */\n      swap1\n      pop\n        /* \"#utility.yul\":10775:11194   */\n      swap2\n      swap1\n      pop\n      jump\t// out\n        /* \"#utility.yul\":11200:11619   */\n    tag_71:\n        /* \"#utility.yul\":11366:11370   */\n      0x00\n        /* \"#utility.yul\":11404:11406   */\n      0x20\n        /* \"#utility.yul\":11393:11402   */\n      dup3\n        /* \"#utility.yul\":11389:11407   */\n      add\n        /* \"#utility.yul\":11381:11407   */\n      swap1\n      pop\n        /* \"#utility.yul\":11453:11462   */\n      dup2\n        /* \"#utility.yul\":11447:11451   */\n      dup2\n        /* \"#utility.yul\":11443:11463   */\n      sub\n        /* \"#utility.yul\":11439:11440   */\n      0x00\n        /* \"#utility.yul\":11428:11437   */\n      dup4\n        /* \"#utility.yul\":11424:11441   */\n      add\n        /* \"#utility.yul\":11417:11464   */\n      mstore\n        /* \"#utility.yul\":11481:11612   */\n      tag_271\n        /* \"#utility.yul\":11607:11611   */\n      dup2\n        /* \"#utility.yul\":11481:11612   */\n      tag_219\n      jump\t// in\n    tag_271:\n        /* \"#utility.yul\":11473:11612   */\n      swap1\n      pop\n        /* \"#utility.yul\":11200:11619   */\n      swap2\n      swap1\n      pop\n      jump\t// out\n        /* \"#utility.yul\":11625:12044   */\n    tag_91:\n        /* \"#utility.yul\":11791:11795   */\n      0x00\n        /* \"#utility.yul\":11829:11831   */\n      0x20\n        /* \"#utility.yul\":11818:11827   */\n      dup3\n        /* \"#utility.yul\":11814:11832   */\n      add\n        /* \"#utility.yul\":11806:11832   */\n      swap1\n      pop\n        /* \"#utility.yul\":11878:11887   */\n      dup2\n        /* \"#utility.yul\":11872:11876   */\n      dup2\n        /* \"#utility.yul\":11868:11888   */\n      sub\n        /* \"#utility.yul\":11864:11865   */\n      0x00\n        /* \"#utility.yul\":11853:11862   */\n      dup4\n        /* \"#utility.yul\":11849:11866   */\n      add\n        /* \"#utility.yul\":11842:11889   */\n      mstore\n        /* \"#utility.yul\":11906:12037   */\n      tag_273\n        /* \"#utility.yul\":12032:12036   */\n      dup2\n        /* \"#utility.yul\":11906:12037   */\n      tag_224\n      jump\t// in\n    tag_273:\n        /* \"#utility.yul\":11898:12037   */\n      swap1\n      pop\n        /* \"#utility.yul\":11625:12044   */\n      swap2\n      swap1\n      pop\n      jump\t// out\n        /* \"#utility.yul\":12050:12469   */\n    tag_96:\n        /* \"#utility.yul\":12216:12220   */\n      0x00\n        /* \"#utility.yul\":12254:12256   */\n      0x20\n        /* \"#utility.yul\":12243:12252   */\n      dup3\n        /* \"#utility.yul\":12239:12257   */\n      add\n        /* \"#utility.yul\":12231:12257   */\n      swap1\n      pop\n        /* \"#utility.yul\":12303:12312   */\n      dup2\n        /* \"#utility.yul\":12297:12301   */\n      dup2\n        /* \"#utility.yul\":12293:12313   */\n      sub\n        /* \"#utility.yul\":12289:12290   */\n      0x00\n        /* \"#utility.yul\":12278:12287   */\n      dup4\n        /* \"#utility.yul\":12274:12291   */\n      add\n        /* \"#utility.yul\":12267:12314   */\n      mstore\n        /* \"#utility.yul\":12331:12462   */\n      tag_275\n        /* \"#utility.yul\":12457:12461   */\n      dup2\n        /* \"#utility.yul\":12331:12462   */\n      tag_229\n      jump\t// in\n    tag_275:\n        /* \"#utility.yul\":12323:12462   */\n      swap1\n      pop\n        /* \"#utility.yul\":12050:12469   */\n      swap2\n      swap1\n      pop\n      jump\t// out\n        /* \"#utility.yul\":12475:12697   */\n    tag_17:\n        /* \"#utility.yul\":12568:12572   */\n      0x00\n        /* \"#utility.yul\":12606:12608   */\n      0x20\n        /* \"#utility.yul\":12595:12604   */\n      dup3\n        /* \"#utility.yul\":12591:12609   */\n      add\n        /* \"#utility.yul\":12583:12609   */\n      swap1\n      pop\n        /* \"#utility.yul\":12619:12690   */\n      tag_277\n        /* \"#utility.yul\":12687:12688   */\n      0x00\n        /* \"#utility.yul\":12676:12685   */\n      dup4\n        /* \"#utility.yul\":12672:12689   */\n      add\n        /* \"#utility.yul\":12663:12669   */\n      dup5\n        /* \"#utility.yul\":12619:12690   */\n      tag_234\n      jump\t// in\n    tag_277:\n        /* \"#utility.yul\":12475:12697   */\n      swap3\n      swap2\n      pop\n      pop\n      jump\t// out\n        /* \"#utility.yul\":12703:13248   */\n    tag_118:\n        /* \"#utility.yul\":12876:12880   */\n      0x00\n        /* \"#utility.yul\":12914:12917   */\n      0x80\n        /* \"#utility.yul\":12903:12912   */\n      dup3\n        /* \"#utility.yul\":12899:12918   */\n      add\n        /* \"#utility.yul\":12891:12918   */\n      swap1\n      pop\n        /* \"#utility.yul\":12928:12999   */\n      tag_279\n        /* \"#utility.yul\":12996:12997   */\n      0x00\n        /* \"#utility.yul\":12985:12994   */\n      dup4\n        /* \"#utility.yul\":12981:12998   */\n      add\n        /* \"#utility.yul\":12972:12978   */\n      dup8\n        /* \"#utility.yul\":12928:12999   */\n      tag_234\n      jump\t// in\n    tag_279:\n        /* \"#utility.yul\":13009:13081   */\n      tag_280\n        /* \"#utility.yul\":13077:13079   */\n      0x20\n        /* \"#utility.yul\":13066:13075   */\n      dup4\n        /* \"#utility.yul\":13062:13080   */\n      add\n        /* \"#utility.yul\":13053:13059   */\n      dup7\n        /* \"#utility.yul\":13009:13081   */\n      tag_234\n      jump\t// in\n    tag_280:\n        /* \"#utility.yul\":13091:13161   */\n      tag_281\n        /* \"#utility.yul\":13157:13159   */\n      0x40\n        /* \"#utility.yul\":13146:13155   */\n      dup4\n        /* \"#utility.yul\":13142:13160   */\n      add\n        /* \"#utility.yul\":13133:13139   */\n      dup6\n        /* \"#utility.yul\":13091:13161   */\n      tag_238\n      jump\t// in\n    tag_281:\n        /* \"#utility.yul\":13171:13241   */\n      tag_282\n        /* \"#utility.yul\":13237:13239   */\n      0x60\n        /* \"#utility.yul\":13226:13235   */\n      dup4\n        /* \"#utility.yul\":13222:13240   */\n      add\n        /* \"#utility.yul\":13213:13219   */\n      dup5\n        /* \"#utility.yul\":13171:13241   */\n      tag_238\n      jump\t// in\n    tag_282:\n        /* \"#utility.yul\":12703:13248   */\n      swap6\n      swap5\n      pop\n      pop\n      pop\n      pop\n      pop\n      jump\t// out\n        /* \"#utility.yul\":13335:13504   */\n    tag_191:\n        /* \"#utility.yul\":13419:13430   */\n      0x00\n        /* \"#utility.yul\":13453:13459   */\n      dup3\n        /* \"#utility.yul\":13448:13451   */\n      dup3\n        /* \"#utility.yul\":13441:13460   */\n      mstore\n        /* \"#utility.yul\":13493:13497   */\n      0x20\n        /* \"#utility.yul\":13488:13491   */\n      dup3\n        /* \"#utility.yul\":13484:13498   */\n      add\n        /* \"#utility.yul\":13469:13498   */\n      swap1\n      pop\n        /* \"#utility.yul\":13335:13504   */\n      swap3\n      swap2\n      pop\n      pop\n      jump\t// out\n        /* \"#utility.yul\":13510:13815   */\n    tag_113:\n        /* \"#utility.yul\":13550:13553   */\n      0x00\n        /* \"#utility.yul\":13569:13589   */\n      tag_287\n        /* \"#utility.yul\":13587:13588   */\n      dup3\n        /* \"#utility.yul\":13569:13589   */\n      tag_237\n      jump\t// in\n    tag_287:\n        /* \"#utility.yul\":13564:13589   */\n      swap2\n      pop\n        /* \"#utility.yul\":13603:13623   */\n      tag_288\n        /* \"#utility.yul\":13621:13622   */\n      dup4\n        /* \"#utility.yul\":13603:13623   */\n      tag_237\n      jump\t// in\n    tag_288:\n        /* \"#utility.yul\":13598:13623   */\n      swap3\n      pop\n        /* \"#utility.yul\":13757:13758   */\n      dup3\n        /* \"#utility.yul\":13689:13755   */\n      0xffffffffffffffffffffffffffffffffffffffffffffffffffffffffffffffff\n        /* \"#utility.yul\":13685:13759   */\n      sub\n        /* \"#utility.yul\":13682:13683   */\n      dup3\n        /* \"#utility.yul\":13679:13760   */\n      gt\n        /* \"#utility.yul\":13676:13783   */\n      iszero\n      tag_289\n      jumpi\n        /* \"#utility.yul\":13763:13781   */\n      tag_290\n      tag_291\n      jump\t// in\n    tag_290:\n        /* \"#utility.yul\":13676:13783   */\n    tag_289:\n        /* \"#utility.yul\":13807:13808   */\n      dup3\n        /* \"#utility.yul\":13804:13805   */\n      dup3\n        /* \"#utility.yul\":13800:13809   */\n      add\n        /* \"#utility.yul\":13793:13809   */\n      swap1\n      pop\n        /* \"#utility.yul\":13510:13815   */\n      swap3\n      swap2\n      pop\n      pop\n      jump\t// out\n        /* \"#utility.yul\":13821:14012   */\n    tag_98:\n        /* \"#utility.yul\":13861:13865   */\n      0x00\n        /* \"#utility.yul\":13881:13901   */\n      tag_293\n        /* \"#utility.yul\":13899:13900   */\n      dup3\n        /* \"#utility.yul\":13881:13901   */\n      tag_237\n      jump\t// in\n    tag_293:\n        /* \"#utility.yul\":13876:13901   */\n      swap2\n      pop\n        /* \"#utility.yul\":13915:13935   */\n      tag_294\n        /* \"#utility.yul\":13933:13934   */\n      dup4\n        /* \"#utility.yul\":13915:13935   */\n      tag_237\n      jump\t// in\n    tag_294:\n        /* \"#utility.yul\":13910:13935   */\n      swap3\n      pop\n        /* \"#utility.yul\":13954:13955   */\n      dup3\n        /* \"#utility.yul\":13951:13952   */\n      dup3\n        /* \"#utility.yul\":13948:13956   */\n      lt\n        /* \"#utility.yul\":13945:13979   */\n      iszero\n      tag_295\n      jumpi\n        /* \"#utility.yul\":13959:13977   */\n      tag_296\n      tag_291\n      jump\t// in\n    tag_296:\n        /* \"#utility.yul\":13945:13979   */\n    tag_295:\n        /* \"#utility.yul\":14004:14005   */\n      dup3\n        /* \"#utility.yul\":14001:14002   */\n      dup3\n        /* \"#utility.yul\":13997:14006   */\n      sub\n        /* \"#utility.yul\":13989:14006   */\n      swap1\n      pop\n        /* \"#utility.yul\":13821:14012   */\n      swap3\n      swap2\n      pop\n      pop\n      jump\t// out\n        /* \"#utility.yul\":14018:14114   */\n    tag_179:\n        /* \"#utility.yul\":14055:14062   */\n      0x00\n        /* \"#utility.yul\":14084:14108   */\n      tag_298\n        /* \"#utility.yul\":14102:14107   */\n      dup3\n        /* \"#utility.yul\":14084:14108   */\n      tag_299\n      jump\t// in\n    tag_298:\n        /* \"#utility.yul\":14073:14108   */\n      swap1\n      pop\n        /* \"#utility.yul\":14018:14114   */\n      swap2\n      swap1\n      pop\n      jump\t// out\n        /* \"#utility.yul\":14120:14210   */\n    tag_183:\n        /* \"#utility.yul\":14154:14161   */\n      0x00\n        /* \"#utility.yul\":14197:14202   */\n      dup2\n        /* \"#utility.yul\":14190:14203   */\n      iszero\n        /* \"#utility.yul\":14183:14204   */\n      iszero\n        /* \"#utility.yul\":14172:14204   */\n      swap1\n      pop\n        /* \"#utility.yul\":14120:14210   */\n      swap2\n      swap1\n      pop\n      jump\t// out\n        /* \"#utility.yul\":14216:14342   */\n    tag_299:\n        /* \"#utility.yul\":14253:14260   */\n      0x00\n        /* \"#utility.yul\":14293:14335   */\n      0xffffffffffffffffffffffffffffffffffffffff\n        /* \"#utility.yul\":14286:14291   */\n      dup3\n        /* \"#utility.yul\":14282:14336   */\n      and\n        /* \"#utility.yul\":14271:14336   */\n      swap1\n      pop\n        /* \"#utility.yul\":14216:14342   */\n      swap2\n      swap1\n      pop\n      jump\t// out\n        /* \"#utility.yul\":14348:14425   */\n    tag_237:\n        /* \"#utility.yul\":14385:14392   */\n      0x00\n        /* \"#utility.yul\":14414:14419   */\n      dup2\n        /* \"#utility.yul\":14403:14419   */\n      swap1\n      pop\n        /* \"#utility.yul\":14348:14425   */\n      swap2\n      swap1\n      pop\n      jump\t// out\n        /* \"#utility.yul\":14431:14524   */\n    tag_241:\n        /* \"#utility.yul\":14467:14474   */\n      0x00\n        /* \"#utility.yul\":14507:14517   */\n      0xffffffff\n        /* \"#utility.yul\":14500:14505   */\n      dup3\n        /* \"#utility.yul\":14496:14518   */\n      and\n        /* \"#utility.yul\":14485:14518   */\n      swap1\n      pop\n        /* \"#utility.yul\":14431:14524   */\n      swap2\n      swap1\n      pop\n      jump\t// out\n        /* \"#utility.yul\":14530:14670   */\n    tag_187:\n        /* \"#utility.yul\":14594:14603   */\n      0x00\n        /* \"#utility.yul\":14627:14664   */\n      tag_305\n        /* \"#utility.yul\":14658:14663   */\n      dup3\n        /* \"#utility.yul\":14627:14664   */\n      tag_306\n      jump\t// in\n    tag_305:\n        /* \"#utility.yul\":14614:14664   */\n      swap1\n      pop\n        /* \"#utility.yul\":14530:14670   */\n      swap2\n      swap1\n      pop\n      jump\t// out\n        /* \"#utility.yul\":14676:14802   */\n    tag_306:\n        /* \"#utility.yul\":14726:14735   */\n      0x00\n        /* \"#utility.yul\":14759:14796   */\n      tag_308\n        /* \"#utility.yul\":14790:14795   */\n      dup3\n        /* \"#utility.yul\":14759:14796   */\n      tag_309\n      jump\t// in\n    tag_308:\n        /* \"#utility.yul\":14746:14796   */\n      swap1\n      pop\n        /* \"#utility.yul\":14676:14802   */\n      swap2\n      swap1\n      pop\n      jump\t// out\n        /* \"#utility.yul\":14808:14921   */\n    tag_309:\n        /* \"#utility.yul\":14858:14867   */\n      0x00\n        /* \"#utility.yul\":14891:14915   */\n      tag_311\n        /* \"#utility.yul\":14909:14914   */\n      dup3\n        /* \"#utility.yul\":14891:14915   */\n      tag_299\n      jump\t// in\n    tag_311:\n        /* \"#utility.yul\":14878:14915   */\n      swap1\n      pop\n        /* \"#utility.yul\":14808:14921   */\n      swap2\n      swap1\n      pop\n      jump\t// out\n        /* \"#utility.yul\":14927:15107   */\n    tag_291:\n        /* \"#utility.yul\":14975:15052   */\n      0x4e487b7100000000000000000000000000000000000000000000000000000000\n        /* \"#utility.yul\":14972:14973   */\n      0x00\n        /* \"#utility.yul\":14965:15053   */\n      mstore\n        /* \"#utility.yul\":15072:15076   */\n      0x11\n        /* \"#utility.yul\":15069:15070   */\n      0x04\n        /* \"#utility.yul\":15062:15077   */\n      mstore\n        /* \"#utility.yul\":15096:15100   */\n      0x24\n        /* \"#utility.yul\":15093:15094   */\n      0x00\n        /* \"#utility.yul\":15086:15101   */\n      revert\n        /* \"#utility.yul\":15236:15353   */\n    tag_154:\n        /* \"#utility.yul\":15345:15346   */\n      0x00\n        /* \"#utility.yul\":15342:15343   */\n      dup1\n        /* \"#utility.yul\":15335:15347   */\n      revert\n        /* \"#utility.yul\":15359:15538   */\n    tag_193:\n        /* \"#utility.yul\":15499:15530   */\n      0x5468652063616d706169676e206973206e6f74206f7665722079657421000000\n        /* \"#utility.yul\":15495:15496   */\n      0x00\n        /* \"#utility.yul\":15487:15493   */\n      dup3\n        /* \"#utility.yul\":15483:15497   */\n      add\n        /* \"#utility.yul\":15476:15531   */\n      mstore\n        /* \"#utility.yul\":15359:15538   */\n      pop\n      jump\t// out\n        /* \"#utility.yul\":15544:15713   */\n    tag_198:\n        /* \"#utility.yul\":15684:15705   */\n      0x546172676574206e6f7420726561636865642100000000000000000000000000\n        /* \"#utility.yul\":15680:15681   */\n      0x00\n        /* \"#utility.yul\":15672:15678   */\n      dup3\n        /* \"#utility.yul\":15668:15682   */\n      add\n        /* \"#utility.yul\":15661:15706   */\n      mstore\n        /* \"#utility.yul\":15544:15713   */\n      pop\n      jump\t// out\n        /* \"#utility.yul\":15719:15898   */\n    tag_203:\n        /* \"#utility.yul\":15859:15890   */\n      0x5468652063616d706169676e20616c726561647920636c61696d656421000000\n        /* \"#utility.yul\":15855:15856   */\n      0x00\n        /* \"#utility.yul\":15847:15853   */\n      dup3\n        /* \"#utility.yul\":15843:15857   */\n      add\n        /* \"#utility.yul\":15836:15891   */\n      mstore\n        /* \"#utility.yul\":15719:15898   */\n      pop\n      jump\t// out\n        /* \"#utility.yul\":15904:16068   */\n    tag_208:\n        /* \"#utility.yul\":16044:16060   */\n      0x7374617274206174203c206e6f77000000000000000000000000000000000000\n        /* \"#utility.yul\":16040:16041   */\n      0x00\n        /* \"#utility.yul\":16032:16038   */\n      dup3\n        /* \"#utility.yul\":16028:16042   */\n      add\n        /* \"#utility.yul\":16021:16061   */\n      mstore\n        /* \"#utility.yul\":15904:16068   */\n      pop\n      jump\t// out\n        /* \"#utility.yul\":16074:16295   */\n    tag_213:\n        /* \"#utility.yul\":16214:16248   */\n      0x5468652063616d706169676e2068617320726561636865642069747320676f61\n        /* \"#utility.yul\":16210:16211   */\n      0x00\n        /* \"#utility.yul\":16202:16208   */\n      dup3\n        /* \"#utility.yul\":16198:16212   */\n      add\n        /* \"#utility.yul\":16191:16249   */\n      mstore\n        /* \"#utility.yul\":16283:16287   */\n      0x6c21000000000000000000000000000000000000000000000000000000000000\n        /* \"#utility.yul\":16278:16280   */\n      0x20\n        /* \"#utility.yul\":16270:16276   */\n      dup3\n        /* \"#utility.yul\":16266:16281   */\n      add\n        /* \"#utility.yul\":16259:16288   */\n      mstore\n        /* \"#utility.yul\":16074:16295   */\n      pop\n      jump\t// out\n        /* \"#utility.yul\":16301:16472   */\n    tag_218:\n        /* \"#utility.yul\":16441:16464   */\n      0x43616d706169676e206e6f742073746172746564210000000000000000000000\n        /* \"#utility.yul\":16437:16438   */\n      0x00\n        /* \"#utility.yul\":16429:16435   */\n      dup3\n        /* \"#utility.yul\":16425:16439   */\n      add\n        /* \"#utility.yul\":16418:16465   */\n      mstore\n        /* \"#utility.yul\":16301:16472   */\n      pop\n      jump\t// out\n        /* \"#utility.yul\":16478:16711   */\n    tag_223:\n        /* \"#utility.yul\":16618:16652   */\n      0x596f75206d7573742062652063726561746f7220746f20706572666f726d2074\n        /* \"#utility.yul\":16614:16615   */\n      0x00\n        /* \"#utility.yul\":16606:16612   */\n      dup3\n        /* \"#utility.yul\":16602:16616   */\n      add\n        /* \"#utility.yul\":16595:16653   */\n      mstore\n        /* \"#utility.yul\":16687:16703   */\n      0x686973206f7065726174696f6e2e000000000000000000000000000000000000\n        /* \"#utility.yul\":16682:16684   */\n      0x20\n        /* \"#utility.yul\":16674:16680   */\n      dup3\n        /* \"#utility.yul\":16670:16685   */\n      add\n        /* \"#utility.yul\":16663:16704   */\n      mstore\n        /* \"#utility.yul\":16478:16711   */\n      pop\n      jump\t// out\n        /* \"#utility.yul\":16717:16892   */\n    tag_228:\n        /* \"#utility.yul\":16857:16884   */\n      0x43616d706169676e20616c726561647920737461727465642100000000000000\n        /* \"#utility.yul\":16853:16854   */\n      0x00\n        /* \"#utility.yul\":16845:16851   */\n      dup3\n        /* \"#utility.yul\":16841:16855   */\n      add\n        /* \"#utility.yul\":16834:16885   */\n      mstore\n        /* \"#utility.yul\":16717:16892   */\n      pop\n      jump\t// out\n        /* \"#utility.yul\":16898:17071   */\n    tag_233:\n        /* \"#utility.yul\":17038:17063   */\n      0x43616d706169676e20616c726561647920656e64656421000000000000000000\n        /* \"#utility.yul\":17034:17035   */\n      0x00\n        /* \"#utility.yul\":17026:17032   */\n      dup3\n        /* \"#utility.yul\":17022:17036   */\n      add\n        /* \"#utility.yul\":17015:17064   */\n      mstore\n        /* \"#utility.yul\":16898:17071   */\n      pop\n      jump\t// out\n        /* \"#utility.yul\":17077:17199   */\n    tag_138:\n        /* \"#utility.yul\":17150:17174   */\n      tag_326\n        /* \"#utility.yul\":17168:17173   */\n      dup2\n        /* \"#utility.yul\":17150:17174   */\n      tag_179\n      jump\t// in\n    tag_326:\n        /* \"#utility.yul\":17143:17148   */\n      dup2\n        /* \"#utility.yul\":17140:17175   */\n      eq\n        /* \"#utility.yul\":17130:17193   */\n      tag_327\n      jumpi\n        /* \"#utility.yul\":17189:17190   */\n      0x00\n        /* \"#utility.yul\":17186:17187   */\n      dup1\n        /* \"#utility.yul\":17179:17191   */\n      revert\n        /* \"#utility.yul\":17130:17193   */\n    tag_327:\n        /* \"#utility.yul\":17077:17199   */\n      pop\n      jump\t// out\n        /* \"#utility.yul\":17205:17321   */\n    tag_142:\n        /* \"#utility.yul\":17275:17296   */\n      tag_329\n        /* \"#utility.yul\":17290:17295   */\n      dup2\n        /* \"#utility.yul\":17275:17296   */\n      tag_183\n      jump\t// in\n    tag_329:\n        /* \"#utility.yul\":17268:17273   */\n      dup2\n        /* \"#utility.yul\":17265:17297   */\n      eq\n        /* \"#utility.yul\":17255:17315   */\n      tag_330\n      jumpi\n        /* \"#utility.yul\":17311:17312   */\n      0x00\n        /* \"#utility.yul\":17308:17309   */\n      dup1\n        /* \"#utility.yul\":17301:17313   */\n      revert\n        /* \"#utility.yul\":17255:17315   */\n    tag_330:\n        /* \"#utility.yul\":17205:17321   */\n      pop\n      jump\t// out\n        /* \"#utility.yul\":17327:17449   */\n    tag_146:\n        /* \"#utility.yul\":17400:17424   */\n      tag_332\n        /* \"#utility.yul\":17418:17423   */\n      dup2\n        /* \"#utility.yul\":17400:17424   */\n      tag_237\n      jump\t// in\n    tag_332:\n        /* \"#utility.yul\":17393:17398   */\n      dup2\n        /* \"#utility.yul\":17390:17425   */\n      eq\n        /* \"#utility.yul\":17380:17443   */\n      tag_333\n      jumpi\n        /* \"#utility.yul\":17439:17440   */\n      0x00\n        /* \"#utility.yul\":17436:17437   */\n      dup1\n        /* \"#utility.yul\":17429:17441   */\n      revert\n        /* \"#utility.yul\":17380:17443   */\n    tag_333:\n        /* \"#utility.yul\":17327:17449   */\n      pop\n      jump\t// out\n        /* \"#utility.yul\":17455:17575   */\n    tag_150:\n        /* \"#utility.yul\":17527:17550   */\n      tag_335\n        /* \"#utility.yul\":17544:17549   */\n      dup2\n        /* \"#utility.yul\":17527:17550   */\n      tag_241\n      jump\t// in\n    tag_335:\n        /* \"#utility.yul\":17520:17525   */\n      dup2\n        /* \"#utility.yul\":17517:17551   */\n      eq\n        /* \"#utility.yul\":17507:17569   */\n      tag_336\n      jumpi\n        /* \"#utility.yul\":17565:17566   */\n      0x00\n        /* \"#utility.yul\":17562:17563   */\n      dup1\n        /* \"#utility.yul\":17555:17567   */\n      revert\n        /* \"#utility.yul\":17507:17569   */\n    tag_336:\n        /* \"#utility.yul\":17455:17575   */\n      pop\n      jump\t// out\n\n    auxdata: 0xa26469706673582212207b9dc9dda07f1dd9558f494b9472467a0d75fe8cd523a8bc82092b8233c947b064736f6c63430008070033\n}\n",
				"bytecode": {
					"linkReferences": {},
					"object": "60a06040523480156200001157600080fd5b5060405162001b9038038062001b9083398181016040528101906200003791906200008c565b8073ffffffffffffffffffffffffffffffffffffffff1660808173ffffffffffffffffffffffffffffffffffffffff1660601b815250505062000111565b6000815190506200008681620000f7565b92915050565b600060208284031215620000a557620000a4620000f2565b5b6000620000b58482850162000075565b91505092915050565b6000620000cb82620000d2565b9050919050565b600073ffffffffffffffffffffffffffffffffffffffff82169050919050565b600080fd5b6200010281620000be565b81146200010e57600080fd5b50565b60805160601c611a446200014c600039600081816103e4015281816106a401528181610aff01528181610ebd01526110330152611a446000f3fe608060405234801561001057600080fd5b506004361061009e5760003560e01c8063711853ab11610066578063711853ab1461014a578063aa4fb63a14610166578063daf6994014610196578063fc0c546a146101b2578063fde327be146101d05761009e565b806306661abd146100a3578063141961bc146100c1578063278ecde1146100f6578063379607f51461011257806340e58ee51461012e575b600080fd5b6100ab6101ec565b6040516100b89190611638565b60405180910390f35b6100db60048036038101906100d691906111b6565b6101f2565b6040516100ed9695949392919061149c565b60405180910390f35b610110600480360381019061010b91906111b6565b61027b565b005b61012c600480360381019061012791906111b6565b6104e4565b005b610148600480360381019061014391906111b6565b61078f565b005b610164600480360381019061015f9190611223565b610a08565b005b610180600480360381019061017b91906111e3565b610bff565b60405161018d9190611638565b60405180910390f35b6101b060048036038101906101ab9190611263565b610c24565b005b6101ba610ebb565b6040516101c791906114fd565b60405180910390f35b6101ea60048036038101906101e59190611223565b610edf565b005b60025481565b60006020528060005260406000206000915090508060000160009054906101000a900473ffffffffffffffffffffffffffffffffffffffff16908060010154908060020154908060030160009054906101000a900463ffffffff16908060030160049054906101000a900463ffffffff16908060030160089054906101000a900460ff16905086565b60008060008381526020019081526020016000209050428160030160049054906101000a900463ffffffff1663ffffffff16106102ed576040517f08c379a00000000000000000000000000000000000000000000000000000000081526004016102e490611518565b60405180910390fd5b8060010154816002015410610337576040517f08c379a000000000000000000000000000000000000000000000000000000000815260040161032e90611598565b60405180910390fd5b60006001600084815260200190815260200160002060003373ffffffffffffffffffffffffffffffffffffffff1673ffffffffffffffffffffffffffffffffffffffff16815260200190815260200160002054905060006001600085815260200190815260200160002060003373ffffffffffffffffffffffffffffffffffffffff1673ffffffffffffffffffffffffffffffffffffffff168152602001908152602001600020819055507f000000000000000000000000000000000000000000000000000000000000000073ffffffffffffffffffffffffffffffffffffffff1663a9059cbb33836040518363ffffffff1660e01b815260040161043d929190611473565b602060405180830381600087803b15801561045757600080fd5b505af115801561046b573d6000803e3d6000fd5b505050506040513d601f19601f8201168201806040525081019061048f9190611189565b503373ffffffffffffffffffffffffffffffffffffffff16837f21e12a7cad0da5928167e1084ea4d5fdf8d9af66657a2543a9ac76a0ca081477836040516104d79190611638565b60405180910390a3505050565b600080600083815260200190815260200160002090503373ffffffffffffffffffffffffffffffffffffffff168160000160009054906101000a900473ffffffffffffffffffffffffffffffffffffffff1673ffffffffffffffffffffffffffffffffffffffff161461058c576040517f08c379a0000000000000000000000000000000000000000000000000000000008152600401610583906115d8565b60405180910390fd5b8060030160089054906101000a900460ff16156105de576040517f08c379a00000000000000000000000000000000000000000000000000000000081526004016105d590611558565b60405180910390fd5b428160030160049054906101000a900463ffffffff1663ffffffff161061063a576040517f08c379a000000000000000000000000000000000000000000000000000000000815260040161063190611518565b60405180910390fd5b806001015481600201541015610685576040517f08c379a000000000000000000000000000000000000000000000000000000000815260040161067c90611538565b60405180910390fd5b60018160030160086101000a81548160ff0219169083151502179055507f000000000000000000000000000000000000000000000000000000000000000073ffffffffffffffffffffffffffffffffffffffff1663a9059cbb3383600201546040518363ffffffff1660e01b8152600401610701929190611473565b602060405180830381600087803b15801561071b57600080fd5b505af115801561072f573d6000803e3d6000fd5b505050506040513d601f19601f820116820180604052508101906107539190611189565b507f7bb2b3c10797baccb6f8c4791f1edd6ca2f0d028ee0eda64b01a9a57e3a653f7826040516107839190611638565b60405180910390a15050565b60008060008381526020019081526020016000206040518060c00160405290816000820160009054906101000a900473ffffffffffffffffffffffffffffffffffffffff1673ffffffffffffffffffffffffffffffffffffffff1673ffffffffffffffffffffffffffffffffffffffff16815260200160018201548152602001600282015481526020016003820160009054906101000a900463ffffffff1663ffffffff1663ffffffff1681526020016003820160049054906101000a900463ffffffff1663ffffffff1663ffffffff1681526020016003820160089054906101000a900460ff1615151515815250509050806000015173ffffffffffffffffffffffffffffffffffffffff163373ffffffffffffffffffffffffffffffffffffffff16146108f3576040517f08c379a00000000000000000000000000000000000000000000000000000000081526004016108ea906115d8565b60405180910390fd5b806060015163ffffffff16421061093f576040517f08c379a0000000000000000000000000000000000000000000000000000000008152600401610936906115f8565b60405180910390fd5b600080838152602001908152602001600020600080820160006101000a81549073ffffffffffffffffffffffffffffffffffffffff0219169055600182016000905560028201600090556003820160006101000a81549063ffffffff02191690556003820160046101000a81549063ffffffff02191690556003820160086101000a81549060ff021916905550507f8bf30e7ff26833413be5f69e1d373744864d600b664204b4a2f9844a8eedb9ed826040516109fc9190611638565b60405180910390a15050565b60008060008481526020019081526020016000209050428160030160049054906101000a900463ffffffff1663ffffffff161015610a7b576040517f08c379a0000000000000000000000000000000000000000000000000000000008152600401610a7290611618565b60405180910390fd5b81816002016000828254610a8f91906116ff565b92505081905550816001600085815260200190815260200160002060003373ffffffffffffffffffffffffffffffffffffffff1673ffffffffffffffffffffffffffffffffffffffff1681526020019081526020016000206000828254610af691906116ff565b925050819055507f000000000000000000000000000000000000000000000000000000000000000073ffffffffffffffffffffffffffffffffffffffff1663a9059cbb33846040518363ffffffff1660e01b8152600401610b58929190611473565b602060405180830381600087803b158015610b7257600080fd5b505af1158015610b86573d6000803e3d6000fd5b505050506040513d601f19601f82011682018060405250810190610baa9190611189565b503373ffffffffffffffffffffffffffffffffffffffff16837f2eeeab891b26a214d1b25749f88a406bdea852bd8c9bfda977e0ef8114c180ba84604051610bf29190611638565b60405180910390a3505050565b6001602052816000526040600020602052806000526040600020600091509150505481565b428263ffffffff161015610c6d576040517f08c379a0000000000000000000000000000000000000000000000000000000008152600401610c6490611578565b60405180910390fd5b8063ffffffff168263ffffffff161115610cbc576040517f08c379a0000000000000000000000000000000000000000000000000000000008152600401610cb390611578565b60405180910390fd5b6276a70042610ccb91906116a9565b8163ffffffff161115610d13576040517f08c379a0000000000000000000000000000000000000000000000000000000008152600401610d0a90611578565b60405180910390fd5b600160026000828254610d2691906116a9565b925050819055506040518060c001604052803373ffffffffffffffffffffffffffffffffffffffff168152602001848152602001600081526020018363ffffffff1681526020018263ffffffff16815260200160001515815250600080600254815260200190815260200160002060008201518160000160006101000a81548173ffffffffffffffffffffffffffffffffffffffff021916908373ffffffffffffffffffffffffffffffffffffffff160217905550602082015181600101556040820151816002015560608201518160030160006101000a81548163ffffffff021916908363ffffffff16021790555060808201518160030160046101000a81548163ffffffff021916908363ffffffff16021790555060a08201518160030160086101000a81548160ff0219169083151502179055509050503373ffffffffffffffffffffffffffffffffffffffff167f0601cd0d650b473037e838a2696d41e654433d065b3f56b28d1d3302e44a304f600254858585604051610eae9493929190611653565b60405180910390a2505050565b7f000000000000000000000000000000000000000000000000000000000000000081565b60008060008481526020019081526020016000209050428160030160009054906101000a900463ffffffff1663ffffffff161115610f52576040517f08c379a0000000000000000000000000000000000000000000000000000000008152600401610f49906115b8565b60405180910390fd5b428160030160049054906101000a900463ffffffff1663ffffffff161015610faf576040517f08c379a0000000000000000000000000000000000000000000000000000000008152600401610fa690611618565b60405180910390fd5b81816002016000828254610fc391906116a9565b92505081905550816001600085815260200190815260200160002060003373ffffffffffffffffffffffffffffffffffffffff1673ffffffffffffffffffffffffffffffffffffffff168152602001908152602001600020600082825461102a91906116a9565b925050819055507f000000000000000000000000000000000000000000000000000000000000000073ffffffffffffffffffffffffffffffffffffffff166323b872dd3330856040518463ffffffff1660e01b815260040161108e9392919061143c565b602060405180830381600087803b1580156110a857600080fd5b505af11580156110bc573d6000803e3d6000fd5b505050506040513d601f19601f820116820180604052508101906110e09190611189565b503373ffffffffffffffffffffffffffffffffffffffff16837f06bdb975df800a73232998e71ed585d536222f1dfeaa622d7f62a23ada686c82846040516111289190611638565b60405180910390a3505050565b600081359050611144816119b2565b92915050565b600081519050611159816119c9565b92915050565b60008135905061116e816119e0565b92915050565b600081359050611183816119f7565b92915050565b60006020828403121561119f5761119e6117f0565b5b60006111ad8482850161114a565b91505092915050565b6000602082840312156111cc576111cb6117f0565b5b60006111da8482850161115f565b91505092915050565b600080604083850312156111fa576111f96117f0565b5b60006112088582860161115f565b925050602061121985828601611135565b9150509250929050565b6000806040838503121561123a576112396117f0565b5b60006112488582860161115f565b92505060206112598582860161115f565b9150509250929050565b60008060006060848603121561127c5761127b6117f0565b5b600061128a8682870161115f565b935050602061129b86828701611174565b92505060406112ac86828701611174565b9150509250925092565b6112bf81611733565b82525050565b6112ce81611745565b82525050565b6112dd8161178b565b82525050565b60006112f0601d83611698565b91506112fb826117f5565b602082019050919050565b6000611313601383611698565b915061131e8261181e565b602082019050919050565b6000611336601d83611698565b915061134182611847565b602082019050919050565b6000611359600e83611698565b915061136482611870565b602082019050919050565b600061137c602283611698565b915061138782611899565b604082019050919050565b600061139f601583611698565b91506113aa826118e8565b602082019050919050565b60006113c2602e83611698565b91506113cd82611911565b604082019050919050565b60006113e5601983611698565b91506113f082611960565b602082019050919050565b6000611408601783611698565b915061141382611989565b602082019050919050565b61142781611771565b82525050565b6114368161177b565b82525050565b600060608201905061145160008301866112b6565b61145e60208301856112b6565b61146b604083018461141e565b949350505050565b600060408201905061148860008301856112b6565b611495602083018461141e565b9392505050565b600060c0820190506114b160008301896112b6565b6114be602083018861141e565b6114cb604083018761141e565b6114d8606083018661142d565b6114e5608083018561142d565b6114f260a08301846112c5565b979650505050505050565b600060208201905061151260008301846112d4565b92915050565b60006020820190508181036000830152611531816112e3565b9050919050565b6000602082019050818103600083015261155181611306565b9050919050565b6000602082019050818103600083015261157181611329565b9050919050565b600060208201905081810360008301526115918161134c565b9050919050565b600060208201905081810360008301526115b18161136f565b9050919050565b600060208201905081810360008301526115d181611392565b9050919050565b600060208201905081810360008301526115f1816113b5565b9050919050565b60006020820190508181036000830152611611816113d8565b9050919050565b60006020820190508181036000830152611631816113fb565b9050919050565b600060208201905061164d600083018461141e565b92915050565b6000608082019050611668600083018761141e565b611675602083018661141e565b611682604083018561142d565b61168f606083018461142d565b95945050505050565b600082825260208201905092915050565b60006116b482611771565b91506116bf83611771565b9250827fffffffffffffffffffffffffffffffffffffffffffffffffffffffffffffffff038211156116f4576116f36117c1565b5b828201905092915050565b600061170a82611771565b915061171583611771565b925082821015611728576117276117c1565b5b828203905092915050565b600061173e82611751565b9050919050565b60008115159050919050565b600073ffffffffffffffffffffffffffffffffffffffff82169050919050565b6000819050919050565b600063ffffffff82169050919050565b60006117968261179d565b9050919050565b60006117a8826117af565b9050919050565b60006117ba82611751565b9050919050565b7f4e487b7100000000000000000000000000000000000000000000000000000000600052601160045260246000fd5b600080fd5b7f5468652063616d706169676e206973206e6f74206f7665722079657421000000600082015250565b7f546172676574206e6f7420726561636865642100000000000000000000000000600082015250565b7f5468652063616d706169676e20616c726561647920636c61696d656421000000600082015250565b7f7374617274206174203c206e6f77000000000000000000000000000000000000600082015250565b7f5468652063616d706169676e2068617320726561636865642069747320676f6160008201527f6c21000000000000000000000000000000000000000000000000000000000000602082015250565b7f43616d706169676e206e6f742073746172746564210000000000000000000000600082015250565b7f596f75206d7573742062652063726561746f7220746f20706572666f726d207460008201527f686973206f7065726174696f6e2e000000000000000000000000000000000000602082015250565b7f43616d706169676e20616c726561647920737461727465642100000000000000600082015250565b7f43616d706169676e20616c726561647920656e64656421000000000000000000600082015250565b6119bb81611733565b81146119c657600080fd5b50565b6119d281611745565b81146119dd57600080fd5b50565b6119e981611771565b81146119f457600080fd5b50565b611a008161177b565b8114611a0b57600080fd5b5056fea26469706673582212207b9dc9dda07f1dd9558f494b9472467a0d75fe8cd523a8bc82092b8233c947b064736f6c63430008070033",
					"opcodes": "PUSH1 0xA0 PUSH1 0x40 MSTORE CALLVALUE DUP1 ISZERO PUSH3 0x11 JUMPI PUSH1 0x0 DUP1 REVERT JUMPDEST POP PUSH1 0x40 MLOAD PUSH3 0x1B90 CODESIZE SUB DUP1 PUSH3 0x1B90 DUP4 CODECOPY DUP2 DUP2 ADD PUSH1 0x40 MSTORE DUP2 ADD SWAP1 PUSH3 0x37 SWAP2 SWAP1 PUSH3 0x8C JUMP JUMPDEST DUP1 PUSH20 0xFFFFFFFFFFFFFFFFFFFFFFFFFFFFFFFFFFFFFFFF AND PUSH1 0x80 DUP2 PUSH20 0xFFFFFFFFFFFFFFFFFFFFFFFFFFFFFFFFFFFFFFFF AND PUSH1 0x60 SHL DUP2 MSTORE POP POP POP PUSH3 0x111 JUMP JUMPDEST PUSH1 0x0 DUP2 MLOAD SWAP1 POP PUSH3 0x86 DUP2 PUSH3 0xF7 JUMP JUMPDEST SWAP3 SWAP2 POP POP JUMP JUMPDEST PUSH1 0x0 PUSH1 0x20 DUP3 DUP5 SUB SLT ISZERO PUSH3 0xA5 JUMPI PUSH3 0xA4 PUSH3 0xF2 JUMP JUMPDEST JUMPDEST PUSH1 0x0 PUSH3 0xB5 DUP5 DUP3 DUP6 ADD PUSH3 0x75 JUMP JUMPDEST SWAP2 POP POP SWAP3 SWAP2 POP POP JUMP JUMPDEST PUSH1 0x0 PUSH3 0xCB DUP3 PUSH3 0xD2 JUMP JUMPDEST SWAP1 POP SWAP2 SWAP1 POP JUMP JUMPDEST PUSH1 0x0 PUSH20 0xFFFFFFFFFFFFFFFFFFFFFFFFFFFFFFFFFFFFFFFF DUP3 AND SWAP1 POP SWAP2 SWAP1 POP JUMP JUMPDEST PUSH1 0x0 DUP1 REVERT JUMPDEST PUSH3 0x102 DUP2 PUSH3 0xBE JUMP JUMPDEST DUP2 EQ PUSH3 0x10E JUMPI PUSH1 0x0 DUP1 REVERT JUMPDEST POP JUMP JUMPDEST PUSH1 0x80 MLOAD PUSH1 0x60 SHR PUSH2 0x1A44 PUSH3 0x14C PUSH1 0x0 CODECOPY PUSH1 0x0 DUP2 DUP2 PUSH2 0x3E4 ADD MSTORE DUP2 DUP2 PUSH2 0x6A4 ADD MSTORE DUP2 DUP2 PUSH2 0xAFF ADD MSTORE DUP2 DUP2 PUSH2 0xEBD ADD MSTORE PUSH2 0x1033 ADD MSTORE PUSH2 0x1A44 PUSH1 0x0 RETURN INVALID PUSH1 0x80 PUSH1 0x40 MSTORE CALLVALUE DUP1 ISZERO PUSH2 0x10 JUMPI PUSH1 0x0 DUP1 REVERT JUMPDEST POP PUSH1 0x4 CALLDATASIZE LT PUSH2 0x9E JUMPI PUSH1 0x0 CALLDATALOAD PUSH1 0xE0 SHR DUP1 PUSH4 0x711853AB GT PUSH2 0x66 JUMPI DUP1 PUSH4 0x711853AB EQ PUSH2 0x14A JUMPI DUP1 PUSH4 0xAA4FB63A EQ PUSH2 0x166 JUMPI DUP1 PUSH4 0xDAF69940 EQ PUSH2 0x196 JUMPI DUP1 PUSH4 0xFC0C546A EQ PUSH2 0x1B2 JUMPI DUP1 PUSH4 0xFDE327BE EQ PUSH2 0x1D0 JUMPI PUSH2 0x9E JUMP JUMPDEST DUP1 PUSH4 0x6661ABD EQ PUSH2 0xA3 JUMPI DUP1 PUSH4 0x141961BC EQ PUSH2 0xC1 JUMPI DUP1 PUSH4 0x278ECDE1 EQ PUSH2 0xF6 JUMPI DUP1 PUSH4 0x379607F5 EQ PUSH2 0x112 JUMPI DUP1 PUSH4 0x40E58EE5 EQ PUSH2 0x12E JUMPI JUMPDEST PUSH1 0x0 DUP1 REVERT JUMPDEST PUSH2 0xAB PUSH2 0x1EC JUMP JUMPDEST PUSH1 0x40 MLOAD PUSH2 0xB8 SWAP2 SWAP1 PUSH2 0x1638 JUMP JUMPDEST PUSH1 0x40 MLOAD DUP1 SWAP2 SUB SWAP1 RETURN JUMPDEST PUSH2 0xDB PUSH1 0x4 DUP1 CALLDATASIZE SUB DUP2 ADD SWAP1 PUSH2 0xD6 SWAP2 SWAP1 PUSH2 0x11B6 JUMP JUMPDEST PUSH2 0x1F2 JUMP JUMPDEST PUSH1 0x40 MLOAD PUSH2 0xED SWAP7 SWAP6 SWAP5 SWAP4 SWAP3 SWAP2 SWAP1 PUSH2 0x149C JUMP JUMPDEST PUSH1 0x40 MLOAD DUP1 SWAP2 SUB SWAP1 RETURN JUMPDEST PUSH2 0x110 PUSH1 0x4 DUP1 CALLDATASIZE SUB DUP2 ADD SWAP1 PUSH2 0x10B SWAP2 SWAP1 PUSH2 0x11B6 JUMP JUMPDEST PUSH2 0x27B JUMP JUMPDEST STOP JUMPDEST PUSH2 0x12C PUSH1 0x4 DUP1 CALLDATASIZE SUB DUP2 ADD SWAP1 PUSH2 0x127 SWAP2 SWAP1 PUSH2 0x11B6 JUMP JUMPDEST PUSH2 0x4E4 JUMP JUMPDEST STOP JUMPDEST PUSH2 0x148 PUSH1 0x4 DUP1 CALLDATASIZE SUB DUP2 ADD SWAP1 PUSH2 0x143 SWAP2 SWAP1 PUSH2 0x11B6 JUMP JUMPDEST PUSH2 0x78F JUMP JUMPDEST STOP JUMPDEST PUSH2 0x164 PUSH1 0x4 DUP1 CALLDATASIZE SUB DUP2 ADD SWAP1 PUSH2 0x15F SWAP2 SWAP1 PUSH2 0x1223 JUMP JUMPDEST PUSH2 0xA08 JUMP JUMPDEST STOP JUMPDEST PUSH2 0x180 PUSH1 0x4 DUP1 CALLDATASIZE SUB DUP2 ADD SWAP1 PUSH2 0x17B SWAP2 SWAP1 PUSH2 0x11E3 JUMP JUMPDEST PUSH2 0xBFF JUMP JUMPDEST PUSH1 0x40 MLOAD PUSH2 0x18D SWAP2 SWAP1 PUSH2 0x1638 JUMP JUMPDEST PUSH1 0x40 MLOAD DUP1 SWAP2 SUB SWAP1 RETURN JUMPDEST PUSH2 0x1B0 PUSH1 0x4 DUP1 CALLDATASIZE SUB DUP2 ADD SWAP1 PUSH2 0x1AB SWAP2 SWAP1 PUSH2 0x1263 JUMP JUMPDEST PUSH2 0xC24 JUMP JUMPDEST STOP JUMPDEST PUSH2 0x1BA PUSH2 0xEBB JUMP JUMPDEST PUSH1 0x40 MLOAD PUSH2 0x1C7 SWAP2 SWAP1 PUSH2 0x14FD JUMP JUMPDEST PUSH1 0x40 MLOAD DUP1 SWAP2 SUB SWAP1 RETURN JUMPDEST PUSH2 0x1EA PUSH1 0x4 DUP1 CALLDATASIZE SUB DUP2 ADD SWAP1 PUSH2 0x1E5 SWAP2 SWAP1 PUSH2 0x1223 JUMP JUMPDEST PUSH2 0xEDF JUMP JUMPDEST STOP JUMPDEST PUSH1 0x2 SLOAD DUP2 JUMP JUMPDEST PUSH1 0x0 PUSH1 0x20 MSTORE DUP1 PUSH1 0x0 MSTORE PUSH1 0x40 PUSH1 0x0 KECCAK256 PUSH1 0x0 SWAP2 POP SWAP1 POP DUP1 PUSH1 0x0 ADD PUSH1 0x0 SWAP1 SLOAD SWAP1 PUSH2 0x100 EXP SWAP1 DIV PUSH20 0xFFFFFFFFFFFFFFFFFFFFFFFFFFFFFFFFFFFFFFFF AND SWAP1 DUP1 PUSH1 0x1 ADD SLOAD SWAP1 DUP1 PUSH1 0x2 ADD SLOAD SWAP1 DUP1 PUSH1 0x3 ADD PUSH1 0x0 SWAP1 SLOAD SWAP1 PUSH2 0x100 EXP SWAP1 DIV PUSH4 0xFFFFFFFF AND SWAP1 DUP1 PUSH1 0x3 ADD PUSH1 0x4 SWAP1 SLOAD SWAP1 PUSH2 0x100 EXP SWAP1 DIV PUSH4 0xFFFFFFFF AND SWAP1 DUP1 PUSH1 0x3 ADD PUSH1 0x8 SWAP1 SLOAD SWAP1 PUSH2 0x100 EXP SWAP1 DIV PUSH1 0xFF AND SWAP1 POP DUP7 JUMP JUMPDEST PUSH1 0x0 DUP1 PUSH1 0x0 DUP4 DUP2 MSTORE PUSH1 0x20 ADD SWAP1 DUP2 MSTORE PUSH1 0x20 ADD PUSH1 0x0 KECCAK256 SWAP1 POP TIMESTAMP DUP2 PUSH1 0x3 ADD PUSH1 0x4 SWAP1 SLOAD SWAP1 PUSH2 0x100 EXP SWAP1 DIV PUSH4 0xFFFFFFFF AND PUSH4 0xFFFFFFFF AND LT PUSH2 0x2ED JUMPI PUSH1 0x40 MLOAD PUSH32 0x8C379A000000000000000000000000000000000000000000000000000000000 DUP2 MSTORE PUSH1 0x4 ADD PUSH2 0x2E4 SWAP1 PUSH2 0x1518 JUMP JUMPDEST PUSH1 0x40 MLOAD DUP1 SWAP2 SUB SWAP1 REVERT JUMPDEST DUP1 PUSH1 0x1 ADD SLOAD DUP2 PUSH1 0x2 ADD SLOAD LT PUSH2 0x337 JUMPI PUSH1 0x40 MLOAD PUSH32 0x8C379A000000000000000000000000000000000000000000000000000000000 DUP2 MSTORE PUSH1 0x4 ADD PUSH2 0x32E SWAP1 PUSH2 0x1598 JUMP JUMPDEST PUSH1 0x40 MLOAD DUP1 SWAP2 SUB SWAP1 REVERT JUMPDEST PUSH1 0x0 PUSH1 0x1 PUSH1 0x0 DUP5 DUP2 MSTORE PUSH1 0x20 ADD SWAP1 DUP2 MSTORE PUSH1 0x20 ADD PUSH1 0x0 KECCAK256 PUSH1 0x0 CALLER PUSH20 0xFFFFFFFFFFFFFFFFFFFFFFFFFFFFFFFFFFFFFFFF AND PUSH20 0xFFFFFFFFFFFFFFFFFFFFFFFFFFFFFFFFFFFFFFFF AND DUP2 MSTORE PUSH1 0x20 ADD SWAP1 DUP2 MSTORE PUSH1 0x20 ADD PUSH1 0x0 KECCAK256 SLOAD SWAP1 POP PUSH1 0x0 PUSH1 0x1 PUSH1 0x0 DUP6 DUP2 MSTORE PUSH1 0x20 ADD SWAP1 DUP2 MSTORE PUSH1 0x20 ADD PUSH1 0x0 KECCAK256 PUSH1 0x0 CALLER PUSH20 0xFFFFFFFFFFFFFFFFFFFFFFFFFFFFFFFFFFFFFFFF AND PUSH20 0xFFFFFFFFFFFFFFFFFFFFFFFFFFFFFFFFFFFFFFFF AND DUP2 MSTORE PUSH1 0x20 ADD SWAP1 DUP2 MSTORE PUSH1 0x20 ADD PUSH1 0x0 KECCAK256 DUP2 SWAP1 SSTORE POP PUSH32 0x0 PUSH20 0xFFFFFFFFFFFFFFFFFFFFFFFFFFFFFFFFFFFFFFFF AND PUSH4 0xA9059CBB CALLER DUP4 PUSH1 0x40 MLOAD DUP4 PUSH4 0xFFFFFFFF AND PUSH1 0xE0 SHL DUP2 MSTORE PUSH1 0x4 ADD PUSH2 0x43D SWAP3 SWAP2 SWAP1 PUSH2 0x1473 JUMP JUMPDEST PUSH1 0x20 PUSH1 0x40 MLOAD DUP1 DUP4 SUB DUP2 PUSH1 0x0 DUP8 DUP1 EXTCODESIZE ISZERO DUP1 ISZERO PUSH2 0x457 JUMPI PUSH1 0x0 DUP1 REVERT JUMPDEST POP GAS CALL ISZERO DUP1 ISZERO PUSH2 0x46B JUMPI RETURNDATASIZE PUSH1 0x0 DUP1 RETURNDATACOPY RETURNDATASIZE PUSH1 0x0 REVERT JUMPDEST POP POP POP POP PUSH1 0x40 MLOAD RETURNDATASIZE PUSH1 0x1F NOT PUSH1 0x1F DUP3 ADD AND DUP3 ADD DUP1 PUSH1 0x40 MSTORE POP DUP2 ADD SWAP1 PUSH2 0x48F SWAP2 SWAP1 PUSH2 0x1189 JUMP JUMPDEST POP CALLER PUSH20 0xFFFFFFFFFFFFFFFFFFFFFFFFFFFFFFFFFFFFFFFF AND DUP4 PUSH32 0x21E12A7CAD0DA5928167E1084EA4D5FDF8D9AF66657A2543A9AC76A0CA081477 DUP4 PUSH1 0x40 MLOAD PUSH2 0x4D7 SWAP2 SWAP1 PUSH2 0x1638 JUMP JUMPDEST PUSH1 0x40 MLOAD DUP1 SWAP2 SUB SWAP1 LOG3 POP POP POP JUMP JUMPDEST PUSH1 0x0 DUP1 PUSH1 0x0 DUP4 DUP2 MSTORE PUSH1 0x20 ADD SWAP1 DUP2 MSTORE PUSH1 0x20 ADD PUSH1 0x0 KECCAK256 SWAP1 POP CALLER PUSH20 0xFFFFFFFFFFFFFFFFFFFFFFFFFFFFFFFFFFFFFFFF AND DUP2 PUSH1 0x0 ADD PUSH1 0x0 SWAP1 SLOAD SWAP1 PUSH2 0x100 EXP SWAP1 DIV PUSH20 0xFFFFFFFFFFFFFFFFFFFFFFFFFFFFFFFFFFFFFFFF AND PUSH20 0xFFFFFFFFFFFFFFFFFFFFFFFFFFFFFFFFFFFFFFFF AND EQ PUSH2 0x58C JUMPI PUSH1 0x40 MLOAD PUSH32 0x8C379A000000000000000000000000000000000000000000000000000000000 DUP2 MSTORE PUSH1 0x4 ADD PUSH2 0x583 SWAP1 PUSH2 0x15D8 JUMP JUMPDEST PUSH1 0x40 MLOAD DUP1 SWAP2 SUB SWAP1 REVERT JUMPDEST DUP1 PUSH1 0x3 ADD PUSH1 0x8 SWAP1 SLOAD SWAP1 PUSH2 0x100 EXP SWAP1 DIV PUSH1 0xFF AND ISZERO PUSH2 0x5DE JUMPI PUSH1 0x40 MLOAD PUSH32 0x8C379A000000000000000000000000000000000000000000000000000000000 DUP2 MSTORE PUSH1 0x4 ADD PUSH2 0x5D5 SWAP1 PUSH2 0x1558 JUMP JUMPDEST PUSH1 0x40 MLOAD DUP1 SWAP2 SUB SWAP1 REVERT JUMPDEST TIMESTAMP DUP2 PUSH1 0x3 ADD PUSH1 0x4 SWAP1 SLOAD SWAP1 PUSH2 0x100 EXP SWAP1 DIV PUSH4 0xFFFFFFFF AND PUSH4 0xFFFFFFFF AND LT PUSH2 0x63A JUMPI PUSH1 0x40 MLOAD PUSH32 0x8C379A000000000000000000000000000000000000000000000000000000000 DUP2 MSTORE PUSH1 0x4 ADD PUSH2 0x631 SWAP1 PUSH2 0x1518 JUMP JUMPDEST PUSH1 0x40 MLOAD DUP1 SWAP2 SUB SWAP1 REVERT JUMPDEST DUP1 PUSH1 0x1 ADD SLOAD DUP2 PUSH1 0x2 ADD SLOAD LT ISZERO PUSH2 0x685 JUMPI PUSH1 0x40 MLOAD PUSH32 0x8C379A000000000000000000000000000000000000000000000000000000000 DUP2 MSTORE PUSH1 0x4 ADD PUSH2 0x67C SWAP1 PUSH2 0x1538 JUMP JUMPDEST PUSH1 0x40 MLOAD DUP1 SWAP2 SUB SWAP1 REVERT JUMPDEST PUSH1 0x1 DUP2 PUSH1 0x3 ADD PUSH1 0x8 PUSH2 0x100 EXP DUP2 SLOAD DUP2 PUSH1 0xFF MUL NOT AND SWAP1 DUP4 ISZERO ISZERO MUL OR SWAP1 SSTORE POP PUSH32 0x0 PUSH20 0xFFFFFFFFFFFFFFFFFFFFFFFFFFFFFFFFFFFFFFFF AND PUSH4 0xA9059CBB CALLER DUP4 PUSH1 0x2 ADD SLOAD PUSH1 0x40 MLOAD DUP4 PUSH4 0xFFFFFFFF AND PUSH1 0xE0 SHL DUP2 MSTORE PUSH1 0x4 ADD PUSH2 0x701 SWAP3 SWAP2 SWAP1 PUSH2 0x1473 JUMP JUMPDEST PUSH1 0x20 PUSH1 0x40 MLOAD DUP1 DUP4 SUB DUP2 PUSH1 0x0 DUP8 DUP1 EXTCODESIZE ISZERO DUP1 ISZERO PUSH2 0x71B JUMPI PUSH1 0x0 DUP1 REVERT JUMPDEST POP GAS CALL ISZERO DUP1 ISZERO PUSH2 0x72F JUMPI RETURNDATASIZE PUSH1 0x0 DUP1 RETURNDATACOPY RETURNDATASIZE PUSH1 0x0 REVERT JUMPDEST POP POP POP POP PUSH1 0x40 MLOAD RETURNDATASIZE PUSH1 0x1F NOT PUSH1 0x1F DUP3 ADD AND DUP3 ADD DUP1 PUSH1 0x40 MSTORE POP DUP2 ADD SWAP1 PUSH2 0x753 SWAP2 SWAP1 PUSH2 0x1189 JUMP JUMPDEST POP PUSH32 0x7BB2B3C10797BACCB6F8C4791F1EDD6CA2F0D028EE0EDA64B01A9A57E3A653F7 DUP3 PUSH1 0x40 MLOAD PUSH2 0x783 SWAP2 SWAP1 PUSH2 0x1638 JUMP JUMPDEST PUSH1 0x40 MLOAD DUP1 SWAP2 SUB SWAP1 LOG1 POP POP JUMP JUMPDEST PUSH1 0x0 DUP1 PUSH1 0x0 DUP4 DUP2 MSTORE PUSH1 0x20 ADD SWAP1 DUP2 MSTORE PUSH1 0x20 ADD PUSH1 0x0 KECCAK256 PUSH1 0x40 MLOAD DUP1 PUSH1 0xC0 ADD PUSH1 0x40 MSTORE SWAP1 DUP2 PUSH1 0x0 DUP3 ADD PUSH1 0x0 SWAP1 SLOAD SWAP1 PUSH2 0x100 EXP SWAP1 DIV PUSH20 0xFFFFFFFFFFFFFFFFFFFFFFFFFFFFFFFFFFFFFFFF AND PUSH20 0xFFFFFFFFFFFFFFFFFFFFFFFFFFFFFFFFFFFFFFFF AND PUSH20 0xFFFFFFFFFFFFFFFFFFFFFFFFFFFFFFFFFFFFFFFF AND DUP2 MSTORE PUSH1 0x20 ADD PUSH1 0x1 DUP3 ADD SLOAD DUP2 MSTORE PUSH1 0x20 ADD PUSH1 0x2 DUP3 ADD SLOAD DUP2 MSTORE PUSH1 0x20 ADD PUSH1 0x3 DUP3 ADD PUSH1 0x0 SWAP1 SLOAD SWAP1 PUSH2 0x100 EXP SWAP1 DIV PUSH4 0xFFFFFFFF AND PUSH4 0xFFFFFFFF AND PUSH4 0xFFFFFFFF AND DUP2 MSTORE PUSH1 0x20 ADD PUSH1 0x3 DUP3 ADD PUSH1 0x4 SWAP1 SLOAD SWAP1 PUSH2 0x100 EXP SWAP1 DIV PUSH4 0xFFFFFFFF AND PUSH4 0xFFFFFFFF AND PUSH4 0xFFFFFFFF AND DUP2 MSTORE PUSH1 0x20 ADD PUSH1 0x3 DUP3 ADD PUSH1 0x8 SWAP1 SLOAD SWAP1 PUSH2 0x100 EXP SWAP1 DIV PUSH1 0xFF AND ISZERO ISZERO ISZERO ISZERO DUP2 MSTORE POP POP SWAP1 POP DUP1 PUSH1 0x0 ADD MLOAD PUSH20 0xFFFFFFFFFFFFFFFFFFFFFFFFFFFFFFFFFFFFFFFF AND CALLER PUSH20 0xFFFFFFFFFFFFFFFFFFFFFFFFFFFFFFFFFFFFFFFF AND EQ PUSH2 0x8F3 JUMPI PUSH1 0x40 MLOAD PUSH32 0x8C379A000000000000000000000000000000000000000000000000000000000 DUP2 MSTORE PUSH1 0x4 ADD PUSH2 0x8EA SWAP1 PUSH2 0x15D8 JUMP JUMPDEST PUSH1 0x40 MLOAD DUP1 SWAP2 SUB SWAP1 REVERT JUMPDEST DUP1 PUSH1 0x60 ADD MLOAD PUSH4 0xFFFFFFFF AND TIMESTAMP LT PUSH2 0x93F JUMPI PUSH1 0x40 MLOAD PUSH32 0x8C379A000000000000000000000000000000000000000000000000000000000 DUP2 MSTORE PUSH1 0x4 ADD PUSH2 0x936 SWAP1 PUSH2 0x15F8 JUMP JUMPDEST PUSH1 0x40 MLOAD DUP1 SWAP2 SUB SWAP1 REVERT JUMPDEST PUSH1 0x0 DUP1 DUP4 DUP2 MSTORE PUSH1 0x20 ADD SWAP1 DUP2 MSTORE PUSH1 0x20 ADD PUSH1 0x0 KECCAK256 PUSH1 0x0 DUP1 DUP3 ADD PUSH1 0x0 PUSH2 0x100 EXP DUP2 SLOAD SWAP1 PUSH20 0xFFFFFFFFFFFFFFFFFFFFFFFFFFFFFFFFFFFFFFFF MUL NOT AND SWAP1 SSTORE PUSH1 0x1 DUP3 ADD PUSH1 0x0 SWAP1 SSTORE PUSH1 0x2 DUP3 ADD PUSH1 0x0 SWAP1 SSTORE PUSH1 0x3 DUP3 ADD PUSH1 0x0 PUSH2 0x100 EXP DUP2 SLOAD SWAP1 PUSH4 0xFFFFFFFF MUL NOT AND SWAP1 SSTORE PUSH1 0x3 DUP3 ADD PUSH1 0x4 PUSH2 0x100 EXP DUP2 SLOAD SWAP1 PUSH4 0xFFFFFFFF MUL NOT AND SWAP1 SSTORE PUSH1 0x3 DUP3 ADD PUSH1 0x8 PUSH2 0x100 EXP DUP2 SLOAD SWAP1 PUSH1 0xFF MUL NOT AND SWAP1 SSTORE POP POP PUSH32 0x8BF30E7FF26833413BE5F69E1D373744864D600B664204B4A2F9844A8EEDB9ED DUP3 PUSH1 0x40 MLOAD PUSH2 0x9FC SWAP2 SWAP1 PUSH2 0x1638 JUMP JUMPDEST PUSH1 0x40 MLOAD DUP1 SWAP2 SUB SWAP1 LOG1 POP POP JUMP JUMPDEST PUSH1 0x0 DUP1 PUSH1 0x0 DUP5 DUP2 MSTORE PUSH1 0x20 ADD SWAP1 DUP2 MSTORE PUSH1 0x20 ADD PUSH1 0x0 KECCAK256 SWAP1 POP TIMESTAMP DUP2 PUSH1 0x3 ADD PUSH1 0x4 SWAP1 SLOAD SWAP1 PUSH2 0x100 EXP SWAP1 DIV PUSH4 0xFFFFFFFF AND PUSH4 0xFFFFFFFF AND LT ISZERO PUSH2 0xA7B JUMPI PUSH1 0x40 MLOAD PUSH32 0x8C379A000000000000000000000000000000000000000000000000000000000 DUP2 MSTORE PUSH1 0x4 ADD PUSH2 0xA72 SWAP1 PUSH2 0x1618 JUMP JUMPDEST PUSH1 0x40 MLOAD DUP1 SWAP2 SUB SWAP1 REVERT JUMPDEST DUP2 DUP2 PUSH1 0x2 ADD PUSH1 0x0 DUP3 DUP3 SLOAD PUSH2 0xA8F SWAP2 SWAP1 PUSH2 0x16FF JUMP JUMPDEST SWAP3 POP POP DUP2 SWAP1 SSTORE POP DUP2 PUSH1 0x1 PUSH1 0x0 DUP6 DUP2 MSTORE PUSH1 0x20 ADD SWAP1 DUP2 MSTORE PUSH1 0x20 ADD PUSH1 0x0 KECCAK256 PUSH1 0x0 CALLER PUSH20 0xFFFFFFFFFFFFFFFFFFFFFFFFFFFFFFFFFFFFFFFF AND PUSH20 0xFFFFFFFFFFFFFFFFFFFFFFFFFFFFFFFFFFFFFFFF AND DUP2 MSTORE PUSH1 0x20 ADD SWAP1 DUP2 MSTORE PUSH1 0x20 ADD PUSH1 0x0 KECCAK256 PUSH1 0x0 DUP3 DUP3 SLOAD PUSH2 0xAF6 SWAP2 SWAP1 PUSH2 0x16FF JUMP JUMPDEST SWAP3 POP POP DUP2 SWAP1 SSTORE POP PUSH32 0x0 PUSH20 0xFFFFFFFFFFFFFFFFFFFFFFFFFFFFFFFFFFFFFFFF AND PUSH4 0xA9059CBB CALLER DUP5 PUSH1 0x40 MLOAD DUP4 PUSH4 0xFFFFFFFF AND PUSH1 0xE0 SHL DUP2 MSTORE PUSH1 0x4 ADD PUSH2 0xB58 SWAP3 SWAP2 SWAP1 PUSH2 0x1473 JUMP JUMPDEST PUSH1 0x20 PUSH1 0x40 MLOAD DUP1 DUP4 SUB DUP2 PUSH1 0x0 DUP8 DUP1 EXTCODESIZE ISZERO DUP1 ISZERO PUSH2 0xB72 JUMPI PUSH1 0x0 DUP1 REVERT JUMPDEST POP GAS CALL ISZERO DUP1 ISZERO PUSH2 0xB86 JUMPI RETURNDATASIZE PUSH1 0x0 DUP1 RETURNDATACOPY RETURNDATASIZE PUSH1 0x0 REVERT JUMPDEST POP POP POP POP PUSH1 0x40 MLOAD RETURNDATASIZE PUSH1 0x1F NOT PUSH1 0x1F DUP3 ADD AND DUP3 ADD DUP1 PUSH1 0x40 MSTORE POP DUP2 ADD SWAP1 PUSH2 0xBAA SWAP2 SWAP1 PUSH2 0x1189 JUMP JUMPDEST POP CALLER PUSH20 0xFFFFFFFFFFFFFFFFFFFFFFFFFFFFFFFFFFFFFFFF AND DUP4 PUSH32 0x2EEEAB891B26A214D1B25749F88A406BDEA852BD8C9BFDA977E0EF8114C180BA DUP5 PUSH1 0x40 MLOAD PUSH2 0xBF2 SWAP2 SWAP1 PUSH2 0x1638 JUMP JUMPDEST PUSH1 0x40 MLOAD DUP1 SWAP2 SUB SWAP1 LOG3 POP POP POP JUMP JUMPDEST PUSH1 0x1 PUSH1 0x20 MSTORE DUP2 PUSH1 0x0 MSTORE PUSH1 0x40 PUSH1 0x0 KECCAK256 PUSH1 0x20 MSTORE DUP1 PUSH1 0x0 MSTORE PUSH1 0x40 PUSH1 0x0 KECCAK256 PUSH1 0x0 SWAP2 POP SWAP2 POP POP SLOAD DUP2 JUMP JUMPDEST TIMESTAMP DUP3 PUSH4 0xFFFFFFFF AND LT ISZERO PUSH2 0xC6D JUMPI PUSH1 0x40 MLOAD PUSH32 0x8C379A000000000000000000000000000000000000000000000000000000000 DUP2 MSTORE PUSH1 0x4 ADD PUSH2 0xC64 SWAP1 PUSH2 0x1578 JUMP JUMPDEST PUSH1 0x40 MLOAD DUP1 SWAP2 SUB SWAP1 REVERT JUMPDEST DUP1 PUSH4 0xFFFFFFFF AND DUP3 PUSH4 0xFFFFFFFF AND GT ISZERO PUSH2 0xCBC JUMPI PUSH1 0x40 MLOAD PUSH32 0x8C379A000000000000000000000000000000000000000000000000000000000 DUP2 MSTORE PUSH1 0x4 ADD PUSH2 0xCB3 SWAP1 PUSH2 0x1578 JUMP JUMPDEST PUSH1 0x40 MLOAD DUP1 SWAP2 SUB SWAP1 REVERT JUMPDEST PUSH3 0x76A700 TIMESTAMP PUSH2 0xCCB SWAP2 SWAP1 PUSH2 0x16A9 JUMP JUMPDEST DUP2 PUSH4 0xFFFFFFFF AND GT ISZERO PUSH2 0xD13 JUMPI PUSH1 0x40 MLOAD PUSH32 0x8C379A000000000000000000000000000000000000000000000000000000000 DUP2 MSTORE PUSH1 0x4 ADD PUSH2 0xD0A SWAP1 PUSH2 0x1578 JUMP JUMPDEST PUSH1 0x40 MLOAD DUP1 SWAP2 SUB SWAP1 REVERT JUMPDEST PUSH1 0x1 PUSH1 0x2 PUSH1 0x0 DUP3 DUP3 SLOAD PUSH2 0xD26 SWAP2 SWAP1 PUSH2 0x16A9 JUMP JUMPDEST SWAP3 POP POP DUP2 SWAP1 SSTORE POP PUSH1 0x40 MLOAD DUP1 PUSH1 0xC0 ADD PUSH1 0x40 MSTORE DUP1 CALLER PUSH20 0xFFFFFFFFFFFFFFFFFFFFFFFFFFFFFFFFFFFFFFFF AND DUP2 MSTORE PUSH1 0x20 ADD DUP5 DUP2 MSTORE PUSH1 0x20 ADD PUSH1 0x0 DUP2 MSTORE PUSH1 0x20 ADD DUP4 PUSH4 0xFFFFFFFF AND DUP2 MSTORE PUSH1 0x20 ADD DUP3 PUSH4 0xFFFFFFFF AND DUP2 MSTORE PUSH1 0x20 ADD PUSH1 0x0 ISZERO ISZERO DUP2 MSTORE POP PUSH1 0x0 DUP1 PUSH1 0x2 SLOAD DUP2 MSTORE PUSH1 0x20 ADD SWAP1 DUP2 MSTORE PUSH1 0x20 ADD PUSH1 0x0 KECCAK256 PUSH1 0x0 DUP3 ADD MLOAD DUP2 PUSH1 0x0 ADD PUSH1 0x0 PUSH2 0x100 EXP DUP2 SLOAD DUP2 PUSH20 0xFFFFFFFFFFFFFFFFFFFFFFFFFFFFFFFFFFFFFFFF MUL NOT AND SWAP1 DUP4 PUSH20 0xFFFFFFFFFFFFFFFFFFFFFFFFFFFFFFFFFFFFFFFF AND MUL OR SWAP1 SSTORE POP PUSH1 0x20 DUP3 ADD MLOAD DUP2 PUSH1 0x1 ADD SSTORE PUSH1 0x40 DUP3 ADD MLOAD DUP2 PUSH1 0x2 ADD SSTORE PUSH1 0x60 DUP3 ADD MLOAD DUP2 PUSH1 0x3 ADD PUSH1 0x0 PUSH2 0x100 EXP DUP2 SLOAD DUP2 PUSH4 0xFFFFFFFF MUL NOT AND SWAP1 DUP4 PUSH4 0xFFFFFFFF AND MUL OR SWAP1 SSTORE POP PUSH1 0x80 DUP3 ADD MLOAD DUP2 PUSH1 0x3 ADD PUSH1 0x4 PUSH2 0x100 EXP DUP2 SLOAD DUP2 PUSH4 0xFFFFFFFF MUL NOT AND SWAP1 DUP4 PUSH4 0xFFFFFFFF AND MUL OR SWAP1 SSTORE POP PUSH1 0xA0 DUP3 ADD MLOAD DUP2 PUSH1 0x3 ADD PUSH1 0x8 PUSH2 0x100 EXP DUP2 SLOAD DUP2 PUSH1 0xFF MUL NOT AND SWAP1 DUP4 ISZERO ISZERO MUL OR SWAP1 SSTORE POP SWAP1 POP POP CALLER PUSH20 0xFFFFFFFFFFFFFFFFFFFFFFFFFFFFFFFFFFFFFFFF AND PUSH32 0x601CD0D650B473037E838A2696D41E654433D065B3F56B28D1D3302E44A304F PUSH1 0x2 SLOAD DUP6 DUP6 DUP6 PUSH1 0x40 MLOAD PUSH2 0xEAE SWAP5 SWAP4 SWAP3 SWAP2 SWAP1 PUSH2 0x1653 JUMP JUMPDEST PUSH1 0x40 MLOAD DUP1 SWAP2 SUB SWAP1 LOG2 POP POP POP JUMP JUMPDEST PUSH32 0x0 DUP2 JUMP JUMPDEST PUSH1 0x0 DUP1 PUSH1 0x0 DUP5 DUP2 MSTORE PUSH1 0x20 ADD SWAP1 DUP2 MSTORE PUSH1 0x20 ADD PUSH1 0x0 KECCAK256 SWAP1 POP TIMESTAMP DUP2 PUSH1 0x3 ADD PUSH1 0x0 SWAP1 SLOAD SWAP1 PUSH2 0x100 EXP SWAP1 DIV PUSH4 0xFFFFFFFF AND PUSH4 0xFFFFFFFF AND GT ISZERO PUSH2 0xF52 JUMPI PUSH1 0x40 MLOAD PUSH32 0x8C379A000000000000000000000000000000000000000000000000000000000 DUP2 MSTORE PUSH1 0x4 ADD PUSH2 0xF49 SWAP1 PUSH2 0x15B8 JUMP JUMPDEST PUSH1 0x40 MLOAD DUP1 SWAP2 SUB SWAP1 REVERT JUMPDEST TIMESTAMP DUP2 PUSH1 0x3 ADD PUSH1 0x4 SWAP1 SLOAD SWAP1 PUSH2 0x100 EXP SWAP1 DIV PUSH4 0xFFFFFFFF AND PUSH4 0xFFFFFFFF AND LT ISZERO PUSH2 0xFAF JUMPI PUSH1 0x40 MLOAD PUSH32 0x8C379A000000000000000000000000000000000000000000000000000000000 DUP2 MSTORE PUSH1 0x4 ADD PUSH2 0xFA6 SWAP1 PUSH2 0x1618 JUMP JUMPDEST PUSH1 0x40 MLOAD DUP1 SWAP2 SUB SWAP1 REVERT JUMPDEST DUP2 DUP2 PUSH1 0x2 ADD PUSH1 0x0 DUP3 DUP3 SLOAD PUSH2 0xFC3 SWAP2 SWAP1 PUSH2 0x16A9 JUMP JUMPDEST SWAP3 POP POP DUP2 SWAP1 SSTORE POP DUP2 PUSH1 0x1 PUSH1 0x0 DUP6 DUP2 MSTORE PUSH1 0x20 ADD SWAP1 DUP2 MSTORE PUSH1 0x20 ADD PUSH1 0x0 KECCAK256 PUSH1 0x0 CALLER PUSH20 0xFFFFFFFFFFFFFFFFFFFFFFFFFFFFFFFFFFFFFFFF AND PUSH20 0xFFFFFFFFFFFFFFFFFFFFFFFFFFFFFFFFFFFFFFFF AND DUP2 MSTORE PUSH1 0x20 ADD SWAP1 DUP2 MSTORE PUSH1 0x20 ADD PUSH1 0x0 KECCAK256 PUSH1 0x0 DUP3 DUP3 SLOAD PUSH2 0x102A SWAP2 SWAP1 PUSH2 0x16A9 JUMP JUMPDEST SWAP3 POP POP DUP2 SWAP1 SSTORE POP PUSH32 0x0 PUSH20 0xFFFFFFFFFFFFFFFFFFFFFFFFFFFFFFFFFFFFFFFF AND PUSH4 0x23B872DD CALLER ADDRESS DUP6 PUSH1 0x40 MLOAD DUP5 PUSH4 0xFFFFFFFF AND PUSH1 0xE0 SHL DUP2 MSTORE PUSH1 0x4 ADD PUSH2 0x108E SWAP4 SWAP3 SWAP2 SWAP1 PUSH2 0x143C JUMP JUMPDEST PUSH1 0x20 PUSH1 0x40 MLOAD DUP1 DUP4 SUB DUP2 PUSH1 0x0 DUP8 DUP1 EXTCODESIZE ISZERO DUP1 ISZERO PUSH2 0x10A8 JUMPI PUSH1 0x0 DUP1 REVERT JUMPDEST POP GAS CALL ISZERO DUP1 ISZERO PUSH2 0x10BC JUMPI RETURNDATASIZE PUSH1 0x0 DUP1 RETURNDATACOPY RETURNDATASIZE PUSH1 0x0 REVERT JUMPDEST POP POP POP POP PUSH1 0x40 MLOAD RETURNDATASIZE PUSH1 0x1F NOT PUSH1 0x1F DUP3 ADD AND DUP3 ADD DUP1 PUSH1 0x40 MSTORE POP DUP2 ADD SWAP1 PUSH2 0x10E0 SWAP2 SWAP1 PUSH2 0x1189 JUMP JUMPDEST POP CALLER PUSH20 0xFFFFFFFFFFFFFFFFFFFFFFFFFFFFFFFFFFFFFFFF AND DUP4 PUSH32 0x6BDB975DF800A73232998E71ED585D536222F1DFEAA622D7F62A23ADA686C82 DUP5 PUSH1 0x40 MLOAD PUSH2 0x1128 SWAP2 SWAP1 PUSH2 0x1638 JUMP JUMPDEST PUSH1 0x40 MLOAD DUP1 SWAP2 SUB SWAP1 LOG3 POP POP POP JUMP JUMPDEST PUSH1 0x0 DUP2 CALLDATALOAD SWAP1 POP PUSH2 0x1144 DUP2 PUSH2 0x19B2 JUMP JUMPDEST SWAP3 SWAP2 POP POP JUMP JUMPDEST PUSH1 0x0 DUP2 MLOAD SWAP1 POP PUSH2 0x1159 DUP2 PUSH2 0x19C9 JUMP JUMPDEST SWAP3 SWAP2 POP POP JUMP JUMPDEST PUSH1 0x0 DUP2 CALLDATALOAD SWAP1 POP PUSH2 0x116E DUP2 PUSH2 0x19E0 JUMP JUMPDEST SWAP3 SWAP2 POP POP JUMP JUMPDEST PUSH1 0x0 DUP2 CALLDATALOAD SWAP1 POP PUSH2 0x1183 DUP2 PUSH2 0x19F7 JUMP JUMPDEST SWAP3 SWAP2 POP POP JUMP JUMPDEST PUSH1 0x0 PUSH1 0x20 DUP3 DUP5 SUB SLT ISZERO PUSH2 0x119F JUMPI PUSH2 0x119E PUSH2 0x17F0 JUMP JUMPDEST JUMPDEST PUSH1 0x0 PUSH2 0x11AD DUP5 DUP3 DUP6 ADD PUSH2 0x114A JUMP JUMPDEST SWAP2 POP POP SWAP3 SWAP2 POP POP JUMP JUMPDEST PUSH1 0x0 PUSH1 0x20 DUP3 DUP5 SUB SLT ISZERO PUSH2 0x11CC JUMPI PUSH2 0x11CB PUSH2 0x17F0 JUMP JUMPDEST JUMPDEST PUSH1 0x0 PUSH2 0x11DA DUP5 DUP3 DUP6 ADD PUSH2 0x115F JUMP JUMPDEST SWAP2 POP POP SWAP3 SWAP2 POP POP JUMP JUMPDEST PUSH1 0x0 DUP1 PUSH1 0x40 DUP4 DUP6 SUB SLT ISZERO PUSH2 0x11FA JUMPI PUSH2 0x11F9 PUSH2 0x17F0 JUMP JUMPDEST JUMPDEST PUSH1 0x0 PUSH2 0x1208 DUP6 DUP3 DUP7 ADD PUSH2 0x115F JUMP JUMPDEST SWAP3 POP POP PUSH1 0x20 PUSH2 0x1219 DUP6 DUP3 DUP7 ADD PUSH2 0x1135 JUMP JUMPDEST SWAP2 POP POP SWAP3 POP SWAP3 SWAP1 POP JUMP JUMPDEST PUSH1 0x0 DUP1 PUSH1 0x40 DUP4 DUP6 SUB SLT ISZERO PUSH2 0x123A JUMPI PUSH2 0x1239 PUSH2 0x17F0 JUMP JUMPDEST JUMPDEST PUSH1 0x0 PUSH2 0x1248 DUP6 DUP3 DUP7 ADD PUSH2 0x115F JUMP JUMPDEST SWAP3 POP POP PUSH1 0x20 PUSH2 0x1259 DUP6 DUP3 DUP7 ADD PUSH2 0x115F JUMP JUMPDEST SWAP2 POP POP SWAP3 POP SWAP3 SWAP1 POP JUMP JUMPDEST PUSH1 0x0 DUP1 PUSH1 0x0 PUSH1 0x60 DUP5 DUP7 SUB SLT ISZERO PUSH2 0x127C JUMPI PUSH2 0x127B PUSH2 0x17F0 JUMP JUMPDEST JUMPDEST PUSH1 0x0 PUSH2 0x128A DUP7 DUP3 DUP8 ADD PUSH2 0x115F JUMP JUMPDEST SWAP4 POP POP PUSH1 0x20 PUSH2 0x129B DUP7 DUP3 DUP8 ADD PUSH2 0x1174 JUMP JUMPDEST SWAP3 POP POP PUSH1 0x40 PUSH2 0x12AC DUP7 DUP3 DUP8 ADD PUSH2 0x1174 JUMP JUMPDEST SWAP2 POP POP SWAP3 POP SWAP3 POP SWAP3 JUMP JUMPDEST PUSH2 0x12BF DUP2 PUSH2 0x1733 JUMP JUMPDEST DUP3 MSTORE POP POP JUMP JUMPDEST PUSH2 0x12CE DUP2 PUSH2 0x1745 JUMP JUMPDEST DUP3 MSTORE POP POP JUMP JUMPDEST PUSH2 0x12DD DUP2 PUSH2 0x178B JUMP JUMPDEST DUP3 MSTORE POP POP JUMP JUMPDEST PUSH1 0x0 PUSH2 0x12F0 PUSH1 0x1D DUP4 PUSH2 0x1698 JUMP JUMPDEST SWAP2 POP PUSH2 0x12FB DUP3 PUSH2 0x17F5 JUMP JUMPDEST PUSH1 0x20 DUP3 ADD SWAP1 POP SWAP2 SWAP1 POP JUMP JUMPDEST PUSH1 0x0 PUSH2 0x1313 PUSH1 0x13 DUP4 PUSH2 0x1698 JUMP JUMPDEST SWAP2 POP PUSH2 0x131E DUP3 PUSH2 0x181E JUMP JUMPDEST PUSH1 0x20 DUP3 ADD SWAP1 POP SWAP2 SWAP1 POP JUMP JUMPDEST PUSH1 0x0 PUSH2 0x1336 PUSH1 0x1D DUP4 PUSH2 0x1698 JUMP JUMPDEST SWAP2 POP PUSH2 0x1341 DUP3 PUSH2 0x1847 JUMP JUMPDEST PUSH1 0x20 DUP3 ADD SWAP1 POP SWAP2 SWAP1 POP JUMP JUMPDEST PUSH1 0x0 PUSH2 0x1359 PUSH1 0xE DUP4 PUSH2 0x1698 JUMP JUMPDEST SWAP2 POP PUSH2 0x1364 DUP3 PUSH2 0x1870 JUMP JUMPDEST PUSH1 0x20 DUP3 ADD SWAP1 POP SWAP2 SWAP1 POP JUMP JUMPDEST PUSH1 0x0 PUSH2 0x137C PUSH1 0x22 DUP4 PUSH2 0x1698 JUMP JUMPDEST SWAP2 POP PUSH2 0x1387 DUP3 PUSH2 0x1899 JUMP JUMPDEST PUSH1 0x40 DUP3 ADD SWAP1 POP SWAP2 SWAP1 POP JUMP JUMPDEST PUSH1 0x0 PUSH2 0x139F PUSH1 0x15 DUP4 PUSH2 0x1698 JUMP JUMPDEST SWAP2 POP PUSH2 0x13AA DUP3 PUSH2 0x18E8 JUMP JUMPDEST PUSH1 0x20 DUP3 ADD SWAP1 POP SWAP2 SWAP1 POP JUMP JUMPDEST PUSH1 0x0 PUSH2 0x13C2 PUSH1 0x2E DUP4 PUSH2 0x1698 JUMP JUMPDEST SWAP2 POP PUSH2 0x13CD DUP3 PUSH2 0x1911 JUMP JUMPDEST PUSH1 0x40 DUP3 ADD SWAP1 POP SWAP2 SWAP1 POP JUMP JUMPDEST PUSH1 0x0 PUSH2 0x13E5 PUSH1 0x19 DUP4 PUSH2 0x1698 JUMP JUMPDEST SWAP2 POP PUSH2 0x13F0 DUP3 PUSH2 0x1960 JUMP JUMPDEST PUSH1 0x20 DUP3 ADD SWAP1 POP SWAP2 SWAP1 POP JUMP JUMPDEST PUSH1 0x0 PUSH2 0x1408 PUSH1 0x17 DUP4 PUSH2 0x1698 JUMP JUMPDEST SWAP2 POP PUSH2 0x1413 DUP3 PUSH2 0x1989 JUMP JUMPDEST PUSH1 0x20 DUP3 ADD SWAP1 POP SWAP2 SWAP1 POP JUMP JUMPDEST PUSH2 0x1427 DUP2 PUSH2 0x1771 JUMP JUMPDEST DUP3 MSTORE POP POP JUMP JUMPDEST PUSH2 0x1436 DUP2 PUSH2 0x177B JUMP JUMPDEST DUP3 MSTORE POP POP JUMP JUMPDEST PUSH1 0x0 PUSH1 0x60 DUP3 ADD SWAP1 POP PUSH2 0x1451 PUSH1 0x0 DUP4 ADD DUP7 PUSH2 0x12B6 JUMP JUMPDEST PUSH2 0x145E PUSH1 0x20 DUP4 ADD DUP6 PUSH2 0x12B6 JUMP JUMPDEST PUSH2 0x146B PUSH1 0x40 DUP4 ADD DUP5 PUSH2 0x141E JUMP JUMPDEST SWAP5 SWAP4 POP POP POP POP JUMP JUMPDEST PUSH1 0x0 PUSH1 0x40 DUP3 ADD SWAP1 POP PUSH2 0x1488 PUSH1 0x0 DUP4 ADD DUP6 PUSH2 0x12B6 JUMP JUMPDEST PUSH2 0x1495 PUSH1 0x20 DUP4 ADD DUP5 PUSH2 0x141E JUMP JUMPDEST SWAP4 SWAP3 POP POP POP JUMP JUMPDEST PUSH1 0x0 PUSH1 0xC0 DUP3 ADD SWAP1 POP PUSH2 0x14B1 PUSH1 0x0 DUP4 ADD DUP10 PUSH2 0x12B6 JUMP JUMPDEST PUSH2 0x14BE PUSH1 0x20 DUP4 ADD DUP9 PUSH2 0x141E JUMP JUMPDEST PUSH2 0x14CB PUSH1 0x40 DUP4 ADD DUP8 PUSH2 0x141E JUMP JUMPDEST PUSH2 0x14D8 PUSH1 0x60 DUP4 ADD DUP7 PUSH2 0x142D JUMP JUMPDEST PUSH2 0x14E5 PUSH1 0x80 DUP4 ADD DUP6 PUSH2 0x142D JUMP JUMPDEST PUSH2 0x14F2 PUSH1 0xA0 DUP4 ADD DUP5 PUSH2 0x12C5 JUMP JUMPDEST SWAP8 SWAP7 POP POP POP POP POP POP POP JUMP JUMPDEST PUSH1 0x0 PUSH1 0x20 DUP3 ADD SWAP1 POP PUSH2 0x1512 PUSH1 0x0 DUP4 ADD DUP5 PUSH2 0x12D4 JUMP JUMPDEST SWAP3 SWAP2 POP POP JUMP JUMPDEST PUSH1 0x0 PUSH1 0x20 DUP3 ADD SWAP1 POP DUP2 DUP2 SUB PUSH1 0x0 DUP4 ADD MSTORE PUSH2 0x1531 DUP2 PUSH2 0x12E3 JUMP JUMPDEST SWAP1 POP SWAP2 SWAP1 POP JUMP JUMPDEST PUSH1 0x0 PUSH1 0x20 DUP3 ADD SWAP1 POP DUP2 DUP2 SUB PUSH1 0x0 DUP4 ADD MSTORE PUSH2 0x1551 DUP2 PUSH2 0x1306 JUMP JUMPDEST SWAP1 POP SWAP2 SWAP1 POP JUMP JUMPDEST PUSH1 0x0 PUSH1 0x20 DUP3 ADD SWAP1 POP DUP2 DUP2 SUB PUSH1 0x0 DUP4 ADD MSTORE PUSH2 0x1571 DUP2 PUSH2 0x1329 JUMP JUMPDEST SWAP1 POP SWAP2 SWAP1 POP JUMP JUMPDEST PUSH1 0x0 PUSH1 0x20 DUP3 ADD SWAP1 POP DUP2 DUP2 SUB PUSH1 0x0 DUP4 ADD MSTORE PUSH2 0x1591 DUP2 PUSH2 0x134C JUMP JUMPDEST SWAP1 POP SWAP2 SWAP1 POP JUMP JUMPDEST PUSH1 0x0 PUSH1 0x20 DUP3 ADD SWAP1 POP DUP2 DUP2 SUB PUSH1 0x0 DUP4 ADD MSTORE PUSH2 0x15B1 DUP2 PUSH2 0x136F JUMP JUMPDEST SWAP1 POP SWAP2 SWAP1 POP JUMP JUMPDEST PUSH1 0x0 PUSH1 0x20 DUP3 ADD SWAP1 POP DUP2 DUP2 SUB PUSH1 0x0 DUP4 ADD MSTORE PUSH2 0x15D1 DUP2 PUSH2 0x1392 JUMP JUMPDEST SWAP1 POP SWAP2 SWAP1 POP JUMP JUMPDEST PUSH1 0x0 PUSH1 0x20 DUP3 ADD SWAP1 POP DUP2 DUP2 SUB PUSH1 0x0 DUP4 ADD MSTORE PUSH2 0x15F1 DUP2 PUSH2 0x13B5 JUMP JUMPDEST SWAP1 POP SWAP2 SWAP1 POP JUMP JUMPDEST PUSH1 0x0 PUSH1 0x20 DUP3 ADD SWAP1 POP DUP2 DUP2 SUB PUSH1 0x0 DUP4 ADD MSTORE PUSH2 0x1611 DUP2 PUSH2 0x13D8 JUMP JUMPDEST SWAP1 POP SWAP2 SWAP1 POP JUMP JUMPDEST PUSH1 0x0 PUSH1 0x20 DUP3 ADD SWAP1 POP DUP2 DUP2 SUB PUSH1 0x0 DUP4 ADD MSTORE PUSH2 0x1631 DUP2 PUSH2 0x13FB JUMP JUMPDEST SWAP1 POP SWAP2 SWAP1 POP JUMP JUMPDEST PUSH1 0x0 PUSH1 0x20 DUP3 ADD SWAP1 POP PUSH2 0x164D PUSH1 0x0 DUP4 ADD DUP5 PUSH2 0x141E JUMP JUMPDEST SWAP3 SWAP2 POP POP JUMP JUMPDEST PUSH1 0x0 PUSH1 0x80 DUP3 ADD SWAP1 POP PUSH2 0x1668 PUSH1 0x0 DUP4 ADD DUP8 PUSH2 0x141E JUMP JUMPDEST PUSH2 0x1675 PUSH1 0x20 DUP4 ADD DUP7 PUSH2 0x141E JUMP JUMPDEST PUSH2 0x1682 PUSH1 0x40 DUP4 ADD DUP6 PUSH2 0x142D JUMP JUMPDEST PUSH2 0x168F PUSH1 0x60 DUP4 ADD DUP5 PUSH2 0x142D JUMP JUMPDEST SWAP6 SWAP5 POP POP POP POP POP JUMP JUMPDEST PUSH1 0x0 DUP3 DUP3 MSTORE PUSH1 0x20 DUP3 ADD SWAP1 POP SWAP3 SWAP2 POP POP JUMP JUMPDEST PUSH1 0x0 PUSH2 0x16B4 DUP3 PUSH2 0x1771 JUMP JUMPDEST SWAP2 POP PUSH2 0x16BF DUP4 PUSH2 0x1771 JUMP JUMPDEST SWAP3 POP DUP3 PUSH32 0xFFFFFFFFFFFFFFFFFFFFFFFFFFFFFFFFFFFFFFFFFFFFFFFFFFFFFFFFFFFFFFFF SUB DUP3 GT ISZERO PUSH2 0x16F4 JUMPI PUSH2 0x16F3 PUSH2 0x17C1 JUMP JUMPDEST JUMPDEST DUP3 DUP3 ADD SWAP1 POP SWAP3 SWAP2 POP POP JUMP JUMPDEST PUSH1 0x0 PUSH2 0x170A DUP3 PUSH2 0x1771 JUMP JUMPDEST SWAP2 POP PUSH2 0x1715 DUP4 PUSH2 0x1771 JUMP JUMPDEST SWAP3 POP DUP3 DUP3 LT ISZERO PUSH2 0x1728 JUMPI PUSH2 0x1727 PUSH2 0x17C1 JUMP JUMPDEST JUMPDEST DUP3 DUP3 SUB SWAP1 POP SWAP3 SWAP2 POP POP JUMP JUMPDEST PUSH1 0x0 PUSH2 0x173E DUP3 PUSH2 0x1751 JUMP JUMPDEST SWAP1 POP SWAP2 SWAP1 POP JUMP JUMPDEST PUSH1 0x0 DUP2 ISZERO ISZERO SWAP1 POP SWAP2 SWAP1 POP JUMP JUMPDEST PUSH1 0x0 PUSH20 0xFFFFFFFFFFFFFFFFFFFFFFFFFFFFFFFFFFFFFFFF DUP3 AND SWAP1 POP SWAP2 SWAP1 POP JUMP JUMPDEST PUSH1 0x0 DUP2 SWAP1 POP SWAP2 SWAP1 POP JUMP JUMPDEST PUSH1 0x0 PUSH4 0xFFFFFFFF DUP3 AND SWAP1 POP SWAP2 SWAP1 POP JUMP JUMPDEST PUSH1 0x0 PUSH2 0x1796 DUP3 PUSH2 0x179D JUMP JUMPDEST SWAP1 POP SWAP2 SWAP1 POP JUMP JUMPDEST PUSH1 0x0 PUSH2 0x17A8 DUP3 PUSH2 0x17AF JUMP JUMPDEST SWAP1 POP SWAP2 SWAP1 POP JUMP JUMPDEST PUSH1 0x0 PUSH2 0x17BA DUP3 PUSH2 0x1751 JUMP JUMPDEST SWAP1 POP SWAP2 SWAP1 POP JUMP JUMPDEST PUSH32 0x4E487B7100000000000000000000000000000000000000000000000000000000 PUSH1 0x0 MSTORE PUSH1 0x11 PUSH1 0x4 MSTORE PUSH1 0x24 PUSH1 0x0 REVERT JUMPDEST PUSH1 0x0 DUP1 REVERT JUMPDEST PUSH32 0x5468652063616D706169676E206973206E6F74206F7665722079657421000000 PUSH1 0x0 DUP3 ADD MSTORE POP JUMP JUMPDEST PUSH32 0x546172676574206E6F7420726561636865642100000000000000000000000000 PUSH1 0x0 DUP3 ADD MSTORE POP JUMP JUMPDEST PUSH32 0x5468652063616D706169676E20616C726561647920636C61696D656421000000 PUSH1 0x0 DUP3 ADD MSTORE POP JUMP JUMPDEST PUSH32 0x7374617274206174203C206E6F77000000000000000000000000000000000000 PUSH1 0x0 DUP3 ADD MSTORE POP JUMP JUMPDEST PUSH32 0x5468652063616D706169676E2068617320726561636865642069747320676F61 PUSH1 0x0 DUP3 ADD MSTORE PUSH32 0x6C21000000000000000000000000000000000000000000000000000000000000 PUSH1 0x20 DUP3 ADD MSTORE POP JUMP JUMPDEST PUSH32 0x43616D706169676E206E6F742073746172746564210000000000000000000000 PUSH1 0x0 DUP3 ADD MSTORE POP JUMP JUMPDEST PUSH32 0x596F75206D7573742062652063726561746F7220746F20706572666F726D2074 PUSH1 0x0 DUP3 ADD MSTORE PUSH32 0x686973206F7065726174696F6E2E000000000000000000000000000000000000 PUSH1 0x20 DUP3 ADD MSTORE POP JUMP JUMPDEST PUSH32 0x43616D706169676E20616C726561647920737461727465642100000000000000 PUSH1 0x0 DUP3 ADD MSTORE POP JUMP JUMPDEST PUSH32 0x43616D706169676E20616C726561647920656E64656421000000000000000000 PUSH1 0x0 DUP3 ADD MSTORE POP JUMP JUMPDEST PUSH2 0x19BB DUP2 PUSH2 0x1733 JUMP JUMPDEST DUP2 EQ PUSH2 0x19C6 JUMPI PUSH1 0x0 DUP1 REVERT JUMPDEST POP JUMP JUMPDEST PUSH2 0x19D2 DUP2 PUSH2 0x1745 JUMP JUMPDEST DUP2 EQ PUSH2 0x19DD JUMPI PUSH1 0x0 DUP1 REVERT JUMPDEST POP JUMP JUMPDEST PUSH2 0x19E9 DUP2 PUSH2 0x1771 JUMP JUMPDEST DUP2 EQ PUSH2 0x19F4 JUMPI PUSH1 0x0 DUP1 REVERT JUMPDEST POP JUMP JUMPDEST PUSH2 0x1A00 DUP2 PUSH2 0x177B JUMP JUMPDEST DUP2 EQ PUSH2 0x1A0B JUMPI PUSH1 0x0 DUP1 REVERT JUMPDEST POP JUMP INVALID LOG2 PUSH5 0x6970667358 0x22 SLT KECCAK256 PUSH28 0x9DC9DDA07F1DD9558F494B9472467A0D75FE8CD523A8BC82092B8233 0xC9 SELFBALANCE 0xB0 PUSH5 0x736F6C6343 STOP ADDMOD SMOD STOP CALLER "
				},
				"gasEstimates": {
					"creation": {
						"codeDepositCost": "1344800",
						"executionCost": "infinite",
						"totalCost": "infinite"
					},
					"external": {
						"campaigns(uint256)": "infinite",
						"cancel(uint256)": "infinite",
						"claim(uint256)": "infinite",
						"count()": "2430",
						"lunch(uint256,uint32,uint32)": "infinite",
						"pledge(uint256,uint256)": "infinite",
						"pledgedAmount(uint256,address)": "infinite",
						"refund(uint256)": "infinite",
						"token()": "infinite",
						"unpledge(uint256,uint256)": "infinite"
					}
				},
				"methodIdentifiers": {
					"campaigns(uint256)": "141961bc",
					"cancel(uint256)": "40e58ee5",
					"claim(uint256)": "379607f5",
					"count()": "06661abd",
					"lunch(uint256,uint32,uint32)": "daf69940",
					"pledge(uint256,uint256)": "fde327be",
					"pledgedAmount(uint256,address)": "aa4fb63a",
					"refund(uint256)": "278ecde1",
					"token()": "fc0c546a",
					"unpledge(uint256,uint256)": "711853ab"
				}
			},
			"storageLayout": {
				"storage": [
					{
						"astId": 23,
						"contract": "CrowdFund.sol:CrowdFund",
						"label": "campaigns",
						"offset": 0,
						"slot": "0",
						"type": "t_mapping(t_uint256,t_struct(Campaign)15_storage)"
					},
					{
						"astId": 29,
						"contract": "CrowdFund.sol:CrowdFund",
						"label": "pledgedAmount",
						"offset": 0,
						"slot": "1",
						"type": "t_mapping(t_uint256,t_mapping(t_address,t_uint256))"
					},
					{
						"astId": 31,
						"contract": "CrowdFund.sol:CrowdFund",
						"label": "count",
						"offset": 0,
						"slot": "2",
						"type": "t_uint256"
					}
				],
				"types": {
					"t_address": {
						"encoding": "inplace",
						"label": "address",
						"numberOfBytes": "20"
					},
					"t_bool": {
						"encoding": "inplace",
						"label": "bool",
						"numberOfBytes": "1"
					},
					"t_mapping(t_address,t_uint256)": {
						"encoding": "mapping",
						"key": "t_address",
						"label": "mapping(address => uint256)",
						"numberOfBytes": "32",
						"value": "t_uint256"
					},
					"t_mapping(t_uint256,t_mapping(t_address,t_uint256))": {
						"encoding": "mapping",
						"key": "t_uint256",
						"label": "mapping(uint256 => mapping(address => uint256))",
						"numberOfBytes": "32",
						"value": "t_mapping(t_address,t_uint256)"
					},
					"t_mapping(t_uint256,t_struct(Campaign)15_storage)": {
						"encoding": "mapping",
						"key": "t_uint256",
						"label": "mapping(uint256 => struct CrowdFund.Campaign)",
						"numberOfBytes": "32",
						"value": "t_struct(Campaign)15_storage"
					},
					"t_struct(Campaign)15_storage": {
						"encoding": "inplace",
						"label": "struct CrowdFund.Campaign",
						"members": [
							{
								"astId": 4,
								"contract": "CrowdFund.sol:CrowdFund",
								"label": "creator",
								"offset": 0,
								"slot": "0",
								"type": "t_address"
							},
							{
								"astId": 6,
								"contract": "CrowdFund.sol:CrowdFund",
								"label": "goal",
								"offset": 0,
								"slot": "1",
								"type": "t_uint256"
							},
							{
								"astId": 8,
								"contract": "CrowdFund.sol:CrowdFund",
								"label": "pledged",
								"offset": 0,
								"slot": "2",
								"type": "t_uint256"
							},
							{
								"astId": 10,
								"contract": "CrowdFund.sol:CrowdFund",
								"label": "startAt",
								"offset": 0,
								"slot": "3",
								"type": "t_uint32"
							},
							{
								"astId": 12,
								"contract": "CrowdFund.sol:CrowdFund",
								"label": "endAt",
								"offset": 4,
								"slot": "3",
								"type": "t_uint32"
							},
							{
								"astId": 14,
								"contract": "CrowdFund.sol:CrowdFund",
								"label": "claimed",
								"offset": 8,
								"slot": "3",
								"type": "t_bool"
							}
						],
						"numberOfBytes": "128"
					},
					"t_uint256": {
						"encoding": "inplace",
						"label": "uint256",
						"numberOfBytes": "32"
					},
					"t_uint32": {
						"encoding": "inplace",
						"label": "uint32",
						"numberOfBytes": "4"
					}
				}
			},
			"userdoc": {
				"kind": "user",
				"methods": {},
				"version": 1
			}
		}
	}
}