{
	"CrowdFund.sol": {
		"CrowdFund": {
			"abi": [
				{
					"inputs": [
						{
							"internalType": "uint256",
							"name": "campaignId",
							"type": "uint256"
						}
					],
					"name": "cancel",
					"outputs": [],
					"stateMutability": "nonpayable",
					"type": "function"
				},
				{
					"inputs": [
						{
							"internalType": "uint256",
							"name": "campaignId",
							"type": "uint256"
						}
					],
					"name": "claim",
					"outputs": [],
					"stateMutability": "nonpayable",
					"type": "function"
				},
				{
					"inputs": [
						{
							"internalType": "uint256",
							"name": "_goal",
							"type": "uint256"
						},
						{
							"internalType": "uint32",
							"name": "_startAt",
							"type": "uint32"
						},
						{
							"internalType": "uint32",
							"name": "_endAt",
							"type": "uint32"
						}
					],
					"name": "lunch",
					"outputs": [],
					"stateMutability": "nonpayable",
					"type": "function"
				},
				{
					"inputs": [
						{
							"internalType": "uint256",
							"name": "campaignId",
							"type": "uint256"
						},
						{
							"internalType": "uint256",
							"name": "pledgeAmount",
							"type": "uint256"
						}
					],
					"name": "pledge",
					"outputs": [],
					"stateMutability": "nonpayable",
					"type": "function"
				},
				{
					"inputs": [
						{
							"internalType": "uint256",
							"name": "campaignId",
							"type": "uint256"
						}
					],
					"name": "refund",
					"outputs": [],
					"stateMutability": "nonpayable",
					"type": "function"
				},
				{
					"inputs": [
						{
							"internalType": "uint256",
							"name": "campaignId",
							"type": "uint256"
						},
						{
							"internalType": "uint256",
							"name": "unpledgeAmount",
							"type": "uint256"
						}
					],
					"name": "unpledge",
					"outputs": [],
					"stateMutability": "nonpayable",
					"type": "function"
				}
			],
			"devdoc": {
				"kind": "dev",
				"methods": {},
				"version": 1
			},
			"evm": {
				"assembly": "    /* \"CrowdFund.sol\":86:788  contract CrowdFund{\r... */\n  mstore(0x40, 0x80)\n  callvalue\n  dup1\n  iszero\n  tag_1\n  jumpi\n  0x00\n  dup1\n  revert\ntag_1:\n  pop\n  dataSize(sub_0)\n  dup1\n  dataOffset(sub_0)\n  0x00\n  codecopy\n  0x00\n  return\nstop\n\nsub_0: assembly {\n        /* \"CrowdFund.sol\":86:788  contract CrowdFund{\r... */\n      mstore(0x40, 0x80)\n      callvalue\n      dup1\n      iszero\n      tag_1\n      jumpi\n      0x00\n      dup1\n      revert\n    tag_1:\n      pop\n      jumpi(tag_2, lt(calldatasize, 0x04))\n      shr(0xe0, calldataload(0x00))\n      dup1\n      0x278ecde1\n      eq\n      tag_3\n      jumpi\n      dup1\n      0x379607f5\n      eq\n      tag_4\n      jumpi\n      dup1\n      0x40e58ee5\n      eq\n      tag_5\n      jumpi\n      dup1\n      0x711853ab\n      eq\n      tag_6\n      jumpi\n      dup1\n      0xdaf69940\n      eq\n      tag_7\n      jumpi\n      dup1\n      0xfde327be\n      eq\n      tag_8\n      jumpi\n    tag_2:\n      0x00\n      dup1\n      revert\n        /* \"CrowdFund.sol\":737:781  function refund(uint campaignId) external {} */\n    tag_3:\n      tag_9\n      0x04\n      dup1\n      calldatasize\n      sub\n      dup2\n      add\n      swap1\n      tag_10\n      swap2\n      swap1\n      tag_11\n      jump\t// in\n    tag_10:\n      tag_12\n      jump\t// in\n    tag_9:\n      stop\n        /* \"CrowdFund.sol\":686:729  function claim(uint campaignId) external {} */\n    tag_4:\n      tag_13\n      0x04\n      dup1\n      calldatasize\n      sub\n      dup2\n      add\n      swap1\n      tag_14\n      swap2\n      swap1\n      tag_11\n      jump\t// in\n    tag_14:\n      tag_15\n      jump\t// in\n    tag_13:\n      stop\n        /* \"CrowdFund.sol\":197:241  function cancel(uint campaignId) external {} */\n    tag_5:\n      tag_16\n      0x04\n      dup1\n      calldatasize\n      sub\n      dup2\n      add\n      swap1\n      tag_17\n      swap2\n      swap1\n      tag_11\n      jump\t// in\n    tag_17:\n      tag_18\n      jump\t// in\n    tag_16:\n      stop\n        /* \"CrowdFund.sol\":496:563  function unpledge(uint campaignId, uint unpledgeAmount) external {} */\n    tag_6:\n      tag_19\n      0x04\n      dup1\n      calldatasize\n      sub\n      dup2\n      add\n      swap1\n      tag_20\n      swap2\n      swap1\n      tag_21\n      jump\t// in\n    tag_20:\n      tag_22\n      jump\t// in\n    tag_19:\n      stop\n        /* \"CrowdFund.sol\":113:189  function lunch(uint _goal, uint32 _startAt, uint32 _endAt) external {\r... */\n    tag_7:\n      tag_23\n      0x04\n      dup1\n      calldatasize\n      sub\n      dup2\n      add\n      swap1\n      tag_24\n      swap2\n      swap1\n      tag_25\n      jump\t// in\n    tag_24:\n      tag_26\n      jump\t// in\n    tag_23:\n      stop\n        /* \"CrowdFund.sol\":335:398  function pledge(uint campaignId, uint pledgeAmount) external {} */\n    tag_8:\n      tag_27\n      0x04\n      dup1\n      calldatasize\n      sub\n      dup2\n      add\n      swap1\n      tag_28\n      swap2\n      swap1\n      tag_21\n      jump\t// in\n    tag_28:\n      tag_29\n      jump\t// in\n    tag_27:\n      stop\n        /* \"CrowdFund.sol\":737:781  function refund(uint campaignId) external {} */\n    tag_12:\n      pop\n      jump\t// out\n        /* \"CrowdFund.sol\":686:729  function claim(uint campaignId) external {} */\n    tag_15:\n      pop\n      jump\t// out\n        /* \"CrowdFund.sol\":197:241  function cancel(uint campaignId) external {} */\n    tag_18:\n      pop\n      jump\t// out\n        /* \"CrowdFund.sol\":496:563  function unpledge(uint campaignId, uint unpledgeAmount) external {} */\n    tag_22:\n      pop\n      pop\n      jump\t// out\n        /* \"CrowdFund.sol\":113:189  function lunch(uint _goal, uint32 _startAt, uint32 _endAt) external {\r... */\n    tag_26:\n      pop\n      pop\n      pop\n      jump\t// out\n        /* \"CrowdFund.sol\":335:398  function pledge(uint campaignId, uint pledgeAmount) external {} */\n    tag_29:\n      pop\n      pop\n      jump\t// out\n        /* \"#utility.yul\":7:146   */\n    tag_37:\n        /* \"#utility.yul\":53:58   */\n      0x00\n        /* \"#utility.yul\":91:97   */\n      dup2\n        /* \"#utility.yul\":78:98   */\n      calldataload\n        /* \"#utility.yul\":69:98   */\n      swap1\n      pop\n        /* \"#utility.yul\":107:140   */\n      tag_39\n        /* \"#utility.yul\":134:139   */\n      dup2\n        /* \"#utility.yul\":107:140   */\n      tag_40\n      jump\t// in\n    tag_39:\n        /* \"#utility.yul\":7:146   */\n      swap3\n      swap2\n      pop\n      pop\n      jump\t// out\n        /* \"#utility.yul\":152:289   */\n    tag_41:\n        /* \"#utility.yul\":197:202   */\n      0x00\n        /* \"#utility.yul\":235:241   */\n      dup2\n        /* \"#utility.yul\":222:242   */\n      calldataload\n        /* \"#utility.yul\":213:242   */\n      swap1\n      pop\n        /* \"#utility.yul\":251:283   */\n      tag_43\n        /* \"#utility.yul\":277:282   */\n      dup2\n        /* \"#utility.yul\":251:283   */\n      tag_44\n      jump\t// in\n    tag_43:\n        /* \"#utility.yul\":152:289   */\n      swap3\n      swap2\n      pop\n      pop\n      jump\t// out\n        /* \"#utility.yul\":295:624   */\n    tag_11:\n        /* \"#utility.yul\":354:360   */\n      0x00\n        /* \"#utility.yul\":403:405   */\n      0x20\n        /* \"#utility.yul\":391:400   */\n      dup3\n        /* \"#utility.yul\":382:389   */\n      dup5\n        /* \"#utility.yul\":378:401   */\n      sub\n        /* \"#utility.yul\":374:406   */\n      slt\n        /* \"#utility.yul\":371:490   */\n      iszero\n      tag_46\n      jumpi\n        /* \"#utility.yul\":409:488   */\n      tag_47\n      tag_48\n      jump\t// in\n    tag_47:\n        /* \"#utility.yul\":371:490   */\n    tag_46:\n        /* \"#utility.yul\":529:530   */\n      0x00\n        /* \"#utility.yul\":554:607   */\n      tag_49\n        /* \"#utility.yul\":599:606   */\n      dup5\n        /* \"#utility.yul\":590:596   */\n      dup3\n        /* \"#utility.yul\":579:588   */\n      dup6\n        /* \"#utility.yul\":575:597   */\n      add\n        /* \"#utility.yul\":554:607   */\n      tag_37\n      jump\t// in\n    tag_49:\n        /* \"#utility.yul\":544:607   */\n      swap2\n      pop\n        /* \"#utility.yul\":500:617   */\n      pop\n        /* \"#utility.yul\":295:624   */\n      swap3\n      swap2\n      pop\n      pop\n      jump\t// out\n        /* \"#utility.yul\":630:1104   */\n    tag_21:\n        /* \"#utility.yul\":698:704   */\n      0x00\n        /* \"#utility.yul\":706:712   */\n      dup1\n        /* \"#utility.yul\":755:757   */\n      0x40\n        /* \"#utility.yul\":743:752   */\n      dup4\n        /* \"#utility.yul\":734:741   */\n      dup6\n        /* \"#utility.yul\":730:753   */\n      sub\n        /* \"#utility.yul\":726:758   */\n      slt\n        /* \"#utility.yul\":723:842   */\n      iszero\n      tag_51\n      jumpi\n        /* \"#utility.yul\":761:840   */\n      tag_52\n      tag_48\n      jump\t// in\n    tag_52:\n        /* \"#utility.yul\":723:842   */\n    tag_51:\n        /* \"#utility.yul\":881:882   */\n      0x00\n        /* \"#utility.yul\":906:959   */\n      tag_53\n        /* \"#utility.yul\":951:958   */\n      dup6\n        /* \"#utility.yul\":942:948   */\n      dup3\n        /* \"#utility.yul\":931:940   */\n      dup7\n        /* \"#utility.yul\":927:949   */\n      add\n        /* \"#utility.yul\":906:959   */\n      tag_37\n      jump\t// in\n    tag_53:\n        /* \"#utility.yul\":896:959   */\n      swap3\n      pop\n        /* \"#utility.yul\":852:969   */\n      pop\n        /* \"#utility.yul\":1008:1010   */\n      0x20\n        /* \"#utility.yul\":1034:1087   */\n      tag_54\n        /* \"#utility.yul\":1079:1086   */\n      dup6\n        /* \"#utility.yul\":1070:1076   */\n      dup3\n        /* \"#utility.yul\":1059:1068   */\n      dup7\n        /* \"#utility.yul\":1055:1077   */\n      add\n        /* \"#utility.yul\":1034:1087   */\n      tag_37\n      jump\t// in\n    tag_54:\n        /* \"#utility.yul\":1024:1087   */\n      swap2\n      pop\n        /* \"#utility.yul\":979:1097   */\n      pop\n        /* \"#utility.yul\":630:1104   */\n      swap3\n      pop\n      swap3\n      swap1\n      pop\n      jump\t// out\n        /* \"#utility.yul\":1110:1725   */\n    tag_25:\n        /* \"#utility.yul\":1185:1191   */\n      0x00\n        /* \"#utility.yul\":1193:1199   */\n      dup1\n        /* \"#utility.yul\":1201:1207   */\n      0x00\n        /* \"#utility.yul\":1250:1252   */\n      0x60\n        /* \"#utility.yul\":1238:1247   */\n      dup5\n        /* \"#utility.yul\":1229:1236   */\n      dup7\n        /* \"#utility.yul\":1225:1248   */\n      sub\n        /* \"#utility.yul\":1221:1253   */\n      slt\n        /* \"#utility.yul\":1218:1337   */\n      iszero\n      tag_56\n      jumpi\n        /* \"#utility.yul\":1256:1335   */\n      tag_57\n      tag_48\n      jump\t// in\n    tag_57:\n        /* \"#utility.yul\":1218:1337   */\n    tag_56:\n        /* \"#utility.yul\":1376:1377   */\n      0x00\n        /* \"#utility.yul\":1401:1454   */\n      tag_58\n        /* \"#utility.yul\":1446:1453   */\n      dup7\n        /* \"#utility.yul\":1437:1443   */\n      dup3\n        /* \"#utility.yul\":1426:1435   */\n      dup8\n        /* \"#utility.yul\":1422:1444   */\n      add\n        /* \"#utility.yul\":1401:1454   */\n      tag_37\n      jump\t// in\n    tag_58:\n        /* \"#utility.yul\":1391:1454   */\n      swap4\n      pop\n        /* \"#utility.yul\":1347:1464   */\n      pop\n        /* \"#utility.yul\":1503:1505   */\n      0x20\n        /* \"#utility.yul\":1529:1581   */\n      tag_59\n        /* \"#utility.yul\":1573:1580   */\n      dup7\n        /* \"#utility.yul\":1564:1570   */\n      dup3\n        /* \"#utility.yul\":1553:1562   */\n      dup8\n        /* \"#utility.yul\":1549:1571   */\n      add\n        /* \"#utility.yul\":1529:1581   */\n      tag_41\n      jump\t// in\n    tag_59:\n        /* \"#utility.yul\":1519:1581   */\n      swap3\n      pop\n        /* \"#utility.yul\":1474:1591   */\n      pop\n        /* \"#utility.yul\":1630:1632   */\n      0x40\n        /* \"#utility.yul\":1656:1708   */\n      tag_60\n        /* \"#utility.yul\":1700:1707   */\n      dup7\n        /* \"#utility.yul\":1691:1697   */\n      dup3\n        /* \"#utility.yul\":1680:1689   */\n      dup8\n        /* \"#utility.yul\":1676:1698   */\n      add\n        /* \"#utility.yul\":1656:1708   */\n      tag_41\n      jump\t// in\n    tag_60:\n        /* \"#utility.yul\":1646:1708   */\n      swap2\n      pop\n        /* \"#utility.yul\":1601:1718   */\n      pop\n        /* \"#utility.yul\":1110:1725   */\n      swap3\n      pop\n      swap3\n      pop\n      swap3\n      jump\t// out\n        /* \"#utility.yul\":1812:1889   */\n    tag_63:\n        /* \"#utility.yul\":1849:1856   */\n      0x00\n        /* \"#utility.yul\":1878:1883   */\n      dup2\n        /* \"#utility.yul\":1867:1883   */\n      swap1\n      pop\n        /* \"#utility.yul\":1812:1889   */\n      swap2\n      swap1\n      pop\n      jump\t// out\n        /* \"#utility.yul\":1895:1988   */\n    tag_65:\n        /* \"#utility.yul\":1931:1938   */\n      0x00\n        /* \"#utility.yul\":1971:1981   */\n      0xffffffff\n        /* \"#utility.yul\":1964:1969   */\n      dup3\n        /* \"#utility.yul\":1960:1982   */\n      and\n        /* \"#utility.yul\":1949:1982   */\n      swap1\n      pop\n        /* \"#utility.yul\":1895:1988   */\n      swap2\n      swap1\n      pop\n      jump\t// out\n        /* \"#utility.yul\":2117:2234   */\n    tag_48:\n        /* \"#utility.yul\":2226:2227   */\n      0x00\n        /* \"#utility.yul\":2223:2224   */\n      dup1\n        /* \"#utility.yul\":2216:2228   */\n      revert\n        /* \"#utility.yul\":2240:2362   */\n    tag_40:\n        /* \"#utility.yul\":2313:2337   */\n      tag_71\n        /* \"#utility.yul\":2331:2336   */\n      dup2\n        /* \"#utility.yul\":2313:2337   */\n      tag_63\n      jump\t// in\n    tag_71:\n        /* \"#utility.yul\":2306:2311   */\n      dup2\n        /* \"#utility.yul\":2303:2338   */\n      eq\n        /* \"#utility.yul\":2293:2356   */\n      tag_72\n      jumpi\n        /* \"#utility.yul\":2352:2353   */\n      0x00\n        /* \"#utility.yul\":2349:2350   */\n      dup1\n        /* \"#utility.yul\":2342:2354   */\n      revert\n        /* \"#utility.yul\":2293:2356   */\n    tag_72:\n        /* \"#utility.yul\":2240:2362   */\n      pop\n      jump\t// out\n        /* \"#utility.yul\":2368:2488   */\n    tag_44:\n        /* \"#utility.yul\":2440:2463   */\n      tag_74\n        /* \"#utility.yul\":2457:2462   */\n      dup2\n        /* \"#utility.yul\":2440:2463   */\n      tag_65\n      jump\t// in\n    tag_74:\n        /* \"#utility.yul\":2433:2438   */\n      dup2\n        /* \"#utility.yul\":2430:2464   */\n      eq\n        /* \"#utility.yul\":2420:2482   */\n      tag_75\n      jumpi\n        /* \"#utility.yul\":2478:2479   */\n      0x00\n        /* \"#utility.yul\":2475:2476   */\n      dup1\n        /* \"#utility.yul\":2468:2480   */\n      revert\n        /* \"#utility.yul\":2420:2482   */\n    tag_75:\n        /* \"#utility.yul\":2368:2488   */\n      pop\n      jump\t// out\n\n    auxdata: 0xa26469706673582212201de506cc74d1e44ce5d2b72add99bdf8e61caf6bd4d114552530df18d749233664736f6c63430008070033\n}\n",
				"bytecode": {
					"linkReferences": {},
					"object": "608060405234801561001057600080fd5b50610292806100206000396000f3fe608060405234801561001057600080fd5b50600436106100625760003560e01c8063278ecde114610067578063379607f51461008357806340e58ee51461009f578063711853ab146100bb578063daf69940146100d7578063fde327be146100f3575b600080fd5b610081600480360381019061007c919061014f565b61010f565b005b61009d6004803603810190610098919061014f565b610112565b005b6100b960048036038101906100b4919061014f565b610115565b005b6100d560048036038101906100d0919061017c565b610118565b005b6100f160048036038101906100ec91906101bc565b61011c565b005b61010d6004803603810190610108919061017c565b610121565b005b50565b50565b50565b5050565b505050565b5050565b6000813590506101348161022e565b92915050565b60008135905061014981610245565b92915050565b60006020828403121561016557610164610229565b5b600061017384828501610125565b91505092915050565b6000806040838503121561019357610192610229565b5b60006101a185828601610125565b92505060206101b285828601610125565b9150509250929050565b6000806000606084860312156101d5576101d4610229565b5b60006101e386828701610125565b93505060206101f48682870161013a565b92505060406102058682870161013a565b9150509250925092565b6000819050919050565b600063ffffffff82169050919050565b600080fd5b6102378161020f565b811461024257600080fd5b50565b61024e81610219565b811461025957600080fd5b5056fea26469706673582212201de506cc74d1e44ce5d2b72add99bdf8e61caf6bd4d114552530df18d749233664736f6c63430008070033",
					"opcodes": "PUSH1 0x80 PUSH1 0x40 MSTORE CALLVALUE DUP1 ISZERO PUSH2 0x10 JUMPI PUSH1 0x0 DUP1 REVERT JUMPDEST POP PUSH2 0x292 DUP1 PUSH2 0x20 PUSH1 0x0 CODECOPY PUSH1 0x0 RETURN INVALID PUSH1 0x80 PUSH1 0x40 MSTORE CALLVALUE DUP1 ISZERO PUSH2 0x10 JUMPI PUSH1 0x0 DUP1 REVERT JUMPDEST POP PUSH1 0x4 CALLDATASIZE LT PUSH2 0x62 JUMPI PUSH1 0x0 CALLDATALOAD PUSH1 0xE0 SHR DUP1 PUSH4 0x278ECDE1 EQ PUSH2 0x67 JUMPI DUP1 PUSH4 0x379607F5 EQ PUSH2 0x83 JUMPI DUP1 PUSH4 0x40E58EE5 EQ PUSH2 0x9F JUMPI DUP1 PUSH4 0x711853AB EQ PUSH2 0xBB JUMPI DUP1 PUSH4 0xDAF69940 EQ PUSH2 0xD7 JUMPI DUP1 PUSH4 0xFDE327BE EQ PUSH2 0xF3 JUMPI JUMPDEST PUSH1 0x0 DUP1 REVERT JUMPDEST PUSH2 0x81 PUSH1 0x4 DUP1 CALLDATASIZE SUB DUP2 ADD SWAP1 PUSH2 0x7C SWAP2 SWAP1 PUSH2 0x14F JUMP JUMPDEST PUSH2 0x10F JUMP JUMPDEST STOP JUMPDEST PUSH2 0x9D PUSH1 0x4 DUP1 CALLDATASIZE SUB DUP2 ADD SWAP1 PUSH2 0x98 SWAP2 SWAP1 PUSH2 0x14F JUMP JUMPDEST PUSH2 0x112 JUMP JUMPDEST STOP JUMPDEST PUSH2 0xB9 PUSH1 0x4 DUP1 CALLDATASIZE SUB DUP2 ADD SWAP1 PUSH2 0xB4 SWAP2 SWAP1 PUSH2 0x14F JUMP JUMPDEST PUSH2 0x115 JUMP JUMPDEST STOP JUMPDEST PUSH2 0xD5 PUSH1 0x4 DUP1 CALLDATASIZE SUB DUP2 ADD SWAP1 PUSH2 0xD0 SWAP2 SWAP1 PUSH2 0x17C JUMP JUMPDEST PUSH2 0x118 JUMP JUMPDEST STOP JUMPDEST PUSH2 0xF1 PUSH1 0x4 DUP1 CALLDATASIZE SUB DUP2 ADD SWAP1 PUSH2 0xEC SWAP2 SWAP1 PUSH2 0x1BC JUMP JUMPDEST PUSH2 0x11C JUMP JUMPDEST STOP JUMPDEST PUSH2 0x10D PUSH1 0x4 DUP1 CALLDATASIZE SUB DUP2 ADD SWAP1 PUSH2 0x108 SWAP2 SWAP1 PUSH2 0x17C JUMP JUMPDEST PUSH2 0x121 JUMP JUMPDEST STOP JUMPDEST POP JUMP JUMPDEST POP JUMP JUMPDEST POP JUMP JUMPDEST POP POP JUMP JUMPDEST POP POP POP JUMP JUMPDEST POP POP JUMP JUMPDEST PUSH1 0x0 DUP2 CALLDATALOAD SWAP1 POP PUSH2 0x134 DUP2 PUSH2 0x22E JUMP JUMPDEST SWAP3 SWAP2 POP POP JUMP JUMPDEST PUSH1 0x0 DUP2 CALLDATALOAD SWAP1 POP PUSH2 0x149 DUP2 PUSH2 0x245 JUMP JUMPDEST SWAP3 SWAP2 POP POP JUMP JUMPDEST PUSH1 0x0 PUSH1 0x20 DUP3 DUP5 SUB SLT ISZERO PUSH2 0x165 JUMPI PUSH2 0x164 PUSH2 0x229 JUMP JUMPDEST JUMPDEST PUSH1 0x0 PUSH2 0x173 DUP5 DUP3 DUP6 ADD PUSH2 0x125 JUMP JUMPDEST SWAP2 POP POP SWAP3 SWAP2 POP POP JUMP JUMPDEST PUSH1 0x0 DUP1 PUSH1 0x40 DUP4 DUP6 SUB SLT ISZERO PUSH2 0x193 JUMPI PUSH2 0x192 PUSH2 0x229 JUMP JUMPDEST JUMPDEST PUSH1 0x0 PUSH2 0x1A1 DUP6 DUP3 DUP7 ADD PUSH2 0x125 JUMP JUMPDEST SWAP3 POP POP PUSH1 0x20 PUSH2 0x1B2 DUP6 DUP3 DUP7 ADD PUSH2 0x125 JUMP JUMPDEST SWAP2 POP POP SWAP3 POP SWAP3 SWAP1 POP JUMP JUMPDEST PUSH1 0x0 DUP1 PUSH1 0x0 PUSH1 0x60 DUP5 DUP7 SUB SLT ISZERO PUSH2 0x1D5 JUMPI PUSH2 0x1D4 PUSH2 0x229 JUMP JUMPDEST JUMPDEST PUSH1 0x0 PUSH2 0x1E3 DUP7 DUP3 DUP8 ADD PUSH2 0x125 JUMP JUMPDEST SWAP4 POP POP PUSH1 0x20 PUSH2 0x1F4 DUP7 DUP3 DUP8 ADD PUSH2 0x13A JUMP JUMPDEST SWAP3 POP POP PUSH1 0x40 PUSH2 0x205 DUP7 DUP3 DUP8 ADD PUSH2 0x13A JUMP JUMPDEST SWAP2 POP POP SWAP3 POP SWAP3 POP SWAP3 JUMP JUMPDEST PUSH1 0x0 DUP2 SWAP1 POP SWAP2 SWAP1 POP JUMP JUMPDEST PUSH1 0x0 PUSH4 0xFFFFFFFF DUP3 AND SWAP1 POP SWAP2 SWAP1 POP JUMP JUMPDEST PUSH1 0x0 DUP1 REVERT JUMPDEST PUSH2 0x237 DUP2 PUSH2 0x20F JUMP JUMPDEST DUP2 EQ PUSH2 0x242 JUMPI PUSH1 0x0 DUP1 REVERT JUMPDEST POP JUMP JUMPDEST PUSH2 0x24E DUP2 PUSH2 0x219 JUMP JUMPDEST DUP2 EQ PUSH2 0x259 JUMPI PUSH1 0x0 DUP1 REVERT JUMPDEST POP JUMP INVALID LOG2 PUSH5 0x6970667358 0x22 SLT KECCAK256 SAR 0xE5 MOD 0xCC PUSH21 0xD1E44CE5D2B72ADD99BDF8E61CAF6BD4D114552530 0xDF XOR 0xD7 0x49 0x23 CALLDATASIZE PUSH5 0x736F6C6343 STOP ADDMOD SMOD STOP CALLER "
				},
				"gasEstimates": {
					"creation": {
						"codeDepositCost": "131600",
						"executionCost": "177",
						"totalCost": "131777"
					},
					"external": {
						"cancel(uint256)": "428",
						"claim(uint256)": "406",
						"lunch(uint256,uint32,uint32)": "infinite",
						"pledge(uint256,uint256)": "infinite",
						"refund(uint256)": "384",
						"unpledge(uint256,uint256)": "infinite"
					}
				},
				"methodIdentifiers": {
					"cancel(uint256)": "40e58ee5",
					"claim(uint256)": "379607f5",
					"lunch(uint256,uint32,uint32)": "daf69940",
					"pledge(uint256,uint256)": "fde327be",
					"refund(uint256)": "278ecde1",
					"unpledge(uint256,uint256)": "711853ab"
				}
			},
			"storageLayout": {
				"storage": [],
				"types": null
			},
			"userdoc": {
				"kind": "user",
				"methods": {},
				"version": 1
			}
		}
	}
}