{
	"CrowdFund.sol": {
		"CrowdFund": {
			"abi": [
				{
					"inputs": [
						{
							"internalType": "address",
							"name": "_token",
							"type": "address"
						}
					],
					"stateMutability": "nonpayable",
					"type": "constructor"
				},
				{
					"inputs": [
						{
							"internalType": "uint256",
							"name": "",
							"type": "uint256"
						}
					],
					"name": "campaigns",
					"outputs": [
						{
							"internalType": "address",
							"name": "creator",
							"type": "address"
						},
						{
							"internalType": "uint256",
							"name": "goal",
							"type": "uint256"
						},
						{
							"internalType": "uint256",
							"name": "pledged",
							"type": "uint256"
						},
						{
							"internalType": "uint32",
							"name": "startAt",
							"type": "uint32"
						},
						{
							"internalType": "uint32",
							"name": "endAt",
							"type": "uint32"
						},
						{
							"internalType": "bool",
							"name": "claimed",
							"type": "bool"
						}
					],
					"stateMutability": "view",
					"type": "function"
				},
				{
					"inputs": [
						{
							"internalType": "uint256",
							"name": "campaignId",
							"type": "uint256"
						}
					],
					"name": "cancel",
					"outputs": [],
					"stateMutability": "nonpayable",
					"type": "function"
				},
				{
					"inputs": [
						{
							"internalType": "uint256",
							"name": "campaignId",
							"type": "uint256"
						}
					],
					"name": "claim",
					"outputs": [],
					"stateMutability": "nonpayable",
					"type": "function"
				},
				{
					"inputs": [],
					"name": "count",
					"outputs": [
						{
							"internalType": "uint256",
							"name": "",
							"type": "uint256"
						}
					],
					"stateMutability": "view",
					"type": "function"
				},
				{
					"inputs": [
						{
							"internalType": "uint256",
							"name": "_goal",
							"type": "uint256"
						},
						{
							"internalType": "uint32",
							"name": "_startAt",
							"type": "uint32"
						},
						{
							"internalType": "uint32",
							"name": "_endAt",
							"type": "uint32"
						}
					],
					"name": "lunch",
					"outputs": [],
					"stateMutability": "nonpayable",
					"type": "function"
				},
				{
					"inputs": [
						{
							"internalType": "uint256",
							"name": "",
							"type": "uint256"
						},
						{
							"internalType": "uint256",
							"name": "",
							"type": "uint256"
						}
					],
					"name": "plagedAmount",
					"outputs": [
						{
							"internalType": "address",
							"name": "",
							"type": "address"
						}
					],
					"stateMutability": "view",
					"type": "function"
				},
				{
					"inputs": [
						{
							"internalType": "uint256",
							"name": "campaignId",
							"type": "uint256"
						},
						{
							"internalType": "uint256",
							"name": "pledgeAmount",
							"type": "uint256"
						}
					],
					"name": "pledge",
					"outputs": [],
					"stateMutability": "nonpayable",
					"type": "function"
				},
				{
					"inputs": [
						{
							"internalType": "uint256",
							"name": "campaignId",
							"type": "uint256"
						}
					],
					"name": "refund",
					"outputs": [],
					"stateMutability": "nonpayable",
					"type": "function"
				},
				{
					"inputs": [],
					"name": "token",
					"outputs": [
						{
							"internalType": "contract IERC20",
							"name": "",
							"type": "address"
						}
					],
					"stateMutability": "view",
					"type": "function"
				},
				{
					"inputs": [
						{
							"internalType": "uint256",
							"name": "campaignId",
							"type": "uint256"
						},
						{
							"internalType": "uint256",
							"name": "unpledgeAmount",
							"type": "uint256"
						}
					],
					"name": "unpledge",
					"outputs": [],
					"stateMutability": "nonpayable",
					"type": "function"
				}
			],
			"devdoc": {
				"kind": "dev",
				"methods": {},
				"version": 1
			},
			"evm": {
				"assembly": "    /* \"CrowdFund.sol\":86:2263  contract CrowdFund{\r... */\n  mstore(0x40, 0xa0)\n    /* \"CrowdFund.sol\":900:968  constructor(address _token){\r... */\n  callvalue\n  dup1\n  iszero\n  tag_1\n  jumpi\n  0x00\n  dup1\n  revert\ntag_1:\n  pop\n  mload(0x40)\n  sub(codesize, bytecodeSize)\n  dup1\n  bytecodeSize\n  dup4\n  codecopy\n  dup2\n  dup2\n  add\n  0x40\n  mstore\n  dup2\n  add\n  swap1\n  tag_2\n  swap2\n  swap1\n  tag_3\n  jump\t// in\ntag_2:\n    /* \"CrowdFund.sol\":953:959  _token */\n  dup1\n    /* \"CrowdFund.sol\":938:960  token = IERC20(_token) */\n  0xffffffffffffffffffffffffffffffffffffffff\n  and\n  0x80\n  dup2\n  0xffffffffffffffffffffffffffffffffffffffff\n  and\n  0x60\n  shl\n  dup2\n  mstore\n  pop\n  pop\n    /* \"CrowdFund.sol\":900:968  constructor(address _token){\r... */\n  pop\n    /* \"CrowdFund.sol\":86:2263  contract CrowdFund{\r... */\n  jump(tag_6)\n    /* \"#utility.yul\":7:150   */\ntag_8:\n    /* \"#utility.yul\":64:69   */\n  0x00\n    /* \"#utility.yul\":95:101   */\n  dup2\n    /* \"#utility.yul\":89:102   */\n  mload\n    /* \"#utility.yul\":80:102   */\n  swap1\n  pop\n    /* \"#utility.yul\":111:144   */\n  tag_10\n    /* \"#utility.yul\":138:143   */\n  dup2\n    /* \"#utility.yul\":111:144   */\n  tag_11\n  jump\t// in\ntag_10:\n    /* \"#utility.yul\":7:150   */\n  swap3\n  swap2\n  pop\n  pop\n  jump\t// out\n    /* \"#utility.yul\":156:507   */\ntag_3:\n    /* \"#utility.yul\":226:232   */\n  0x00\n    /* \"#utility.yul\":275:277   */\n  0x20\n    /* \"#utility.yul\":263:272   */\n  dup3\n    /* \"#utility.yul\":254:261   */\n  dup5\n    /* \"#utility.yul\":250:273   */\n  sub\n    /* \"#utility.yul\":246:278   */\n  slt\n    /* \"#utility.yul\":243:362   */\n  iszero\n  tag_13\n  jumpi\n    /* \"#utility.yul\":281:360   */\n  tag_14\n  tag_15\n  jump\t// in\ntag_14:\n    /* \"#utility.yul\":243:362   */\ntag_13:\n    /* \"#utility.yul\":401:402   */\n  0x00\n    /* \"#utility.yul\":426:490   */\n  tag_16\n    /* \"#utility.yul\":482:489   */\n  dup5\n    /* \"#utility.yul\":473:479   */\n  dup3\n    /* \"#utility.yul\":462:471   */\n  dup6\n    /* \"#utility.yul\":458:480   */\n  add\n    /* \"#utility.yul\":426:490   */\n  tag_8\n  jump\t// in\ntag_16:\n    /* \"#utility.yul\":416:490   */\n  swap2\n  pop\n    /* \"#utility.yul\":372:500   */\n  pop\n    /* \"#utility.yul\":156:507   */\n  swap3\n  swap2\n  pop\n  pop\n  jump\t// out\n    /* \"#utility.yul\":594:690   */\ntag_19:\n    /* \"#utility.yul\":631:638   */\n  0x00\n    /* \"#utility.yul\":660:684   */\n  tag_21\n    /* \"#utility.yul\":678:683   */\n  dup3\n    /* \"#utility.yul\":660:684   */\n  tag_22\n  jump\t// in\ntag_21:\n    /* \"#utility.yul\":649:684   */\n  swap1\n  pop\n    /* \"#utility.yul\":594:690   */\n  swap2\n  swap1\n  pop\n  jump\t// out\n    /* \"#utility.yul\":696:822   */\ntag_22:\n    /* \"#utility.yul\":733:740   */\n  0x00\n    /* \"#utility.yul\":773:815   */\n  0xffffffffffffffffffffffffffffffffffffffff\n    /* \"#utility.yul\":766:771   */\n  dup3\n    /* \"#utility.yul\":762:816   */\n  and\n    /* \"#utility.yul\":751:816   */\n  swap1\n  pop\n    /* \"#utility.yul\":696:822   */\n  swap2\n  swap1\n  pop\n  jump\t// out\n    /* \"#utility.yul\":951:1068   */\ntag_15:\n    /* \"#utility.yul\":1060:1061   */\n  0x00\n    /* \"#utility.yul\":1057:1058   */\n  dup1\n    /* \"#utility.yul\":1050:1062   */\n  revert\n    /* \"#utility.yul\":1074:1196   */\ntag_11:\n    /* \"#utility.yul\":1147:1171   */\n  tag_28\n    /* \"#utility.yul\":1165:1170   */\n  dup2\n    /* \"#utility.yul\":1147:1171   */\n  tag_19\n  jump\t// in\ntag_28:\n    /* \"#utility.yul\":1140:1145   */\n  dup2\n    /* \"#utility.yul\":1137:1172   */\n  eq\n    /* \"#utility.yul\":1127:1190   */\n  tag_29\n  jumpi\n    /* \"#utility.yul\":1186:1187   */\n  0x00\n    /* \"#utility.yul\":1183:1184   */\n  dup1\n    /* \"#utility.yul\":1176:1188   */\n  revert\n    /* \"#utility.yul\":1127:1190   */\ntag_29:\n    /* \"#utility.yul\":1074:1196   */\n  pop\n  jump\t// out\n    /* \"CrowdFund.sol\":86:2263  contract CrowdFund{\r... */\ntag_6:\n  shr(0x60, mload(0x80))\n  codecopy(0x00, dataOffset(sub_0), dataSize(sub_0))\n  0x00\n  assignImmutable(\"0x8fef2229291b68be841adf029e58b87f39ba144b2d3b0af1760243d0a9bc6a1c\")\n  return(0x00, dataSize(sub_0))\nstop\n\nsub_0: assembly {\n        /* \"CrowdFund.sol\":86:2263  contract CrowdFund{\r... */\n      mstore(0x40, 0x80)\n      callvalue\n      dup1\n      iszero\n      tag_1\n      jumpi\n      0x00\n      dup1\n      revert\n    tag_1:\n      pop\n      jumpi(tag_2, lt(calldatasize, 0x04))\n      shr(0xe0, calldataload(0x00))\n      dup1\n      0x711853ab\n      gt\n      tag_13\n      jumpi\n      dup1\n      0x711853ab\n      eq\n      tag_8\n      jumpi\n      dup1\n      0xdaf69940\n      eq\n      tag_9\n      jumpi\n      dup1\n      0xf2d57b21\n      eq\n      tag_10\n      jumpi\n      dup1\n      0xfc0c546a\n      eq\n      tag_11\n      jumpi\n      dup1\n      0xfde327be\n      eq\n      tag_12\n      jumpi\n      jump(tag_2)\n    tag_13:\n      dup1\n      0x06661abd\n      eq\n      tag_3\n      jumpi\n      dup1\n      0x141961bc\n      eq\n      tag_4\n      jumpi\n      dup1\n      0x278ecde1\n      eq\n      tag_5\n      jumpi\n      dup1\n      0x379607f5\n      eq\n      tag_6\n      jumpi\n      dup1\n      0x40e58ee5\n      eq\n      tag_7\n      jumpi\n    tag_2:\n      0x00\n      dup1\n      revert\n        /* \"CrowdFund.sol\":818:835  uint public count */\n    tag_3:\n      tag_14\n      tag_15\n      jump\t// in\n    tag_14:\n      mload(0x40)\n      tag_16\n      swap2\n      swap1\n      tag_17\n      jump\t// in\n    tag_16:\n      mload(0x40)\n      dup1\n      swap2\n      sub\n      swap1\n      return\n        /* \"CrowdFund.sol\":701:743  mapping(uint => Campaign) public campaigns */\n    tag_4:\n      tag_18\n      0x04\n      dup1\n      calldatasize\n      sub\n      dup2\n      add\n      swap1\n      tag_19\n      swap2\n      swap1\n      tag_20\n      jump\t// in\n    tag_19:\n      tag_21\n      jump\t// in\n    tag_18:\n      mload(0x40)\n      tag_22\n      swap7\n      swap6\n      swap5\n      swap4\n      swap3\n      swap2\n      swap1\n      tag_23\n      jump\t// in\n    tag_22:\n      mload(0x40)\n      dup1\n      swap2\n      sub\n      swap1\n      return\n        /* \"CrowdFund.sol\":2212:2256  function refund(uint campaignId) external {} */\n    tag_5:\n      tag_24\n      0x04\n      dup1\n      calldatasize\n      sub\n      dup2\n      add\n      swap1\n      tag_25\n      swap2\n      swap1\n      tag_20\n      jump\t// in\n    tag_25:\n      tag_26\n      jump\t// in\n    tag_24:\n      stop\n        /* \"CrowdFund.sol\":2046:2089  function claim(uint campaignId) external {} */\n    tag_6:\n      tag_27\n      0x04\n      dup1\n      calldatasize\n      sub\n      dup2\n      add\n      swap1\n      tag_28\n      swap2\n      swap1\n      tag_20\n      jump\t// in\n    tag_28:\n      tag_29\n      jump\t// in\n    tag_27:\n      stop\n        /* \"CrowdFund.sol\":1557:1601  function cancel(uint campaignId) external {} */\n    tag_7:\n      tag_30\n      0x04\n      dup1\n      calldatasize\n      sub\n      dup2\n      add\n      swap1\n      tag_31\n      swap2\n      swap1\n      tag_20\n      jump\t// in\n    tag_31:\n      tag_32\n      jump\t// in\n    tag_30:\n      stop\n        /* \"CrowdFund.sol\":1856:1923  function unpledge(uint campaignId, uint unpledgeAmount) external {} */\n    tag_8:\n      tag_33\n      0x04\n      dup1\n      calldatasize\n      sub\n      dup2\n      add\n      swap1\n      tag_34\n      swap2\n      swap1\n      tag_35\n      jump\t// in\n    tag_34:\n      tag_36\n      jump\t// in\n    tag_33:\n      stop\n        /* \"CrowdFund.sol\":1181:1451  function lunch(uint _goal, uint32 _startAt, uint32 _endAt) external {\r... */\n    tag_9:\n      tag_37\n      0x04\n      dup1\n      calldatasize\n      sub\n      dup2\n      add\n      swap1\n      tag_38\n      swap2\n      swap1\n      tag_39\n      jump\t// in\n    tag_38:\n      tag_40\n      jump\t// in\n    tag_37:\n      stop\n        /* \"CrowdFund.sol\":750:811  mapping(uint => mapping(uint => address)) public plagedAmount */\n    tag_10:\n      tag_41\n      0x04\n      dup1\n      calldatasize\n      sub\n      dup2\n      add\n      swap1\n      tag_42\n      swap2\n      swap1\n      tag_35\n      jump\t// in\n    tag_42:\n      tag_43\n      jump\t// in\n    tag_41:\n      mload(0x40)\n      tag_44\n      swap2\n      swap1\n      tag_45\n      jump\t// in\n    tag_44:\n      mload(0x40)\n      dup1\n      swap2\n      sub\n      swap1\n      return\n        /* \"CrowdFund.sol\":665:694  IERC20 public immutable token */\n    tag_11:\n      tag_46\n      tag_47\n      jump\t// in\n    tag_46:\n      mload(0x40)\n      tag_48\n      swap2\n      swap1\n      tag_49\n      jump\t// in\n    tag_48:\n      mload(0x40)\n      dup1\n      swap2\n      sub\n      swap1\n      return\n        /* \"CrowdFund.sol\":1695:1758  function pledge(uint campaignId, uint pledgeAmount) external {} */\n    tag_12:\n      tag_50\n      0x04\n      dup1\n      calldatasize\n      sub\n      dup2\n      add\n      swap1\n      tag_51\n      swap2\n      swap1\n      tag_35\n      jump\t// in\n    tag_51:\n      tag_52\n      jump\t// in\n    tag_50:\n      stop\n        /* \"CrowdFund.sol\":818:835  uint public count */\n    tag_15:\n      sload(0x02)\n      dup2\n      jump\t// out\n        /* \"CrowdFund.sol\":701:743  mapping(uint => Campaign) public campaigns */\n    tag_21:\n      mstore(0x20, 0x00)\n      dup1\n      0x00\n      mstore\n      keccak256(0x00, 0x40)\n      0x00\n      swap2\n      pop\n      swap1\n      pop\n      dup1\n      0x00\n      add\n      0x00\n      swap1\n      sload\n      swap1\n      0x0100\n      exp\n      swap1\n      div\n      0xffffffffffffffffffffffffffffffffffffffff\n      and\n      swap1\n      dup1\n      0x01\n      add\n      sload\n      swap1\n      dup1\n      0x02\n      add\n      sload\n      swap1\n      dup1\n      0x03\n      add\n      0x00\n      swap1\n      sload\n      swap1\n      0x0100\n      exp\n      swap1\n      div\n      0xffffffff\n      and\n      swap1\n      dup1\n      0x03\n      add\n      0x04\n      swap1\n      sload\n      swap1\n      0x0100\n      exp\n      swap1\n      div\n      0xffffffff\n      and\n      swap1\n      dup1\n      0x03\n      add\n      0x08\n      swap1\n      sload\n      swap1\n      0x0100\n      exp\n      swap1\n      div\n      0xff\n      and\n      swap1\n      pop\n      dup7\n      jump\t// out\n        /* \"CrowdFund.sol\":2212:2256  function refund(uint campaignId) external {} */\n    tag_26:\n      pop\n      jump\t// out\n        /* \"CrowdFund.sol\":2046:2089  function claim(uint campaignId) external {} */\n    tag_29:\n      pop\n      jump\t// out\n        /* \"CrowdFund.sol\":1557:1601  function cancel(uint campaignId) external {} */\n    tag_32:\n      pop\n      jump\t// out\n        /* \"CrowdFund.sol\":1856:1923  function unpledge(uint campaignId, uint unpledgeAmount) external {} */\n    tag_36:\n      pop\n      pop\n      jump\t// out\n        /* \"CrowdFund.sol\":1181:1451  function lunch(uint _goal, uint32 _startAt, uint32 _endAt) external {\r... */\n    tag_40:\n        /* \"CrowdFund.sol\":1280:1295  block.timestamp */\n      timestamp\n        /* \"CrowdFund.sol\":1268:1276  _startAt */\n      dup3\n        /* \"CrowdFund.sol\":1268:1295  _startAt >= block.timestamp */\n      0xffffffff\n      and\n      lt\n      iszero\n        /* \"CrowdFund.sol\":1260:1314  require(_startAt >= block.timestamp, \"start at < now\") */\n      tag_58\n      jumpi\n      mload(0x40)\n      0x08c379a000000000000000000000000000000000000000000000000000000000\n      dup2\n      mstore\n      0x04\n      add\n      tag_59\n      swap1\n      tag_60\n      jump\t// in\n    tag_59:\n      mload(0x40)\n      dup1\n      swap2\n      sub\n      swap1\n      revert\n    tag_58:\n        /* \"CrowdFund.sol\":1345:1351  _endAt */\n      dup1\n        /* \"CrowdFund.sol\":1333:1351  _startAt <= _endAt */\n      0xffffffff\n      and\n        /* \"CrowdFund.sol\":1333:1341  _startAt */\n      dup3\n        /* \"CrowdFund.sol\":1333:1351  _startAt <= _endAt */\n      0xffffffff\n      and\n      gt\n      iszero\n        /* \"CrowdFund.sol\":1325:1370  require(_startAt <= _endAt, \"start at < now\") */\n      tag_61\n      jumpi\n      mload(0x40)\n      0x08c379a000000000000000000000000000000000000000000000000000000000\n      dup2\n      mstore\n      0x04\n      add\n      tag_62\n      swap1\n      tag_60\n      jump\t// in\n    tag_62:\n      mload(0x40)\n      dup1\n      swap2\n      sub\n      swap1\n      revert\n    tag_61:\n        /* \"CrowdFund.sol\":1417:1424  90 days */\n      0x76a700\n        /* \"CrowdFund.sol\":1399:1414  block.timestamp */\n      timestamp\n        /* \"CrowdFund.sol\":1399:1424  block.timestamp + 90 days */\n      tag_63\n      swap2\n      swap1\n      tag_64\n      jump\t// in\n    tag_63:\n        /* \"CrowdFund.sol\":1389:1395  _endAt */\n      dup2\n        /* \"CrowdFund.sol\":1389:1424  _endAt <= block.timestamp + 90 days */\n      0xffffffff\n      and\n      gt\n      iszero\n        /* \"CrowdFund.sol\":1381:1443  require(_endAt <= block.timestamp + 90 days, \"start at < now\") */\n      tag_65\n      jumpi\n      mload(0x40)\n      0x08c379a000000000000000000000000000000000000000000000000000000000\n      dup2\n      mstore\n      0x04\n      add\n      tag_66\n      swap1\n      tag_60\n      jump\t// in\n    tag_66:\n      mload(0x40)\n      dup1\n      swap2\n      sub\n      swap1\n      revert\n    tag_65:\n        /* \"CrowdFund.sol\":1181:1451  function lunch(uint _goal, uint32 _startAt, uint32 _endAt) external {\r... */\n      pop\n      pop\n      pop\n      jump\t// out\n        /* \"CrowdFund.sol\":750:811  mapping(uint => mapping(uint => address)) public plagedAmount */\n    tag_43:\n      mstore(0x20, 0x01)\n      dup2\n      0x00\n      mstore\n      mstore(0x20, keccak256(0x00, 0x40))\n      dup1\n      0x00\n      mstore\n      keccak256(0x00, 0x40)\n      0x00\n      swap2\n      pop\n      swap2\n      pop\n      swap1\n      sload\n      swap1\n      0x0100\n      exp\n      swap1\n      div\n      0xffffffffffffffffffffffffffffffffffffffff\n      and\n      dup2\n      jump\t// out\n        /* \"CrowdFund.sol\":665:694  IERC20 public immutable token */\n    tag_47:\n      immutable(\"0x8fef2229291b68be841adf029e58b87f39ba144b2d3b0af1760243d0a9bc6a1c\")\n      dup2\n      jump\t// out\n        /* \"CrowdFund.sol\":1695:1758  function pledge(uint campaignId, uint pledgeAmount) external {} */\n    tag_52:\n      pop\n      pop\n      jump\t// out\n        /* \"#utility.yul\":7:146   */\n    tag_69:\n        /* \"#utility.yul\":53:58   */\n      0x00\n        /* \"#utility.yul\":91:97   */\n      dup2\n        /* \"#utility.yul\":78:98   */\n      calldataload\n        /* \"#utility.yul\":69:98   */\n      swap1\n      pop\n        /* \"#utility.yul\":107:140   */\n      tag_71\n        /* \"#utility.yul\":134:139   */\n      dup2\n        /* \"#utility.yul\":107:140   */\n      tag_72\n      jump\t// in\n    tag_71:\n        /* \"#utility.yul\":7:146   */\n      swap3\n      swap2\n      pop\n      pop\n      jump\t// out\n        /* \"#utility.yul\":152:289   */\n    tag_73:\n        /* \"#utility.yul\":197:202   */\n      0x00\n        /* \"#utility.yul\":235:241   */\n      dup2\n        /* \"#utility.yul\":222:242   */\n      calldataload\n        /* \"#utility.yul\":213:242   */\n      swap1\n      pop\n        /* \"#utility.yul\":251:283   */\n      tag_75\n        /* \"#utility.yul\":277:282   */\n      dup2\n        /* \"#utility.yul\":251:283   */\n      tag_76\n      jump\t// in\n    tag_75:\n        /* \"#utility.yul\":152:289   */\n      swap3\n      swap2\n      pop\n      pop\n      jump\t// out\n        /* \"#utility.yul\":295:624   */\n    tag_20:\n        /* \"#utility.yul\":354:360   */\n      0x00\n        /* \"#utility.yul\":403:405   */\n      0x20\n        /* \"#utility.yul\":391:400   */\n      dup3\n        /* \"#utility.yul\":382:389   */\n      dup5\n        /* \"#utility.yul\":378:401   */\n      sub\n        /* \"#utility.yul\":374:406   */\n      slt\n        /* \"#utility.yul\":371:490   */\n      iszero\n      tag_78\n      jumpi\n        /* \"#utility.yul\":409:488   */\n      tag_79\n      tag_80\n      jump\t// in\n    tag_79:\n        /* \"#utility.yul\":371:490   */\n    tag_78:\n        /* \"#utility.yul\":529:530   */\n      0x00\n        /* \"#utility.yul\":554:607   */\n      tag_81\n        /* \"#utility.yul\":599:606   */\n      dup5\n        /* \"#utility.yul\":590:596   */\n      dup3\n        /* \"#utility.yul\":579:588   */\n      dup6\n        /* \"#utility.yul\":575:597   */\n      add\n        /* \"#utility.yul\":554:607   */\n      tag_69\n      jump\t// in\n    tag_81:\n        /* \"#utility.yul\":544:607   */\n      swap2\n      pop\n        /* \"#utility.yul\":500:617   */\n      pop\n        /* \"#utility.yul\":295:624   */\n      swap3\n      swap2\n      pop\n      pop\n      jump\t// out\n        /* \"#utility.yul\":630:1104   */\n    tag_35:\n        /* \"#utility.yul\":698:704   */\n      0x00\n        /* \"#utility.yul\":706:712   */\n      dup1\n        /* \"#utility.yul\":755:757   */\n      0x40\n        /* \"#utility.yul\":743:752   */\n      dup4\n        /* \"#utility.yul\":734:741   */\n      dup6\n        /* \"#utility.yul\":730:753   */\n      sub\n        /* \"#utility.yul\":726:758   */\n      slt\n        /* \"#utility.yul\":723:842   */\n      iszero\n      tag_83\n      jumpi\n        /* \"#utility.yul\":761:840   */\n      tag_84\n      tag_80\n      jump\t// in\n    tag_84:\n        /* \"#utility.yul\":723:842   */\n    tag_83:\n        /* \"#utility.yul\":881:882   */\n      0x00\n        /* \"#utility.yul\":906:959   */\n      tag_85\n        /* \"#utility.yul\":951:958   */\n      dup6\n        /* \"#utility.yul\":942:948   */\n      dup3\n        /* \"#utility.yul\":931:940   */\n      dup7\n        /* \"#utility.yul\":927:949   */\n      add\n        /* \"#utility.yul\":906:959   */\n      tag_69\n      jump\t// in\n    tag_85:\n        /* \"#utility.yul\":896:959   */\n      swap3\n      pop\n        /* \"#utility.yul\":852:969   */\n      pop\n        /* \"#utility.yul\":1008:1010   */\n      0x20\n        /* \"#utility.yul\":1034:1087   */\n      tag_86\n        /* \"#utility.yul\":1079:1086   */\n      dup6\n        /* \"#utility.yul\":1070:1076   */\n      dup3\n        /* \"#utility.yul\":1059:1068   */\n      dup7\n        /* \"#utility.yul\":1055:1077   */\n      add\n        /* \"#utility.yul\":1034:1087   */\n      tag_69\n      jump\t// in\n    tag_86:\n        /* \"#utility.yul\":1024:1087   */\n      swap2\n      pop\n        /* \"#utility.yul\":979:1097   */\n      pop\n        /* \"#utility.yul\":630:1104   */\n      swap3\n      pop\n      swap3\n      swap1\n      pop\n      jump\t// out\n        /* \"#utility.yul\":1110:1725   */\n    tag_39:\n        /* \"#utility.yul\":1185:1191   */\n      0x00\n        /* \"#utility.yul\":1193:1199   */\n      dup1\n        /* \"#utility.yul\":1201:1207   */\n      0x00\n        /* \"#utility.yul\":1250:1252   */\n      0x60\n        /* \"#utility.yul\":1238:1247   */\n      dup5\n        /* \"#utility.yul\":1229:1236   */\n      dup7\n        /* \"#utility.yul\":1225:1248   */\n      sub\n        /* \"#utility.yul\":1221:1253   */\n      slt\n        /* \"#utility.yul\":1218:1337   */\n      iszero\n      tag_88\n      jumpi\n        /* \"#utility.yul\":1256:1335   */\n      tag_89\n      tag_80\n      jump\t// in\n    tag_89:\n        /* \"#utility.yul\":1218:1337   */\n    tag_88:\n        /* \"#utility.yul\":1376:1377   */\n      0x00\n        /* \"#utility.yul\":1401:1454   */\n      tag_90\n        /* \"#utility.yul\":1446:1453   */\n      dup7\n        /* \"#utility.yul\":1437:1443   */\n      dup3\n        /* \"#utility.yul\":1426:1435   */\n      dup8\n        /* \"#utility.yul\":1422:1444   */\n      add\n        /* \"#utility.yul\":1401:1454   */\n      tag_69\n      jump\t// in\n    tag_90:\n        /* \"#utility.yul\":1391:1454   */\n      swap4\n      pop\n        /* \"#utility.yul\":1347:1464   */\n      pop\n        /* \"#utility.yul\":1503:1505   */\n      0x20\n        /* \"#utility.yul\":1529:1581   */\n      tag_91\n        /* \"#utility.yul\":1573:1580   */\n      dup7\n        /* \"#utility.yul\":1564:1570   */\n      dup3\n        /* \"#utility.yul\":1553:1562   */\n      dup8\n        /* \"#utility.yul\":1549:1571   */\n      add\n        /* \"#utility.yul\":1529:1581   */\n      tag_73\n      jump\t// in\n    tag_91:\n        /* \"#utility.yul\":1519:1581   */\n      swap3\n      pop\n        /* \"#utility.yul\":1474:1591   */\n      pop\n        /* \"#utility.yul\":1630:1632   */\n      0x40\n        /* \"#utility.yul\":1656:1708   */\n      tag_92\n        /* \"#utility.yul\":1700:1707   */\n      dup7\n        /* \"#utility.yul\":1691:1697   */\n      dup3\n        /* \"#utility.yul\":1680:1689   */\n      dup8\n        /* \"#utility.yul\":1676:1698   */\n      add\n        /* \"#utility.yul\":1656:1708   */\n      tag_73\n      jump\t// in\n    tag_92:\n        /* \"#utility.yul\":1646:1708   */\n      swap2\n      pop\n        /* \"#utility.yul\":1601:1718   */\n      pop\n        /* \"#utility.yul\":1110:1725   */\n      swap3\n      pop\n      swap3\n      pop\n      swap3\n      jump\t// out\n        /* \"#utility.yul\":1731:1849   */\n    tag_93:\n        /* \"#utility.yul\":1818:1842   */\n      tag_95\n        /* \"#utility.yul\":1836:1841   */\n      dup2\n        /* \"#utility.yul\":1818:1842   */\n      tag_96\n      jump\t// in\n    tag_95:\n        /* \"#utility.yul\":1813:1816   */\n      dup3\n        /* \"#utility.yul\":1806:1843   */\n      mstore\n        /* \"#utility.yul\":1731:1849   */\n      pop\n      pop\n      jump\t// out\n        /* \"#utility.yul\":1855:1964   */\n    tag_97:\n        /* \"#utility.yul\":1936:1957   */\n      tag_99\n        /* \"#utility.yul\":1951:1956   */\n      dup2\n        /* \"#utility.yul\":1936:1957   */\n      tag_100\n      jump\t// in\n    tag_99:\n        /* \"#utility.yul\":1931:1934   */\n      dup3\n        /* \"#utility.yul\":1924:1958   */\n      mstore\n        /* \"#utility.yul\":1855:1964   */\n      pop\n      pop\n      jump\t// out\n        /* \"#utility.yul\":1970:2129   */\n    tag_101:\n        /* \"#utility.yul\":2071:2122   */\n      tag_103\n        /* \"#utility.yul\":2116:2121   */\n      dup2\n        /* \"#utility.yul\":2071:2122   */\n      tag_104\n      jump\t// in\n    tag_103:\n        /* \"#utility.yul\":2066:2069   */\n      dup3\n        /* \"#utility.yul\":2059:2123   */\n      mstore\n        /* \"#utility.yul\":1970:2129   */\n      pop\n      pop\n      jump\t// out\n        /* \"#utility.yul\":2135:2501   */\n    tag_105:\n        /* \"#utility.yul\":2277:2280   */\n      0x00\n        /* \"#utility.yul\":2298:2365   */\n      tag_107\n        /* \"#utility.yul\":2362:2364   */\n      0x0e\n        /* \"#utility.yul\":2357:2360   */\n      dup4\n        /* \"#utility.yul\":2298:2365   */\n      tag_108\n      jump\t// in\n    tag_107:\n        /* \"#utility.yul\":2291:2365   */\n      swap2\n      pop\n        /* \"#utility.yul\":2374:2467   */\n      tag_109\n        /* \"#utility.yul\":2463:2466   */\n      dup3\n        /* \"#utility.yul\":2374:2467   */\n      tag_110\n      jump\t// in\n    tag_109:\n        /* \"#utility.yul\":2492:2494   */\n      0x20\n        /* \"#utility.yul\":2487:2490   */\n      dup3\n        /* \"#utility.yul\":2483:2495   */\n      add\n        /* \"#utility.yul\":2476:2495   */\n      swap1\n      pop\n        /* \"#utility.yul\":2135:2501   */\n      swap2\n      swap1\n      pop\n      jump\t// out\n        /* \"#utility.yul\":2507:2625   */\n    tag_111:\n        /* \"#utility.yul\":2594:2618   */\n      tag_113\n        /* \"#utility.yul\":2612:2617   */\n      dup2\n        /* \"#utility.yul\":2594:2618   */\n      tag_114\n      jump\t// in\n    tag_113:\n        /* \"#utility.yul\":2589:2592   */\n      dup3\n        /* \"#utility.yul\":2582:2619   */\n      mstore\n        /* \"#utility.yul\":2507:2625   */\n      pop\n      pop\n      jump\t// out\n        /* \"#utility.yul\":2631:2746   */\n    tag_115:\n        /* \"#utility.yul\":2716:2739   */\n      tag_117\n        /* \"#utility.yul\":2733:2738   */\n      dup2\n        /* \"#utility.yul\":2716:2739   */\n      tag_118\n      jump\t// in\n    tag_117:\n        /* \"#utility.yul\":2711:2714   */\n      dup3\n        /* \"#utility.yul\":2704:2740   */\n      mstore\n        /* \"#utility.yul\":2631:2746   */\n      pop\n      pop\n      jump\t// out\n        /* \"#utility.yul\":2752:2974   */\n    tag_45:\n        /* \"#utility.yul\":2845:2849   */\n      0x00\n        /* \"#utility.yul\":2883:2885   */\n      0x20\n        /* \"#utility.yul\":2872:2881   */\n      dup3\n        /* \"#utility.yul\":2868:2886   */\n      add\n        /* \"#utility.yul\":2860:2886   */\n      swap1\n      pop\n        /* \"#utility.yul\":2896:2967   */\n      tag_120\n        /* \"#utility.yul\":2964:2965   */\n      0x00\n        /* \"#utility.yul\":2953:2962   */\n      dup4\n        /* \"#utility.yul\":2949:2966   */\n      add\n        /* \"#utility.yul\":2940:2946   */\n      dup5\n        /* \"#utility.yul\":2896:2967   */\n      tag_93\n      jump\t// in\n    tag_120:\n        /* \"#utility.yul\":2752:2974   */\n      swap3\n      swap2\n      pop\n      pop\n      jump\t// out\n        /* \"#utility.yul\":2980:3735   */\n    tag_23:\n        /* \"#utility.yul\":3203:3207   */\n      0x00\n        /* \"#utility.yul\":3241:3244   */\n      0xc0\n        /* \"#utility.yul\":3230:3239   */\n      dup3\n        /* \"#utility.yul\":3226:3245   */\n      add\n        /* \"#utility.yul\":3218:3245   */\n      swap1\n      pop\n        /* \"#utility.yul\":3255:3326   */\n      tag_122\n        /* \"#utility.yul\":3323:3324   */\n      0x00\n        /* \"#utility.yul\":3312:3321   */\n      dup4\n        /* \"#utility.yul\":3308:3325   */\n      add\n        /* \"#utility.yul\":3299:3305   */\n      dup10\n        /* \"#utility.yul\":3255:3326   */\n      tag_93\n      jump\t// in\n    tag_122:\n        /* \"#utility.yul\":3336:3408   */\n      tag_123\n        /* \"#utility.yul\":3404:3406   */\n      0x20\n        /* \"#utility.yul\":3393:3402   */\n      dup4\n        /* \"#utility.yul\":3389:3407   */\n      add\n        /* \"#utility.yul\":3380:3386   */\n      dup9\n        /* \"#utility.yul\":3336:3408   */\n      tag_111\n      jump\t// in\n    tag_123:\n        /* \"#utility.yul\":3418:3490   */\n      tag_124\n        /* \"#utility.yul\":3486:3488   */\n      0x40\n        /* \"#utility.yul\":3475:3484   */\n      dup4\n        /* \"#utility.yul\":3471:3489   */\n      add\n        /* \"#utility.yul\":3462:3468   */\n      dup8\n        /* \"#utility.yul\":3418:3490   */\n      tag_111\n      jump\t// in\n    tag_124:\n        /* \"#utility.yul\":3500:3570   */\n      tag_125\n        /* \"#utility.yul\":3566:3568   */\n      0x60\n        /* \"#utility.yul\":3555:3564   */\n      dup4\n        /* \"#utility.yul\":3551:3569   */\n      add\n        /* \"#utility.yul\":3542:3548   */\n      dup7\n        /* \"#utility.yul\":3500:3570   */\n      tag_115\n      jump\t// in\n    tag_125:\n        /* \"#utility.yul\":3580:3651   */\n      tag_126\n        /* \"#utility.yul\":3646:3649   */\n      0x80\n        /* \"#utility.yul\":3635:3644   */\n      dup4\n        /* \"#utility.yul\":3631:3650   */\n      add\n        /* \"#utility.yul\":3622:3628   */\n      dup6\n        /* \"#utility.yul\":3580:3651   */\n      tag_115\n      jump\t// in\n    tag_126:\n        /* \"#utility.yul\":3661:3728   */\n      tag_127\n        /* \"#utility.yul\":3723:3726   */\n      0xa0\n        /* \"#utility.yul\":3712:3721   */\n      dup4\n        /* \"#utility.yul\":3708:3727   */\n      add\n        /* \"#utility.yul\":3699:3705   */\n      dup5\n        /* \"#utility.yul\":3661:3728   */\n      tag_97\n      jump\t// in\n    tag_127:\n        /* \"#utility.yul\":2980:3735   */\n      swap8\n      swap7\n      pop\n      pop\n      pop\n      pop\n      pop\n      pop\n      pop\n      jump\t// out\n        /* \"#utility.yul\":3741:3991   */\n    tag_49:\n        /* \"#utility.yul\":3848:3852   */\n      0x00\n        /* \"#utility.yul\":3886:3888   */\n      0x20\n        /* \"#utility.yul\":3875:3884   */\n      dup3\n        /* \"#utility.yul\":3871:3889   */\n      add\n        /* \"#utility.yul\":3863:3889   */\n      swap1\n      pop\n        /* \"#utility.yul\":3899:3984   */\n      tag_129\n        /* \"#utility.yul\":3981:3982   */\n      0x00\n        /* \"#utility.yul\":3970:3979   */\n      dup4\n        /* \"#utility.yul\":3966:3983   */\n      add\n        /* \"#utility.yul\":3957:3963   */\n      dup5\n        /* \"#utility.yul\":3899:3984   */\n      tag_101\n      jump\t// in\n    tag_129:\n        /* \"#utility.yul\":3741:3991   */\n      swap3\n      swap2\n      pop\n      pop\n      jump\t// out\n        /* \"#utility.yul\":3997:4416   */\n    tag_60:\n        /* \"#utility.yul\":4163:4167   */\n      0x00\n        /* \"#utility.yul\":4201:4203   */\n      0x20\n        /* \"#utility.yul\":4190:4199   */\n      dup3\n        /* \"#utility.yul\":4186:4204   */\n      add\n        /* \"#utility.yul\":4178:4204   */\n      swap1\n      pop\n        /* \"#utility.yul\":4250:4259   */\n      dup2\n        /* \"#utility.yul\":4244:4248   */\n      dup2\n        /* \"#utility.yul\":4240:4260   */\n      sub\n        /* \"#utility.yul\":4236:4237   */\n      0x00\n        /* \"#utility.yul\":4225:4234   */\n      dup4\n        /* \"#utility.yul\":4221:4238   */\n      add\n        /* \"#utility.yul\":4214:4261   */\n      mstore\n        /* \"#utility.yul\":4278:4409   */\n      tag_131\n        /* \"#utility.yul\":4404:4408   */\n      dup2\n        /* \"#utility.yul\":4278:4409   */\n      tag_105\n      jump\t// in\n    tag_131:\n        /* \"#utility.yul\":4270:4409   */\n      swap1\n      pop\n        /* \"#utility.yul\":3997:4416   */\n      swap2\n      swap1\n      pop\n      jump\t// out\n        /* \"#utility.yul\":4422:4644   */\n    tag_17:\n        /* \"#utility.yul\":4515:4519   */\n      0x00\n        /* \"#utility.yul\":4553:4555   */\n      0x20\n        /* \"#utility.yul\":4542:4551   */\n      dup3\n        /* \"#utility.yul\":4538:4556   */\n      add\n        /* \"#utility.yul\":4530:4556   */\n      swap1\n      pop\n        /* \"#utility.yul\":4566:4637   */\n      tag_133\n        /* \"#utility.yul\":4634:4635   */\n      0x00\n        /* \"#utility.yul\":4623:4632   */\n      dup4\n        /* \"#utility.yul\":4619:4636   */\n      add\n        /* \"#utility.yul\":4610:4616   */\n      dup5\n        /* \"#utility.yul\":4566:4637   */\n      tag_111\n      jump\t// in\n    tag_133:\n        /* \"#utility.yul\":4422:4644   */\n      swap3\n      swap2\n      pop\n      pop\n      jump\t// out\n        /* \"#utility.yul\":4731:4900   */\n    tag_108:\n        /* \"#utility.yul\":4815:4826   */\n      0x00\n        /* \"#utility.yul\":4849:4855   */\n      dup3\n        /* \"#utility.yul\":4844:4847   */\n      dup3\n        /* \"#utility.yul\":4837:4856   */\n      mstore\n        /* \"#utility.yul\":4889:4893   */\n      0x20\n        /* \"#utility.yul\":4884:4887   */\n      dup3\n        /* \"#utility.yul\":4880:4894   */\n      add\n        /* \"#utility.yul\":4865:4894   */\n      swap1\n      pop\n        /* \"#utility.yul\":4731:4900   */\n      swap3\n      swap2\n      pop\n      pop\n      jump\t// out\n        /* \"#utility.yul\":4906:5211   */\n    tag_64:\n        /* \"#utility.yul\":4946:4949   */\n      0x00\n        /* \"#utility.yul\":4965:4985   */\n      tag_138\n        /* \"#utility.yul\":4983:4984   */\n      dup3\n        /* \"#utility.yul\":4965:4985   */\n      tag_114\n      jump\t// in\n    tag_138:\n        /* \"#utility.yul\":4960:4985   */\n      swap2\n      pop\n        /* \"#utility.yul\":4999:5019   */\n      tag_139\n        /* \"#utility.yul\":5017:5018   */\n      dup4\n        /* \"#utility.yul\":4999:5019   */\n      tag_114\n      jump\t// in\n    tag_139:\n        /* \"#utility.yul\":4994:5019   */\n      swap3\n      pop\n        /* \"#utility.yul\":5153:5154   */\n      dup3\n        /* \"#utility.yul\":5085:5151   */\n      0xffffffffffffffffffffffffffffffffffffffffffffffffffffffffffffffff\n        /* \"#utility.yul\":5081:5155   */\n      sub\n        /* \"#utility.yul\":5078:5079   */\n      dup3\n        /* \"#utility.yul\":5075:5156   */\n      gt\n        /* \"#utility.yul\":5072:5179   */\n      iszero\n      tag_140\n      jumpi\n        /* \"#utility.yul\":5159:5177   */\n      tag_141\n      tag_142\n      jump\t// in\n    tag_141:\n        /* \"#utility.yul\":5072:5179   */\n    tag_140:\n        /* \"#utility.yul\":5203:5204   */\n      dup3\n        /* \"#utility.yul\":5200:5201   */\n      dup3\n        /* \"#utility.yul\":5196:5205   */\n      add\n        /* \"#utility.yul\":5189:5205   */\n      swap1\n      pop\n        /* \"#utility.yul\":4906:5211   */\n      swap3\n      swap2\n      pop\n      pop\n      jump\t// out\n        /* \"#utility.yul\":5217:5313   */\n    tag_96:\n        /* \"#utility.yul\":5254:5261   */\n      0x00\n        /* \"#utility.yul\":5283:5307   */\n      tag_144\n        /* \"#utility.yul\":5301:5306   */\n      dup3\n        /* \"#utility.yul\":5283:5307   */\n      tag_145\n      jump\t// in\n    tag_144:\n        /* \"#utility.yul\":5272:5307   */\n      swap1\n      pop\n        /* \"#utility.yul\":5217:5313   */\n      swap2\n      swap1\n      pop\n      jump\t// out\n        /* \"#utility.yul\":5319:5409   */\n    tag_100:\n        /* \"#utility.yul\":5353:5360   */\n      0x00\n        /* \"#utility.yul\":5396:5401   */\n      dup2\n        /* \"#utility.yul\":5389:5402   */\n      iszero\n        /* \"#utility.yul\":5382:5403   */\n      iszero\n        /* \"#utility.yul\":5371:5403   */\n      swap1\n      pop\n        /* \"#utility.yul\":5319:5409   */\n      swap2\n      swap1\n      pop\n      jump\t// out\n        /* \"#utility.yul\":5415:5541   */\n    tag_145:\n        /* \"#utility.yul\":5452:5459   */\n      0x00\n        /* \"#utility.yul\":5492:5534   */\n      0xffffffffffffffffffffffffffffffffffffffff\n        /* \"#utility.yul\":5485:5490   */\n      dup3\n        /* \"#utility.yul\":5481:5535   */\n      and\n        /* \"#utility.yul\":5470:5535   */\n      swap1\n      pop\n        /* \"#utility.yul\":5415:5541   */\n      swap2\n      swap1\n      pop\n      jump\t// out\n        /* \"#utility.yul\":5547:5624   */\n    tag_114:\n        /* \"#utility.yul\":5584:5591   */\n      0x00\n        /* \"#utility.yul\":5613:5618   */\n      dup2\n        /* \"#utility.yul\":5602:5618   */\n      swap1\n      pop\n        /* \"#utility.yul\":5547:5624   */\n      swap2\n      swap1\n      pop\n      jump\t// out\n        /* \"#utility.yul\":5630:5723   */\n    tag_118:\n        /* \"#utility.yul\":5666:5673   */\n      0x00\n        /* \"#utility.yul\":5706:5716   */\n      0xffffffff\n        /* \"#utility.yul\":5699:5704   */\n      dup3\n        /* \"#utility.yul\":5695:5717   */\n      and\n        /* \"#utility.yul\":5684:5717   */\n      swap1\n      pop\n        /* \"#utility.yul\":5630:5723   */\n      swap2\n      swap1\n      pop\n      jump\t// out\n        /* \"#utility.yul\":5729:5869   */\n    tag_104:\n        /* \"#utility.yul\":5793:5802   */\n      0x00\n        /* \"#utility.yul\":5826:5863   */\n      tag_151\n        /* \"#utility.yul\":5857:5862   */\n      dup3\n        /* \"#utility.yul\":5826:5863   */\n      tag_152\n      jump\t// in\n    tag_151:\n        /* \"#utility.yul\":5813:5863   */\n      swap1\n      pop\n        /* \"#utility.yul\":5729:5869   */\n      swap2\n      swap1\n      pop\n      jump\t// out\n        /* \"#utility.yul\":5875:6001   */\n    tag_152:\n        /* \"#utility.yul\":5925:5934   */\n      0x00\n        /* \"#utility.yul\":5958:5995   */\n      tag_154\n        /* \"#utility.yul\":5989:5994   */\n      dup3\n        /* \"#utility.yul\":5958:5995   */\n      tag_155\n      jump\t// in\n    tag_154:\n        /* \"#utility.yul\":5945:5995   */\n      swap1\n      pop\n        /* \"#utility.yul\":5875:6001   */\n      swap2\n      swap1\n      pop\n      jump\t// out\n        /* \"#utility.yul\":6007:6120   */\n    tag_155:\n        /* \"#utility.yul\":6057:6066   */\n      0x00\n        /* \"#utility.yul\":6090:6114   */\n      tag_157\n        /* \"#utility.yul\":6108:6113   */\n      dup3\n        /* \"#utility.yul\":6090:6114   */\n      tag_145\n      jump\t// in\n    tag_157:\n        /* \"#utility.yul\":6077:6114   */\n      swap1\n      pop\n        /* \"#utility.yul\":6007:6120   */\n      swap2\n      swap1\n      pop\n      jump\t// out\n        /* \"#utility.yul\":6126:6306   */\n    tag_142:\n        /* \"#utility.yul\":6174:6251   */\n      0x4e487b7100000000000000000000000000000000000000000000000000000000\n        /* \"#utility.yul\":6171:6172   */\n      0x00\n        /* \"#utility.yul\":6164:6252   */\n      mstore\n        /* \"#utility.yul\":6271:6275   */\n      0x11\n        /* \"#utility.yul\":6268:6269   */\n      0x04\n        /* \"#utility.yul\":6261:6276   */\n      mstore\n        /* \"#utility.yul\":6295:6299   */\n      0x24\n        /* \"#utility.yul\":6292:6293   */\n      0x00\n        /* \"#utility.yul\":6285:6300   */\n      revert\n        /* \"#utility.yul\":6435:6552   */\n    tag_80:\n        /* \"#utility.yul\":6544:6545   */\n      0x00\n        /* \"#utility.yul\":6541:6542   */\n      dup1\n        /* \"#utility.yul\":6534:6546   */\n      revert\n        /* \"#utility.yul\":6558:6722   */\n    tag_110:\n        /* \"#utility.yul\":6698:6714   */\n      0x7374617274206174203c206e6f77000000000000000000000000000000000000\n        /* \"#utility.yul\":6694:6695   */\n      0x00\n        /* \"#utility.yul\":6686:6692   */\n      dup3\n        /* \"#utility.yul\":6682:6696   */\n      add\n        /* \"#utility.yul\":6675:6715   */\n      mstore\n        /* \"#utility.yul\":6558:6722   */\n      pop\n      jump\t// out\n        /* \"#utility.yul\":6728:6850   */\n    tag_72:\n        /* \"#utility.yul\":6801:6825   */\n      tag_164\n        /* \"#utility.yul\":6819:6824   */\n      dup2\n        /* \"#utility.yul\":6801:6825   */\n      tag_114\n      jump\t// in\n    tag_164:\n        /* \"#utility.yul\":6794:6799   */\n      dup2\n        /* \"#utility.yul\":6791:6826   */\n      eq\n        /* \"#utility.yul\":6781:6844   */\n      tag_165\n      jumpi\n        /* \"#utility.yul\":6840:6841   */\n      0x00\n        /* \"#utility.yul\":6837:6838   */\n      dup1\n        /* \"#utility.yul\":6830:6842   */\n      revert\n        /* \"#utility.yul\":6781:6844   */\n    tag_165:\n        /* \"#utility.yul\":6728:6850   */\n      pop\n      jump\t// out\n        /* \"#utility.yul\":6856:6976   */\n    tag_76:\n        /* \"#utility.yul\":6928:6951   */\n      tag_167\n        /* \"#utility.yul\":6945:6950   */\n      dup2\n        /* \"#utility.yul\":6928:6951   */\n      tag_118\n      jump\t// in\n    tag_167:\n        /* \"#utility.yul\":6921:6926   */\n      dup2\n        /* \"#utility.yul\":6918:6952   */\n      eq\n        /* \"#utility.yul\":6908:6970   */\n      tag_168\n      jumpi\n        /* \"#utility.yul\":6966:6967   */\n      0x00\n        /* \"#utility.yul\":6963:6964   */\n      dup1\n        /* \"#utility.yul\":6956:6968   */\n      revert\n        /* \"#utility.yul\":6908:6970   */\n    tag_168:\n        /* \"#utility.yul\":6856:6976   */\n      pop\n      jump\t// out\n\n    auxdata: 0xa264697066735822122076ddf9fcc320c79c1c7845b2b7c3c9d06f087060cd1bbbf9f1914a3aad5b8b6664736f6c63430008070033\n}\n",
				"bytecode": {
					"linkReferences": {},
					"object": "60a060405234801561001057600080fd5b506040516108e33803806108e383398181016040528101906100329190610084565b8073ffffffffffffffffffffffffffffffffffffffff1660808173ffffffffffffffffffffffffffffffffffffffff1660601b81525050506100ff565b60008151905061007e816100e8565b92915050565b60006020828403121561009a576100996100e3565b5b60006100a88482850161006f565b91505092915050565b60006100bc826100c3565b9050919050565b600073ffffffffffffffffffffffffffffffffffffffff82169050919050565b600080fd5b6100f1816100b1565b81146100fc57600080fd5b50565b60805160601c6107c661011d60003960006103c001526107c66000f3fe608060405234801561001057600080fd5b506004361061009e5760003560e01c8063711853ab11610066578063711853ab1461014a578063daf6994014610166578063f2d57b2114610182578063fc0c546a146101b2578063fde327be146101d05761009e565b806306661abd146100a3578063141961bc146100c1578063278ecde1146100f6578063379607f51461011257806340e58ee51461012e575b600080fd5b6100ab6101ec565b6040516100b891906105f5565b60405180910390f35b6100db60048036038101906100d69190610410565b6101f2565b6040516100ed96959493929190610559565b60405180910390f35b610110600480360381019061010b9190610410565b61027b565b005b61012c60048036038101906101279190610410565b61027e565b005b61014860048036038101906101439190610410565b610281565b005b610164600480360381019061015f919061043d565b610284565b005b610180600480360381019061017b919061047d565b610288565b005b61019c6004803603810190610197919061043d565b61037c565b6040516101a9919061053e565b60405180910390f35b6101ba6103be565b6040516101c791906105ba565b60405180910390f35b6101ea60048036038101906101e5919061043d565b6103e2565b005b60025481565b60006020528060005260406000206000915090508060000160009054906101000a900473ffffffffffffffffffffffffffffffffffffffff16908060010154908060020154908060030160009054906101000a900463ffffffff16908060030160049054906101000a900463ffffffff16908060030160089054906101000a900460ff16905086565b50565b50565b50565b5050565b428263ffffffff1610156102d1576040517f08c379a00000000000000000000000000000000000000000000000000000000081526004016102c8906105d5565b60405180910390fd5b8063ffffffff168263ffffffff161115610320576040517f08c379a0000000000000000000000000000000000000000000000000000000008152600401610317906105d5565b60405180910390fd5b6276a7004261032f9190610621565b8163ffffffff161115610377576040517f08c379a000000000000000000000000000000000000000000000000000000000815260040161036e906105d5565b60405180910390fd5b505050565b60016020528160005260406000206020528060005260406000206000915091509054906101000a900473ffffffffffffffffffffffffffffffffffffffff1681565b7f000000000000000000000000000000000000000000000000000000000000000081565b5050565b6000813590506103f581610762565b92915050565b60008135905061040a81610779565b92915050565b60006020828403121561042657610425610734565b5b6000610434848285016103e6565b91505092915050565b6000806040838503121561045457610453610734565b5b6000610462858286016103e6565b9250506020610473858286016103e6565b9150509250929050565b60008060006060848603121561049657610495610734565b5b60006104a4868287016103e6565b93505060206104b5868287016103fb565b92505060406104c6868287016103fb565b9150509250925092565b6104d981610677565b82525050565b6104e881610689565b82525050565b6104f7816106cf565b82525050565b600061050a600e83610610565b915061051582610739565b602082019050919050565b610529816106b5565b82525050565b610538816106bf565b82525050565b600060208201905061055360008301846104d0565b92915050565b600060c08201905061056e60008301896104d0565b61057b6020830188610520565b6105886040830187610520565b610595606083018661052f565b6105a2608083018561052f565b6105af60a08301846104df565b979650505050505050565b60006020820190506105cf60008301846104ee565b92915050565b600060208201905081810360008301526105ee816104fd565b9050919050565b600060208201905061060a6000830184610520565b92915050565b600082825260208201905092915050565b600061062c826106b5565b9150610637836106b5565b9250827fffffffffffffffffffffffffffffffffffffffffffffffffffffffffffffffff0382111561066c5761066b610705565b5b828201905092915050565b600061068282610695565b9050919050565b60008115159050919050565b600073ffffffffffffffffffffffffffffffffffffffff82169050919050565b6000819050919050565b600063ffffffff82169050919050565b60006106da826106e1565b9050919050565b60006106ec826106f3565b9050919050565b60006106fe82610695565b9050919050565b7f4e487b7100000000000000000000000000000000000000000000000000000000600052601160045260246000fd5b600080fd5b7f7374617274206174203c206e6f77000000000000000000000000000000000000600082015250565b61076b816106b5565b811461077657600080fd5b50565b610782816106bf565b811461078d57600080fd5b5056fea264697066735822122076ddf9fcc320c79c1c7845b2b7c3c9d06f087060cd1bbbf9f1914a3aad5b8b6664736f6c63430008070033",
					"opcodes": "PUSH1 0xA0 PUSH1 0x40 MSTORE CALLVALUE DUP1 ISZERO PUSH2 0x10 JUMPI PUSH1 0x0 DUP1 REVERT JUMPDEST POP PUSH1 0x40 MLOAD PUSH2 0x8E3 CODESIZE SUB DUP1 PUSH2 0x8E3 DUP4 CODECOPY DUP2 DUP2 ADD PUSH1 0x40 MSTORE DUP2 ADD SWAP1 PUSH2 0x32 SWAP2 SWAP1 PUSH2 0x84 JUMP JUMPDEST DUP1 PUSH20 0xFFFFFFFFFFFFFFFFFFFFFFFFFFFFFFFFFFFFFFFF AND PUSH1 0x80 DUP2 PUSH20 0xFFFFFFFFFFFFFFFFFFFFFFFFFFFFFFFFFFFFFFFF AND PUSH1 0x60 SHL DUP2 MSTORE POP POP POP PUSH2 0xFF JUMP JUMPDEST PUSH1 0x0 DUP2 MLOAD SWAP1 POP PUSH2 0x7E DUP2 PUSH2 0xE8 JUMP JUMPDEST SWAP3 SWAP2 POP POP JUMP JUMPDEST PUSH1 0x0 PUSH1 0x20 DUP3 DUP5 SUB SLT ISZERO PUSH2 0x9A JUMPI PUSH2 0x99 PUSH2 0xE3 JUMP JUMPDEST JUMPDEST PUSH1 0x0 PUSH2 0xA8 DUP5 DUP3 DUP6 ADD PUSH2 0x6F JUMP JUMPDEST SWAP2 POP POP SWAP3 SWAP2 POP POP JUMP JUMPDEST PUSH1 0x0 PUSH2 0xBC DUP3 PUSH2 0xC3 JUMP JUMPDEST SWAP1 POP SWAP2 SWAP1 POP JUMP JUMPDEST PUSH1 0x0 PUSH20 0xFFFFFFFFFFFFFFFFFFFFFFFFFFFFFFFFFFFFFFFF DUP3 AND SWAP1 POP SWAP2 SWAP1 POP JUMP JUMPDEST PUSH1 0x0 DUP1 REVERT JUMPDEST PUSH2 0xF1 DUP2 PUSH2 0xB1 JUMP JUMPDEST DUP2 EQ PUSH2 0xFC JUMPI PUSH1 0x0 DUP1 REVERT JUMPDEST POP JUMP JUMPDEST PUSH1 0x80 MLOAD PUSH1 0x60 SHR PUSH2 0x7C6 PUSH2 0x11D PUSH1 0x0 CODECOPY PUSH1 0x0 PUSH2 0x3C0 ADD MSTORE PUSH2 0x7C6 PUSH1 0x0 RETURN INVALID PUSH1 0x80 PUSH1 0x40 MSTORE CALLVALUE DUP1 ISZERO PUSH2 0x10 JUMPI PUSH1 0x0 DUP1 REVERT JUMPDEST POP PUSH1 0x4 CALLDATASIZE LT PUSH2 0x9E JUMPI PUSH1 0x0 CALLDATALOAD PUSH1 0xE0 SHR DUP1 PUSH4 0x711853AB GT PUSH2 0x66 JUMPI DUP1 PUSH4 0x711853AB EQ PUSH2 0x14A JUMPI DUP1 PUSH4 0xDAF69940 EQ PUSH2 0x166 JUMPI DUP1 PUSH4 0xF2D57B21 EQ PUSH2 0x182 JUMPI DUP1 PUSH4 0xFC0C546A EQ PUSH2 0x1B2 JUMPI DUP1 PUSH4 0xFDE327BE EQ PUSH2 0x1D0 JUMPI PUSH2 0x9E JUMP JUMPDEST DUP1 PUSH4 0x6661ABD EQ PUSH2 0xA3 JUMPI DUP1 PUSH4 0x141961BC EQ PUSH2 0xC1 JUMPI DUP1 PUSH4 0x278ECDE1 EQ PUSH2 0xF6 JUMPI DUP1 PUSH4 0x379607F5 EQ PUSH2 0x112 JUMPI DUP1 PUSH4 0x40E58EE5 EQ PUSH2 0x12E JUMPI JUMPDEST PUSH1 0x0 DUP1 REVERT JUMPDEST PUSH2 0xAB PUSH2 0x1EC JUMP JUMPDEST PUSH1 0x40 MLOAD PUSH2 0xB8 SWAP2 SWAP1 PUSH2 0x5F5 JUMP JUMPDEST PUSH1 0x40 MLOAD DUP1 SWAP2 SUB SWAP1 RETURN JUMPDEST PUSH2 0xDB PUSH1 0x4 DUP1 CALLDATASIZE SUB DUP2 ADD SWAP1 PUSH2 0xD6 SWAP2 SWAP1 PUSH2 0x410 JUMP JUMPDEST PUSH2 0x1F2 JUMP JUMPDEST PUSH1 0x40 MLOAD PUSH2 0xED SWAP7 SWAP6 SWAP5 SWAP4 SWAP3 SWAP2 SWAP1 PUSH2 0x559 JUMP JUMPDEST PUSH1 0x40 MLOAD DUP1 SWAP2 SUB SWAP1 RETURN JUMPDEST PUSH2 0x110 PUSH1 0x4 DUP1 CALLDATASIZE SUB DUP2 ADD SWAP1 PUSH2 0x10B SWAP2 SWAP1 PUSH2 0x410 JUMP JUMPDEST PUSH2 0x27B JUMP JUMPDEST STOP JUMPDEST PUSH2 0x12C PUSH1 0x4 DUP1 CALLDATASIZE SUB DUP2 ADD SWAP1 PUSH2 0x127 SWAP2 SWAP1 PUSH2 0x410 JUMP JUMPDEST PUSH2 0x27E JUMP JUMPDEST STOP JUMPDEST PUSH2 0x148 PUSH1 0x4 DUP1 CALLDATASIZE SUB DUP2 ADD SWAP1 PUSH2 0x143 SWAP2 SWAP1 PUSH2 0x410 JUMP JUMPDEST PUSH2 0x281 JUMP JUMPDEST STOP JUMPDEST PUSH2 0x164 PUSH1 0x4 DUP1 CALLDATASIZE SUB DUP2 ADD SWAP1 PUSH2 0x15F SWAP2 SWAP1 PUSH2 0x43D JUMP JUMPDEST PUSH2 0x284 JUMP JUMPDEST STOP JUMPDEST PUSH2 0x180 PUSH1 0x4 DUP1 CALLDATASIZE SUB DUP2 ADD SWAP1 PUSH2 0x17B SWAP2 SWAP1 PUSH2 0x47D JUMP JUMPDEST PUSH2 0x288 JUMP JUMPDEST STOP JUMPDEST PUSH2 0x19C PUSH1 0x4 DUP1 CALLDATASIZE SUB DUP2 ADD SWAP1 PUSH2 0x197 SWAP2 SWAP1 PUSH2 0x43D JUMP JUMPDEST PUSH2 0x37C JUMP JUMPDEST PUSH1 0x40 MLOAD PUSH2 0x1A9 SWAP2 SWAP1 PUSH2 0x53E JUMP JUMPDEST PUSH1 0x40 MLOAD DUP1 SWAP2 SUB SWAP1 RETURN JUMPDEST PUSH2 0x1BA PUSH2 0x3BE JUMP JUMPDEST PUSH1 0x40 MLOAD PUSH2 0x1C7 SWAP2 SWAP1 PUSH2 0x5BA JUMP JUMPDEST PUSH1 0x40 MLOAD DUP1 SWAP2 SUB SWAP1 RETURN JUMPDEST PUSH2 0x1EA PUSH1 0x4 DUP1 CALLDATASIZE SUB DUP2 ADD SWAP1 PUSH2 0x1E5 SWAP2 SWAP1 PUSH2 0x43D JUMP JUMPDEST PUSH2 0x3E2 JUMP JUMPDEST STOP JUMPDEST PUSH1 0x2 SLOAD DUP2 JUMP JUMPDEST PUSH1 0x0 PUSH1 0x20 MSTORE DUP1 PUSH1 0x0 MSTORE PUSH1 0x40 PUSH1 0x0 KECCAK256 PUSH1 0x0 SWAP2 POP SWAP1 POP DUP1 PUSH1 0x0 ADD PUSH1 0x0 SWAP1 SLOAD SWAP1 PUSH2 0x100 EXP SWAP1 DIV PUSH20 0xFFFFFFFFFFFFFFFFFFFFFFFFFFFFFFFFFFFFFFFF AND SWAP1 DUP1 PUSH1 0x1 ADD SLOAD SWAP1 DUP1 PUSH1 0x2 ADD SLOAD SWAP1 DUP1 PUSH1 0x3 ADD PUSH1 0x0 SWAP1 SLOAD SWAP1 PUSH2 0x100 EXP SWAP1 DIV PUSH4 0xFFFFFFFF AND SWAP1 DUP1 PUSH1 0x3 ADD PUSH1 0x4 SWAP1 SLOAD SWAP1 PUSH2 0x100 EXP SWAP1 DIV PUSH4 0xFFFFFFFF AND SWAP1 DUP1 PUSH1 0x3 ADD PUSH1 0x8 SWAP1 SLOAD SWAP1 PUSH2 0x100 EXP SWAP1 DIV PUSH1 0xFF AND SWAP1 POP DUP7 JUMP JUMPDEST POP JUMP JUMPDEST POP JUMP JUMPDEST POP JUMP JUMPDEST POP POP JUMP JUMPDEST TIMESTAMP DUP3 PUSH4 0xFFFFFFFF AND LT ISZERO PUSH2 0x2D1 JUMPI PUSH1 0x40 MLOAD PUSH32 0x8C379A000000000000000000000000000000000000000000000000000000000 DUP2 MSTORE PUSH1 0x4 ADD PUSH2 0x2C8 SWAP1 PUSH2 0x5D5 JUMP JUMPDEST PUSH1 0x40 MLOAD DUP1 SWAP2 SUB SWAP1 REVERT JUMPDEST DUP1 PUSH4 0xFFFFFFFF AND DUP3 PUSH4 0xFFFFFFFF AND GT ISZERO PUSH2 0x320 JUMPI PUSH1 0x40 MLOAD PUSH32 0x8C379A000000000000000000000000000000000000000000000000000000000 DUP2 MSTORE PUSH1 0x4 ADD PUSH2 0x317 SWAP1 PUSH2 0x5D5 JUMP JUMPDEST PUSH1 0x40 MLOAD DUP1 SWAP2 SUB SWAP1 REVERT JUMPDEST PUSH3 0x76A700 TIMESTAMP PUSH2 0x32F SWAP2 SWAP1 PUSH2 0x621 JUMP JUMPDEST DUP2 PUSH4 0xFFFFFFFF AND GT ISZERO PUSH2 0x377 JUMPI PUSH1 0x40 MLOAD PUSH32 0x8C379A000000000000000000000000000000000000000000000000000000000 DUP2 MSTORE PUSH1 0x4 ADD PUSH2 0x36E SWAP1 PUSH2 0x5D5 JUMP JUMPDEST PUSH1 0x40 MLOAD DUP1 SWAP2 SUB SWAP1 REVERT JUMPDEST POP POP POP JUMP JUMPDEST PUSH1 0x1 PUSH1 0x20 MSTORE DUP2 PUSH1 0x0 MSTORE PUSH1 0x40 PUSH1 0x0 KECCAK256 PUSH1 0x20 MSTORE DUP1 PUSH1 0x0 MSTORE PUSH1 0x40 PUSH1 0x0 KECCAK256 PUSH1 0x0 SWAP2 POP SWAP2 POP SWAP1 SLOAD SWAP1 PUSH2 0x100 EXP SWAP1 DIV PUSH20 0xFFFFFFFFFFFFFFFFFFFFFFFFFFFFFFFFFFFFFFFF AND DUP2 JUMP JUMPDEST PUSH32 0x0 DUP2 JUMP JUMPDEST POP POP JUMP JUMPDEST PUSH1 0x0 DUP2 CALLDATALOAD SWAP1 POP PUSH2 0x3F5 DUP2 PUSH2 0x762 JUMP JUMPDEST SWAP3 SWAP2 POP POP JUMP JUMPDEST PUSH1 0x0 DUP2 CALLDATALOAD SWAP1 POP PUSH2 0x40A DUP2 PUSH2 0x779 JUMP JUMPDEST SWAP3 SWAP2 POP POP JUMP JUMPDEST PUSH1 0x0 PUSH1 0x20 DUP3 DUP5 SUB SLT ISZERO PUSH2 0x426 JUMPI PUSH2 0x425 PUSH2 0x734 JUMP JUMPDEST JUMPDEST PUSH1 0x0 PUSH2 0x434 DUP5 DUP3 DUP6 ADD PUSH2 0x3E6 JUMP JUMPDEST SWAP2 POP POP SWAP3 SWAP2 POP POP JUMP JUMPDEST PUSH1 0x0 DUP1 PUSH1 0x40 DUP4 DUP6 SUB SLT ISZERO PUSH2 0x454 JUMPI PUSH2 0x453 PUSH2 0x734 JUMP JUMPDEST JUMPDEST PUSH1 0x0 PUSH2 0x462 DUP6 DUP3 DUP7 ADD PUSH2 0x3E6 JUMP JUMPDEST SWAP3 POP POP PUSH1 0x20 PUSH2 0x473 DUP6 DUP3 DUP7 ADD PUSH2 0x3E6 JUMP JUMPDEST SWAP2 POP POP SWAP3 POP SWAP3 SWAP1 POP JUMP JUMPDEST PUSH1 0x0 DUP1 PUSH1 0x0 PUSH1 0x60 DUP5 DUP7 SUB SLT ISZERO PUSH2 0x496 JUMPI PUSH2 0x495 PUSH2 0x734 JUMP JUMPDEST JUMPDEST PUSH1 0x0 PUSH2 0x4A4 DUP7 DUP3 DUP8 ADD PUSH2 0x3E6 JUMP JUMPDEST SWAP4 POP POP PUSH1 0x20 PUSH2 0x4B5 DUP7 DUP3 DUP8 ADD PUSH2 0x3FB JUMP JUMPDEST SWAP3 POP POP PUSH1 0x40 PUSH2 0x4C6 DUP7 DUP3 DUP8 ADD PUSH2 0x3FB JUMP JUMPDEST SWAP2 POP POP SWAP3 POP SWAP3 POP SWAP3 JUMP JUMPDEST PUSH2 0x4D9 DUP2 PUSH2 0x677 JUMP JUMPDEST DUP3 MSTORE POP POP JUMP JUMPDEST PUSH2 0x4E8 DUP2 PUSH2 0x689 JUMP JUMPDEST DUP3 MSTORE POP POP JUMP JUMPDEST PUSH2 0x4F7 DUP2 PUSH2 0x6CF JUMP JUMPDEST DUP3 MSTORE POP POP JUMP JUMPDEST PUSH1 0x0 PUSH2 0x50A PUSH1 0xE DUP4 PUSH2 0x610 JUMP JUMPDEST SWAP2 POP PUSH2 0x515 DUP3 PUSH2 0x739 JUMP JUMPDEST PUSH1 0x20 DUP3 ADD SWAP1 POP SWAP2 SWAP1 POP JUMP JUMPDEST PUSH2 0x529 DUP2 PUSH2 0x6B5 JUMP JUMPDEST DUP3 MSTORE POP POP JUMP JUMPDEST PUSH2 0x538 DUP2 PUSH2 0x6BF JUMP JUMPDEST DUP3 MSTORE POP POP JUMP JUMPDEST PUSH1 0x0 PUSH1 0x20 DUP3 ADD SWAP1 POP PUSH2 0x553 PUSH1 0x0 DUP4 ADD DUP5 PUSH2 0x4D0 JUMP JUMPDEST SWAP3 SWAP2 POP POP JUMP JUMPDEST PUSH1 0x0 PUSH1 0xC0 DUP3 ADD SWAP1 POP PUSH2 0x56E PUSH1 0x0 DUP4 ADD DUP10 PUSH2 0x4D0 JUMP JUMPDEST PUSH2 0x57B PUSH1 0x20 DUP4 ADD DUP9 PUSH2 0x520 JUMP JUMPDEST PUSH2 0x588 PUSH1 0x40 DUP4 ADD DUP8 PUSH2 0x520 JUMP JUMPDEST PUSH2 0x595 PUSH1 0x60 DUP4 ADD DUP7 PUSH2 0x52F JUMP JUMPDEST PUSH2 0x5A2 PUSH1 0x80 DUP4 ADD DUP6 PUSH2 0x52F JUMP JUMPDEST PUSH2 0x5AF PUSH1 0xA0 DUP4 ADD DUP5 PUSH2 0x4DF JUMP JUMPDEST SWAP8 SWAP7 POP POP POP POP POP POP POP JUMP JUMPDEST PUSH1 0x0 PUSH1 0x20 DUP3 ADD SWAP1 POP PUSH2 0x5CF PUSH1 0x0 DUP4 ADD DUP5 PUSH2 0x4EE JUMP JUMPDEST SWAP3 SWAP2 POP POP JUMP JUMPDEST PUSH1 0x0 PUSH1 0x20 DUP3 ADD SWAP1 POP DUP2 DUP2 SUB PUSH1 0x0 DUP4 ADD MSTORE PUSH2 0x5EE DUP2 PUSH2 0x4FD JUMP JUMPDEST SWAP1 POP SWAP2 SWAP1 POP JUMP JUMPDEST PUSH1 0x0 PUSH1 0x20 DUP3 ADD SWAP1 POP PUSH2 0x60A PUSH1 0x0 DUP4 ADD DUP5 PUSH2 0x520 JUMP JUMPDEST SWAP3 SWAP2 POP POP JUMP JUMPDEST PUSH1 0x0 DUP3 DUP3 MSTORE PUSH1 0x20 DUP3 ADD SWAP1 POP SWAP3 SWAP2 POP POP JUMP JUMPDEST PUSH1 0x0 PUSH2 0x62C DUP3 PUSH2 0x6B5 JUMP JUMPDEST SWAP2 POP PUSH2 0x637 DUP4 PUSH2 0x6B5 JUMP JUMPDEST SWAP3 POP DUP3 PUSH32 0xFFFFFFFFFFFFFFFFFFFFFFFFFFFFFFFFFFFFFFFFFFFFFFFFFFFFFFFFFFFFFFFF SUB DUP3 GT ISZERO PUSH2 0x66C JUMPI PUSH2 0x66B PUSH2 0x705 JUMP JUMPDEST JUMPDEST DUP3 DUP3 ADD SWAP1 POP SWAP3 SWAP2 POP POP JUMP JUMPDEST PUSH1 0x0 PUSH2 0x682 DUP3 PUSH2 0x695 JUMP JUMPDEST SWAP1 POP SWAP2 SWAP1 POP JUMP JUMPDEST PUSH1 0x0 DUP2 ISZERO ISZERO SWAP1 POP SWAP2 SWAP1 POP JUMP JUMPDEST PUSH1 0x0 PUSH20 0xFFFFFFFFFFFFFFFFFFFFFFFFFFFFFFFFFFFFFFFF DUP3 AND SWAP1 POP SWAP2 SWAP1 POP JUMP JUMPDEST PUSH1 0x0 DUP2 SWAP1 POP SWAP2 SWAP1 POP JUMP JUMPDEST PUSH1 0x0 PUSH4 0xFFFFFFFF DUP3 AND SWAP1 POP SWAP2 SWAP1 POP JUMP JUMPDEST PUSH1 0x0 PUSH2 0x6DA DUP3 PUSH2 0x6E1 JUMP JUMPDEST SWAP1 POP SWAP2 SWAP1 POP JUMP JUMPDEST PUSH1 0x0 PUSH2 0x6EC DUP3 PUSH2 0x6F3 JUMP JUMPDEST SWAP1 POP SWAP2 SWAP1 POP JUMP JUMPDEST PUSH1 0x0 PUSH2 0x6FE DUP3 PUSH2 0x695 JUMP JUMPDEST SWAP1 POP SWAP2 SWAP1 POP JUMP JUMPDEST PUSH32 0x4E487B7100000000000000000000000000000000000000000000000000000000 PUSH1 0x0 MSTORE PUSH1 0x11 PUSH1 0x4 MSTORE PUSH1 0x24 PUSH1 0x0 REVERT JUMPDEST PUSH1 0x0 DUP1 REVERT JUMPDEST PUSH32 0x7374617274206174203C206E6F77000000000000000000000000000000000000 PUSH1 0x0 DUP3 ADD MSTORE POP JUMP JUMPDEST PUSH2 0x76B DUP2 PUSH2 0x6B5 JUMP JUMPDEST DUP2 EQ PUSH2 0x776 JUMPI PUSH1 0x0 DUP1 REVERT JUMPDEST POP JUMP JUMPDEST PUSH2 0x782 DUP2 PUSH2 0x6BF JUMP JUMPDEST DUP2 EQ PUSH2 0x78D JUMPI PUSH1 0x0 DUP1 REVERT JUMPDEST POP JUMP INVALID LOG2 PUSH5 0x6970667358 0x22 SLT KECCAK256 PUSH23 0xDDF9FCC320C79C1C7845B2B7C3C9D06F087060CD1BBBF9 CALL SWAP2 0x4A GASPRICE 0xAD JUMPDEST DUP12 PUSH7 0x64736F6C634300 ADDMOD SMOD STOP CALLER "
				},
				"gasEstimates": {
					"creation": {
						"codeDepositCost": "398000",
						"executionCost": "infinite",
						"totalCost": "infinite"
					},
					"external": {
						"campaigns(uint256)": "infinite",
						"cancel(uint256)": "495",
						"claim(uint256)": "473",
						"count()": "2430",
						"lunch(uint256,uint32,uint32)": "infinite",
						"plagedAmount(uint256,uint256)": "infinite",
						"pledge(uint256,uint256)": "infinite",
						"refund(uint256)": "451",
						"token()": "infinite",
						"unpledge(uint256,uint256)": "infinite"
					}
				},
				"methodIdentifiers": {
					"campaigns(uint256)": "141961bc",
					"cancel(uint256)": "40e58ee5",
					"claim(uint256)": "379607f5",
					"count()": "06661abd",
					"lunch(uint256,uint32,uint32)": "daf69940",
					"plagedAmount(uint256,uint256)": "f2d57b21",
					"pledge(uint256,uint256)": "fde327be",
					"refund(uint256)": "278ecde1",
					"token()": "fc0c546a",
					"unpledge(uint256,uint256)": "711853ab"
				}
			},
			"storageLayout": {
				"storage": [
					{
						"astId": 23,
						"contract": "CrowdFund.sol:CrowdFund",
						"label": "campaigns",
						"offset": 0,
						"slot": "0",
						"type": "t_mapping(t_uint256,t_struct(Campaign)15_storage)"
					},
					{
						"astId": 29,
						"contract": "CrowdFund.sol:CrowdFund",
						"label": "plagedAmount",
						"offset": 0,
						"slot": "1",
						"type": "t_mapping(t_uint256,t_mapping(t_uint256,t_address))"
					},
					{
						"astId": 31,
						"contract": "CrowdFund.sol:CrowdFund",
						"label": "count",
						"offset": 0,
						"slot": "2",
						"type": "t_uint256"
					}
				],
				"types": {
					"t_address": {
						"encoding": "inplace",
						"label": "address",
						"numberOfBytes": "20"
					},
					"t_bool": {
						"encoding": "inplace",
						"label": "bool",
						"numberOfBytes": "1"
					},
					"t_mapping(t_uint256,t_address)": {
						"encoding": "mapping",
						"key": "t_uint256",
						"label": "mapping(uint256 => address)",
						"numberOfBytes": "32",
						"value": "t_address"
					},
					"t_mapping(t_uint256,t_mapping(t_uint256,t_address))": {
						"encoding": "mapping",
						"key": "t_uint256",
						"label": "mapping(uint256 => mapping(uint256 => address))",
						"numberOfBytes": "32",
						"value": "t_mapping(t_uint256,t_address)"
					},
					"t_mapping(t_uint256,t_struct(Campaign)15_storage)": {
						"encoding": "mapping",
						"key": "t_uint256",
						"label": "mapping(uint256 => struct CrowdFund.Campaign)",
						"numberOfBytes": "32",
						"value": "t_struct(Campaign)15_storage"
					},
					"t_struct(Campaign)15_storage": {
						"encoding": "inplace",
						"label": "struct CrowdFund.Campaign",
						"members": [
							{
								"astId": 4,
								"contract": "CrowdFund.sol:CrowdFund",
								"label": "creator",
								"offset": 0,
								"slot": "0",
								"type": "t_address"
							},
							{
								"astId": 6,
								"contract": "CrowdFund.sol:CrowdFund",
								"label": "goal",
								"offset": 0,
								"slot": "1",
								"type": "t_uint256"
							},
							{
								"astId": 8,
								"contract": "CrowdFund.sol:CrowdFund",
								"label": "pledged",
								"offset": 0,
								"slot": "2",
								"type": "t_uint256"
							},
							{
								"astId": 10,
								"contract": "CrowdFund.sol:CrowdFund",
								"label": "startAt",
								"offset": 0,
								"slot": "3",
								"type": "t_uint32"
							},
							{
								"astId": 12,
								"contract": "CrowdFund.sol:CrowdFund",
								"label": "endAt",
								"offset": 4,
								"slot": "3",
								"type": "t_uint32"
							},
							{
								"astId": 14,
								"contract": "CrowdFund.sol:CrowdFund",
								"label": "claimed",
								"offset": 8,
								"slot": "3",
								"type": "t_bool"
							}
						],
						"numberOfBytes": "128"
					},
					"t_uint256": {
						"encoding": "inplace",
						"label": "uint256",
						"numberOfBytes": "32"
					},
					"t_uint32": {
						"encoding": "inplace",
						"label": "uint32",
						"numberOfBytes": "4"
					}
				}
			},
			"userdoc": {
				"kind": "user",
				"methods": {},
				"version": 1
			}
		}
	}
}